{
	"griffins/backend/contracts/oracleContract.sol": {
		"FetchFromArray": {
			"abi": [
				{
					"inputs": [],
					"stateMutability": "nonpayable",
					"type": "constructor"
				},
				{
					"anonymous": false,
					"inputs": [
						{
							"indexed": true,
							"internalType": "bytes32",
							"name": "id",
							"type": "bytes32"
						}
					],
					"name": "ChainlinkCancelled",
					"type": "event"
				},
				{
					"anonymous": false,
					"inputs": [
						{
							"indexed": true,
							"internalType": "bytes32",
							"name": "id",
							"type": "bytes32"
						}
					],
					"name": "ChainlinkFulfilled",
					"type": "event"
				},
				{
					"anonymous": false,
					"inputs": [
						{
							"indexed": true,
							"internalType": "bytes32",
							"name": "id",
							"type": "bytes32"
						}
					],
					"name": "ChainlinkRequested",
					"type": "event"
				},
				{
					"anonymous": false,
					"inputs": [
						{
							"indexed": true,
							"internalType": "address",
							"name": "from",
							"type": "address"
						},
						{
							"indexed": true,
							"internalType": "address",
							"name": "to",
							"type": "address"
						}
					],
					"name": "OwnershipTransferRequested",
					"type": "event"
				},
				{
					"anonymous": false,
					"inputs": [
						{
							"indexed": true,
							"internalType": "address",
							"name": "from",
							"type": "address"
						},
						{
							"indexed": true,
							"internalType": "address",
							"name": "to",
							"type": "address"
						}
					],
					"name": "OwnershipTransferred",
					"type": "event"
				},
				{
					"anonymous": false,
					"inputs": [
						{
							"indexed": false,
							"internalType": "bool",
							"name": "status",
							"type": "bool"
						}
					],
					"name": "StatusEvent",
					"type": "event"
				},
				{
					"inputs": [],
					"name": "acceptOwnership",
					"outputs": [],
					"stateMutability": "nonpayable",
					"type": "function"
				},
				{
					"inputs": [],
					"name": "convertCurrency",
					"outputs": [
						{
							"internalType": "bytes32",
							"name": "requestId",
							"type": "bytes32"
						}
					],
					"stateMutability": "nonpayable",
					"type": "function"
				},
				{
					"inputs": [],
					"name": "convertedCurrency",
					"outputs": [
						{
							"internalType": "uint256",
							"name": "",
							"type": "uint256"
						}
					],
					"stateMutability": "view",
					"type": "function"
				},
				{
					"inputs": [
						{
							"internalType": "bytes32",
							"name": "_requestId",
							"type": "bytes32"
						},
						{
							"internalType": "uint256",
							"name": "_convertedCurrency",
							"type": "uint256"
						}
					],
					"name": "fulfillCurrencyConverter",
					"outputs": [],
					"stateMutability": "nonpayable",
					"type": "function"
				},
				{
					"inputs": [
						{
							"internalType": "bytes32",
							"name": "_requestId",
							"type": "bytes32"
						},
						{
							"internalType": "string",
							"name": "_stockCurrency",
							"type": "string"
						}
					],
					"name": "fulfillStockCurrency",
					"outputs": [],
					"stateMutability": "nonpayable",
					"type": "function"
				},
				{
					"inputs": [
						{
							"internalType": "bytes32",
							"name": "_requestId",
							"type": "bytes32"
						},
						{
							"internalType": "uint256",
							"name": "_stockPrice",
							"type": "uint256"
						}
					],
					"name": "fulfillStockPrice",
					"outputs": [],
					"stateMutability": "nonpayable",
					"type": "function"
				},
				{
					"inputs": [
						{
							"internalType": "string",
							"name": "symbol",
							"type": "string"
						}
					],
					"name": "getStockCurrency",
					"outputs": [
						{
							"internalType": "bytes32",
							"name": "requestId",
							"type": "bytes32"
						}
					],
					"stateMutability": "nonpayable",
					"type": "function"
				},
				{
					"inputs": [
						{
							"internalType": "string",
							"name": "symbol",
							"type": "string"
						}
					],
					"name": "getStockPrice",
					"outputs": [
						{
							"internalType": "bytes32",
							"name": "requestId",
							"type": "bytes32"
						}
					],
					"stateMutability": "nonpayable",
					"type": "function"
				},
				{
					"inputs": [],
					"name": "owner",
					"outputs": [
						{
							"internalType": "address",
							"name": "",
							"type": "address"
						}
					],
					"stateMutability": "view",
					"type": "function"
				},
				{
					"inputs": [],
					"name": "selectedAmount",
					"outputs": [
						{
							"internalType": "uint256",
							"name": "",
							"type": "uint256"
						}
					],
					"stateMutability": "view",
					"type": "function"
				},
				{
					"inputs": [],
					"name": "stockCurrency",
					"outputs": [
						{
							"internalType": "string",
							"name": "",
							"type": "string"
						}
					],
					"stateMutability": "view",
					"type": "function"
				},
				{
					"inputs": [],
					"name": "stockPrice",
					"outputs": [
						{
							"internalType": "uint256",
							"name": "",
							"type": "uint256"
						}
					],
					"stateMutability": "view",
					"type": "function"
				},
				{
					"inputs": [
						{
							"internalType": "address",
							"name": "to",
							"type": "address"
						}
					],
					"name": "transferOwnership",
					"outputs": [],
					"stateMutability": "nonpayable",
					"type": "function"
				},
				{
					"inputs": [
						{
							"internalType": "string",
							"name": "symbol",
							"type": "string"
						},
						{
							"internalType": "uint256",
							"name": "selectedUnits",
							"type": "uint256"
						}
					],
					"name": "validateTransaction",
					"outputs": [],
					"stateMutability": "payable",
					"type": "function"
				}
			],
			"devdoc": {
				"kind": "dev",
				"methods": {},
				"version": 1
			},
			"evm": {
				"assembly": "    /* \"griffins/backend/contracts/oracleContract.sol\":455:3907  contract FetchFromArray is ChainlinkClient, ConfirmedOwner{... */\n  mstore(0x40, 0x80)\n    /* \"https://github.com/smartcontractkit/chainlink/blob/develop/contracts/src/v0.8/ChainlinkClient.sol\":1291:1292  1 */\n  0x01\n    /* \"https://github.com/smartcontractkit/chainlink/blob/develop/contracts/src/v0.8/ChainlinkClient.sol\":1258:1292  uint256 private s_requestCount = 1 */\n  0x04\n  sstore\n    /* \"griffins/backend/contracts/oracleContract.sol\":781:1068  constructor() ConfirmedOwner(msg.sender) {... */\n  callvalue\n  dup1\n  iszero\n  tag_1\n  jumpi\n  0x00\n  dup1\n  revert\ntag_1:\n  pop\n    /* \"griffins/backend/contracts/oracleContract.sol\":810:820  msg.sender */\n  caller\n    /* \"https://github.com/smartcontractkit/chainlink/blob/develop/contracts/src/v0.8/ConfirmedOwner.sol\":327:335  newOwner */\n  dup1\n    /* \"https://github.com/smartcontractkit/chainlink/blob/develop/contracts/src/v0.8/ConfirmedOwner.sol\":345:346  0 */\n  0x00\n    /* \"https://github.com/smartcontractkit/chainlink/blob/develop/contracts/src/v0.8/ConfirmedOwnerWithProposal.sol\":572:573  0 */\n  dup1\n    /* \"https://github.com/smartcontractkit/chainlink/blob/develop/contracts/src/v0.8/ConfirmedOwnerWithProposal.sol\":552:574  newOwner != address(0) */\n  0xffffffffffffffffffffffffffffffffffffffff\n  and\n    /* \"https://github.com/smartcontractkit/chainlink/blob/develop/contracts/src/v0.8/ConfirmedOwnerWithProposal.sol\":552:560  newOwner */\n  dup3\n    /* \"https://github.com/smartcontractkit/chainlink/blob/develop/contracts/src/v0.8/ConfirmedOwnerWithProposal.sol\":552:574  newOwner != address(0) */\n  0xffffffffffffffffffffffffffffffffffffffff\n  and\n  eq\n  iszero\n    /* \"https://github.com/smartcontractkit/chainlink/blob/develop/contracts/src/v0.8/ConfirmedOwnerWithProposal.sol\":544:603  require(newOwner != address(0), \"Cannot set owner to zero\") */\n  tag_6\n  jumpi\n  mload(0x40)\n  0x08c379a000000000000000000000000000000000000000000000000000000000\n  dup2\n  mstore\n  0x04\n  add\n  tag_7\n  swap1\n  tag_8\n  jump\t// in\ntag_7:\n  mload(0x40)\n  dup1\n  swap2\n  sub\n  swap1\n  revert\ntag_6:\n    /* \"https://github.com/smartcontractkit/chainlink/blob/develop/contracts/src/v0.8/ConfirmedOwnerWithProposal.sol\":620:628  newOwner */\n  dup2\n    /* \"https://github.com/smartcontractkit/chainlink/blob/develop/contracts/src/v0.8/ConfirmedOwnerWithProposal.sol\":610:617  s_owner */\n  0x06\n  0x00\n    /* \"https://github.com/smartcontractkit/chainlink/blob/develop/contracts/src/v0.8/ConfirmedOwnerWithProposal.sol\":610:628  s_owner = newOwner */\n  0x0100\n  exp\n  dup2\n  sload\n  dup2\n  0xffffffffffffffffffffffffffffffffffffffff\n  mul\n  not\n  and\n  swap1\n  dup4\n  0xffffffffffffffffffffffffffffffffffffffff\n  and\n  mul\n  or\n  swap1\n  sstore\n  pop\n    /* \"https://github.com/smartcontractkit/chainlink/blob/develop/contracts/src/v0.8/ConfirmedOwnerWithProposal.sol\":662:663  0 */\n  0x00\n    /* \"https://github.com/smartcontractkit/chainlink/blob/develop/contracts/src/v0.8/ConfirmedOwnerWithProposal.sol\":638:664  pendingOwner != address(0) */\n  0xffffffffffffffffffffffffffffffffffffffff\n  and\n    /* \"https://github.com/smartcontractkit/chainlink/blob/develop/contracts/src/v0.8/ConfirmedOwnerWithProposal.sol\":638:650  pendingOwner */\n  dup2\n    /* \"https://github.com/smartcontractkit/chainlink/blob/develop/contracts/src/v0.8/ConfirmedOwnerWithProposal.sol\":638:664  pendingOwner != address(0) */\n  0xffffffffffffffffffffffffffffffffffffffff\n  and\n  eq\n    /* \"https://github.com/smartcontractkit/chainlink/blob/develop/contracts/src/v0.8/ConfirmedOwnerWithProposal.sol\":634:713  if (pendingOwner != address(0)) {... */\n  tag_9\n  jumpi\n    /* \"https://github.com/smartcontractkit/chainlink/blob/develop/contracts/src/v0.8/ConfirmedOwnerWithProposal.sol\":674:706  _transferOwnership(pendingOwner) */\n  tag_10\n    /* \"https://github.com/smartcontractkit/chainlink/blob/develop/contracts/src/v0.8/ConfirmedOwnerWithProposal.sol\":693:705  pendingOwner */\n  dup2\n    /* \"https://github.com/smartcontractkit/chainlink/blob/develop/contracts/src/v0.8/ConfirmedOwnerWithProposal.sol\":674:692  _transferOwnership */\n  shl(0x20, tag_11)\n    /* \"https://github.com/smartcontractkit/chainlink/blob/develop/contracts/src/v0.8/ConfirmedOwnerWithProposal.sol\":674:706  _transferOwnership(pendingOwner) */\n  0x20\n  shr\n  jump\t// in\ntag_10:\n    /* \"https://github.com/smartcontractkit/chainlink/blob/develop/contracts/src/v0.8/ConfirmedOwnerWithProposal.sol\":634:713  if (pendingOwner != address(0)) {... */\ntag_9:\n    /* \"https://github.com/smartcontractkit/chainlink/blob/develop/contracts/src/v0.8/ConfirmedOwnerWithProposal.sol\":486:717  constructor(address newOwner, address pendingOwner) {... */\n  pop\n  pop\n    /* \"https://github.com/smartcontractkit/chainlink/blob/develop/contracts/src/v0.8/ConfirmedOwner.sol\":270:351  constructor(address newOwner) ConfirmedOwnerWithProposal(newOwner, address(0)) {} */\n  pop\n    /* \"griffins/backend/contracts/oracleContract.sol\":832:893  setChainlinkToken(0x326C977E6efc84E512bB9C30f76E30c160eD06FB) */\n  tag_14\n    /* \"griffins/backend/contracts/oracleContract.sol\":850:892  0x326C977E6efc84E512bB9C30f76E30c160eD06FB */\n  0x326c977e6efc84e512bb9c30f76e30c160ed06fb\n    /* \"griffins/backend/contracts/oracleContract.sol\":832:849  setChainlinkToken */\n  shl(0x20, tag_15)\n    /* \"griffins/backend/contracts/oracleContract.sol\":832:893  setChainlinkToken(0x326C977E6efc84E512bB9C30f76E30c160eD06FB) */\n  0x20\n  shr\n  jump\t// in\ntag_14:\n    /* \"griffins/backend/contracts/oracleContract.sol\":903:965  setChainlinkOracle(0xCC79157eb46F5624204f47AB42b3906cAA40eaB7) */\n  tag_16\n    /* \"griffins/backend/contracts/oracleContract.sol\":922:964  0xCC79157eb46F5624204f47AB42b3906cAA40eaB7 */\n  0xcc79157eb46f5624204f47ab42b3906caa40eab7\n    /* \"griffins/backend/contracts/oracleContract.sol\":903:921  setChainlinkOracle */\n  shl(0x20, tag_17)\n    /* \"griffins/backend/contracts/oracleContract.sol\":903:965  setChainlinkOracle(0xCC79157eb46F5624204f47AB42b3906cAA40eaB7) */\n  0x20\n  shr\n  jump\t// in\ntag_16:\n    /* \"griffins/backend/contracts/oracleContract.sol\":975:1017  jobId = \"7d80a6386ef543a3abb52817f6707e3b\" */\n  0x3764383061363338366566353433613361626235323831376636373037653362\n    /* \"griffins/backend/contracts/oracleContract.sol\":975:980  jobId */\n  0x0c\n    /* \"griffins/backend/contracts/oracleContract.sol\":975:1017  jobId = \"7d80a6386ef543a3abb52817f6707e3b\" */\n  dup2\n  swap1\n  sstore\n  pop\n    /* \"griffins/backend/contracts/oracleContract.sol\":1059:1061  10 */\n  0x0a\n    /* \"https://github.com/smartcontractkit/chainlink/blob/develop/contracts/src/v0.8/ChainlinkClient.sol\":675:681  10**18 */\n  0x0de0b6b3a7640000\n    /* \"griffins/backend/contracts/oracleContract.sol\":1034:1035  1 */\n  0x01\n    /* \"griffins/backend/contracts/oracleContract.sol\":1034:1055  1 * LINK_DIVISIBILITY */\n  tag_18\n  swap2\n  swap1\n  tag_19\n  jump\t// in\ntag_18:\n    /* \"griffins/backend/contracts/oracleContract.sol\":1033:1061  (1 * LINK_DIVISIBILITY) / 10 */\n  tag_20\n  swap2\n  swap1\n  tag_21\n  jump\t// in\ntag_20:\n    /* \"griffins/backend/contracts/oracleContract.sol\":1027:1030  fee */\n  0x0d\n    /* \"griffins/backend/contracts/oracleContract.sol\":1027:1061  fee = (1 * LINK_DIVISIBILITY) / 10 */\n  dup2\n  swap1\n  sstore\n  pop\n    /* \"griffins/backend/contracts/oracleContract.sol\":455:3907  contract FetchFromArray is ChainlinkClient, ConfirmedOwner{... */\n  jump(tag_22)\n    /* \"https://github.com/smartcontractkit/chainlink/blob/develop/contracts/src/v0.8/ConfirmedOwnerWithProposal.sol\":1497:1685  function _transferOwnership(address to) private {... */\ntag_11:\n    /* \"https://github.com/smartcontractkit/chainlink/blob/develop/contracts/src/v0.8/ConfirmedOwnerWithProposal.sol\":1565:1575  msg.sender */\n  caller\n    /* \"https://github.com/smartcontractkit/chainlink/blob/develop/contracts/src/v0.8/ConfirmedOwnerWithProposal.sol\":1559:1575  to != msg.sender */\n  0xffffffffffffffffffffffffffffffffffffffff\n  and\n    /* \"https://github.com/smartcontractkit/chainlink/blob/develop/contracts/src/v0.8/ConfirmedOwnerWithProposal.sol\":1559:1561  to */\n  dup2\n    /* \"https://github.com/smartcontractkit/chainlink/blob/develop/contracts/src/v0.8/ConfirmedOwnerWithProposal.sol\":1559:1575  to != msg.sender */\n  0xffffffffffffffffffffffffffffffffffffffff\n  and\n  eq\n  iszero\n    /* \"https://github.com/smartcontractkit/chainlink/blob/develop/contracts/src/v0.8/ConfirmedOwnerWithProposal.sol\":1551:1603  require(to != msg.sender, \"Cannot transfer to self\") */\n  tag_24\n  jumpi\n  mload(0x40)\n  0x08c379a000000000000000000000000000000000000000000000000000000000\n  dup2\n  mstore\n  0x04\n  add\n  tag_25\n  swap1\n  tag_26\n  jump\t// in\ntag_25:\n  mload(0x40)\n  dup1\n  swap2\n  sub\n  swap1\n  revert\ntag_24:\n    /* \"https://github.com/smartcontractkit/chainlink/blob/develop/contracts/src/v0.8/ConfirmedOwnerWithProposal.sol\":1627:1629  to */\n  dup1\n    /* \"https://github.com/smartcontractkit/chainlink/blob/develop/contracts/src/v0.8/ConfirmedOwnerWithProposal.sol\":1610:1624  s_pendingOwner */\n  0x07\n  0x00\n    /* \"https://github.com/smartcontractkit/chainlink/blob/develop/contracts/src/v0.8/ConfirmedOwnerWithProposal.sol\":1610:1629  s_pendingOwner = to */\n  0x0100\n  exp\n  dup2\n  sload\n  dup2\n  0xffffffffffffffffffffffffffffffffffffffff\n  mul\n  not\n  and\n  swap1\n  dup4\n  0xffffffffffffffffffffffffffffffffffffffff\n  and\n  mul\n  or\n  swap1\n  sstore\n  pop\n    /* \"https://github.com/smartcontractkit/chainlink/blob/develop/contracts/src/v0.8/ConfirmedOwnerWithProposal.sol\":1677:1679  to */\n  dup1\n    /* \"https://github.com/smartcontractkit/chainlink/blob/develop/contracts/src/v0.8/ConfirmedOwnerWithProposal.sol\":1641:1680  OwnershipTransferRequested(s_owner, to) */\n  0xffffffffffffffffffffffffffffffffffffffff\n  and\n    /* \"https://github.com/smartcontractkit/chainlink/blob/develop/contracts/src/v0.8/ConfirmedOwnerWithProposal.sol\":1668:1675  s_owner */\n  0x06\n  0x00\n  swap1\n  sload\n  swap1\n  0x0100\n  exp\n  swap1\n  div\n  0xffffffffffffffffffffffffffffffffffffffff\n  and\n    /* \"https://github.com/smartcontractkit/chainlink/blob/develop/contracts/src/v0.8/ConfirmedOwnerWithProposal.sol\":1641:1680  OwnershipTransferRequested(s_owner, to) */\n  0xffffffffffffffffffffffffffffffffffffffff\n  and\n  0xed8889f560326eb138920d842192f0eb3dd22b4f139c87a2c57538e05bae1278\n  mload(0x40)\n  mload(0x40)\n  dup1\n  swap2\n  sub\n  swap1\n  log3\n    /* \"https://github.com/smartcontractkit/chainlink/blob/develop/contracts/src/v0.8/ConfirmedOwnerWithProposal.sol\":1497:1685  function _transferOwnership(address to) private {... */\n  pop\n  jump\t// out\n    /* \"https://github.com/smartcontractkit/chainlink/blob/develop/contracts/src/v0.8/ChainlinkClient.sol\":8625:8733  function setChainlinkToken(address linkAddress) internal {... */\ntag_15:\n    /* \"https://github.com/smartcontractkit/chainlink/blob/develop/contracts/src/v0.8/ChainlinkClient.sol\":8716:8727  linkAddress */\n  dup1\n    /* \"https://github.com/smartcontractkit/chainlink/blob/develop/contracts/src/v0.8/ChainlinkClient.sol\":8688:8694  s_link */\n  0x02\n  0x00\n    /* \"https://github.com/smartcontractkit/chainlink/blob/develop/contracts/src/v0.8/ChainlinkClient.sol\":8688:8728  s_link = LinkTokenInterface(linkAddress) */\n  0x0100\n  exp\n  dup2\n  sload\n  dup2\n  0xffffffffffffffffffffffffffffffffffffffff\n  mul\n  not\n  and\n  swap1\n  dup4\n  0xffffffffffffffffffffffffffffffffffffffff\n  and\n  mul\n  or\n  swap1\n  sstore\n  pop\n    /* \"https://github.com/smartcontractkit/chainlink/blob/develop/contracts/src/v0.8/ChainlinkClient.sol\":8625:8733  function setChainlinkToken(address linkAddress) internal {... */\n  pop\n  jump\t// out\n    /* \"https://github.com/smartcontractkit/chainlink/blob/develop/contracts/src/v0.8/ChainlinkClient.sol\":8391:8505  function setChainlinkOracle(address oracleAddress) internal {... */\ntag_17:\n    /* \"https://github.com/smartcontractkit/chainlink/blob/develop/contracts/src/v0.8/ChainlinkClient.sol\":8486:8499  oracleAddress */\n  dup1\n    /* \"https://github.com/smartcontractkit/chainlink/blob/develop/contracts/src/v0.8/ChainlinkClient.sol\":8457:8465  s_oracle */\n  0x03\n  0x00\n    /* \"https://github.com/smartcontractkit/chainlink/blob/develop/contracts/src/v0.8/ChainlinkClient.sol\":8457:8500  s_oracle = OperatorInterface(oracleAddress) */\n  0x0100\n  exp\n  dup2\n  sload\n  dup2\n  0xffffffffffffffffffffffffffffffffffffffff\n  mul\n  not\n  and\n  swap1\n  dup4\n  0xffffffffffffffffffffffffffffffffffffffff\n  and\n  mul\n  or\n  swap1\n  sstore\n  pop\n    /* \"https://github.com/smartcontractkit/chainlink/blob/develop/contracts/src/v0.8/ChainlinkClient.sol\":8391:8505  function setChainlinkOracle(address oracleAddress) internal {... */\n  pop\n  jump\t// out\n    /* \"#utility.yul\":7:176   */\ntag_29:\n    /* \"#utility.yul\":91:102   */\n  0x00\n    /* \"#utility.yul\":125:131   */\n  dup3\n    /* \"#utility.yul\":120:123   */\n  dup3\n    /* \"#utility.yul\":113:132   */\n  mstore\n    /* \"#utility.yul\":165:169   */\n  0x20\n    /* \"#utility.yul\":160:163   */\n  dup3\n    /* \"#utility.yul\":156:170   */\n  add\n    /* \"#utility.yul\":141:170   */\n  swap1\n  pop\n    /* \"#utility.yul\":7:176   */\n  swap3\n  swap2\n  pop\n  pop\n  jump\t// out\n    /* \"#utility.yul\":182:356   */\ntag_30:\n    /* \"#utility.yul\":322:348   */\n  0x43616e6e6f7420736574206f776e657220746f207a65726f0000000000000000\n    /* \"#utility.yul\":318:319   */\n  0x00\n    /* \"#utility.yul\":310:316   */\n  dup3\n    /* \"#utility.yul\":306:320   */\n  add\n    /* \"#utility.yul\":299:349   */\n  mstore\n    /* \"#utility.yul\":182:356   */\n  pop\n  jump\t// out\n    /* \"#utility.yul\":362:728   */\ntag_31:\n    /* \"#utility.yul\":504:507   */\n  0x00\n    /* \"#utility.yul\":525:592   */\n  tag_41\n    /* \"#utility.yul\":589:591   */\n  0x18\n    /* \"#utility.yul\":584:587   */\n  dup4\n    /* \"#utility.yul\":525:592   */\n  tag_29\n  jump\t// in\ntag_41:\n    /* \"#utility.yul\":518:592   */\n  swap2\n  pop\n    /* \"#utility.yul\":601:694   */\n  tag_42\n    /* \"#utility.yul\":690:693   */\n  dup3\n    /* \"#utility.yul\":601:694   */\n  tag_30\n  jump\t// in\ntag_42:\n    /* \"#utility.yul\":719:721   */\n  0x20\n    /* \"#utility.yul\":714:717   */\n  dup3\n    /* \"#utility.yul\":710:722   */\n  add\n    /* \"#utility.yul\":703:722   */\n  swap1\n  pop\n    /* \"#utility.yul\":362:728   */\n  swap2\n  swap1\n  pop\n  jump\t// out\n    /* \"#utility.yul\":734:1153   */\ntag_8:\n    /* \"#utility.yul\":900:904   */\n  0x00\n    /* \"#utility.yul\":938:940   */\n  0x20\n    /* \"#utility.yul\":927:936   */\n  dup3\n    /* \"#utility.yul\":923:941   */\n  add\n    /* \"#utility.yul\":915:941   */\n  swap1\n  pop\n    /* \"#utility.yul\":987:996   */\n  dup2\n    /* \"#utility.yul\":981:985   */\n  dup2\n    /* \"#utility.yul\":977:997   */\n  sub\n    /* \"#utility.yul\":973:974   */\n  0x00\n    /* \"#utility.yul\":962:971   */\n  dup4\n    /* \"#utility.yul\":958:975   */\n  add\n    /* \"#utility.yul\":951:998   */\n  mstore\n    /* \"#utility.yul\":1015:1146   */\n  tag_44\n    /* \"#utility.yul\":1141:1145   */\n  dup2\n    /* \"#utility.yul\":1015:1146   */\n  tag_31\n  jump\t// in\ntag_44:\n    /* \"#utility.yul\":1007:1146   */\n  swap1\n  pop\n    /* \"#utility.yul\":734:1153   */\n  swap2\n  swap1\n  pop\n  jump\t// out\n    /* \"#utility.yul\":1159:1236   */\ntag_32:\n    /* \"#utility.yul\":1196:1203   */\n  0x00\n    /* \"#utility.yul\":1225:1230   */\n  dup2\n    /* \"#utility.yul\":1214:1230   */\n  swap1\n  pop\n    /* \"#utility.yul\":1159:1236   */\n  swap2\n  swap1\n  pop\n  jump\t// out\n    /* \"#utility.yul\":1242:1422   */\ntag_33:\n    /* \"#utility.yul\":1290:1367   */\n  0x4e487b7100000000000000000000000000000000000000000000000000000000\n    /* \"#utility.yul\":1287:1288   */\n  0x00\n    /* \"#utility.yul\":1280:1368   */\n  mstore\n    /* \"#utility.yul\":1387:1391   */\n  0x11\n    /* \"#utility.yul\":1384:1385   */\n  0x04\n    /* \"#utility.yul\":1377:1392   */\n  mstore\n    /* \"#utility.yul\":1411:1415   */\n  0x24\n    /* \"#utility.yul\":1408:1409   */\n  0x00\n    /* \"#utility.yul\":1401:1416   */\n  revert\n    /* \"#utility.yul\":1428:1776   */\ntag_19:\n    /* \"#utility.yul\":1468:1475   */\n  0x00\n    /* \"#utility.yul\":1491:1511   */\n  tag_48\n    /* \"#utility.yul\":1509:1510   */\n  dup3\n    /* \"#utility.yul\":1491:1511   */\n  tag_32\n  jump\t// in\ntag_48:\n    /* \"#utility.yul\":1486:1511   */\n  swap2\n  pop\n    /* \"#utility.yul\":1525:1545   */\n  tag_49\n    /* \"#utility.yul\":1543:1544   */\n  dup4\n    /* \"#utility.yul\":1525:1545   */\n  tag_32\n  jump\t// in\ntag_49:\n    /* \"#utility.yul\":1520:1545   */\n  swap3\n  pop\n    /* \"#utility.yul\":1713:1714   */\n  dup2\n    /* \"#utility.yul\":1645:1711   */\n  0xffffffffffffffffffffffffffffffffffffffffffffffffffffffffffffffff\n    /* \"#utility.yul\":1641:1715   */\n  div\n    /* \"#utility.yul\":1638:1639   */\n  dup4\n    /* \"#utility.yul\":1635:1716   */\n  gt\n    /* \"#utility.yul\":1630:1631   */\n  dup3\n    /* \"#utility.yul\":1623:1632   */\n  iszero\n    /* \"#utility.yul\":1616:1633   */\n  iszero\n    /* \"#utility.yul\":1612:1717   */\n  and\n    /* \"#utility.yul\":1609:1740   */\n  iszero\n  tag_50\n  jumpi\n    /* \"#utility.yul\":1720:1738   */\n  tag_51\n  tag_33\n  jump\t// in\ntag_51:\n    /* \"#utility.yul\":1609:1740   */\ntag_50:\n    /* \"#utility.yul\":1768:1769   */\n  dup3\n    /* \"#utility.yul\":1765:1766   */\n  dup3\n    /* \"#utility.yul\":1761:1770   */\n  mul\n    /* \"#utility.yul\":1750:1770   */\n  swap1\n  pop\n    /* \"#utility.yul\":1428:1776   */\n  swap3\n  swap2\n  pop\n  pop\n  jump\t// out\n    /* \"#utility.yul\":1782:1962   */\ntag_34:\n    /* \"#utility.yul\":1830:1907   */\n  0x4e487b7100000000000000000000000000000000000000000000000000000000\n    /* \"#utility.yul\":1827:1828   */\n  0x00\n    /* \"#utility.yul\":1820:1908   */\n  mstore\n    /* \"#utility.yul\":1927:1931   */\n  0x12\n    /* \"#utility.yul\":1924:1925   */\n  0x04\n    /* \"#utility.yul\":1917:1932   */\n  mstore\n    /* \"#utility.yul\":1951:1955   */\n  0x24\n    /* \"#utility.yul\":1948:1949   */\n  0x00\n    /* \"#utility.yul\":1941:1956   */\n  revert\n    /* \"#utility.yul\":1968:2153   */\ntag_21:\n    /* \"#utility.yul\":2008:2009   */\n  0x00\n    /* \"#utility.yul\":2025:2045   */\n  tag_54\n    /* \"#utility.yul\":2043:2044   */\n  dup3\n    /* \"#utility.yul\":2025:2045   */\n  tag_32\n  jump\t// in\ntag_54:\n    /* \"#utility.yul\":2020:2045   */\n  swap2\n  pop\n    /* \"#utility.yul\":2059:2079   */\n  tag_55\n    /* \"#utility.yul\":2077:2078   */\n  dup4\n    /* \"#utility.yul\":2059:2079   */\n  tag_32\n  jump\t// in\ntag_55:\n    /* \"#utility.yul\":2054:2079   */\n  swap3\n  pop\n    /* \"#utility.yul\":2098:2099   */\n  dup3\n    /* \"#utility.yul\":2088:2123   */\n  tag_56\n  jumpi\n    /* \"#utility.yul\":2103:2121   */\n  tag_57\n  tag_34\n  jump\t// in\ntag_57:\n    /* \"#utility.yul\":2088:2123   */\ntag_56:\n    /* \"#utility.yul\":2145:2146   */\n  dup3\n    /* \"#utility.yul\":2142:2143   */\n  dup3\n    /* \"#utility.yul\":2138:2147   */\n  div\n    /* \"#utility.yul\":2133:2147   */\n  swap1\n  pop\n    /* \"#utility.yul\":1968:2153   */\n  swap3\n  swap2\n  pop\n  pop\n  jump\t// out\n    /* \"#utility.yul\":2159:2332   */\ntag_35:\n    /* \"#utility.yul\":2299:2324   */\n  0x43616e6e6f74207472616e7366657220746f2073656c66000000000000000000\n    /* \"#utility.yul\":2295:2296   */\n  0x00\n    /* \"#utility.yul\":2287:2293   */\n  dup3\n    /* \"#utility.yul\":2283:2297   */\n  add\n    /* \"#utility.yul\":2276:2325   */\n  mstore\n    /* \"#utility.yul\":2159:2332   */\n  pop\n  jump\t// out\n    /* \"#utility.yul\":2338:2704   */\ntag_36:\n    /* \"#utility.yul\":2480:2483   */\n  0x00\n    /* \"#utility.yul\":2501:2568   */\n  tag_60\n    /* \"#utility.yul\":2565:2567   */\n  0x17\n    /* \"#utility.yul\":2560:2563   */\n  dup4\n    /* \"#utility.yul\":2501:2568   */\n  tag_29\n  jump\t// in\ntag_60:\n    /* \"#utility.yul\":2494:2568   */\n  swap2\n  pop\n    /* \"#utility.yul\":2577:2670   */\n  tag_61\n    /* \"#utility.yul\":2666:2669   */\n  dup3\n    /* \"#utility.yul\":2577:2670   */\n  tag_35\n  jump\t// in\ntag_61:\n    /* \"#utility.yul\":2695:2697   */\n  0x20\n    /* \"#utility.yul\":2690:2693   */\n  dup3\n    /* \"#utility.yul\":2686:2698   */\n  add\n    /* \"#utility.yul\":2679:2698   */\n  swap1\n  pop\n    /* \"#utility.yul\":2338:2704   */\n  swap2\n  swap1\n  pop\n  jump\t// out\n    /* \"#utility.yul\":2710:3129   */\ntag_26:\n    /* \"#utility.yul\":2876:2880   */\n  0x00\n    /* \"#utility.yul\":2914:2916   */\n  0x20\n    /* \"#utility.yul\":2903:2912   */\n  dup3\n    /* \"#utility.yul\":2899:2917   */\n  add\n    /* \"#utility.yul\":2891:2917   */\n  swap1\n  pop\n    /* \"#utility.yul\":2963:2972   */\n  dup2\n    /* \"#utility.yul\":2957:2961   */\n  dup2\n    /* \"#utility.yul\":2953:2973   */\n  sub\n    /* \"#utility.yul\":2949:2950   */\n  0x00\n    /* \"#utility.yul\":2938:2947   */\n  dup4\n    /* \"#utility.yul\":2934:2951   */\n  add\n    /* \"#utility.yul\":2927:2974   */\n  mstore\n    /* \"#utility.yul\":2991:3122   */\n  tag_63\n    /* \"#utility.yul\":3117:3121   */\n  dup2\n    /* \"#utility.yul\":2991:3122   */\n  tag_36\n  jump\t// in\ntag_63:\n    /* \"#utility.yul\":2983:3122   */\n  swap1\n  pop\n    /* \"#utility.yul\":2710:3129   */\n  swap2\n  swap1\n  pop\n  jump\t// out\n    /* \"griffins/backend/contracts/oracleContract.sol\":455:3907  contract FetchFromArray is ChainlinkClient, ConfirmedOwner{... */\ntag_22:\n  dataSize(sub_0)\n  dup1\n  dataOffset(sub_0)\n  0x00\n  codecopy\n  0x00\n  return\nstop\n\nsub_0: assembly {\n        /* \"griffins/backend/contracts/oracleContract.sol\":455:3907  contract FetchFromArray is ChainlinkClient, ConfirmedOwner{... */\n      mstore(0x40, 0x80)\n      jumpi(tag_1, lt(calldatasize, 0x04))\n      shr(0xe0, calldataload(0x00))\n      dup1\n      0x79ba5097\n      gt\n      tag_16\n      jumpi\n      dup1\n      0xc96a4ca2\n      gt\n      tag_17\n      jumpi\n      dup1\n      0xc96a4ca2\n      eq\n      tag_12\n      jumpi\n      dup1\n      0xcb1f3d56\n      eq\n      tag_13\n      jumpi\n      dup1\n      0xe2bff1dc\n      eq\n      tag_14\n      jumpi\n      dup1\n      0xf2fde38b\n      eq\n      tag_15\n      jumpi\n      jump(tag_1)\n    tag_17:\n      dup1\n      0x79ba5097\n      eq\n      tag_9\n      jumpi\n      dup1\n      0x8da5cb5b\n      eq\n      tag_10\n      jumpi\n      dup1\n      0xa5ff3cda\n      eq\n      tag_11\n      jumpi\n      jump(tag_1)\n    tag_16:\n      dup1\n      0x26465937\n      gt\n      tag_18\n      jumpi\n      dup1\n      0x26465937\n      eq\n      tag_5\n      jumpi\n      dup1\n      0x3b411fe4\n      eq\n      tag_6\n      jumpi\n      dup1\n      0x5dfcb4c3\n      eq\n      tag_7\n      jumpi\n      dup1\n      0x75c8bd62\n      eq\n      tag_8\n      jumpi\n      jump(tag_1)\n    tag_18:\n      dup1\n      0x140aab8f\n      eq\n      tag_2\n      jumpi\n      dup1\n      0x163457b3\n      eq\n      tag_3\n      jumpi\n      dup1\n      0x1fc58c87\n      eq\n      tag_4\n      jumpi\n    tag_1:\n      0x00\n      dup1\n      revert\n        /* \"griffins/backend/contracts/oracleContract.sol\":591:617  uint public selectedAmount */\n    tag_2:\n      callvalue\n      dup1\n      iszero\n      tag_19\n      jumpi\n      0x00\n      dup1\n      revert\n    tag_19:\n      pop\n      tag_20\n      tag_21\n      jump\t// in\n    tag_20:\n      mload(0x40)\n      tag_22\n      swap2\n      swap1\n      tag_23\n      jump\t// in\n    tag_22:\n      mload(0x40)\n      dup1\n      swap2\n      sub\n      swap1\n      return\n        /* \"griffins/backend/contracts/oracleContract.sol\":2400:2919  function getStockCurrency(string memory symbol) public returns (bytes32 requestId) {... */\n    tag_3:\n      callvalue\n      dup1\n      iszero\n      tag_24\n      jumpi\n      0x00\n      dup1\n      revert\n    tag_24:\n      pop\n      tag_25\n      0x04\n      dup1\n      calldatasize\n      sub\n      dup2\n      add\n      swap1\n      tag_26\n      swap2\n      swap1\n      tag_27\n      jump\t// in\n    tag_26:\n      tag_28\n      jump\t// in\n    tag_25:\n      mload(0x40)\n      tag_29\n      swap2\n      swap1\n      tag_30\n      jump\t// in\n    tag_29:\n      mload(0x40)\n      dup1\n      swap2\n      sub\n      swap1\n      return\n        /* \"griffins/backend/contracts/oracleContract.sol\":3102:3722  function convertCurrency() public returns (bytes32 requestId) {... */\n    tag_4:\n      callvalue\n      dup1\n      iszero\n      tag_31\n      jumpi\n      0x00\n      dup1\n      revert\n    tag_31:\n      pop\n      tag_32\n      tag_33\n      jump\t// in\n    tag_32:\n      mload(0x40)\n      tag_34\n      swap2\n      swap1\n      tag_30\n      jump\t// in\n    tag_34:\n      mload(0x40)\n      dup1\n      swap2\n      sub\n      swap1\n      return\n        /* \"griffins/backend/contracts/oracleContract.sol\":658:685  string public stockCurrency */\n    tag_5:\n      callvalue\n      dup1\n      iszero\n      tag_35\n      jumpi\n      0x00\n      dup1\n      revert\n    tag_35:\n      pop\n      tag_36\n      tag_37\n      jump\t// in\n    tag_36:\n      mload(0x40)\n      tag_38\n      swap2\n      swap1\n      tag_39\n      jump\t// in\n    tag_38:\n      mload(0x40)\n      dup1\n      swap2\n      sub\n      swap1\n      return\n        /* \"griffins/backend/contracts/oracleContract.sol\":2924:3095  function fulfillStockCurrency(bytes32 _requestId, string memory _stockCurrency) public recordChainlinkFulfillment(_requestId) {... */\n    tag_6:\n      callvalue\n      dup1\n      iszero\n      tag_40\n      jumpi\n      0x00\n      dup1\n      revert\n    tag_40:\n      pop\n      tag_41\n      0x04\n      dup1\n      calldatasize\n      sub\n      dup2\n      add\n      swap1\n      tag_42\n      swap2\n      swap1\n      tag_43\n      jump\t// in\n    tag_42:\n      tag_44\n      jump\t// in\n    tag_41:\n      stop\n        /* \"griffins/backend/contracts/oracleContract.sol\":2243:2393  function fulfillStockPrice(bytes32 _requestId, uint _stockPrice) public recordChainlinkFulfillment(_requestId) {... */\n    tag_7:\n      callvalue\n      dup1\n      iszero\n      tag_45\n      jumpi\n      0x00\n      dup1\n      revert\n    tag_45:\n      pop\n      tag_46\n      0x04\n      dup1\n      calldatasize\n      sub\n      dup2\n      add\n      swap1\n      tag_47\n      swap2\n      swap1\n      tag_48\n      jump\t// in\n    tag_47:\n      tag_49\n      jump\t// in\n    tag_46:\n      stop\n        /* \"griffins/backend/contracts/oracleContract.sol\":1603:2238  function getStockPrice(string memory symbol) public returns (bytes32 requestId) {... */\n    tag_8:\n      callvalue\n      dup1\n      iszero\n      tag_50\n      jumpi\n      0x00\n      dup1\n      revert\n    tag_50:\n      pop\n      tag_51\n      0x04\n      dup1\n      calldatasize\n      sub\n      dup2\n      add\n      swap1\n      tag_52\n      swap2\n      swap1\n      tag_27\n      jump\t// in\n    tag_52:\n      tag_53\n      jump\t// in\n    tag_51:\n      mload(0x40)\n      tag_54\n      swap2\n      swap1\n      tag_30\n      jump\t// in\n    tag_54:\n      mload(0x40)\n      dup1\n      swap2\n      sub\n      swap1\n      return\n        /* \"https://github.com/smartcontractkit/chainlink/blob/develop/contracts/src/v0.8/ConfirmedOwnerWithProposal.sol\":1016:1281  function acceptOwnership() external override {... */\n    tag_9:\n      callvalue\n      dup1\n      iszero\n      tag_55\n      jumpi\n      0x00\n      dup1\n      revert\n    tag_55:\n      pop\n      tag_56\n      tag_57\n      jump\t// in\n    tag_56:\n      stop\n        /* \"https://github.com/smartcontractkit/chainlink/blob/develop/contracts/src/v0.8/ConfirmedOwnerWithProposal.sol\":1332:1413  function owner() public view override returns (address) {... */\n    tag_10:\n      callvalue\n      dup1\n      iszero\n      tag_58\n      jumpi\n      0x00\n      dup1\n      revert\n    tag_58:\n      pop\n      tag_59\n      tag_60\n      jump\t// in\n    tag_59:\n      mload(0x40)\n      tag_61\n      swap2\n      swap1\n      tag_62\n      jump\t// in\n    tag_61:\n      mload(0x40)\n      dup1\n      swap2\n      sub\n      swap1\n      return\n        /* \"griffins/backend/contracts/oracleContract.sol\":1074:1597  function validateTransaction(string memory symbol,uint selectedUnits) public payable... */\n    tag_11:\n      tag_63\n      0x04\n      dup1\n      calldatasize\n      sub\n      dup2\n      add\n      swap1\n      tag_64\n      swap2\n      swap1\n      tag_65\n      jump\t// in\n    tag_64:\n      tag_66\n      jump\t// in\n    tag_63:\n      stop\n        /* \"griffins/backend/contracts/oracleContract.sol\":3727:3905  function fulfillCurrencyConverter(bytes32 _requestId, uint _convertedCurrency) public recordChainlinkFulfillment(_requestId) {... */\n    tag_12:\n      callvalue\n      dup1\n      iszero\n      tag_67\n      jumpi\n      0x00\n      dup1\n      revert\n    tag_67:\n      pop\n      tag_68\n      0x04\n      dup1\n      calldatasize\n      sub\n      dup2\n      add\n      swap1\n      tag_69\n      swap2\n      swap1\n      tag_48\n      jump\t// in\n    tag_69:\n      tag_70\n      jump\t// in\n    tag_68:\n      stop\n        /* \"griffins/backend/contracts/oracleContract.sol\":623:652  uint public convertedCurrency */\n    tag_13:\n      callvalue\n      dup1\n      iszero\n      tag_71\n      jumpi\n      0x00\n      dup1\n      revert\n    tag_71:\n      pop\n      tag_72\n      tag_73\n      jump\t// in\n    tag_72:\n      mload(0x40)\n      tag_74\n      swap2\n      swap1\n      tag_23\n      jump\t// in\n    tag_74:\n      mload(0x40)\n      dup1\n      swap2\n      sub\n      swap1\n      return\n        /* \"griffins/backend/contracts/oracleContract.sol\":563:585  uint public stockPrice */\n    tag_14:\n      callvalue\n      dup1\n      iszero\n      tag_75\n      jumpi\n      0x00\n      dup1\n      revert\n    tag_75:\n      pop\n      tag_76\n      tag_77\n      jump\t// in\n    tag_76:\n      mload(0x40)\n      tag_78\n      swap2\n      swap1\n      tag_23\n      jump\t// in\n    tag_78:\n      mload(0x40)\n      dup1\n      swap2\n      sub\n      swap1\n      return\n        /* \"https://github.com/smartcontractkit/chainlink/blob/develop/contracts/src/v0.8/ConfirmedOwnerWithProposal.sol\":826:924  function transferOwnership(address to) public override onlyOwner {... */\n    tag_15:\n      callvalue\n      dup1\n      iszero\n      tag_79\n      jumpi\n      0x00\n      dup1\n      revert\n    tag_79:\n      pop\n      tag_80\n      0x04\n      dup1\n      calldatasize\n      sub\n      dup2\n      add\n      swap1\n      tag_81\n      swap2\n      swap1\n      tag_82\n      jump\t// in\n    tag_81:\n      tag_83\n      jump\t// in\n    tag_80:\n      stop\n        /* \"griffins/backend/contracts/oracleContract.sol\":591:617  uint public selectedAmount */\n    tag_21:\n      sload(0x09)\n      dup2\n      jump\t// out\n        /* \"griffins/backend/contracts/oracleContract.sol\":2400:2919  function getStockCurrency(string memory symbol) public returns (bytes32 requestId) {... */\n    tag_28:\n        /* \"griffins/backend/contracts/oracleContract.sol\":2464:2481  bytes32 requestId */\n      0x00\n        /* \"griffins/backend/contracts/oracleContract.sol\":2493:2521  Chainlink.Request memory req */\n      dup1\n        /* \"griffins/backend/contracts/oracleContract.sol\":2524:2649  buildChainlinkRequest(... */\n      tag_85\n        /* \"griffins/backend/contracts/oracleContract.sol\":2559:2564  jobId */\n      sload(0x0c)\n        /* \"griffins/backend/contracts/oracleContract.sol\":2586:2590  this */\n      address\n        /* \"griffins/backend/contracts/oracleContract.sol\":2605:2639  this.fulfillStockCurrency.selector */\n      shl(0xe0, 0x3b411fe4)\n        /* \"griffins/backend/contracts/oracleContract.sol\":2524:2545  buildChainlinkRequest */\n      tag_86\n        /* \"griffins/backend/contracts/oracleContract.sol\":2524:2649  buildChainlinkRequest(... */\n      jump\t// in\n    tag_85:\n        /* \"griffins/backend/contracts/oracleContract.sol\":2493:2649  Chainlink.Request memory req = buildChainlinkRequest(... */\n      swap1\n      pop\n        /* \"griffins/backend/contracts/oracleContract.sol\":2659:2676  string memory url */\n      0x00\n        /* \"griffins/backend/contracts/oracleContract.sol\":2760:2766  symbol */\n      dup4\n        /* \"griffins/backend/contracts/oracleContract.sol\":2677:2784  string.concat(\"https://www.alphavantage.co/query?function=SYMBOL_SEARCH&keywords=\",symbol,\"&apikey=vxvcxv\") */\n      add(0x20, mload(0x40))\n      tag_87\n      swap2\n      swap1\n      tag_88\n      jump\t// in\n    tag_87:\n      mload(0x40)\n      0x20\n      dup2\n      dup4\n      sub\n      sub\n      dup2\n      mstore\n      swap1\n      0x40\n      mstore\n        /* \"griffins/backend/contracts/oracleContract.sol\":2659:2784  string memory url=string.concat(\"https://www.alphavantage.co/query?function=SYMBOL_SEARCH&keywords=\",symbol,\"&apikey=vxvcxv\") */\n      swap1\n      pop\n        /* \"griffins/backend/contracts/oracleContract.sol\":2794:2812  req.add(\"get\",url) */\n      tag_89\n      mload(0x40)\n      dup1\n      0x40\n      add\n      0x40\n      mstore\n      dup1\n      0x03\n      dup2\n      mstore\n      0x20\n      add\n      0x6765740000000000000000000000000000000000000000000000000000000000\n      dup2\n      mstore\n      pop\n        /* \"griffins/backend/contracts/oracleContract.sol\":2808:2811  url */\n      dup3\n        /* \"griffins/backend/contracts/oracleContract.sol\":2794:2797  req */\n      dup5\n        /* \"griffins/backend/contracts/oracleContract.sol\":2794:2801  req.add */\n      tag_90\n      swap1\n        /* \"griffins/backend/contracts/oracleContract.sol\":2794:2812  req.add(\"get\",url) */\n      swap3\n      swap2\n      swap1\n      0xffffffff\n      and\n      jump\t// in\n    tag_89:\n        /* \"griffins/backend/contracts/oracleContract.sol\":2822:2865  req.add(\"path\",\"bestMatches,0,8. currency\") */\n      tag_91\n      mload(0x40)\n      dup1\n      0x40\n      add\n      0x40\n      mstore\n      dup1\n      0x04\n      dup2\n      mstore\n      0x20\n      add\n      0x7061746800000000000000000000000000000000000000000000000000000000\n      dup2\n      mstore\n      pop\n      mload(0x40)\n      dup1\n      0x40\n      add\n      0x40\n      mstore\n      dup1\n      0x19\n      dup2\n      mstore\n      0x20\n      add\n      0x626573744d6174636865732c302c382e2063757272656e637900000000000000\n      dup2\n      mstore\n      pop\n        /* \"griffins/backend/contracts/oracleContract.sol\":2822:2825  req */\n      dup5\n        /* \"griffins/backend/contracts/oracleContract.sol\":2822:2829  req.add */\n      tag_90\n      swap1\n        /* \"griffins/backend/contracts/oracleContract.sol\":2822:2865  req.add(\"path\",\"bestMatches,0,8. currency\") */\n      swap3\n      swap2\n      swap1\n      0xffffffff\n      and\n      jump\t// in\n    tag_91:\n        /* \"griffins/backend/contracts/oracleContract.sol\":2882:2912  sendChainlinkRequest(req, fee) */\n      tag_92\n        /* \"griffins/backend/contracts/oracleContract.sol\":2903:2906  req */\n      dup3\n        /* \"griffins/backend/contracts/oracleContract.sol\":2908:2911  fee */\n      sload(0x0d)\n        /* \"griffins/backend/contracts/oracleContract.sol\":2882:2902  sendChainlinkRequest */\n      tag_93\n        /* \"griffins/backend/contracts/oracleContract.sol\":2882:2912  sendChainlinkRequest(req, fee) */\n      jump\t// in\n    tag_92:\n        /* \"griffins/backend/contracts/oracleContract.sol\":2875:2912  return sendChainlinkRequest(req, fee) */\n      swap3\n      pop\n      pop\n      pop\n        /* \"griffins/backend/contracts/oracleContract.sol\":2400:2919  function getStockCurrency(string memory symbol) public returns (bytes32 requestId) {... */\n      swap2\n      swap1\n      pop\n      jump\t// out\n        /* \"griffins/backend/contracts/oracleContract.sol\":3102:3722  function convertCurrency() public returns (bytes32 requestId) {... */\n    tag_33:\n        /* \"griffins/backend/contracts/oracleContract.sol\":3145:3162  bytes32 requestId */\n      0x00\n        /* \"griffins/backend/contracts/oracleContract.sol\":3174:3202  Chainlink.Request memory req */\n      dup1\n        /* \"griffins/backend/contracts/oracleContract.sol\":3205:3334  buildChainlinkRequest(... */\n      tag_95\n        /* \"griffins/backend/contracts/oracleContract.sol\":3240:3245  jobId */\n      sload(0x0c)\n        /* \"griffins/backend/contracts/oracleContract.sol\":3267:3271  this */\n      address\n        /* \"griffins/backend/contracts/oracleContract.sol\":3286:3324  this.fulfillCurrencyConverter.selector */\n      shl(0xe0, 0xc96a4ca2)\n        /* \"griffins/backend/contracts/oracleContract.sol\":3205:3226  buildChainlinkRequest */\n      tag_86\n        /* \"griffins/backend/contracts/oracleContract.sol\":3205:3334  buildChainlinkRequest(... */\n      jump\t// in\n    tag_95:\n        /* \"griffins/backend/contracts/oracleContract.sol\":3174:3334  Chainlink.Request memory req = buildChainlinkRequest(... */\n      swap1\n      pop\n        /* \"griffins/backend/contracts/oracleContract.sol\":3344:3361  string memory url */\n      0x00\n        /* \"griffins/backend/contracts/oracleContract.sol\":3429:3442  stockCurrency */\n      0x0b\n        /* \"griffins/backend/contracts/oracleContract.sol\":3362:3529  string.concat(\"https://min-api.cryptocompare.com/data/price?fsym=\",stockCurrency,\"&tsyms=ETH&api_key=db0586d77050155a01def6221e02c966e9d11981d2addd971d8ae21a85729e9a\") */\n      add(0x20, mload(0x40))\n      tag_96\n      swap2\n      swap1\n      tag_97\n      jump\t// in\n    tag_96:\n      mload(0x40)\n      0x20\n      dup2\n      dup4\n      sub\n      sub\n      dup2\n      mstore\n      swap1\n      0x40\n      mstore\n        /* \"griffins/backend/contracts/oracleContract.sol\":3344:3529  string memory url=string.concat(\"https://min-api.cryptocompare.com/data/price?fsym=\",stockCurrency,\"&tsyms=ETH&api_key=db0586d77050155a01def6221e02c966e9d11981d2addd971d8ae21a85729e9a\") */\n      swap1\n      pop\n        /* \"griffins/backend/contracts/oracleContract.sol\":3539:3557  req.add(\"get\",url) */\n      tag_98\n      mload(0x40)\n      dup1\n      0x40\n      add\n      0x40\n      mstore\n      dup1\n      0x03\n      dup2\n      mstore\n      0x20\n      add\n      0x6765740000000000000000000000000000000000000000000000000000000000\n      dup2\n      mstore\n      pop\n        /* \"griffins/backend/contracts/oracleContract.sol\":3553:3556  url */\n      dup3\n        /* \"griffins/backend/contracts/oracleContract.sol\":3539:3542  req */\n      dup5\n        /* \"griffins/backend/contracts/oracleContract.sol\":3539:3546  req.add */\n      tag_90\n      swap1\n        /* \"griffins/backend/contracts/oracleContract.sol\":3539:3557  req.add(\"get\",url) */\n      swap3\n      swap2\n      swap1\n      0xffffffff\n      and\n      jump\t// in\n    tag_98:\n        /* \"griffins/backend/contracts/oracleContract.sol\":3567:3588  req.add(\"path\",\"ETH\") */\n      tag_99\n      mload(0x40)\n      dup1\n      0x40\n      add\n      0x40\n      mstore\n      dup1\n      0x04\n      dup2\n      mstore\n      0x20\n      add\n      0x7061746800000000000000000000000000000000000000000000000000000000\n      dup2\n      mstore\n      pop\n      mload(0x40)\n      dup1\n      0x40\n      add\n      0x40\n      mstore\n      dup1\n      0x03\n      dup2\n      mstore\n      0x20\n      add\n      0x4554480000000000000000000000000000000000000000000000000000000000\n      dup2\n      mstore\n      pop\n        /* \"griffins/backend/contracts/oracleContract.sol\":3567:3570  req */\n      dup5\n        /* \"griffins/backend/contracts/oracleContract.sol\":3567:3574  req.add */\n      tag_90\n      swap1\n        /* \"griffins/backend/contracts/oracleContract.sol\":3567:3588  req.add(\"path\",\"ETH\") */\n      swap3\n      swap2\n      swap1\n      0xffffffff\n      and\n      jump\t// in\n    tag_99:\n        /* \"griffins/backend/contracts/oracleContract.sol\":3598:3616  int256 timesAmount */\n      0x00\n        /* \"griffins/backend/contracts/oracleContract.sol\":3619:3626  10 ** 9 */\n      0x3b9aca00\n        /* \"griffins/backend/contracts/oracleContract.sol\":3598:3626  int256 timesAmount = 10 ** 9 */\n      swap1\n      pop\n        /* \"griffins/backend/contracts/oracleContract.sol\":3636:3668  req.addInt(\"times\", timesAmount) */\n      tag_100\n      mload(0x40)\n      dup1\n      0x40\n      add\n      0x40\n      mstore\n      dup1\n      0x05\n      dup2\n      mstore\n      0x20\n      add\n      0x74696d6573000000000000000000000000000000000000000000000000000000\n      dup2\n      mstore\n      pop\n        /* \"griffins/backend/contracts/oracleContract.sol\":3656:3667  timesAmount */\n      dup3\n        /* \"griffins/backend/contracts/oracleContract.sol\":3636:3639  req */\n      dup6\n        /* \"griffins/backend/contracts/oracleContract.sol\":3636:3646  req.addInt */\n      tag_101\n      swap1\n        /* \"griffins/backend/contracts/oracleContract.sol\":3636:3668  req.addInt(\"times\", timesAmount) */\n      swap3\n      swap2\n      swap1\n      0xffffffff\n      and\n      jump\t// in\n    tag_100:\n        /* \"griffins/backend/contracts/oracleContract.sol\":3685:3715  sendChainlinkRequest(req, fee) */\n      tag_102\n        /* \"griffins/backend/contracts/oracleContract.sol\":3706:3709  req */\n      dup4\n        /* \"griffins/backend/contracts/oracleContract.sol\":3711:3714  fee */\n      sload(0x0d)\n        /* \"griffins/backend/contracts/oracleContract.sol\":3685:3705  sendChainlinkRequest */\n      tag_93\n        /* \"griffins/backend/contracts/oracleContract.sol\":3685:3715  sendChainlinkRequest(req, fee) */\n      jump\t// in\n    tag_102:\n        /* \"griffins/backend/contracts/oracleContract.sol\":3678:3715  return sendChainlinkRequest(req, fee) */\n      swap4\n      pop\n      pop\n      pop\n      pop\n        /* \"griffins/backend/contracts/oracleContract.sol\":3102:3722  function convertCurrency() public returns (bytes32 requestId) {... */\n      swap1\n      jump\t// out\n        /* \"griffins/backend/contracts/oracleContract.sol\":658:685  string public stockCurrency */\n    tag_37:\n      0x0b\n      dup1\n      sload\n      tag_103\n      swap1\n      tag_104\n      jump\t// in\n    tag_103:\n      dup1\n      0x1f\n      add\n      0x20\n      dup1\n      swap2\n      div\n      mul\n      0x20\n      add\n      mload(0x40)\n      swap1\n      dup2\n      add\n      0x40\n      mstore\n      dup1\n      swap3\n      swap2\n      swap1\n      dup2\n      dup2\n      mstore\n      0x20\n      add\n      dup3\n      dup1\n      sload\n      tag_105\n      swap1\n      tag_104\n      jump\t// in\n    tag_105:\n      dup1\n      iszero\n      tag_106\n      jumpi\n      dup1\n      0x1f\n      lt\n      tag_107\n      jumpi\n      0x0100\n      dup1\n      dup4\n      sload\n      div\n      mul\n      dup4\n      mstore\n      swap2\n      0x20\n      add\n      swap2\n      jump(tag_106)\n    tag_107:\n      dup3\n      add\n      swap2\n      swap1\n      0x00\n      mstore\n      keccak256(0x00, 0x20)\n      swap1\n    tag_108:\n      dup2\n      sload\n      dup2\n      mstore\n      swap1\n      0x01\n      add\n      swap1\n      0x20\n      add\n      dup1\n      dup4\n      gt\n      tag_108\n      jumpi\n      dup3\n      swap1\n      sub\n      0x1f\n      and\n      dup3\n      add\n      swap2\n    tag_106:\n      pop\n      pop\n      pop\n      pop\n      pop\n      dup2\n      jump\t// out\n        /* \"griffins/backend/contracts/oracleContract.sol\":2924:3095  function fulfillStockCurrency(bytes32 _requestId, string memory _stockCurrency) public recordChainlinkFulfillment(_requestId) {... */\n    tag_44:\n        /* \"griffins/backend/contracts/oracleContract.sol\":3038:3048  _requestId */\n      dup2\n        /* \"https://github.com/smartcontractkit/chainlink/blob/develop/contracts/src/v0.8/ChainlinkClient.sol\":11663:11680  s_pendingRequests */\n      0x05\n        /* \"https://github.com/smartcontractkit/chainlink/blob/develop/contracts/src/v0.8/ChainlinkClient.sol\":11663:11691  s_pendingRequests[requestId] */\n      0x00\n        /* \"https://github.com/smartcontractkit/chainlink/blob/develop/contracts/src/v0.8/ChainlinkClient.sol\":11681:11690  requestId */\n      dup3\n        /* \"https://github.com/smartcontractkit/chainlink/blob/develop/contracts/src/v0.8/ChainlinkClient.sol\":11663:11691  s_pendingRequests[requestId] */\n      dup2\n      mstore\n      0x20\n      add\n      swap1\n      dup2\n      mstore\n      0x20\n      add\n      0x00\n      keccak256\n      0x00\n      swap1\n      sload\n      swap1\n      0x0100\n      exp\n      swap1\n      div\n      0xffffffffffffffffffffffffffffffffffffffff\n      and\n        /* \"https://github.com/smartcontractkit/chainlink/blob/develop/contracts/src/v0.8/ChainlinkClient.sol\":11649:11691  msg.sender == s_pendingRequests[requestId] */\n      0xffffffffffffffffffffffffffffffffffffffff\n      and\n        /* \"https://github.com/smartcontractkit/chainlink/blob/develop/contracts/src/v0.8/ChainlinkClient.sol\":11649:11659  msg.sender */\n      caller\n        /* \"https://github.com/smartcontractkit/chainlink/blob/develop/contracts/src/v0.8/ChainlinkClient.sol\":11649:11691  msg.sender == s_pendingRequests[requestId] */\n      0xffffffffffffffffffffffffffffffffffffffff\n      and\n      eq\n        /* \"https://github.com/smartcontractkit/chainlink/blob/develop/contracts/src/v0.8/ChainlinkClient.sol\":11641:11736  require(msg.sender == s_pendingRequests[requestId], \"Source must be the oracle of the request\") */\n      tag_110\n      jumpi\n      mload(0x40)\n      0x08c379a000000000000000000000000000000000000000000000000000000000\n      dup2\n      mstore\n      0x04\n      add\n      tag_111\n      swap1\n      tag_112\n      jump\t// in\n    tag_111:\n      mload(0x40)\n      dup1\n      swap2\n      sub\n      swap1\n      revert\n    tag_110:\n        /* \"https://github.com/smartcontractkit/chainlink/blob/develop/contracts/src/v0.8/ChainlinkClient.sol\":11749:11766  s_pendingRequests */\n      0x05\n        /* \"https://github.com/smartcontractkit/chainlink/blob/develop/contracts/src/v0.8/ChainlinkClient.sol\":11749:11777  s_pendingRequests[requestId] */\n      0x00\n        /* \"https://github.com/smartcontractkit/chainlink/blob/develop/contracts/src/v0.8/ChainlinkClient.sol\":11767:11776  requestId */\n      dup3\n        /* \"https://github.com/smartcontractkit/chainlink/blob/develop/contracts/src/v0.8/ChainlinkClient.sol\":11749:11777  s_pendingRequests[requestId] */\n      dup2\n      mstore\n      0x20\n      add\n      swap1\n      dup2\n      mstore\n      0x20\n      add\n      0x00\n      keccak256\n      0x00\n        /* \"https://github.com/smartcontractkit/chainlink/blob/develop/contracts/src/v0.8/ChainlinkClient.sol\":11742:11777  delete s_pendingRequests[requestId] */\n      0x0100\n      exp\n      dup2\n      sload\n      swap1\n      0xffffffffffffffffffffffffffffffffffffffff\n      mul\n      not\n      and\n      swap1\n      sstore\n        /* \"https://github.com/smartcontractkit/chainlink/blob/develop/contracts/src/v0.8/ChainlinkClient.sol\":11807:11816  requestId */\n      dup1\n        /* \"https://github.com/smartcontractkit/chainlink/blob/develop/contracts/src/v0.8/ChainlinkClient.sol\":11788:11817  ChainlinkFulfilled(requestId) */\n      0x7cc135e0cebb02c3480ae5d74d377283180a2601f8f644edf7987b009316c63a\n      mload(0x40)\n      mload(0x40)\n      dup1\n      swap2\n      sub\n      swap1\n      log2\n        /* \"griffins/backend/contracts/oracleContract.sol\":3074:3088  _stockCurrency */\n      dup2\n        /* \"griffins/backend/contracts/oracleContract.sol\":3060:3073  stockCurrency */\n      0x0b\n        /* \"griffins/backend/contracts/oracleContract.sol\":3060:3088  stockCurrency=_stockCurrency */\n      swap1\n      dup1\n      mload\n      swap1\n      0x20\n      add\n      swap1\n      tag_114\n      swap3\n      swap2\n      swap1\n      tag_115\n      jump\t// in\n    tag_114:\n      pop\n        /* \"griffins/backend/contracts/oracleContract.sol\":2924:3095  function fulfillStockCurrency(bytes32 _requestId, string memory _stockCurrency) public recordChainlinkFulfillment(_requestId) {... */\n      pop\n      pop\n      pop\n      jump\t// out\n        /* \"griffins/backend/contracts/oracleContract.sol\":2243:2393  function fulfillStockPrice(bytes32 _requestId, uint _stockPrice) public recordChainlinkFulfillment(_requestId) {... */\n    tag_49:\n        /* \"griffins/backend/contracts/oracleContract.sol\":2342:2352  _requestId */\n      dup2\n        /* \"https://github.com/smartcontractkit/chainlink/blob/develop/contracts/src/v0.8/ChainlinkClient.sol\":11663:11680  s_pendingRequests */\n      0x05\n        /* \"https://github.com/smartcontractkit/chainlink/blob/develop/contracts/src/v0.8/ChainlinkClient.sol\":11663:11691  s_pendingRequests[requestId] */\n      0x00\n        /* \"https://github.com/smartcontractkit/chainlink/blob/develop/contracts/src/v0.8/ChainlinkClient.sol\":11681:11690  requestId */\n      dup3\n        /* \"https://github.com/smartcontractkit/chainlink/blob/develop/contracts/src/v0.8/ChainlinkClient.sol\":11663:11691  s_pendingRequests[requestId] */\n      dup2\n      mstore\n      0x20\n      add\n      swap1\n      dup2\n      mstore\n      0x20\n      add\n      0x00\n      keccak256\n      0x00\n      swap1\n      sload\n      swap1\n      0x0100\n      exp\n      swap1\n      div\n      0xffffffffffffffffffffffffffffffffffffffff\n      and\n        /* \"https://github.com/smartcontractkit/chainlink/blob/develop/contracts/src/v0.8/ChainlinkClient.sol\":11649:11691  msg.sender == s_pendingRequests[requestId] */\n      0xffffffffffffffffffffffffffffffffffffffff\n      and\n        /* \"https://github.com/smartcontractkit/chainlink/blob/develop/contracts/src/v0.8/ChainlinkClient.sol\":11649:11659  msg.sender */\n      caller\n        /* \"https://github.com/smartcontractkit/chainlink/blob/develop/contracts/src/v0.8/ChainlinkClient.sol\":11649:11691  msg.sender == s_pendingRequests[requestId] */\n      0xffffffffffffffffffffffffffffffffffffffff\n      and\n      eq\n        /* \"https://github.com/smartcontractkit/chainlink/blob/develop/contracts/src/v0.8/ChainlinkClient.sol\":11641:11736  require(msg.sender == s_pendingRequests[requestId], \"Source must be the oracle of the request\") */\n      tag_117\n      jumpi\n      mload(0x40)\n      0x08c379a000000000000000000000000000000000000000000000000000000000\n      dup2\n      mstore\n      0x04\n      add\n      tag_118\n      swap1\n      tag_112\n      jump\t// in\n    tag_118:\n      mload(0x40)\n      dup1\n      swap2\n      sub\n      swap1\n      revert\n    tag_117:\n        /* \"https://github.com/smartcontractkit/chainlink/blob/develop/contracts/src/v0.8/ChainlinkClient.sol\":11749:11766  s_pendingRequests */\n      0x05\n        /* \"https://github.com/smartcontractkit/chainlink/blob/develop/contracts/src/v0.8/ChainlinkClient.sol\":11749:11777  s_pendingRequests[requestId] */\n      0x00\n        /* \"https://github.com/smartcontractkit/chainlink/blob/develop/contracts/src/v0.8/ChainlinkClient.sol\":11767:11776  requestId */\n      dup3\n        /* \"https://github.com/smartcontractkit/chainlink/blob/develop/contracts/src/v0.8/ChainlinkClient.sol\":11749:11777  s_pendingRequests[requestId] */\n      dup2\n      mstore\n      0x20\n      add\n      swap1\n      dup2\n      mstore\n      0x20\n      add\n      0x00\n      keccak256\n      0x00\n        /* \"https://github.com/smartcontractkit/chainlink/blob/develop/contracts/src/v0.8/ChainlinkClient.sol\":11742:11777  delete s_pendingRequests[requestId] */\n      0x0100\n      exp\n      dup2\n      sload\n      swap1\n      0xffffffffffffffffffffffffffffffffffffffff\n      mul\n      not\n      and\n      swap1\n      sstore\n        /* \"https://github.com/smartcontractkit/chainlink/blob/develop/contracts/src/v0.8/ChainlinkClient.sol\":11807:11816  requestId */\n      dup1\n        /* \"https://github.com/smartcontractkit/chainlink/blob/develop/contracts/src/v0.8/ChainlinkClient.sol\":11788:11817  ChainlinkFulfilled(requestId) */\n      0x7cc135e0cebb02c3480ae5d74d377283180a2601f8f644edf7987b009316c63a\n      mload(0x40)\n      mload(0x40)\n      dup1\n      swap2\n      sub\n      swap1\n      log2\n        /* \"griffins/backend/contracts/oracleContract.sol\":2375:2386  _stockPrice */\n      dup2\n        /* \"griffins/backend/contracts/oracleContract.sol\":2364:2374  stockPrice */\n      0x08\n        /* \"griffins/backend/contracts/oracleContract.sol\":2364:2386  stockPrice=_stockPrice */\n      dup2\n      swap1\n      sstore\n      pop\n        /* \"griffins/backend/contracts/oracleContract.sol\":2243:2393  function fulfillStockPrice(bytes32 _requestId, uint _stockPrice) public recordChainlinkFulfillment(_requestId) {... */\n      pop\n      pop\n      pop\n      jump\t// out\n        /* \"griffins/backend/contracts/oracleContract.sol\":1603:2238  function getStockPrice(string memory symbol) public returns (bytes32 requestId) {... */\n    tag_53:\n        /* \"griffins/backend/contracts/oracleContract.sol\":1664:1681  bytes32 requestId */\n      0x00\n        /* \"griffins/backend/contracts/oracleContract.sol\":1693:1721  Chainlink.Request memory req */\n      dup1\n        /* \"griffins/backend/contracts/oracleContract.sol\":1724:1846  buildChainlinkRequest(... */\n      tag_121\n        /* \"griffins/backend/contracts/oracleContract.sol\":1759:1764  jobId */\n      sload(0x0c)\n        /* \"griffins/backend/contracts/oracleContract.sol\":1786:1790  this */\n      address\n        /* \"griffins/backend/contracts/oracleContract.sol\":1805:1836  this.fulfillStockPrice.selector */\n      shl(0xe0, 0x5dfcb4c3)\n        /* \"griffins/backend/contracts/oracleContract.sol\":1724:1745  buildChainlinkRequest */\n      tag_86\n        /* \"griffins/backend/contracts/oracleContract.sol\":1724:1846  buildChainlinkRequest(... */\n      jump\t// in\n    tag_121:\n        /* \"griffins/backend/contracts/oracleContract.sol\":1693:1846  Chainlink.Request memory req = buildChainlinkRequest(... */\n      swap1\n      pop\n        /* \"griffins/backend/contracts/oracleContract.sol\":1856:1873  string memory url */\n      0x00\n        /* \"griffins/backend/contracts/oracleContract.sol\":1962:1968  symbol */\n      dup4\n        /* \"griffins/backend/contracts/oracleContract.sol\":1874:2000  string.concat(\"https://www.alphavantage.co/query?function=TIME_SERIES_INTRADAY&symbol=\",symbol,\"&interval=5min&apikey=vxvcxv\") */\n      add(0x20, mload(0x40))\n      tag_122\n      swap2\n      swap1\n      tag_123\n      jump\t// in\n    tag_122:\n      mload(0x40)\n      0x20\n      dup2\n      dup4\n      sub\n      sub\n      dup2\n      mstore\n      swap1\n      0x40\n      mstore\n        /* \"griffins/backend/contracts/oracleContract.sol\":1856:2000  string memory url=string.concat(\"https://www.alphavantage.co/query?function=TIME_SERIES_INTRADAY&symbol=\",symbol,\"&interval=5min&apikey=vxvcxv\") */\n      swap1\n      pop\n        /* \"griffins/backend/contracts/oracleContract.sol\":2010:2028  req.add(\"get\",url) */\n      tag_124\n      mload(0x40)\n      dup1\n      0x40\n      add\n      0x40\n      mstore\n      dup1\n      0x03\n      dup2\n      mstore\n      0x20\n      add\n      0x6765740000000000000000000000000000000000000000000000000000000000\n      dup2\n      mstore\n      pop\n        /* \"griffins/backend/contracts/oracleContract.sol\":2024:2027  url */\n      dup3\n        /* \"griffins/backend/contracts/oracleContract.sol\":2010:2013  req */\n      dup5\n        /* \"griffins/backend/contracts/oracleContract.sol\":2010:2017  req.add */\n      tag_90\n      swap1\n        /* \"griffins/backend/contracts/oracleContract.sol\":2010:2028  req.add(\"get\",url) */\n      swap3\n      swap2\n      swap1\n      0xffffffff\n      and\n      jump\t// in\n    tag_124:\n        /* \"griffins/backend/contracts/oracleContract.sol\":2038:2103  req.add(\"path\",\"Time Series (5min),2023-01-13 16:30:00,4. close\") */\n      tag_125\n      mload(0x40)\n      dup1\n      0x40\n      add\n      0x40\n      mstore\n      dup1\n      0x04\n      dup2\n      mstore\n      0x20\n      add\n      0x7061746800000000000000000000000000000000000000000000000000000000\n      dup2\n      mstore\n      pop\n      mload(0x40)\n      dup1\n      0x60\n      add\n      0x40\n      mstore\n      dup1\n      0x2f\n      dup2\n      mstore\n      0x20\n      add\n      data_b7ef3161b41f98f63dd2b0068cc9b293a671d068fce5e8f1eb29d1de82e12fc8\n      0x2f\n      swap2\n      codecopy\n        /* \"griffins/backend/contracts/oracleContract.sol\":2038:2041  req */\n      dup5\n        /* \"griffins/backend/contracts/oracleContract.sol\":2038:2045  req.add */\n      tag_90\n      swap1\n        /* \"griffins/backend/contracts/oracleContract.sol\":2038:2103  req.add(\"path\",\"Time Series (5min),2023-01-13 16:30:00,4. close\") */\n      swap3\n      swap2\n      swap1\n      0xffffffff\n      and\n      jump\t// in\n    tag_125:\n        /* \"griffins/backend/contracts/oracleContract.sol\":2113:2131  int256 timesAmount */\n      0x00\n        /* \"griffins/backend/contracts/oracleContract.sol\":2134:2141  10 ** 9 */\n      0x3b9aca00\n        /* \"griffins/backend/contracts/oracleContract.sol\":2113:2141  int256 timesAmount = 10 ** 9 */\n      swap1\n      pop\n        /* \"griffins/backend/contracts/oracleContract.sol\":2151:2183  req.addInt(\"times\", timesAmount) */\n      tag_126\n      mload(0x40)\n      dup1\n      0x40\n      add\n      0x40\n      mstore\n      dup1\n      0x05\n      dup2\n      mstore\n      0x20\n      add\n      0x74696d6573000000000000000000000000000000000000000000000000000000\n      dup2\n      mstore\n      pop\n        /* \"griffins/backend/contracts/oracleContract.sol\":2171:2182  timesAmount */\n      dup3\n        /* \"griffins/backend/contracts/oracleContract.sol\":2151:2154  req */\n      dup6\n        /* \"griffins/backend/contracts/oracleContract.sol\":2151:2161  req.addInt */\n      tag_101\n      swap1\n        /* \"griffins/backend/contracts/oracleContract.sol\":2151:2183  req.addInt(\"times\", timesAmount) */\n      swap3\n      swap2\n      swap1\n      0xffffffff\n      and\n      jump\t// in\n    tag_126:\n        /* \"griffins/backend/contracts/oracleContract.sol\":2200:2230  sendChainlinkRequest(req, fee) */\n      tag_127\n        /* \"griffins/backend/contracts/oracleContract.sol\":2221:2224  req */\n      dup4\n        /* \"griffins/backend/contracts/oracleContract.sol\":2226:2229  fee */\n      sload(0x0d)\n        /* \"griffins/backend/contracts/oracleContract.sol\":2200:2220  sendChainlinkRequest */\n      tag_93\n        /* \"griffins/backend/contracts/oracleContract.sol\":2200:2230  sendChainlinkRequest(req, fee) */\n      jump\t// in\n    tag_127:\n        /* \"griffins/backend/contracts/oracleContract.sol\":2193:2230  return sendChainlinkRequest(req, fee) */\n      swap4\n      pop\n      pop\n      pop\n      pop\n        /* \"griffins/backend/contracts/oracleContract.sol\":1603:2238  function getStockPrice(string memory symbol) public returns (bytes32 requestId) {... */\n      swap2\n      swap1\n      pop\n      jump\t// out\n        /* \"https://github.com/smartcontractkit/chainlink/blob/develop/contracts/src/v0.8/ConfirmedOwnerWithProposal.sol\":1016:1281  function acceptOwnership() external override {... */\n    tag_57:\n        /* \"https://github.com/smartcontractkit/chainlink/blob/develop/contracts/src/v0.8/ConfirmedOwnerWithProposal.sol\":1089:1103  s_pendingOwner */\n      0x07\n      0x00\n      swap1\n      sload\n      swap1\n      0x0100\n      exp\n      swap1\n      div\n      0xffffffffffffffffffffffffffffffffffffffff\n      and\n        /* \"https://github.com/smartcontractkit/chainlink/blob/develop/contracts/src/v0.8/ConfirmedOwnerWithProposal.sol\":1075:1103  msg.sender == s_pendingOwner */\n      0xffffffffffffffffffffffffffffffffffffffff\n      and\n        /* \"https://github.com/smartcontractkit/chainlink/blob/develop/contracts/src/v0.8/ConfirmedOwnerWithProposal.sol\":1075:1085  msg.sender */\n      caller\n        /* \"https://github.com/smartcontractkit/chainlink/blob/develop/contracts/src/v0.8/ConfirmedOwnerWithProposal.sol\":1075:1103  msg.sender == s_pendingOwner */\n      0xffffffffffffffffffffffffffffffffffffffff\n      and\n      eq\n        /* \"https://github.com/smartcontractkit/chainlink/blob/develop/contracts/src/v0.8/ConfirmedOwnerWithProposal.sol\":1067:1130  require(msg.sender == s_pendingOwner, \"Must be proposed owner\") */\n      tag_129\n      jumpi\n      mload(0x40)\n      0x08c379a000000000000000000000000000000000000000000000000000000000\n      dup2\n      mstore\n      0x04\n      add\n      tag_130\n      swap1\n      tag_131\n      jump\t// in\n    tag_130:\n      mload(0x40)\n      dup1\n      swap2\n      sub\n      swap1\n      revert\n    tag_129:\n        /* \"https://github.com/smartcontractkit/chainlink/blob/develop/contracts/src/v0.8/ConfirmedOwnerWithProposal.sol\":1137:1153  address oldOwner */\n      0x00\n        /* \"https://github.com/smartcontractkit/chainlink/blob/develop/contracts/src/v0.8/ConfirmedOwnerWithProposal.sol\":1156:1163  s_owner */\n      0x06\n      0x00\n      swap1\n      sload\n      swap1\n      0x0100\n      exp\n      swap1\n      div\n      0xffffffffffffffffffffffffffffffffffffffff\n      and\n        /* \"https://github.com/smartcontractkit/chainlink/blob/develop/contracts/src/v0.8/ConfirmedOwnerWithProposal.sol\":1137:1163  address oldOwner = s_owner */\n      swap1\n      pop\n        /* \"https://github.com/smartcontractkit/chainlink/blob/develop/contracts/src/v0.8/ConfirmedOwnerWithProposal.sol\":1179:1189  msg.sender */\n      caller\n        /* \"https://github.com/smartcontractkit/chainlink/blob/develop/contracts/src/v0.8/ConfirmedOwnerWithProposal.sol\":1169:1176  s_owner */\n      0x06\n      0x00\n        /* \"https://github.com/smartcontractkit/chainlink/blob/develop/contracts/src/v0.8/ConfirmedOwnerWithProposal.sol\":1169:1189  s_owner = msg.sender */\n      0x0100\n      exp\n      dup2\n      sload\n      dup2\n      0xffffffffffffffffffffffffffffffffffffffff\n      mul\n      not\n      and\n      swap1\n      dup4\n      0xffffffffffffffffffffffffffffffffffffffff\n      and\n      mul\n      or\n      swap1\n      sstore\n      pop\n        /* \"https://github.com/smartcontractkit/chainlink/blob/develop/contracts/src/v0.8/ConfirmedOwnerWithProposal.sol\":1220:1221  0 */\n      0x00\n        /* \"https://github.com/smartcontractkit/chainlink/blob/develop/contracts/src/v0.8/ConfirmedOwnerWithProposal.sol\":1195:1209  s_pendingOwner */\n      0x07\n      0x00\n        /* \"https://github.com/smartcontractkit/chainlink/blob/develop/contracts/src/v0.8/ConfirmedOwnerWithProposal.sol\":1195:1222  s_pendingOwner = address(0) */\n      0x0100\n      exp\n      dup2\n      sload\n      dup2\n      0xffffffffffffffffffffffffffffffffffffffff\n      mul\n      not\n      and\n      swap1\n      dup4\n      0xffffffffffffffffffffffffffffffffffffffff\n      and\n      mul\n      or\n      swap1\n      sstore\n      pop\n        /* \"https://github.com/smartcontractkit/chainlink/blob/develop/contracts/src/v0.8/ConfirmedOwnerWithProposal.sol\":1265:1275  msg.sender */\n      caller\n        /* \"https://github.com/smartcontractkit/chainlink/blob/develop/contracts/src/v0.8/ConfirmedOwnerWithProposal.sol\":1234:1276  OwnershipTransferred(oldOwner, msg.sender) */\n      0xffffffffffffffffffffffffffffffffffffffff\n      and\n        /* \"https://github.com/smartcontractkit/chainlink/blob/develop/contracts/src/v0.8/ConfirmedOwnerWithProposal.sol\":1255:1263  oldOwner */\n      dup2\n        /* \"https://github.com/smartcontractkit/chainlink/blob/develop/contracts/src/v0.8/ConfirmedOwnerWithProposal.sol\":1234:1276  OwnershipTransferred(oldOwner, msg.sender) */\n      0xffffffffffffffffffffffffffffffffffffffff\n      and\n      0x8be0079c531659141344cd1fd0a4f28419497f9722a3daafe3b4186f6b6457e0\n      mload(0x40)\n      mload(0x40)\n      dup1\n      swap2\n      sub\n      swap1\n      log3\n        /* \"https://github.com/smartcontractkit/chainlink/blob/develop/contracts/src/v0.8/ConfirmedOwnerWithProposal.sol\":1061:1281  {... */\n      pop\n        /* \"https://github.com/smartcontractkit/chainlink/blob/develop/contracts/src/v0.8/ConfirmedOwnerWithProposal.sol\":1016:1281  function acceptOwnership() external override {... */\n      jump\t// out\n        /* \"https://github.com/smartcontractkit/chainlink/blob/develop/contracts/src/v0.8/ConfirmedOwnerWithProposal.sol\":1332:1413  function owner() public view override returns (address) {... */\n    tag_60:\n        /* \"https://github.com/smartcontractkit/chainlink/blob/develop/contracts/src/v0.8/ConfirmedOwnerWithProposal.sol\":1379:1386  address */\n      0x00\n        /* \"https://github.com/smartcontractkit/chainlink/blob/develop/contracts/src/v0.8/ConfirmedOwnerWithProposal.sol\":1401:1408  s_owner */\n      0x06\n      0x00\n      swap1\n      sload\n      swap1\n      0x0100\n      exp\n      swap1\n      div\n      0xffffffffffffffffffffffffffffffffffffffff\n      and\n        /* \"https://github.com/smartcontractkit/chainlink/blob/develop/contracts/src/v0.8/ConfirmedOwnerWithProposal.sol\":1394:1408  return s_owner */\n      swap1\n      pop\n        /* \"https://github.com/smartcontractkit/chainlink/blob/develop/contracts/src/v0.8/ConfirmedOwnerWithProposal.sol\":1332:1413  function owner() public view override returns (address) {... */\n      swap1\n      jump\t// out\n        /* \"griffins/backend/contracts/oracleContract.sol\":1074:1597  function validateTransaction(string memory symbol,uint selectedUnits) public payable... */\n    tag_66:\n        /* \"griffins/backend/contracts/oracleContract.sol\":1188:1197  msg.value */\n      callvalue\n        /* \"griffins/backend/contracts/oracleContract.sol\":1173:1187  selectedAmount */\n      0x09\n        /* \"griffins/backend/contracts/oracleContract.sol\":1173:1197  selectedAmount=msg.value */\n      dup2\n      swap1\n      sstore\n      pop\n        /* \"griffins/backend/contracts/oracleContract.sol\":1207:1211  this */\n      address\n        /* \"griffins/backend/contracts/oracleContract.sol\":1207:1228  this.getStockCurrency */\n      0xffffffffffffffffffffffffffffffffffffffff\n      and\n      0x163457b3\n        /* \"griffins/backend/contracts/oracleContract.sol\":1229:1235  symbol */\n      dup4\n        /* \"griffins/backend/contracts/oracleContract.sol\":1207:1236  this.getStockCurrency(symbol) */\n      mload(0x40)\n      dup3\n      0xffffffff\n      and\n      0xe0\n      shl\n      dup2\n      mstore\n      0x04\n      add\n      tag_134\n      swap2\n      swap1\n      tag_39\n      jump\t// in\n    tag_134:\n      0x20\n      mload(0x40)\n      dup1\n      dup4\n      sub\n      dup2\n      0x00\n      dup8\n      gas\n      call\n      iszero\n      dup1\n      iszero\n      tag_136\n      jumpi\n      returndatasize\n      0x00\n      dup1\n      returndatacopy\n      revert(0x00, returndatasize)\n    tag_136:\n      pop\n      pop\n      pop\n      pop\n      mload(0x40)\n      returndatasize\n      not(0x1f)\n      0x1f\n      dup3\n      add\n      and\n      dup3\n      add\n      dup1\n      0x40\n      mstore\n      pop\n      dup2\n      add\n      swap1\n      tag_137\n      swap2\n      swap1\n      tag_138\n      jump\t// in\n    tag_137:\n      pop\n        /* \"griffins/backend/contracts/oracleContract.sol\":1246:1250  this */\n      address\n        /* \"griffins/backend/contracts/oracleContract.sol\":1246:1264  this.getStockPrice */\n      0xffffffffffffffffffffffffffffffffffffffff\n      and\n      0x75c8bd62\n        /* \"griffins/backend/contracts/oracleContract.sol\":1265:1271  symbol */\n      dup4\n        /* \"griffins/backend/contracts/oracleContract.sol\":1246:1272  this.getStockPrice(symbol) */\n      mload(0x40)\n      dup3\n      0xffffffff\n      and\n      0xe0\n      shl\n      dup2\n      mstore\n      0x04\n      add\n      tag_139\n      swap2\n      swap1\n      tag_39\n      jump\t// in\n    tag_139:\n      0x20\n      mload(0x40)\n      dup1\n      dup4\n      sub\n      dup2\n      0x00\n      dup8\n      gas\n      call\n      iszero\n      dup1\n      iszero\n      tag_141\n      jumpi\n      returndatasize\n      0x00\n      dup1\n      returndatacopy\n      revert(0x00, returndatasize)\n    tag_141:\n      pop\n      pop\n      pop\n      pop\n      mload(0x40)\n      returndatasize\n      not(0x1f)\n      0x1f\n      dup3\n      add\n      and\n      dup3\n      add\n      dup1\n      0x40\n      mstore\n      pop\n      dup2\n      add\n      swap1\n      tag_142\n      swap2\n      swap1\n      tag_138\n      jump\t// in\n    tag_142:\n      pop\n        /* \"griffins/backend/contracts/oracleContract.sol\":1282:1286  this */\n      address\n        /* \"griffins/backend/contracts/oracleContract.sol\":1282:1302  this.convertCurrency */\n      0xffffffffffffffffffffffffffffffffffffffff\n      and\n      0x1fc58c87\n        /* \"griffins/backend/contracts/oracleContract.sol\":1282:1304  this.convertCurrency() */\n      mload(0x40)\n      dup2\n      0xffffffff\n      and\n      0xe0\n      shl\n      dup2\n      mstore\n      0x04\n      add\n      0x20\n      mload(0x40)\n      dup1\n      dup4\n      sub\n      dup2\n      0x00\n      dup8\n      gas\n      call\n      iszero\n      dup1\n      iszero\n      tag_144\n      jumpi\n      returndatasize\n      0x00\n      dup1\n      returndatacopy\n      revert(0x00, returndatasize)\n    tag_144:\n      pop\n      pop\n      pop\n      pop\n      mload(0x40)\n      returndatasize\n      not(0x1f)\n      0x1f\n      dup3\n      add\n      and\n      dup3\n      add\n      dup1\n      0x40\n      mstore\n      pop\n      dup2\n      add\n      swap1\n      tag_145\n      swap2\n      swap1\n      tag_138\n      jump\t// in\n    tag_145:\n      pop\n        /* \"griffins/backend/contracts/oracleContract.sol\":1532:1549  convertedCurrency */\n      sload(0x0a)\n        /* \"griffins/backend/contracts/oracleContract.sol\":1521:1531  stockPrice */\n      sload(0x08)\n        /* \"griffins/backend/contracts/oracleContract.sol\":1507:1520  selectedUnits */\n      dup3\n        /* \"griffins/backend/contracts/oracleContract.sol\":1507:1531  selectedUnits*stockPrice */\n      tag_146\n      swap2\n      swap1\n      tag_147\n      jump\t// in\n    tag_146:\n        /* \"griffins/backend/contracts/oracleContract.sol\":1507:1549  selectedUnits*stockPrice*convertedCurrency */\n      tag_148\n      swap2\n      swap1\n      tag_147\n      jump\t// in\n    tag_148:\n        /* \"griffins/backend/contracts/oracleContract.sol\":1491:1505  selectedAmount */\n      sload(0x09)\n        /* \"griffins/backend/contracts/oracleContract.sol\":1491:1549  selectedAmount>=selectedUnits*stockPrice*convertedCurrency */\n      lt\n      iszero\n        /* \"griffins/backend/contracts/oracleContract.sol\":1483:1558  require(selectedAmount>=selectedUnits*stockPrice*convertedCurrency,'Error') */\n      tag_149\n      jumpi\n      mload(0x40)\n      0x08c379a000000000000000000000000000000000000000000000000000000000\n      dup2\n      mstore\n      0x04\n      add\n      tag_150\n      swap1\n      tag_151\n      jump\t// in\n    tag_150:\n      mload(0x40)\n      dup1\n      swap2\n      sub\n      swap1\n      revert\n    tag_149:\n        /* \"griffins/backend/contracts/oracleContract.sol\":1573:1590  StatusEvent(true) */\n      0x64e38d65ba50c71f50517639362ddb5a0477533c04568e912ffd1753004cbcf6\n        /* \"griffins/backend/contracts/oracleContract.sol\":1585:1589  true */\n      0x01\n        /* \"griffins/backend/contracts/oracleContract.sol\":1573:1590  StatusEvent(true) */\n      mload(0x40)\n      tag_152\n      swap2\n      swap1\n      tag_153\n      jump\t// in\n    tag_152:\n      mload(0x40)\n      dup1\n      swap2\n      sub\n      swap1\n      log1\n        /* \"griffins/backend/contracts/oracleContract.sol\":1074:1597  function validateTransaction(string memory symbol,uint selectedUnits) public payable... */\n      pop\n      pop\n      jump\t// out\n        /* \"griffins/backend/contracts/oracleContract.sol\":3727:3905  function fulfillCurrencyConverter(bytes32 _requestId, uint _convertedCurrency) public recordChainlinkFulfillment(_requestId) {... */\n    tag_70:\n        /* \"griffins/backend/contracts/oracleContract.sol\":3840:3850  _requestId */\n      dup2\n        /* \"https://github.com/smartcontractkit/chainlink/blob/develop/contracts/src/v0.8/ChainlinkClient.sol\":11663:11680  s_pendingRequests */\n      0x05\n        /* \"https://github.com/smartcontractkit/chainlink/blob/develop/contracts/src/v0.8/ChainlinkClient.sol\":11663:11691  s_pendingRequests[requestId] */\n      0x00\n        /* \"https://github.com/smartcontractkit/chainlink/blob/develop/contracts/src/v0.8/ChainlinkClient.sol\":11681:11690  requestId */\n      dup3\n        /* \"https://github.com/smartcontractkit/chainlink/blob/develop/contracts/src/v0.8/ChainlinkClient.sol\":11663:11691  s_pendingRequests[requestId] */\n      dup2\n      mstore\n      0x20\n      add\n      swap1\n      dup2\n      mstore\n      0x20\n      add\n      0x00\n      keccak256\n      0x00\n      swap1\n      sload\n      swap1\n      0x0100\n      exp\n      swap1\n      div\n      0xffffffffffffffffffffffffffffffffffffffff\n      and\n        /* \"https://github.com/smartcontractkit/chainlink/blob/develop/contracts/src/v0.8/ChainlinkClient.sol\":11649:11691  msg.sender == s_pendingRequests[requestId] */\n      0xffffffffffffffffffffffffffffffffffffffff\n      and\n        /* \"https://github.com/smartcontractkit/chainlink/blob/develop/contracts/src/v0.8/ChainlinkClient.sol\":11649:11659  msg.sender */\n      caller\n        /* \"https://github.com/smartcontractkit/chainlink/blob/develop/contracts/src/v0.8/ChainlinkClient.sol\":11649:11691  msg.sender == s_pendingRequests[requestId] */\n      0xffffffffffffffffffffffffffffffffffffffff\n      and\n      eq\n        /* \"https://github.com/smartcontractkit/chainlink/blob/develop/contracts/src/v0.8/ChainlinkClient.sol\":11641:11736  require(msg.sender == s_pendingRequests[requestId], \"Source must be the oracle of the request\") */\n      tag_155\n      jumpi\n      mload(0x40)\n      0x08c379a000000000000000000000000000000000000000000000000000000000\n      dup2\n      mstore\n      0x04\n      add\n      tag_156\n      swap1\n      tag_112\n      jump\t// in\n    tag_156:\n      mload(0x40)\n      dup1\n      swap2\n      sub\n      swap1\n      revert\n    tag_155:\n        /* \"https://github.com/smartcontractkit/chainlink/blob/develop/contracts/src/v0.8/ChainlinkClient.sol\":11749:11766  s_pendingRequests */\n      0x05\n        /* \"https://github.com/smartcontractkit/chainlink/blob/develop/contracts/src/v0.8/ChainlinkClient.sol\":11749:11777  s_pendingRequests[requestId] */\n      0x00\n        /* \"https://github.com/smartcontractkit/chainlink/blob/develop/contracts/src/v0.8/ChainlinkClient.sol\":11767:11776  requestId */\n      dup3\n        /* \"https://github.com/smartcontractkit/chainlink/blob/develop/contracts/src/v0.8/ChainlinkClient.sol\":11749:11777  s_pendingRequests[requestId] */\n      dup2\n      mstore\n      0x20\n      add\n      swap1\n      dup2\n      mstore\n      0x20\n      add\n      0x00\n      keccak256\n      0x00\n        /* \"https://github.com/smartcontractkit/chainlink/blob/develop/contracts/src/v0.8/ChainlinkClient.sol\":11742:11777  delete s_pendingRequests[requestId] */\n      0x0100\n      exp\n      dup2\n      sload\n      swap1\n      0xffffffffffffffffffffffffffffffffffffffff\n      mul\n      not\n      and\n      swap1\n      sstore\n        /* \"https://github.com/smartcontractkit/chainlink/blob/develop/contracts/src/v0.8/ChainlinkClient.sol\":11807:11816  requestId */\n      dup1\n        /* \"https://github.com/smartcontractkit/chainlink/blob/develop/contracts/src/v0.8/ChainlinkClient.sol\":11788:11817  ChainlinkFulfilled(requestId) */\n      0x7cc135e0cebb02c3480ae5d74d377283180a2601f8f644edf7987b009316c63a\n      mload(0x40)\n      mload(0x40)\n      dup1\n      swap2\n      sub\n      swap1\n      log2\n        /* \"griffins/backend/contracts/oracleContract.sol\":3880:3898  _convertedCurrency */\n      dup2\n        /* \"griffins/backend/contracts/oracleContract.sol\":3862:3879  convertedCurrency */\n      0x0a\n        /* \"griffins/backend/contracts/oracleContract.sol\":3862:3898  convertedCurrency=_convertedCurrency */\n      dup2\n      swap1\n      sstore\n      pop\n        /* \"griffins/backend/contracts/oracleContract.sol\":3727:3905  function fulfillCurrencyConverter(bytes32 _requestId, uint _convertedCurrency) public recordChainlinkFulfillment(_requestId) {... */\n      pop\n      pop\n      pop\n      jump\t// out\n        /* \"griffins/backend/contracts/oracleContract.sol\":623:652  uint public convertedCurrency */\n    tag_73:\n      sload(0x0a)\n      dup2\n      jump\t// out\n        /* \"griffins/backend/contracts/oracleContract.sol\":563:585  uint public stockPrice */\n    tag_77:\n      sload(0x08)\n      dup2\n      jump\t// out\n        /* \"https://github.com/smartcontractkit/chainlink/blob/develop/contracts/src/v0.8/ConfirmedOwnerWithProposal.sol\":826:924  function transferOwnership(address to) public override onlyOwner {... */\n    tag_83:\n        /* \"https://github.com/smartcontractkit/chainlink/blob/develop/contracts/src/v0.8/ConfirmedOwnerWithProposal.sol\":1956:1976  _validateOwnership() */\n      tag_159\n        /* \"https://github.com/smartcontractkit/chainlink/blob/develop/contracts/src/v0.8/ConfirmedOwnerWithProposal.sol\":1956:1974  _validateOwnership */\n      tag_160\n        /* \"https://github.com/smartcontractkit/chainlink/blob/develop/contracts/src/v0.8/ConfirmedOwnerWithProposal.sol\":1956:1976  _validateOwnership() */\n      jump\t// in\n    tag_159:\n        /* \"https://github.com/smartcontractkit/chainlink/blob/develop/contracts/src/v0.8/ConfirmedOwnerWithProposal.sol\":897:919  _transferOwnership(to) */\n      tag_162\n        /* \"https://github.com/smartcontractkit/chainlink/blob/develop/contracts/src/v0.8/ConfirmedOwnerWithProposal.sol\":916:918  to */\n      dup2\n        /* \"https://github.com/smartcontractkit/chainlink/blob/develop/contracts/src/v0.8/ConfirmedOwnerWithProposal.sol\":897:915  _transferOwnership */\n      tag_163\n        /* \"https://github.com/smartcontractkit/chainlink/blob/develop/contracts/src/v0.8/ConfirmedOwnerWithProposal.sol\":897:919  _transferOwnership(to) */\n      jump\t// in\n    tag_162:\n        /* \"https://github.com/smartcontractkit/chainlink/blob/develop/contracts/src/v0.8/ConfirmedOwnerWithProposal.sol\":826:924  function transferOwnership(address to) public override onlyOwner {... */\n      pop\n      jump\t// out\n        /* \"https://github.com/smartcontractkit/chainlink/blob/develop/contracts/src/v0.8/ChainlinkClient.sol\":1850:2133  function buildChainlinkRequest(... */\n    tag_86:\n        /* \"https://github.com/smartcontractkit/chainlink/blob/develop/contracts/src/v0.8/ChainlinkClient.sol\":1992:2016  Chainlink.Request memory */\n      tag_164\n      tag_165\n      jump\t// in\n    tag_164:\n        /* \"https://github.com/smartcontractkit/chainlink/blob/develop/contracts/src/v0.8/ChainlinkClient.sol\":2024:2052  Chainlink.Request memory req */\n      tag_167\n      tag_165\n      jump\t// in\n    tag_167:\n        /* \"https://github.com/smartcontractkit/chainlink/blob/develop/contracts/src/v0.8/ChainlinkClient.sol\":2065:2128  req.initialize(specId, callbackAddr, callbackFunctionSignature) */\n      tag_168\n        /* \"https://github.com/smartcontractkit/chainlink/blob/develop/contracts/src/v0.8/ChainlinkClient.sol\":2080:2086  specId */\n      dup6\n        /* \"https://github.com/smartcontractkit/chainlink/blob/develop/contracts/src/v0.8/ChainlinkClient.sol\":2088:2100  callbackAddr */\n      dup6\n        /* \"https://github.com/smartcontractkit/chainlink/blob/develop/contracts/src/v0.8/ChainlinkClient.sol\":2102:2127  callbackFunctionSignature */\n      dup6\n        /* \"https://github.com/smartcontractkit/chainlink/blob/develop/contracts/src/v0.8/ChainlinkClient.sol\":2065:2068  req */\n      dup5\n        /* \"https://github.com/smartcontractkit/chainlink/blob/develop/contracts/src/v0.8/ChainlinkClient.sol\":2065:2079  req.initialize */\n      tag_169\n      swap1\n        /* \"https://github.com/smartcontractkit/chainlink/blob/develop/contracts/src/v0.8/ChainlinkClient.sol\":2065:2128  req.initialize(specId, callbackAddr, callbackFunctionSignature) */\n      swap4\n      swap3\n      swap2\n      swap1\n      0xffffffff\n      and\n      jump\t// in\n    tag_168:\n        /* \"https://github.com/smartcontractkit/chainlink/blob/develop/contracts/src/v0.8/ChainlinkClient.sol\":2058:2128  return req.initialize(specId, callbackAddr, callbackFunctionSignature) */\n      swap2\n      pop\n      pop\n        /* \"https://github.com/smartcontractkit/chainlink/blob/develop/contracts/src/v0.8/ChainlinkClient.sol\":1850:2133  function buildChainlinkRequest(... */\n      swap4\n      swap3\n      pop\n      pop\n      pop\n      jump\t// out\n        /* \"https://github.com/smartcontractkit/chainlink/blob/develop/contracts/src/v0.8/Chainlink.sol\":1951:2126  function add(... */\n    tag_90:\n        /* \"https://github.com/smartcontractkit/chainlink/blob/develop/contracts/src/v0.8/Chainlink.sol\":2061:2087  self.buf.encodeString(key) */\n      tag_171\n        /* \"https://github.com/smartcontractkit/chainlink/blob/develop/contracts/src/v0.8/Chainlink.sol\":2083:2086  key */\n      dup3\n        /* \"https://github.com/smartcontractkit/chainlink/blob/develop/contracts/src/v0.8/Chainlink.sol\":2061:2065  self */\n      dup5\n        /* \"https://github.com/smartcontractkit/chainlink/blob/develop/contracts/src/v0.8/Chainlink.sol\":2061:2069  self.buf */\n      0x80\n      add\n      mload\n        /* \"https://github.com/smartcontractkit/chainlink/blob/develop/contracts/src/v0.8/Chainlink.sol\":2061:2082  self.buf.encodeString */\n      tag_172\n      swap1\n        /* \"https://github.com/smartcontractkit/chainlink/blob/develop/contracts/src/v0.8/Chainlink.sol\":2061:2087  self.buf.encodeString(key) */\n      swap2\n      swap1\n      0xffffffff\n      and\n      jump\t// in\n    tag_171:\n        /* \"https://github.com/smartcontractkit/chainlink/blob/develop/contracts/src/v0.8/Chainlink.sol\":2093:2121  self.buf.encodeString(value) */\n      tag_173\n        /* \"https://github.com/smartcontractkit/chainlink/blob/develop/contracts/src/v0.8/Chainlink.sol\":2115:2120  value */\n      dup2\n        /* \"https://github.com/smartcontractkit/chainlink/blob/develop/contracts/src/v0.8/Chainlink.sol\":2093:2097  self */\n      dup5\n        /* \"https://github.com/smartcontractkit/chainlink/blob/develop/contracts/src/v0.8/Chainlink.sol\":2093:2101  self.buf */\n      0x80\n      add\n      mload\n        /* \"https://github.com/smartcontractkit/chainlink/blob/develop/contracts/src/v0.8/Chainlink.sol\":2093:2114  self.buf.encodeString */\n      tag_172\n      swap1\n        /* \"https://github.com/smartcontractkit/chainlink/blob/develop/contracts/src/v0.8/Chainlink.sol\":2093:2121  self.buf.encodeString(value) */\n      swap2\n      swap1\n      0xffffffff\n      and\n      jump\t// in\n    tag_173:\n        /* \"https://github.com/smartcontractkit/chainlink/blob/develop/contracts/src/v0.8/Chainlink.sol\":1951:2126  function add(... */\n      pop\n      pop\n      pop\n      jump\t// out\n        /* \"https://github.com/smartcontractkit/chainlink/blob/develop/contracts/src/v0.8/ChainlinkClient.sol\":2992:3169  function sendChainlinkRequest(Chainlink.Request memory req, uint256 payment) internal returns (bytes32) {... */\n    tag_93:\n        /* \"https://github.com/smartcontractkit/chainlink/blob/develop/contracts/src/v0.8/ChainlinkClient.sol\":3087:3094  bytes32 */\n      0x00\n        /* \"https://github.com/smartcontractkit/chainlink/blob/develop/contracts/src/v0.8/ChainlinkClient.sol\":3109:3164  sendChainlinkRequestTo(address(s_oracle), req, payment) */\n      tag_175\n        /* \"https://github.com/smartcontractkit/chainlink/blob/develop/contracts/src/v0.8/ChainlinkClient.sol\":3140:3148  s_oracle */\n      0x03\n      0x00\n      swap1\n      sload\n      swap1\n      0x0100\n      exp\n      swap1\n      div\n      0xffffffffffffffffffffffffffffffffffffffff\n      and\n        /* \"https://github.com/smartcontractkit/chainlink/blob/develop/contracts/src/v0.8/ChainlinkClient.sol\":3151:3154  req */\n      dup5\n        /* \"https://github.com/smartcontractkit/chainlink/blob/develop/contracts/src/v0.8/ChainlinkClient.sol\":3156:3163  payment */\n      dup5\n        /* \"https://github.com/smartcontractkit/chainlink/blob/develop/contracts/src/v0.8/ChainlinkClient.sol\":3109:3131  sendChainlinkRequestTo */\n      tag_176\n        /* \"https://github.com/smartcontractkit/chainlink/blob/develop/contracts/src/v0.8/ChainlinkClient.sol\":3109:3164  sendChainlinkRequestTo(address(s_oracle), req, payment) */\n      jump\t// in\n    tag_175:\n        /* \"https://github.com/smartcontractkit/chainlink/blob/develop/contracts/src/v0.8/ChainlinkClient.sol\":3102:3164  return sendChainlinkRequestTo(address(s_oracle), req, payment) */\n      swap1\n      pop\n        /* \"https://github.com/smartcontractkit/chainlink/blob/develop/contracts/src/v0.8/ChainlinkClient.sol\":2992:3169  function sendChainlinkRequest(Chainlink.Request memory req, uint256 payment) internal returns (bytes32) {... */\n      swap3\n      swap2\n      pop\n      pop\n      jump\t// out\n        /* \"https://github.com/smartcontractkit/chainlink/blob/develop/contracts/src/v0.8/Chainlink.sol\":2712:2880  function addInt(... */\n    tag_101:\n        /* \"https://github.com/smartcontractkit/chainlink/blob/develop/contracts/src/v0.8/Chainlink.sol\":2818:2844  self.buf.encodeString(key) */\n      tag_178\n        /* \"https://github.com/smartcontractkit/chainlink/blob/develop/contracts/src/v0.8/Chainlink.sol\":2840:2843  key */\n      dup3\n        /* \"https://github.com/smartcontractkit/chainlink/blob/develop/contracts/src/v0.8/Chainlink.sol\":2818:2822  self */\n      dup5\n        /* \"https://github.com/smartcontractkit/chainlink/blob/develop/contracts/src/v0.8/Chainlink.sol\":2818:2826  self.buf */\n      0x80\n      add\n      mload\n        /* \"https://github.com/smartcontractkit/chainlink/blob/develop/contracts/src/v0.8/Chainlink.sol\":2818:2839  self.buf.encodeString */\n      tag_172\n      swap1\n        /* \"https://github.com/smartcontractkit/chainlink/blob/develop/contracts/src/v0.8/Chainlink.sol\":2818:2844  self.buf.encodeString(key) */\n      swap2\n      swap1\n      0xffffffff\n      and\n      jump\t// in\n    tag_178:\n        /* \"https://github.com/smartcontractkit/chainlink/blob/develop/contracts/src/v0.8/Chainlink.sol\":2850:2875  self.buf.encodeInt(value) */\n      tag_179\n        /* \"https://github.com/smartcontractkit/chainlink/blob/develop/contracts/src/v0.8/Chainlink.sol\":2869:2874  value */\n      dup2\n        /* \"https://github.com/smartcontractkit/chainlink/blob/develop/contracts/src/v0.8/Chainlink.sol\":2850:2854  self */\n      dup5\n        /* \"https://github.com/smartcontractkit/chainlink/blob/develop/contracts/src/v0.8/Chainlink.sol\":2850:2858  self.buf */\n      0x80\n      add\n      mload\n        /* \"https://github.com/smartcontractkit/chainlink/blob/develop/contracts/src/v0.8/Chainlink.sol\":2850:2868  self.buf.encodeInt */\n      tag_180\n      swap1\n        /* \"https://github.com/smartcontractkit/chainlink/blob/develop/contracts/src/v0.8/Chainlink.sol\":2850:2875  self.buf.encodeInt(value) */\n      swap2\n      swap1\n      0xffffffff\n      and\n      jump\t// in\n    tag_179:\n        /* \"https://github.com/smartcontractkit/chainlink/blob/develop/contracts/src/v0.8/Chainlink.sol\":2712:2880  function addInt(... */\n      pop\n      pop\n      pop\n      jump\t// out\n        /* \"https://github.com/smartcontractkit/chainlink/blob/develop/contracts/src/v0.8/ConfirmedOwnerWithProposal.sol\":1730:1841  function _validateOwnership() internal view {... */\n    tag_160:\n        /* \"https://github.com/smartcontractkit/chainlink/blob/develop/contracts/src/v0.8/ConfirmedOwnerWithProposal.sol\":1802:1809  s_owner */\n      0x06\n      0x00\n      swap1\n      sload\n      swap1\n      0x0100\n      exp\n      swap1\n      div\n      0xffffffffffffffffffffffffffffffffffffffff\n      and\n        /* \"https://github.com/smartcontractkit/chainlink/blob/develop/contracts/src/v0.8/ConfirmedOwnerWithProposal.sol\":1788:1809  msg.sender == s_owner */\n      0xffffffffffffffffffffffffffffffffffffffff\n      and\n        /* \"https://github.com/smartcontractkit/chainlink/blob/develop/contracts/src/v0.8/ConfirmedOwnerWithProposal.sol\":1788:1798  msg.sender */\n      caller\n        /* \"https://github.com/smartcontractkit/chainlink/blob/develop/contracts/src/v0.8/ConfirmedOwnerWithProposal.sol\":1788:1809  msg.sender == s_owner */\n      0xffffffffffffffffffffffffffffffffffffffff\n      and\n      eq\n        /* \"https://github.com/smartcontractkit/chainlink/blob/develop/contracts/src/v0.8/ConfirmedOwnerWithProposal.sol\":1780:1836  require(msg.sender == s_owner, \"Only callable by owner\") */\n      tag_182\n      jumpi\n      mload(0x40)\n      0x08c379a000000000000000000000000000000000000000000000000000000000\n      dup2\n      mstore\n      0x04\n      add\n      tag_183\n      swap1\n      tag_184\n      jump\t// in\n    tag_183:\n      mload(0x40)\n      dup1\n      swap2\n      sub\n      swap1\n      revert\n    tag_182:\n        /* \"https://github.com/smartcontractkit/chainlink/blob/develop/contracts/src/v0.8/ConfirmedOwnerWithProposal.sol\":1730:1841  function _validateOwnership() internal view {... */\n      jump\t// out\n        /* \"https://github.com/smartcontractkit/chainlink/blob/develop/contracts/src/v0.8/ConfirmedOwnerWithProposal.sol\":1497:1685  function _transferOwnership(address to) private {... */\n    tag_163:\n        /* \"https://github.com/smartcontractkit/chainlink/blob/develop/contracts/src/v0.8/ConfirmedOwnerWithProposal.sol\":1565:1575  msg.sender */\n      caller\n        /* \"https://github.com/smartcontractkit/chainlink/blob/develop/contracts/src/v0.8/ConfirmedOwnerWithProposal.sol\":1559:1575  to != msg.sender */\n      0xffffffffffffffffffffffffffffffffffffffff\n      and\n        /* \"https://github.com/smartcontractkit/chainlink/blob/develop/contracts/src/v0.8/ConfirmedOwnerWithProposal.sol\":1559:1561  to */\n      dup2\n        /* \"https://github.com/smartcontractkit/chainlink/blob/develop/contracts/src/v0.8/ConfirmedOwnerWithProposal.sol\":1559:1575  to != msg.sender */\n      0xffffffffffffffffffffffffffffffffffffffff\n      and\n      eq\n      iszero\n        /* \"https://github.com/smartcontractkit/chainlink/blob/develop/contracts/src/v0.8/ConfirmedOwnerWithProposal.sol\":1551:1603  require(to != msg.sender, \"Cannot transfer to self\") */\n      tag_186\n      jumpi\n      mload(0x40)\n      0x08c379a000000000000000000000000000000000000000000000000000000000\n      dup2\n      mstore\n      0x04\n      add\n      tag_187\n      swap1\n      tag_188\n      jump\t// in\n    tag_187:\n      mload(0x40)\n      dup1\n      swap2\n      sub\n      swap1\n      revert\n    tag_186:\n        /* \"https://github.com/smartcontractkit/chainlink/blob/develop/contracts/src/v0.8/ConfirmedOwnerWithProposal.sol\":1627:1629  to */\n      dup1\n        /* \"https://github.com/smartcontractkit/chainlink/blob/develop/contracts/src/v0.8/ConfirmedOwnerWithProposal.sol\":1610:1624  s_pendingOwner */\n      0x07\n      0x00\n        /* \"https://github.com/smartcontractkit/chainlink/blob/develop/contracts/src/v0.8/ConfirmedOwnerWithProposal.sol\":1610:1629  s_pendingOwner = to */\n      0x0100\n      exp\n      dup2\n      sload\n      dup2\n      0xffffffffffffffffffffffffffffffffffffffff\n      mul\n      not\n      and\n      swap1\n      dup4\n      0xffffffffffffffffffffffffffffffffffffffff\n      and\n      mul\n      or\n      swap1\n      sstore\n      pop\n        /* \"https://github.com/smartcontractkit/chainlink/blob/develop/contracts/src/v0.8/ConfirmedOwnerWithProposal.sol\":1677:1679  to */\n      dup1\n        /* \"https://github.com/smartcontractkit/chainlink/blob/develop/contracts/src/v0.8/ConfirmedOwnerWithProposal.sol\":1641:1680  OwnershipTransferRequested(s_owner, to) */\n      0xffffffffffffffffffffffffffffffffffffffff\n      and\n        /* \"https://github.com/smartcontractkit/chainlink/blob/develop/contracts/src/v0.8/ConfirmedOwnerWithProposal.sol\":1668:1675  s_owner */\n      0x06\n      0x00\n      swap1\n      sload\n      swap1\n      0x0100\n      exp\n      swap1\n      div\n      0xffffffffffffffffffffffffffffffffffffffff\n      and\n        /* \"https://github.com/smartcontractkit/chainlink/blob/develop/contracts/src/v0.8/ConfirmedOwnerWithProposal.sol\":1641:1680  OwnershipTransferRequested(s_owner, to) */\n      0xffffffffffffffffffffffffffffffffffffffff\n      and\n      0xed8889f560326eb138920d842192f0eb3dd22b4f139c87a2c57538e05bae1278\n      mload(0x40)\n      mload(0x40)\n      dup1\n      swap2\n      sub\n      swap1\n      log3\n        /* \"https://github.com/smartcontractkit/chainlink/blob/develop/contracts/src/v0.8/ConfirmedOwnerWithProposal.sol\":1497:1685  function _transferOwnership(address to) private {... */\n      pop\n      jump\t// out\n        /* \"https://github.com/smartcontractkit/chainlink/blob/develop/contracts/src/v0.8/Chainlink.sol\":987:1338  function initialize(... */\n    tag_169:\n        /* \"https://github.com/smartcontractkit/chainlink/blob/develop/contracts/src/v0.8/Chainlink.sol\":1129:1153  Chainlink.Request memory */\n      tag_189\n      tag_165\n      jump\t// in\n    tag_189:\n        /* \"https://github.com/smartcontractkit/chainlink/blob/develop/contracts/src/v0.8/Chainlink.sol\":1161:1210  BufferChainlink.init(self.buf, defaultBufferSize) */\n      tag_191\n        /* \"https://github.com/smartcontractkit/chainlink/blob/develop/contracts/src/v0.8/Chainlink.sol\":1182:1186  self */\n      dup6\n        /* \"https://github.com/smartcontractkit/chainlink/blob/develop/contracts/src/v0.8/Chainlink.sol\":1182:1190  self.buf */\n      0x80\n      add\n      mload\n        /* \"https://github.com/smartcontractkit/chainlink/blob/develop/contracts/src/v0.8/Chainlink.sol\":361:364  256 */\n      0x0100\n        /* \"https://github.com/smartcontractkit/chainlink/blob/develop/contracts/src/v0.8/Chainlink.sol\":1161:1181  BufferChainlink.init */\n      tag_192\n        /* \"https://github.com/smartcontractkit/chainlink/blob/develop/contracts/src/v0.8/Chainlink.sol\":1161:1210  BufferChainlink.init(self.buf, defaultBufferSize) */\n      jump\t// in\n    tag_191:\n      pop\n        /* \"https://github.com/smartcontractkit/chainlink/blob/develop/contracts/src/v0.8/Chainlink.sol\":1226:1231  jobId */\n      dup4\n        /* \"https://github.com/smartcontractkit/chainlink/blob/develop/contracts/src/v0.8/Chainlink.sol\":1216:1220  self */\n      dup6\n        /* \"https://github.com/smartcontractkit/chainlink/blob/develop/contracts/src/v0.8/Chainlink.sol\":1216:1223  self.id */\n      0x00\n      add\n        /* \"https://github.com/smartcontractkit/chainlink/blob/develop/contracts/src/v0.8/Chainlink.sol\":1216:1231  self.id = jobId */\n      dup2\n      dup2\n      mstore\n      pop\n      pop\n        /* \"https://github.com/smartcontractkit/chainlink/blob/develop/contracts/src/v0.8/Chainlink.sol\":1260:1272  callbackAddr */\n      dup3\n        /* \"https://github.com/smartcontractkit/chainlink/blob/develop/contracts/src/v0.8/Chainlink.sol\":1237:1241  self */\n      dup6\n        /* \"https://github.com/smartcontractkit/chainlink/blob/develop/contracts/src/v0.8/Chainlink.sol\":1237:1257  self.callbackAddress */\n      0x20\n      add\n        /* \"https://github.com/smartcontractkit/chainlink/blob/develop/contracts/src/v0.8/Chainlink.sol\":1237:1272  self.callbackAddress = callbackAddr */\n      swap1\n      0xffffffffffffffffffffffffffffffffffffffff\n      and\n      swap1\n      dup2\n      0xffffffffffffffffffffffffffffffffffffffff\n      and\n      dup2\n      mstore\n      pop\n      pop\n        /* \"https://github.com/smartcontractkit/chainlink/blob/develop/contracts/src/v0.8/Chainlink.sol\":1304:1316  callbackFunc */\n      dup2\n        /* \"https://github.com/smartcontractkit/chainlink/blob/develop/contracts/src/v0.8/Chainlink.sol\":1278:1282  self */\n      dup6\n        /* \"https://github.com/smartcontractkit/chainlink/blob/develop/contracts/src/v0.8/Chainlink.sol\":1278:1301  self.callbackFunctionId */\n      0x40\n      add\n        /* \"https://github.com/smartcontractkit/chainlink/blob/develop/contracts/src/v0.8/Chainlink.sol\":1278:1316  self.callbackFunctionId = callbackFunc */\n      swap1\n      not(0xffffffffffffffffffffffffffffffffffffffffffffffffffffffff)\n      and\n      swap1\n      dup2\n      not(0xffffffffffffffffffffffffffffffffffffffffffffffffffffffff)\n      and\n      dup2\n      mstore\n      pop\n      pop\n        /* \"https://github.com/smartcontractkit/chainlink/blob/develop/contracts/src/v0.8/Chainlink.sol\":1329:1333  self */\n      dup5\n        /* \"https://github.com/smartcontractkit/chainlink/blob/develop/contracts/src/v0.8/Chainlink.sol\":1322:1333  return self */\n      swap1\n      pop\n        /* \"https://github.com/smartcontractkit/chainlink/blob/develop/contracts/src/v0.8/Chainlink.sol\":987:1338  function initialize(... */\n      swap5\n      swap4\n      pop\n      pop\n      pop\n      pop\n      jump\t// out\n        /* \"https://github.com/smartcontractkit/chainlink/blob/develop/contracts/src/v0.8/vendor/CBORChainlink.sol\":2777:2981  function encodeString(BufferChainlink.buffer memory buf, string memory value) internal pure {... */\n    tag_172:\n        /* \"https://github.com/smartcontractkit/chainlink/blob/develop/contracts/src/v0.8/vendor/CBORChainlink.sol\":2875:2946  encodeFixedNumeric(buf, MAJOR_TYPE_STRING, uint64(bytes(value).length)) */\n      tag_194\n        /* \"https://github.com/smartcontractkit/chainlink/blob/develop/contracts/src/v0.8/vendor/CBORChainlink.sol\":2894:2897  buf */\n      dup3\n        /* \"https://github.com/smartcontractkit/chainlink/blob/develop/contracts/src/v0.8/vendor/CBORChainlink.sol\":383:384  3 */\n      0x03\n        /* \"https://github.com/smartcontractkit/chainlink/blob/develop/contracts/src/v0.8/vendor/CBORChainlink.sol\":2931:2936  value */\n      dup4\n        /* \"https://github.com/smartcontractkit/chainlink/blob/develop/contracts/src/v0.8/vendor/CBORChainlink.sol\":2925:2944  bytes(value).length */\n      mload\n        /* \"https://github.com/smartcontractkit/chainlink/blob/develop/contracts/src/v0.8/vendor/CBORChainlink.sol\":2875:2893  encodeFixedNumeric */\n      tag_195\n        /* \"https://github.com/smartcontractkit/chainlink/blob/develop/contracts/src/v0.8/vendor/CBORChainlink.sol\":2875:2946  encodeFixedNumeric(buf, MAJOR_TYPE_STRING, uint64(bytes(value).length)) */\n      jump\t// in\n    tag_194:\n        /* \"https://github.com/smartcontractkit/chainlink/blob/develop/contracts/src/v0.8/vendor/CBORChainlink.sol\":2952:2976  buf.append(bytes(value)) */\n      tag_196\n        /* \"https://github.com/smartcontractkit/chainlink/blob/develop/contracts/src/v0.8/vendor/CBORChainlink.sol\":2969:2974  value */\n      dup2\n        /* \"https://github.com/smartcontractkit/chainlink/blob/develop/contracts/src/v0.8/vendor/CBORChainlink.sol\":2952:2955  buf */\n      dup4\n        /* \"https://github.com/smartcontractkit/chainlink/blob/develop/contracts/src/v0.8/vendor/CBORChainlink.sol\":2952:2962  buf.append */\n      tag_197\n      swap1\n        /* \"https://github.com/smartcontractkit/chainlink/blob/develop/contracts/src/v0.8/vendor/CBORChainlink.sol\":2952:2976  buf.append(bytes(value)) */\n      swap2\n      swap1\n      0xffffffff\n      and\n      jump\t// in\n    tag_196:\n      pop\n        /* \"https://github.com/smartcontractkit/chainlink/blob/develop/contracts/src/v0.8/vendor/CBORChainlink.sol\":2777:2981  function encodeString(BufferChainlink.buffer memory buf, string memory value) internal pure {... */\n      pop\n      pop\n      jump\t// out\n        /* \"https://github.com/smartcontractkit/chainlink/blob/develop/contracts/src/v0.8/ChainlinkClient.sol\":3687:4443  function sendChainlinkRequestTo(... */\n    tag_176:\n        /* \"https://github.com/smartcontractkit/chainlink/blob/develop/contracts/src/v0.8/ChainlinkClient.sol\":3823:3840  bytes32 requestId */\n      0x00\n        /* \"https://github.com/smartcontractkit/chainlink/blob/develop/contracts/src/v0.8/ChainlinkClient.sol\":3848:3861  uint256 nonce */\n      dup1\n        /* \"https://github.com/smartcontractkit/chainlink/blob/develop/contracts/src/v0.8/ChainlinkClient.sol\":3864:3878  s_requestCount */\n      sload(0x04)\n        /* \"https://github.com/smartcontractkit/chainlink/blob/develop/contracts/src/v0.8/ChainlinkClient.sol\":3848:3878  uint256 nonce = s_requestCount */\n      swap1\n      pop\n        /* \"https://github.com/smartcontractkit/chainlink/blob/develop/contracts/src/v0.8/ChainlinkClient.sol\":3909:3910  1 */\n      0x01\n        /* \"https://github.com/smartcontractkit/chainlink/blob/develop/contracts/src/v0.8/ChainlinkClient.sol\":3901:3906  nonce */\n      dup2\n        /* \"https://github.com/smartcontractkit/chainlink/blob/develop/contracts/src/v0.8/ChainlinkClient.sol\":3901:3910  nonce + 1 */\n      tag_199\n      swap2\n      swap1\n      tag_200\n      jump\t// in\n    tag_199:\n        /* \"https://github.com/smartcontractkit/chainlink/blob/develop/contracts/src/v0.8/ChainlinkClient.sol\":3884:3898  s_requestCount */\n      0x04\n        /* \"https://github.com/smartcontractkit/chainlink/blob/develop/contracts/src/v0.8/ChainlinkClient.sol\":3884:3910  s_requestCount = nonce + 1 */\n      dup2\n      swap1\n      sstore\n      pop\n        /* \"https://github.com/smartcontractkit/chainlink/blob/develop/contracts/src/v0.8/ChainlinkClient.sol\":3916:3943  bytes memory encodedRequest */\n      0x00\n        /* \"https://github.com/smartcontractkit/chainlink/blob/develop/contracts/src/v0.8/ChainlinkClient.sol\":3976:4024  ChainlinkRequestInterface.oracleRequest.selector */\n      shl(0xe0, 0x40429946)\n        /* \"https://github.com/smartcontractkit/chainlink/blob/develop/contracts/src/v0.8/ChainlinkClient.sol\":784:785  0 */\n      0x00\n        /* \"https://github.com/smartcontractkit/chainlink/blob/develop/contracts/src/v0.8/ChainlinkClient.sol\":728:729  0 */\n      dup1\n        /* \"https://github.com/smartcontractkit/chainlink/blob/develop/contracts/src/v0.8/ChainlinkClient.sol\":4245:4248  req */\n      dup8\n        /* \"https://github.com/smartcontractkit/chainlink/blob/develop/contracts/src/v0.8/ChainlinkClient.sol\":4245:4251  req.id */\n      0x00\n      add\n      mload\n        /* \"https://github.com/smartcontractkit/chainlink/blob/develop/contracts/src/v0.8/ChainlinkClient.sol\":4267:4271  this */\n      address\n        /* \"https://github.com/smartcontractkit/chainlink/blob/develop/contracts/src/v0.8/ChainlinkClient.sol\":4280:4283  req */\n      dup10\n        /* \"https://github.com/smartcontractkit/chainlink/blob/develop/contracts/src/v0.8/ChainlinkClient.sol\":4280:4302  req.callbackFunctionId */\n      0x40\n      add\n      mload\n        /* \"https://github.com/smartcontractkit/chainlink/blob/develop/contracts/src/v0.8/ChainlinkClient.sol\":4310:4315  nonce */\n      dup8\n        /* \"https://github.com/smartcontractkit/chainlink/blob/develop/contracts/src/v0.8/ChainlinkClient.sol\":837:838  1 */\n      0x01\n        /* \"https://github.com/smartcontractkit/chainlink/blob/develop/contracts/src/v0.8/ChainlinkClient.sol\":4350:4353  req */\n      dup13\n        /* \"https://github.com/smartcontractkit/chainlink/blob/develop/contracts/src/v0.8/ChainlinkClient.sol\":4350:4357  req.buf */\n      0x80\n      add\n      mload\n        /* \"https://github.com/smartcontractkit/chainlink/blob/develop/contracts/src/v0.8/ChainlinkClient.sol\":4350:4361  req.buf.buf */\n      0x00\n      add\n      mload\n        /* \"https://github.com/smartcontractkit/chainlink/blob/develop/contracts/src/v0.8/ChainlinkClient.sol\":3946:4367  abi.encodeWithSelector(... */\n      add(0x24, mload(0x40))\n      tag_201\n      swap9\n      swap8\n      swap7\n      swap6\n      swap5\n      swap4\n      swap3\n      swap2\n      swap1\n      tag_202\n      jump\t// in\n    tag_201:\n      mload(0x40)\n      0x20\n      dup2\n      dup4\n      sub\n      sub\n      dup2\n      mstore\n      swap1\n      0x40\n      mstore\n      swap1\n      not(0xffffffffffffffffffffffffffffffffffffffffffffffffffffffff)\n      and\n      0x20\n      dup3\n      add\n      dup1\n      mload\n      0xffffffffffffffffffffffffffffffffffffffffffffffffffffffff\n      dup4\n      dup2\n      dup4\n      and\n      or\n      dup4\n      mstore\n      pop\n      pop\n      pop\n      pop\n        /* \"https://github.com/smartcontractkit/chainlink/blob/develop/contracts/src/v0.8/ChainlinkClient.sol\":3916:4367  bytes memory encodedRequest = abi.encodeWithSelector(... */\n      swap1\n      pop\n        /* \"https://github.com/smartcontractkit/chainlink/blob/develop/contracts/src/v0.8/ChainlinkClient.sol\":4380:4438  _rawRequest(oracleAddress, nonce, payment, encodedRequest) */\n      tag_203\n        /* \"https://github.com/smartcontractkit/chainlink/blob/develop/contracts/src/v0.8/ChainlinkClient.sol\":4392:4405  oracleAddress */\n      dup7\n        /* \"https://github.com/smartcontractkit/chainlink/blob/develop/contracts/src/v0.8/ChainlinkClient.sol\":4407:4412  nonce */\n      dup4\n        /* \"https://github.com/smartcontractkit/chainlink/blob/develop/contracts/src/v0.8/ChainlinkClient.sol\":4414:4421  payment */\n      dup7\n        /* \"https://github.com/smartcontractkit/chainlink/blob/develop/contracts/src/v0.8/ChainlinkClient.sol\":4423:4437  encodedRequest */\n      dup5\n        /* \"https://github.com/smartcontractkit/chainlink/blob/develop/contracts/src/v0.8/ChainlinkClient.sol\":4380:4391  _rawRequest */\n      tag_204\n        /* \"https://github.com/smartcontractkit/chainlink/blob/develop/contracts/src/v0.8/ChainlinkClient.sol\":4380:4438  _rawRequest(oracleAddress, nonce, payment, encodedRequest) */\n      jump\t// in\n    tag_203:\n        /* \"https://github.com/smartcontractkit/chainlink/blob/develop/contracts/src/v0.8/ChainlinkClient.sol\":4373:4438  return _rawRequest(oracleAddress, nonce, payment, encodedRequest) */\n      swap3\n      pop\n      pop\n      pop\n        /* \"https://github.com/smartcontractkit/chainlink/blob/develop/contracts/src/v0.8/ChainlinkClient.sol\":3687:4443  function sendChainlinkRequestTo(... */\n      swap4\n      swap3\n      pop\n      pop\n      pop\n      jump\t// out\n        /* \"https://github.com/smartcontractkit/chainlink/blob/develop/contracts/src/v0.8/vendor/CBORChainlink.sol\":1704:2150  function encodeInt(BufferChainlink.buffer memory buf, int value) internal pure {... */\n    tag_180:\n        /* \"https://github.com/smartcontractkit/chainlink/blob/develop/contracts/src/v0.8/vendor/CBORChainlink.sol\":1800:1820  -0x10000000000000000 */\n      0xffffffffffffffffffffffffffffffffffffffffffffffff0000000000000000\n        /* \"https://github.com/smartcontractkit/chainlink/blob/develop/contracts/src/v0.8/vendor/CBORChainlink.sol\":1792:1797  value */\n      dup2\n        /* \"https://github.com/smartcontractkit/chainlink/blob/develop/contracts/src/v0.8/vendor/CBORChainlink.sol\":1792:1820  value < -0x10000000000000000 */\n      slt\n        /* \"https://github.com/smartcontractkit/chainlink/blob/develop/contracts/src/v0.8/vendor/CBORChainlink.sol\":1789:2146  if(value < -0x10000000000000000) {... */\n      iszero\n      tag_206\n      jumpi\n        /* \"https://github.com/smartcontractkit/chainlink/blob/develop/contracts/src/v0.8/vendor/CBORChainlink.sol\":1830:1860  encodeSignedBigNum(buf, value) */\n      tag_207\n        /* \"https://github.com/smartcontractkit/chainlink/blob/develop/contracts/src/v0.8/vendor/CBORChainlink.sol\":1849:1852  buf */\n      dup3\n        /* \"https://github.com/smartcontractkit/chainlink/blob/develop/contracts/src/v0.8/vendor/CBORChainlink.sol\":1854:1859  value */\n      dup3\n        /* \"https://github.com/smartcontractkit/chainlink/blob/develop/contracts/src/v0.8/vendor/CBORChainlink.sol\":1830:1848  encodeSignedBigNum */\n      tag_208\n        /* \"https://github.com/smartcontractkit/chainlink/blob/develop/contracts/src/v0.8/vendor/CBORChainlink.sol\":1830:1860  encodeSignedBigNum(buf, value) */\n      jump\t// in\n    tag_207:\n        /* \"https://github.com/smartcontractkit/chainlink/blob/develop/contracts/src/v0.8/vendor/CBORChainlink.sol\":1789:2146  if(value < -0x10000000000000000) {... */\n      jump(tag_209)\n    tag_206:\n        /* \"https://github.com/smartcontractkit/chainlink/blob/develop/contracts/src/v0.8/vendor/CBORChainlink.sol\":1884:1902  0xFFFFFFFFFFFFFFFF */\n      0xffffffffffffffff\n        /* \"https://github.com/smartcontractkit/chainlink/blob/develop/contracts/src/v0.8/vendor/CBORChainlink.sol\":1876:1881  value */\n      dup2\n        /* \"https://github.com/smartcontractkit/chainlink/blob/develop/contracts/src/v0.8/vendor/CBORChainlink.sol\":1876:1902  value > 0xFFFFFFFFFFFFFFFF */\n      sgt\n        /* \"https://github.com/smartcontractkit/chainlink/blob/develop/contracts/src/v0.8/vendor/CBORChainlink.sol\":1873:2146  if(value > 0xFFFFFFFFFFFFFFFF) {... */\n      iszero\n      tag_210\n      jumpi\n        /* \"https://github.com/smartcontractkit/chainlink/blob/develop/contracts/src/v0.8/vendor/CBORChainlink.sol\":1912:1942  encodeBigNum(buf, uint(value)) */\n      tag_211\n        /* \"https://github.com/smartcontractkit/chainlink/blob/develop/contracts/src/v0.8/vendor/CBORChainlink.sol\":1925:1928  buf */\n      dup3\n        /* \"https://github.com/smartcontractkit/chainlink/blob/develop/contracts/src/v0.8/vendor/CBORChainlink.sol\":1935:1940  value */\n      dup3\n        /* \"https://github.com/smartcontractkit/chainlink/blob/develop/contracts/src/v0.8/vendor/CBORChainlink.sol\":1912:1924  encodeBigNum */\n      tag_212\n        /* \"https://github.com/smartcontractkit/chainlink/blob/develop/contracts/src/v0.8/vendor/CBORChainlink.sol\":1912:1942  encodeBigNum(buf, uint(value)) */\n      jump\t// in\n    tag_211:\n        /* \"https://github.com/smartcontractkit/chainlink/blob/develop/contracts/src/v0.8/vendor/CBORChainlink.sol\":1873:2146  if(value > 0xFFFFFFFFFFFFFFFF) {... */\n      jump(tag_213)\n    tag_210:\n        /* \"https://github.com/smartcontractkit/chainlink/blob/develop/contracts/src/v0.8/vendor/CBORChainlink.sol\":1967:1968  0 */\n      0x00\n        /* \"https://github.com/smartcontractkit/chainlink/blob/develop/contracts/src/v0.8/vendor/CBORChainlink.sol\":1958:1963  value */\n      dup2\n        /* \"https://github.com/smartcontractkit/chainlink/blob/develop/contracts/src/v0.8/vendor/CBORChainlink.sol\":1958:1968  value >= 0 */\n      slt\n        /* \"https://github.com/smartcontractkit/chainlink/blob/develop/contracts/src/v0.8/vendor/CBORChainlink.sol\":1955:2146  if(value >= 0) {... */\n      tag_214\n      jumpi\n        /* \"https://github.com/smartcontractkit/chainlink/blob/develop/contracts/src/v0.8/vendor/CBORChainlink.sol\":1978:2041  encodeFixedNumeric(buf, MAJOR_TYPE_INT, uint64(uint256(value))) */\n      tag_215\n        /* \"https://github.com/smartcontractkit/chainlink/blob/develop/contracts/src/v0.8/vendor/CBORChainlink.sol\":1997:2000  buf */\n      dup3\n        /* \"https://github.com/smartcontractkit/chainlink/blob/develop/contracts/src/v0.8/vendor/CBORChainlink.sol\":234:235  0 */\n      0x00\n        /* \"https://github.com/smartcontractkit/chainlink/blob/develop/contracts/src/v0.8/vendor/CBORChainlink.sol\":2033:2038  value */\n      dup4\n        /* \"https://github.com/smartcontractkit/chainlink/blob/develop/contracts/src/v0.8/vendor/CBORChainlink.sol\":1978:1996  encodeFixedNumeric */\n      tag_195\n        /* \"https://github.com/smartcontractkit/chainlink/blob/develop/contracts/src/v0.8/vendor/CBORChainlink.sol\":1978:2041  encodeFixedNumeric(buf, MAJOR_TYPE_INT, uint64(uint256(value))) */\n      jump\t// in\n    tag_215:\n        /* \"https://github.com/smartcontractkit/chainlink/blob/develop/contracts/src/v0.8/vendor/CBORChainlink.sol\":1955:2146  if(value >= 0) {... */\n      jump(tag_216)\n    tag_214:\n        /* \"https://github.com/smartcontractkit/chainlink/blob/develop/contracts/src/v0.8/vendor/CBORChainlink.sol\":2062:2139  encodeFixedNumeric(buf, MAJOR_TYPE_NEGATIVE_INT, uint64(uint256(-1 - value))) */\n      tag_217\n        /* \"https://github.com/smartcontractkit/chainlink/blob/develop/contracts/src/v0.8/vendor/CBORChainlink.sol\":2081:2084  buf */\n      dup3\n        /* \"https://github.com/smartcontractkit/chainlink/blob/develop/contracts/src/v0.8/vendor/CBORChainlink.sol\":288:289  1 */\n      0x01\n        /* \"https://github.com/smartcontractkit/chainlink/blob/develop/contracts/src/v0.8/vendor/CBORChainlink.sol\":2131:2136  value */\n      dup4\n        /* \"https://github.com/smartcontractkit/chainlink/blob/develop/contracts/src/v0.8/vendor/CBORChainlink.sol\":2126:2128  -1 */\n      0xffffffffffffffffffffffffffffffffffffffffffffffffffffffffffffffff\n        /* \"https://github.com/smartcontractkit/chainlink/blob/develop/contracts/src/v0.8/vendor/CBORChainlink.sol\":2126:2136  -1 - value */\n      tag_218\n      swap2\n      swap1\n      tag_219\n      jump\t// in\n    tag_218:\n        /* \"https://github.com/smartcontractkit/chainlink/blob/develop/contracts/src/v0.8/vendor/CBORChainlink.sol\":2062:2080  encodeFixedNumeric */\n      tag_195\n        /* \"https://github.com/smartcontractkit/chainlink/blob/develop/contracts/src/v0.8/vendor/CBORChainlink.sol\":2062:2139  encodeFixedNumeric(buf, MAJOR_TYPE_NEGATIVE_INT, uint64(uint256(-1 - value))) */\n      jump\t// in\n    tag_217:\n        /* \"https://github.com/smartcontractkit/chainlink/blob/develop/contracts/src/v0.8/vendor/CBORChainlink.sol\":1955:2146  if(value >= 0) {... */\n    tag_216:\n        /* \"https://github.com/smartcontractkit/chainlink/blob/develop/contracts/src/v0.8/vendor/CBORChainlink.sol\":1873:2146  if(value > 0xFFFFFFFFFFFFFFFF) {... */\n    tag_213:\n        /* \"https://github.com/smartcontractkit/chainlink/blob/develop/contracts/src/v0.8/vendor/CBORChainlink.sol\":1789:2146  if(value < -0x10000000000000000) {... */\n    tag_209:\n        /* \"https://github.com/smartcontractkit/chainlink/blob/develop/contracts/src/v0.8/vendor/CBORChainlink.sol\":1704:2150  function encodeInt(BufferChainlink.buffer memory buf, int value) internal pure {... */\n      pop\n      pop\n      jump\t// out\n        /* \"https://github.com/smartcontractkit/chainlink/blob/develop/contracts/src/v0.8/vendor/BufferChainlink.sol\":1001:1400  function init(buffer memory buf, uint256 capacity) internal pure returns (buffer memory) {... */\n    tag_192:\n        /* \"https://github.com/smartcontractkit/chainlink/blob/develop/contracts/src/v0.8/vendor/BufferChainlink.sol\":1075:1088  buffer memory */\n      tag_220\n      tag_221\n      jump\t// in\n    tag_220:\n        /* \"https://github.com/smartcontractkit/chainlink/blob/develop/contracts/src/v0.8/vendor/BufferChainlink.sol\":1117:1118  0 */\n      0x00\n        /* \"https://github.com/smartcontractkit/chainlink/blob/develop/contracts/src/v0.8/vendor/BufferChainlink.sol\":1111:1113  32 */\n      0x20\n        /* \"https://github.com/smartcontractkit/chainlink/blob/develop/contracts/src/v0.8/vendor/BufferChainlink.sol\":1100:1108  capacity */\n      dup4\n        /* \"https://github.com/smartcontractkit/chainlink/blob/develop/contracts/src/v0.8/vendor/BufferChainlink.sol\":1100:1113  capacity % 32 */\n      tag_223\n      swap2\n      swap1\n      tag_224\n      jump\t// in\n    tag_223:\n        /* \"https://github.com/smartcontractkit/chainlink/blob/develop/contracts/src/v0.8/vendor/BufferChainlink.sol\":1100:1118  capacity % 32 != 0 */\n      eq\n        /* \"https://github.com/smartcontractkit/chainlink/blob/develop/contracts/src/v0.8/vendor/BufferChainlink.sol\":1096:1167  if (capacity % 32 != 0) {... */\n      tag_225\n      jumpi\n        /* \"https://github.com/smartcontractkit/chainlink/blob/develop/contracts/src/v0.8/vendor/BufferChainlink.sol\":1157:1159  32 */\n      0x20\n        /* \"https://github.com/smartcontractkit/chainlink/blob/develop/contracts/src/v0.8/vendor/BufferChainlink.sol\":1146:1154  capacity */\n      dup3\n        /* \"https://github.com/smartcontractkit/chainlink/blob/develop/contracts/src/v0.8/vendor/BufferChainlink.sol\":1146:1159  capacity % 32 */\n      tag_226\n      swap2\n      swap1\n      tag_224\n      jump\t// in\n    tag_226:\n        /* \"https://github.com/smartcontractkit/chainlink/blob/develop/contracts/src/v0.8/vendor/BufferChainlink.sol\":1140:1142  32 */\n      0x20\n        /* \"https://github.com/smartcontractkit/chainlink/blob/develop/contracts/src/v0.8/vendor/BufferChainlink.sol\":1140:1160  32 - (capacity % 32) */\n      tag_227\n      swap2\n      swap1\n      tag_228\n      jump\t// in\n    tag_227:\n        /* \"https://github.com/smartcontractkit/chainlink/blob/develop/contracts/src/v0.8/vendor/BufferChainlink.sol\":1128:1160  capacity += 32 - (capacity % 32) */\n      dup3\n      tag_229\n      swap2\n      swap1\n      tag_200\n      jump\t// in\n    tag_229:\n      swap2\n      pop\n        /* \"https://github.com/smartcontractkit/chainlink/blob/develop/contracts/src/v0.8/vendor/BufferChainlink.sol\":1096:1167  if (capacity % 32 != 0) {... */\n    tag_225:\n        /* \"https://github.com/smartcontractkit/chainlink/blob/develop/contracts/src/v0.8/vendor/BufferChainlink.sol\":1229:1237  capacity */\n      dup2\n        /* \"https://github.com/smartcontractkit/chainlink/blob/develop/contracts/src/v0.8/vendor/BufferChainlink.sol\":1214:1217  buf */\n      dup4\n        /* \"https://github.com/smartcontractkit/chainlink/blob/develop/contracts/src/v0.8/vendor/BufferChainlink.sol\":1214:1226  buf.capacity */\n      0x20\n      add\n        /* \"https://github.com/smartcontractkit/chainlink/blob/develop/contracts/src/v0.8/vendor/BufferChainlink.sol\":1214:1237  buf.capacity = capacity */\n      dup2\n      dup2\n      mstore\n      pop\n      pop\n        /* \"https://github.com/smartcontractkit/chainlink/blob/develop/contracts/src/v0.8/vendor/BufferChainlink.sol\":1277:1281  0x40 */\n      0x40\n        /* \"https://github.com/smartcontractkit/chainlink/blob/develop/contracts/src/v0.8/vendor/BufferChainlink.sol\":1271:1282  mload(0x40) */\n      mload\n        /* \"https://github.com/smartcontractkit/chainlink/blob/develop/contracts/src/v0.8/vendor/BufferChainlink.sol\":1301:1304  ptr */\n      dup1\n        /* \"https://github.com/smartcontractkit/chainlink/blob/develop/contracts/src/v0.8/vendor/BufferChainlink.sol\":1296:1299  buf */\n      dup5\n        /* \"https://github.com/smartcontractkit/chainlink/blob/develop/contracts/src/v0.8/vendor/BufferChainlink.sol\":1289:1305  mstore(buf, ptr) */\n      mstore\n        /* \"https://github.com/smartcontractkit/chainlink/blob/develop/contracts/src/v0.8/vendor/BufferChainlink.sol\":1324:1325  0 */\n      0x00\n        /* \"https://github.com/smartcontractkit/chainlink/blob/develop/contracts/src/v0.8/vendor/BufferChainlink.sol\":1319:1322  ptr */\n      dup2\n        /* \"https://github.com/smartcontractkit/chainlink/blob/develop/contracts/src/v0.8/vendor/BufferChainlink.sol\":1312:1326  mstore(ptr, 0) */\n      mstore\n        /* \"https://github.com/smartcontractkit/chainlink/blob/develop/contracts/src/v0.8/vendor/BufferChainlink.sol\":1363:1371  capacity */\n      dup3\n        /* \"https://github.com/smartcontractkit/chainlink/blob/develop/contracts/src/v0.8/vendor/BufferChainlink.sol\":1358:1361  ptr */\n      dup2\n        /* \"https://github.com/smartcontractkit/chainlink/blob/develop/contracts/src/v0.8/vendor/BufferChainlink.sol\":1354:1372  add(ptr, capacity) */\n      add\n        /* \"https://github.com/smartcontractkit/chainlink/blob/develop/contracts/src/v0.8/vendor/BufferChainlink.sol\":1350:1352  32 */\n      0x20\n        /* \"https://github.com/smartcontractkit/chainlink/blob/develop/contracts/src/v0.8/vendor/BufferChainlink.sol\":1346:1373  add(32, add(ptr, capacity)) */\n      add\n        /* \"https://github.com/smartcontractkit/chainlink/blob/develop/contracts/src/v0.8/vendor/BufferChainlink.sol\":1340:1344  0x40 */\n      0x40\n        /* \"https://github.com/smartcontractkit/chainlink/blob/develop/contracts/src/v0.8/vendor/BufferChainlink.sol\":1333:1374  mstore(0x40, add(32, add(ptr, capacity))) */\n      mstore\n        /* \"https://github.com/smartcontractkit/chainlink/blob/develop/contracts/src/v0.8/vendor/BufferChainlink.sol\":1252:1380  {... */\n      pop\n        /* \"https://github.com/smartcontractkit/chainlink/blob/develop/contracts/src/v0.8/vendor/BufferChainlink.sol\":1392:1395  buf */\n      dup3\n        /* \"https://github.com/smartcontractkit/chainlink/blob/develop/contracts/src/v0.8/vendor/BufferChainlink.sol\":1385:1395  return buf */\n      swap1\n      pop\n        /* \"https://github.com/smartcontractkit/chainlink/blob/develop/contracts/src/v0.8/vendor/BufferChainlink.sol\":1001:1400  function init(buffer memory buf, uint256 capacity) internal pure returns (buffer memory) {... */\n      swap3\n      swap2\n      pop\n      pop\n      jump\t// out\n        /* \"https://github.com/smartcontractkit/chainlink/blob/develop/contracts/src/v0.8/vendor/CBORChainlink.sol\":682:1307  function encodeFixedNumeric(BufferChainlink.buffer memory buf, uint8 major, uint64 value) private pure {... */\n    tag_195:\n        /* \"https://github.com/smartcontractkit/chainlink/blob/develop/contracts/src/v0.8/vendor/CBORChainlink.sol\":803:805  23 */\n      0x17\n        /* \"https://github.com/smartcontractkit/chainlink/blob/develop/contracts/src/v0.8/vendor/CBORChainlink.sol\":794:799  value */\n      dup2\n        /* \"https://github.com/smartcontractkit/chainlink/blob/develop/contracts/src/v0.8/vendor/CBORChainlink.sol\":794:805  value <= 23 */\n      0xffffffffffffffff\n      and\n      gt\n        /* \"https://github.com/smartcontractkit/chainlink/blob/develop/contracts/src/v0.8/vendor/CBORChainlink.sol\":791:1303  if(value <= 23) {... */\n      tag_231\n      jumpi\n        /* \"https://github.com/smartcontractkit/chainlink/blob/develop/contracts/src/v0.8/vendor/CBORChainlink.sol\":815:859  buf.appendUint8(uint8((major << 5) | value)) */\n      tag_232\n        /* \"https://github.com/smartcontractkit/chainlink/blob/develop/contracts/src/v0.8/vendor/CBORChainlink.sol\":852:857  value */\n      dup2\n        /* \"https://github.com/smartcontractkit/chainlink/blob/develop/contracts/src/v0.8/vendor/CBORChainlink.sol\":847:848  5 */\n      0x05\n        /* \"https://github.com/smartcontractkit/chainlink/blob/develop/contracts/src/v0.8/vendor/CBORChainlink.sol\":838:843  major */\n      dup5\n        /* \"https://github.com/smartcontractkit/chainlink/blob/develop/contracts/src/v0.8/vendor/CBORChainlink.sol\":838:848  major << 5 */\n      0xff\n      and\n      swap1\n      shl\n        /* \"https://github.com/smartcontractkit/chainlink/blob/develop/contracts/src/v0.8/vendor/CBORChainlink.sol\":837:857  (major << 5) | value */\n      0xff\n      and\n      or\n        /* \"https://github.com/smartcontractkit/chainlink/blob/develop/contracts/src/v0.8/vendor/CBORChainlink.sol\":815:818  buf */\n      dup5\n        /* \"https://github.com/smartcontractkit/chainlink/blob/develop/contracts/src/v0.8/vendor/CBORChainlink.sol\":815:830  buf.appendUint8 */\n      tag_233\n      swap1\n        /* \"https://github.com/smartcontractkit/chainlink/blob/develop/contracts/src/v0.8/vendor/CBORChainlink.sol\":815:859  buf.appendUint8(uint8((major << 5) | value)) */\n      swap2\n      swap1\n      0xffffffff\n      and\n      jump\t// in\n    tag_232:\n      pop\n        /* \"https://github.com/smartcontractkit/chainlink/blob/develop/contracts/src/v0.8/vendor/CBORChainlink.sol\":791:1303  if(value <= 23) {... */\n      jump(tag_234)\n    tag_231:\n        /* \"https://github.com/smartcontractkit/chainlink/blob/develop/contracts/src/v0.8/vendor/CBORChainlink.sol\":885:889  0xFF */\n      0xff\n        /* \"https://github.com/smartcontractkit/chainlink/blob/develop/contracts/src/v0.8/vendor/CBORChainlink.sol\":876:881  value */\n      dup2\n        /* \"https://github.com/smartcontractkit/chainlink/blob/develop/contracts/src/v0.8/vendor/CBORChainlink.sol\":876:889  value <= 0xFF */\n      0xffffffffffffffff\n      and\n      gt\n        /* \"https://github.com/smartcontractkit/chainlink/blob/develop/contracts/src/v0.8/vendor/CBORChainlink.sol\":872:1303  if (value <= 0xFF) {... */\n      tag_235\n      jumpi\n        /* \"https://github.com/smartcontractkit/chainlink/blob/develop/contracts/src/v0.8/vendor/CBORChainlink.sol\":899:940  buf.appendUint8(uint8((major << 5) | 24)) */\n      tag_236\n        /* \"https://github.com/smartcontractkit/chainlink/blob/develop/contracts/src/v0.8/vendor/CBORChainlink.sol\":936:938  24 */\n      0x18\n        /* \"https://github.com/smartcontractkit/chainlink/blob/develop/contracts/src/v0.8/vendor/CBORChainlink.sol\":931:932  5 */\n      0x05\n        /* \"https://github.com/smartcontractkit/chainlink/blob/develop/contracts/src/v0.8/vendor/CBORChainlink.sol\":922:927  major */\n      dup5\n        /* \"https://github.com/smartcontractkit/chainlink/blob/develop/contracts/src/v0.8/vendor/CBORChainlink.sol\":922:932  major << 5 */\n      0xff\n      and\n      swap1\n      shl\n        /* \"https://github.com/smartcontractkit/chainlink/blob/develop/contracts/src/v0.8/vendor/CBORChainlink.sol\":921:938  (major << 5) | 24 */\n      or\n        /* \"https://github.com/smartcontractkit/chainlink/blob/develop/contracts/src/v0.8/vendor/CBORChainlink.sol\":899:902  buf */\n      dup5\n        /* \"https://github.com/smartcontractkit/chainlink/blob/develop/contracts/src/v0.8/vendor/CBORChainlink.sol\":899:914  buf.appendUint8 */\n      tag_233\n      swap1\n        /* \"https://github.com/smartcontractkit/chainlink/blob/develop/contracts/src/v0.8/vendor/CBORChainlink.sol\":899:940  buf.appendUint8(uint8((major << 5) | 24)) */\n      swap2\n      swap1\n      0xffffffff\n      and\n      jump\t// in\n    tag_236:\n      pop\n        /* \"https://github.com/smartcontractkit/chainlink/blob/develop/contracts/src/v0.8/vendor/CBORChainlink.sol\":948:971  buf.appendInt(value, 1) */\n      tag_237\n        /* \"https://github.com/smartcontractkit/chainlink/blob/develop/contracts/src/v0.8/vendor/CBORChainlink.sol\":962:967  value */\n      dup2\n        /* \"https://github.com/smartcontractkit/chainlink/blob/develop/contracts/src/v0.8/vendor/CBORChainlink.sol\":948:971  buf.appendInt(value, 1) */\n      0xffffffffffffffff\n      and\n        /* \"https://github.com/smartcontractkit/chainlink/blob/develop/contracts/src/v0.8/vendor/CBORChainlink.sol\":969:970  1 */\n      0x01\n        /* \"https://github.com/smartcontractkit/chainlink/blob/develop/contracts/src/v0.8/vendor/CBORChainlink.sol\":948:951  buf */\n      dup6\n        /* \"https://github.com/smartcontractkit/chainlink/blob/develop/contracts/src/v0.8/vendor/CBORChainlink.sol\":948:961  buf.appendInt */\n      tag_238\n      swap1\n        /* \"https://github.com/smartcontractkit/chainlink/blob/develop/contracts/src/v0.8/vendor/CBORChainlink.sol\":948:971  buf.appendInt(value, 1) */\n      swap3\n      swap2\n      swap1\n      0xffffffff\n      and\n      jump\t// in\n    tag_237:\n      pop\n        /* \"https://github.com/smartcontractkit/chainlink/blob/develop/contracts/src/v0.8/vendor/CBORChainlink.sol\":872:1303  if (value <= 0xFF) {... */\n      jump(tag_239)\n    tag_235:\n        /* \"https://github.com/smartcontractkit/chainlink/blob/develop/contracts/src/v0.8/vendor/CBORChainlink.sol\":997:1003  0xFFFF */\n      0xffff\n        /* \"https://github.com/smartcontractkit/chainlink/blob/develop/contracts/src/v0.8/vendor/CBORChainlink.sol\":988:993  value */\n      dup2\n        /* \"https://github.com/smartcontractkit/chainlink/blob/develop/contracts/src/v0.8/vendor/CBORChainlink.sol\":988:1003  value <= 0xFFFF */\n      0xffffffffffffffff\n      and\n      gt\n        /* \"https://github.com/smartcontractkit/chainlink/blob/develop/contracts/src/v0.8/vendor/CBORChainlink.sol\":984:1303  if (value <= 0xFFFF) {... */\n      tag_240\n      jumpi\n        /* \"https://github.com/smartcontractkit/chainlink/blob/develop/contracts/src/v0.8/vendor/CBORChainlink.sol\":1013:1054  buf.appendUint8(uint8((major << 5) | 25)) */\n      tag_241\n        /* \"https://github.com/smartcontractkit/chainlink/blob/develop/contracts/src/v0.8/vendor/CBORChainlink.sol\":1050:1052  25 */\n      0x19\n        /* \"https://github.com/smartcontractkit/chainlink/blob/develop/contracts/src/v0.8/vendor/CBORChainlink.sol\":1045:1046  5 */\n      0x05\n        /* \"https://github.com/smartcontractkit/chainlink/blob/develop/contracts/src/v0.8/vendor/CBORChainlink.sol\":1036:1041  major */\n      dup5\n        /* \"https://github.com/smartcontractkit/chainlink/blob/develop/contracts/src/v0.8/vendor/CBORChainlink.sol\":1036:1046  major << 5 */\n      0xff\n      and\n      swap1\n      shl\n        /* \"https://github.com/smartcontractkit/chainlink/blob/develop/contracts/src/v0.8/vendor/CBORChainlink.sol\":1035:1052  (major << 5) | 25 */\n      or\n        /* \"https://github.com/smartcontractkit/chainlink/blob/develop/contracts/src/v0.8/vendor/CBORChainlink.sol\":1013:1016  buf */\n      dup5\n        /* \"https://github.com/smartcontractkit/chainlink/blob/develop/contracts/src/v0.8/vendor/CBORChainlink.sol\":1013:1028  buf.appendUint8 */\n      tag_233\n      swap1\n        /* \"https://github.com/smartcontractkit/chainlink/blob/develop/contracts/src/v0.8/vendor/CBORChainlink.sol\":1013:1054  buf.appendUint8(uint8((major << 5) | 25)) */\n      swap2\n      swap1\n      0xffffffff\n      and\n      jump\t// in\n    tag_241:\n      pop\n        /* \"https://github.com/smartcontractkit/chainlink/blob/develop/contracts/src/v0.8/vendor/CBORChainlink.sol\":1062:1085  buf.appendInt(value, 2) */\n      tag_242\n        /* \"https://github.com/smartcontractkit/chainlink/blob/develop/contracts/src/v0.8/vendor/CBORChainlink.sol\":1076:1081  value */\n      dup2\n        /* \"https://github.com/smartcontractkit/chainlink/blob/develop/contracts/src/v0.8/vendor/CBORChainlink.sol\":1062:1085  buf.appendInt(value, 2) */\n      0xffffffffffffffff\n      and\n        /* \"https://github.com/smartcontractkit/chainlink/blob/develop/contracts/src/v0.8/vendor/CBORChainlink.sol\":1083:1084  2 */\n      0x02\n        /* \"https://github.com/smartcontractkit/chainlink/blob/develop/contracts/src/v0.8/vendor/CBORChainlink.sol\":1062:1065  buf */\n      dup6\n        /* \"https://github.com/smartcontractkit/chainlink/blob/develop/contracts/src/v0.8/vendor/CBORChainlink.sol\":1062:1075  buf.appendInt */\n      tag_238\n      swap1\n        /* \"https://github.com/smartcontractkit/chainlink/blob/develop/contracts/src/v0.8/vendor/CBORChainlink.sol\":1062:1085  buf.appendInt(value, 2) */\n      swap3\n      swap2\n      swap1\n      0xffffffff\n      and\n      jump\t// in\n    tag_242:\n      pop\n        /* \"https://github.com/smartcontractkit/chainlink/blob/develop/contracts/src/v0.8/vendor/CBORChainlink.sol\":984:1303  if (value <= 0xFFFF) {... */\n      jump(tag_243)\n    tag_240:\n        /* \"https://github.com/smartcontractkit/chainlink/blob/develop/contracts/src/v0.8/vendor/CBORChainlink.sol\":1111:1121  0xFFFFFFFF */\n      0xffffffff\n        /* \"https://github.com/smartcontractkit/chainlink/blob/develop/contracts/src/v0.8/vendor/CBORChainlink.sol\":1102:1107  value */\n      dup2\n        /* \"https://github.com/smartcontractkit/chainlink/blob/develop/contracts/src/v0.8/vendor/CBORChainlink.sol\":1102:1121  value <= 0xFFFFFFFF */\n      0xffffffffffffffff\n      and\n      gt\n        /* \"https://github.com/smartcontractkit/chainlink/blob/develop/contracts/src/v0.8/vendor/CBORChainlink.sol\":1098:1303  if (value <= 0xFFFFFFFF) {... */\n      tag_244\n      jumpi\n        /* \"https://github.com/smartcontractkit/chainlink/blob/develop/contracts/src/v0.8/vendor/CBORChainlink.sol\":1131:1172  buf.appendUint8(uint8((major << 5) | 26)) */\n      tag_245\n        /* \"https://github.com/smartcontractkit/chainlink/blob/develop/contracts/src/v0.8/vendor/CBORChainlink.sol\":1168:1170  26 */\n      0x1a\n        /* \"https://github.com/smartcontractkit/chainlink/blob/develop/contracts/src/v0.8/vendor/CBORChainlink.sol\":1163:1164  5 */\n      0x05\n        /* \"https://github.com/smartcontractkit/chainlink/blob/develop/contracts/src/v0.8/vendor/CBORChainlink.sol\":1154:1159  major */\n      dup5\n        /* \"https://github.com/smartcontractkit/chainlink/blob/develop/contracts/src/v0.8/vendor/CBORChainlink.sol\":1154:1164  major << 5 */\n      0xff\n      and\n      swap1\n      shl\n        /* \"https://github.com/smartcontractkit/chainlink/blob/develop/contracts/src/v0.8/vendor/CBORChainlink.sol\":1153:1170  (major << 5) | 26 */\n      or\n        /* \"https://github.com/smartcontractkit/chainlink/blob/develop/contracts/src/v0.8/vendor/CBORChainlink.sol\":1131:1134  buf */\n      dup5\n        /* \"https://github.com/smartcontractkit/chainlink/blob/develop/contracts/src/v0.8/vendor/CBORChainlink.sol\":1131:1146  buf.appendUint8 */\n      tag_233\n      swap1\n        /* \"https://github.com/smartcontractkit/chainlink/blob/develop/contracts/src/v0.8/vendor/CBORChainlink.sol\":1131:1172  buf.appendUint8(uint8((major << 5) | 26)) */\n      swap2\n      swap1\n      0xffffffff\n      and\n      jump\t// in\n    tag_245:\n      pop\n        /* \"https://github.com/smartcontractkit/chainlink/blob/develop/contracts/src/v0.8/vendor/CBORChainlink.sol\":1180:1203  buf.appendInt(value, 4) */\n      tag_246\n        /* \"https://github.com/smartcontractkit/chainlink/blob/develop/contracts/src/v0.8/vendor/CBORChainlink.sol\":1194:1199  value */\n      dup2\n        /* \"https://github.com/smartcontractkit/chainlink/blob/develop/contracts/src/v0.8/vendor/CBORChainlink.sol\":1180:1203  buf.appendInt(value, 4) */\n      0xffffffffffffffff\n      and\n        /* \"https://github.com/smartcontractkit/chainlink/blob/develop/contracts/src/v0.8/vendor/CBORChainlink.sol\":1201:1202  4 */\n      0x04\n        /* \"https://github.com/smartcontractkit/chainlink/blob/develop/contracts/src/v0.8/vendor/CBORChainlink.sol\":1180:1183  buf */\n      dup6\n        /* \"https://github.com/smartcontractkit/chainlink/blob/develop/contracts/src/v0.8/vendor/CBORChainlink.sol\":1180:1193  buf.appendInt */\n      tag_238\n      swap1\n        /* \"https://github.com/smartcontractkit/chainlink/blob/develop/contracts/src/v0.8/vendor/CBORChainlink.sol\":1180:1203  buf.appendInt(value, 4) */\n      swap3\n      swap2\n      swap1\n      0xffffffff\n      and\n      jump\t// in\n    tag_246:\n      pop\n        /* \"https://github.com/smartcontractkit/chainlink/blob/develop/contracts/src/v0.8/vendor/CBORChainlink.sol\":1098:1303  if (value <= 0xFFFFFFFF) {... */\n      jump(tag_247)\n    tag_244:\n        /* \"https://github.com/smartcontractkit/chainlink/blob/develop/contracts/src/v0.8/vendor/CBORChainlink.sol\":1224:1265  buf.appendUint8(uint8((major << 5) | 27)) */\n      tag_248\n        /* \"https://github.com/smartcontractkit/chainlink/blob/develop/contracts/src/v0.8/vendor/CBORChainlink.sol\":1261:1263  27 */\n      0x1b\n        /* \"https://github.com/smartcontractkit/chainlink/blob/develop/contracts/src/v0.8/vendor/CBORChainlink.sol\":1256:1257  5 */\n      0x05\n        /* \"https://github.com/smartcontractkit/chainlink/blob/develop/contracts/src/v0.8/vendor/CBORChainlink.sol\":1247:1252  major */\n      dup5\n        /* \"https://github.com/smartcontractkit/chainlink/blob/develop/contracts/src/v0.8/vendor/CBORChainlink.sol\":1247:1257  major << 5 */\n      0xff\n      and\n      swap1\n      shl\n        /* \"https://github.com/smartcontractkit/chainlink/blob/develop/contracts/src/v0.8/vendor/CBORChainlink.sol\":1246:1263  (major << 5) | 27 */\n      or\n        /* \"https://github.com/smartcontractkit/chainlink/blob/develop/contracts/src/v0.8/vendor/CBORChainlink.sol\":1224:1227  buf */\n      dup5\n        /* \"https://github.com/smartcontractkit/chainlink/blob/develop/contracts/src/v0.8/vendor/CBORChainlink.sol\":1224:1239  buf.appendUint8 */\n      tag_233\n      swap1\n        /* \"https://github.com/smartcontractkit/chainlink/blob/develop/contracts/src/v0.8/vendor/CBORChainlink.sol\":1224:1265  buf.appendUint8(uint8((major << 5) | 27)) */\n      swap2\n      swap1\n      0xffffffff\n      and\n      jump\t// in\n    tag_248:\n      pop\n        /* \"https://github.com/smartcontractkit/chainlink/blob/develop/contracts/src/v0.8/vendor/CBORChainlink.sol\":1273:1296  buf.appendInt(value, 8) */\n      tag_249\n        /* \"https://github.com/smartcontractkit/chainlink/blob/develop/contracts/src/v0.8/vendor/CBORChainlink.sol\":1287:1292  value */\n      dup2\n        /* \"https://github.com/smartcontractkit/chainlink/blob/develop/contracts/src/v0.8/vendor/CBORChainlink.sol\":1273:1296  buf.appendInt(value, 8) */\n      0xffffffffffffffff\n      and\n        /* \"https://github.com/smartcontractkit/chainlink/blob/develop/contracts/src/v0.8/vendor/CBORChainlink.sol\":1294:1295  8 */\n      0x08\n        /* \"https://github.com/smartcontractkit/chainlink/blob/develop/contracts/src/v0.8/vendor/CBORChainlink.sol\":1273:1276  buf */\n      dup6\n        /* \"https://github.com/smartcontractkit/chainlink/blob/develop/contracts/src/v0.8/vendor/CBORChainlink.sol\":1273:1286  buf.appendInt */\n      tag_238\n      swap1\n        /* \"https://github.com/smartcontractkit/chainlink/blob/develop/contracts/src/v0.8/vendor/CBORChainlink.sol\":1273:1296  buf.appendInt(value, 8) */\n      swap3\n      swap2\n      swap1\n      0xffffffff\n      and\n      jump\t// in\n    tag_249:\n      pop\n        /* \"https://github.com/smartcontractkit/chainlink/blob/develop/contracts/src/v0.8/vendor/CBORChainlink.sol\":1098:1303  if (value <= 0xFFFFFFFF) {... */\n    tag_247:\n        /* \"https://github.com/smartcontractkit/chainlink/blob/develop/contracts/src/v0.8/vendor/CBORChainlink.sol\":984:1303  if (value <= 0xFFFF) {... */\n    tag_243:\n        /* \"https://github.com/smartcontractkit/chainlink/blob/develop/contracts/src/v0.8/vendor/CBORChainlink.sol\":872:1303  if (value <= 0xFF) {... */\n    tag_239:\n        /* \"https://github.com/smartcontractkit/chainlink/blob/develop/contracts/src/v0.8/vendor/CBORChainlink.sol\":791:1303  if(value <= 23) {... */\n    tag_234:\n        /* \"https://github.com/smartcontractkit/chainlink/blob/develop/contracts/src/v0.8/vendor/CBORChainlink.sol\":682:1307  function encodeFixedNumeric(BufferChainlink.buffer memory buf, uint8 major, uint64 value) private pure {... */\n      pop\n      pop\n      pop\n      jump\t// out\n        /* \"https://github.com/smartcontractkit/chainlink/blob/develop/contracts/src/v0.8/vendor/BufferChainlink.sol\":4692:4847  function append(buffer memory buf, bytes memory data) internal pure returns (buffer memory) {... */\n    tag_197:\n        /* \"https://github.com/smartcontractkit/chainlink/blob/develop/contracts/src/v0.8/vendor/BufferChainlink.sol\":4769:4782  buffer memory */\n      tag_250\n      tag_221\n      jump\t// in\n    tag_250:\n        /* \"https://github.com/smartcontractkit/chainlink/blob/develop/contracts/src/v0.8/vendor/BufferChainlink.sol\":4797:4842  write(buf, buf.buf.length, data, data.length) */\n      tag_252\n        /* \"https://github.com/smartcontractkit/chainlink/blob/develop/contracts/src/v0.8/vendor/BufferChainlink.sol\":4803:4806  buf */\n      dup4\n        /* \"https://github.com/smartcontractkit/chainlink/blob/develop/contracts/src/v0.8/vendor/BufferChainlink.sol\":4808:4811  buf */\n      dup5\n        /* \"https://github.com/smartcontractkit/chainlink/blob/develop/contracts/src/v0.8/vendor/BufferChainlink.sol\":4808:4815  buf.buf */\n      0x00\n      add\n      mload\n        /* \"https://github.com/smartcontractkit/chainlink/blob/develop/contracts/src/v0.8/vendor/BufferChainlink.sol\":4808:4822  buf.buf.length */\n      mload\n        /* \"https://github.com/smartcontractkit/chainlink/blob/develop/contracts/src/v0.8/vendor/BufferChainlink.sol\":4824:4828  data */\n      dup5\n        /* \"https://github.com/smartcontractkit/chainlink/blob/develop/contracts/src/v0.8/vendor/BufferChainlink.sol\":4830:4834  data */\n      dup6\n        /* \"https://github.com/smartcontractkit/chainlink/blob/develop/contracts/src/v0.8/vendor/BufferChainlink.sol\":4830:4841  data.length */\n      mload\n        /* \"https://github.com/smartcontractkit/chainlink/blob/develop/contracts/src/v0.8/vendor/BufferChainlink.sol\":4797:4802  write */\n      tag_253\n        /* \"https://github.com/smartcontractkit/chainlink/blob/develop/contracts/src/v0.8/vendor/BufferChainlink.sol\":4797:4842  write(buf, buf.buf.length, data, data.length) */\n      jump\t// in\n    tag_252:\n        /* \"https://github.com/smartcontractkit/chainlink/blob/develop/contracts/src/v0.8/vendor/BufferChainlink.sol\":4790:4842  return write(buf, buf.buf.length, data, data.length) */\n      swap1\n      pop\n        /* \"https://github.com/smartcontractkit/chainlink/blob/develop/contracts/src/v0.8/vendor/BufferChainlink.sol\":4692:4847  function append(buffer memory buf, bytes memory data) internal pure returns (buffer memory) {... */\n      swap3\n      swap2\n      pop\n      pop\n      jump\t// out\n        /* \"https://github.com/smartcontractkit/chainlink/blob/develop/contracts/src/v0.8/ChainlinkClient.sol\":6629:7059  function _rawRequest(... */\n    tag_204:\n        /* \"https://github.com/smartcontractkit/chainlink/blob/develop/contracts/src/v0.8/ChainlinkClient.sol\":6771:6788  bytes32 requestId */\n      0x00\n        /* \"https://github.com/smartcontractkit/chainlink/blob/develop/contracts/src/v0.8/ChainlinkClient.sol\":6835:6839  this */\n      address\n        /* \"https://github.com/smartcontractkit/chainlink/blob/develop/contracts/src/v0.8/ChainlinkClient.sol\":6841:6846  nonce */\n      dup5\n        /* \"https://github.com/smartcontractkit/chainlink/blob/develop/contracts/src/v0.8/ChainlinkClient.sol\":6818:6847  abi.encodePacked(this, nonce) */\n      add(0x20, mload(0x40))\n      tag_255\n      swap3\n      swap2\n      swap1\n      tag_256\n      jump\t// in\n    tag_255:\n      mload(0x40)\n      0x20\n      dup2\n      dup4\n      sub\n      sub\n      dup2\n      mstore\n      swap1\n      0x40\n      mstore\n        /* \"https://github.com/smartcontractkit/chainlink/blob/develop/contracts/src/v0.8/ChainlinkClient.sol\":6808:6848  keccak256(abi.encodePacked(this, nonce)) */\n      dup1\n      mload\n      swap1\n      0x20\n      add\n      keccak256\n        /* \"https://github.com/smartcontractkit/chainlink/blob/develop/contracts/src/v0.8/ChainlinkClient.sol\":6796:6848  requestId = keccak256(abi.encodePacked(this, nonce)) */\n      swap1\n      pop\n        /* \"https://github.com/smartcontractkit/chainlink/blob/develop/contracts/src/v0.8/ChainlinkClient.sol\":6885:6898  oracleAddress */\n      dup5\n        /* \"https://github.com/smartcontractkit/chainlink/blob/develop/contracts/src/v0.8/ChainlinkClient.sol\":6854:6871  s_pendingRequests */\n      0x05\n        /* \"https://github.com/smartcontractkit/chainlink/blob/develop/contracts/src/v0.8/ChainlinkClient.sol\":6854:6882  s_pendingRequests[requestId] */\n      0x00\n        /* \"https://github.com/smartcontractkit/chainlink/blob/develop/contracts/src/v0.8/ChainlinkClient.sol\":6872:6881  requestId */\n      dup4\n        /* \"https://github.com/smartcontractkit/chainlink/blob/develop/contracts/src/v0.8/ChainlinkClient.sol\":6854:6882  s_pendingRequests[requestId] */\n      dup2\n      mstore\n      0x20\n      add\n      swap1\n      dup2\n      mstore\n      0x20\n      add\n      0x00\n      keccak256\n      0x00\n        /* \"https://github.com/smartcontractkit/chainlink/blob/develop/contracts/src/v0.8/ChainlinkClient.sol\":6854:6898  s_pendingRequests[requestId] = oracleAddress */\n      0x0100\n      exp\n      dup2\n      sload\n      dup2\n      0xffffffffffffffffffffffffffffffffffffffff\n      mul\n      not\n      and\n      swap1\n      dup4\n      0xffffffffffffffffffffffffffffffffffffffff\n      and\n      mul\n      or\n      swap1\n      sstore\n      pop\n        /* \"https://github.com/smartcontractkit/chainlink/blob/develop/contracts/src/v0.8/ChainlinkClient.sol\":6928:6937  requestId */\n      dup1\n        /* \"https://github.com/smartcontractkit/chainlink/blob/develop/contracts/src/v0.8/ChainlinkClient.sol\":6909:6938  ChainlinkRequested(requestId) */\n      0xb5e6e01e79f91267dc17b4e6314d5d4d03593d2ceee0fbb452b750bd70ea5af9\n      mload(0x40)\n      mload(0x40)\n      dup1\n      swap2\n      sub\n      swap1\n      log2\n        /* \"https://github.com/smartcontractkit/chainlink/blob/develop/contracts/src/v0.8/ChainlinkClient.sol\":6952:6958  s_link */\n      0x02\n      0x00\n      swap1\n      sload\n      swap1\n      0x0100\n      exp\n      swap1\n      div\n      0xffffffffffffffffffffffffffffffffffffffff\n      and\n        /* \"https://github.com/smartcontractkit/chainlink/blob/develop/contracts/src/v0.8/ChainlinkClient.sol\":6952:6974  s_link.transferAndCall */\n      0xffffffffffffffffffffffffffffffffffffffff\n      and\n      0x4000aea0\n        /* \"https://github.com/smartcontractkit/chainlink/blob/develop/contracts/src/v0.8/ChainlinkClient.sol\":6975:6988  oracleAddress */\n      dup7\n        /* \"https://github.com/smartcontractkit/chainlink/blob/develop/contracts/src/v0.8/ChainlinkClient.sol\":6990:6997  payment */\n      dup6\n        /* \"https://github.com/smartcontractkit/chainlink/blob/develop/contracts/src/v0.8/ChainlinkClient.sol\":6999:7013  encodedRequest */\n      dup6\n        /* \"https://github.com/smartcontractkit/chainlink/blob/develop/contracts/src/v0.8/ChainlinkClient.sol\":6952:7014  s_link.transferAndCall(oracleAddress, payment, encodedRequest) */\n      mload(0x40)\n      dup5\n      0xffffffff\n      and\n      0xe0\n      shl\n      dup2\n      mstore\n      0x04\n      add\n      tag_257\n      swap4\n      swap3\n      swap2\n      swap1\n      tag_258\n      jump\t// in\n    tag_257:\n      0x20\n      mload(0x40)\n      dup1\n      dup4\n      sub\n      dup2\n      0x00\n      dup8\n      gas\n      call\n      iszero\n      dup1\n      iszero\n      tag_260\n      jumpi\n      returndatasize\n      0x00\n      dup1\n      returndatacopy\n      revert(0x00, returndatasize)\n    tag_260:\n      pop\n      pop\n      pop\n      pop\n      mload(0x40)\n      returndatasize\n      not(0x1f)\n      0x1f\n      dup3\n      add\n      and\n      dup3\n      add\n      dup1\n      0x40\n      mstore\n      pop\n      dup2\n      add\n      swap1\n      tag_261\n      swap2\n      swap1\n      tag_262\n      jump\t// in\n    tag_261:\n        /* \"https://github.com/smartcontractkit/chainlink/blob/develop/contracts/src/v0.8/ChainlinkClient.sol\":6944:7054  require(s_link.transferAndCall(oracleAddress, payment, encodedRequest), \"unable to transferAndCall to oracle\") */\n      tag_263\n      jumpi\n      mload(0x40)\n      0x08c379a000000000000000000000000000000000000000000000000000000000\n      dup2\n      mstore\n      0x04\n      add\n      tag_264\n      swap1\n      tag_265\n      jump\t// in\n    tag_264:\n      mload(0x40)\n      dup1\n      swap2\n      sub\n      swap1\n      revert\n    tag_263:\n        /* \"https://github.com/smartcontractkit/chainlink/blob/develop/contracts/src/v0.8/ChainlinkClient.sol\":6629:7059  function _rawRequest(... */\n      swap5\n      swap4\n      pop\n      pop\n      pop\n      pop\n      jump\t// out\n        /* \"https://github.com/smartcontractkit/chainlink/blob/develop/contracts/src/v0.8/vendor/CBORChainlink.sol\":2547:2773  function encodeSignedBigNum(BufferChainlink.buffer memory buf, int input) internal pure {... */\n    tag_208:\n        /* \"https://github.com/smartcontractkit/chainlink/blob/develop/contracts/src/v0.8/vendor/CBORChainlink.sol\":2641:2713  buf.appendUint8(uint8((MAJOR_TYPE_TAG << 5) | TAG_TYPE_NEGATIVE_BIGNUM)) */\n      tag_267\n        /* \"https://github.com/smartcontractkit/chainlink/blob/develop/contracts/src/v0.8/vendor/CBORChainlink.sol\":676:677  3 */\n      0x03\n        /* \"https://github.com/smartcontractkit/chainlink/blob/develop/contracts/src/v0.8/vendor/CBORChainlink.sol\":2682:2683  5 */\n      0x05\n        /* \"https://github.com/smartcontractkit/chainlink/blob/develop/contracts/src/v0.8/vendor/CBORChainlink.sol\":520:521  6 */\n      0x06\n        /* \"https://github.com/smartcontractkit/chainlink/blob/develop/contracts/src/v0.8/vendor/CBORChainlink.sol\":2664:2683  MAJOR_TYPE_TAG << 5 */\n      0xff\n      and\n      swap1\n      shl\n        /* \"https://github.com/smartcontractkit/chainlink/blob/develop/contracts/src/v0.8/vendor/CBORChainlink.sol\":2663:2711  (MAJOR_TYPE_TAG << 5) | TAG_TYPE_NEGATIVE_BIGNUM */\n      or\n        /* \"https://github.com/smartcontractkit/chainlink/blob/develop/contracts/src/v0.8/vendor/CBORChainlink.sol\":2641:2644  buf */\n      dup4\n        /* \"https://github.com/smartcontractkit/chainlink/blob/develop/contracts/src/v0.8/vendor/CBORChainlink.sol\":2641:2656  buf.appendUint8 */\n      tag_233\n      swap1\n        /* \"https://github.com/smartcontractkit/chainlink/blob/develop/contracts/src/v0.8/vendor/CBORChainlink.sol\":2641:2713  buf.appendUint8(uint8((MAJOR_TYPE_TAG << 5) | TAG_TYPE_NEGATIVE_BIGNUM)) */\n      swap2\n      swap1\n      0xffffffff\n      and\n      jump\t// in\n    tag_267:\n      pop\n        /* \"https://github.com/smartcontractkit/chainlink/blob/develop/contracts/src/v0.8/vendor/CBORChainlink.sol\":2719:2768  encodeBytes(buf, abi.encode(uint256(-1 - input))) */\n      tag_268\n        /* \"https://github.com/smartcontractkit/chainlink/blob/develop/contracts/src/v0.8/vendor/CBORChainlink.sol\":2731:2734  buf */\n      dup3\n        /* \"https://github.com/smartcontractkit/chainlink/blob/develop/contracts/src/v0.8/vendor/CBORChainlink.sol\":2760:2765  input */\n      dup3\n        /* \"https://github.com/smartcontractkit/chainlink/blob/develop/contracts/src/v0.8/vendor/CBORChainlink.sol\":2755:2757  -1 */\n      0xffffffffffffffffffffffffffffffffffffffffffffffffffffffffffffffff\n        /* \"https://github.com/smartcontractkit/chainlink/blob/develop/contracts/src/v0.8/vendor/CBORChainlink.sol\":2755:2765  -1 - input */\n      tag_269\n      swap2\n      swap1\n      tag_219\n      jump\t// in\n    tag_269:\n        /* \"https://github.com/smartcontractkit/chainlink/blob/develop/contracts/src/v0.8/vendor/CBORChainlink.sol\":2736:2767  abi.encode(uint256(-1 - input)) */\n      add(0x20, mload(0x40))\n      tag_270\n      swap2\n      swap1\n      tag_23\n      jump\t// in\n    tag_270:\n      mload(0x40)\n      0x20\n      dup2\n      dup4\n      sub\n      sub\n      dup2\n      mstore\n      swap1\n      0x40\n      mstore\n        /* \"https://github.com/smartcontractkit/chainlink/blob/develop/contracts/src/v0.8/vendor/CBORChainlink.sol\":2719:2730  encodeBytes */\n      tag_271\n        /* \"https://github.com/smartcontractkit/chainlink/blob/develop/contracts/src/v0.8/vendor/CBORChainlink.sol\":2719:2768  encodeBytes(buf, abi.encode(uint256(-1 - input))) */\n      jump\t// in\n    tag_268:\n        /* \"https://github.com/smartcontractkit/chainlink/blob/develop/contracts/src/v0.8/vendor/CBORChainlink.sol\":2547:2773  function encodeSignedBigNum(BufferChainlink.buffer memory buf, int input) internal pure {... */\n      pop\n      pop\n      jump\t// out\n        /* \"https://github.com/smartcontractkit/chainlink/blob/develop/contracts/src/v0.8/vendor/CBORChainlink.sol\":2345:2543  function encodeBigNum(BufferChainlink.buffer memory buf, uint value) internal pure {... */\n    tag_212:\n        /* \"https://github.com/smartcontractkit/chainlink/blob/develop/contracts/src/v0.8/vendor/CBORChainlink.sol\":2434:2497  buf.appendUint8(uint8((MAJOR_TYPE_TAG << 5) | TAG_TYPE_BIGNUM)) */\n      tag_273\n        /* \"https://github.com/smartcontractkit/chainlink/blob/develop/contracts/src/v0.8/vendor/CBORChainlink.sol\":621:622  2 */\n      0x02\n        /* \"https://github.com/smartcontractkit/chainlink/blob/develop/contracts/src/v0.8/vendor/CBORChainlink.sol\":2475:2476  5 */\n      0x05\n        /* \"https://github.com/smartcontractkit/chainlink/blob/develop/contracts/src/v0.8/vendor/CBORChainlink.sol\":520:521  6 */\n      0x06\n        /* \"https://github.com/smartcontractkit/chainlink/blob/develop/contracts/src/v0.8/vendor/CBORChainlink.sol\":2457:2476  MAJOR_TYPE_TAG << 5 */\n      0xff\n      and\n      swap1\n      shl\n        /* \"https://github.com/smartcontractkit/chainlink/blob/develop/contracts/src/v0.8/vendor/CBORChainlink.sol\":2456:2495  (MAJOR_TYPE_TAG << 5) | TAG_TYPE_BIGNUM */\n      or\n        /* \"https://github.com/smartcontractkit/chainlink/blob/develop/contracts/src/v0.8/vendor/CBORChainlink.sol\":2434:2437  buf */\n      dup4\n        /* \"https://github.com/smartcontractkit/chainlink/blob/develop/contracts/src/v0.8/vendor/CBORChainlink.sol\":2434:2449  buf.appendUint8 */\n      tag_233\n      swap1\n        /* \"https://github.com/smartcontractkit/chainlink/blob/develop/contracts/src/v0.8/vendor/CBORChainlink.sol\":2434:2497  buf.appendUint8(uint8((MAJOR_TYPE_TAG << 5) | TAG_TYPE_BIGNUM)) */\n      swap2\n      swap1\n      0xffffffff\n      and\n      jump\t// in\n    tag_273:\n      pop\n        /* \"https://github.com/smartcontractkit/chainlink/blob/develop/contracts/src/v0.8/vendor/CBORChainlink.sol\":2503:2538  encodeBytes(buf, abi.encode(value)) */\n      tag_274\n        /* \"https://github.com/smartcontractkit/chainlink/blob/develop/contracts/src/v0.8/vendor/CBORChainlink.sol\":2515:2518  buf */\n      dup3\n        /* \"https://github.com/smartcontractkit/chainlink/blob/develop/contracts/src/v0.8/vendor/CBORChainlink.sol\":2531:2536  value */\n      dup3\n        /* \"https://github.com/smartcontractkit/chainlink/blob/develop/contracts/src/v0.8/vendor/CBORChainlink.sol\":2520:2537  abi.encode(value) */\n      add(0x20, mload(0x40))\n      tag_275\n      swap2\n      swap1\n      tag_23\n      jump\t// in\n    tag_275:\n      mload(0x40)\n      0x20\n      dup2\n      dup4\n      sub\n      sub\n      dup2\n      mstore\n      swap1\n      0x40\n      mstore\n        /* \"https://github.com/smartcontractkit/chainlink/blob/develop/contracts/src/v0.8/vendor/CBORChainlink.sol\":2503:2514  encodeBytes */\n      tag_271\n        /* \"https://github.com/smartcontractkit/chainlink/blob/develop/contracts/src/v0.8/vendor/CBORChainlink.sol\":2503:2538  encodeBytes(buf, abi.encode(value)) */\n      jump\t// in\n    tag_274:\n        /* \"https://github.com/smartcontractkit/chainlink/blob/develop/contracts/src/v0.8/vendor/CBORChainlink.sol\":2345:2543  function encodeBigNum(BufferChainlink.buffer memory buf, uint value) internal pure {... */\n      pop\n      pop\n      jump\t// out\n        /* \"https://github.com/smartcontractkit/chainlink/blob/develop/contracts/src/v0.8/vendor/BufferChainlink.sol\":6040:6185  function appendUint8(buffer memory buf, uint8 data) internal pure returns (buffer memory) {... */\n    tag_233:\n        /* \"https://github.com/smartcontractkit/chainlink/blob/develop/contracts/src/v0.8/vendor/BufferChainlink.sol\":6115:6128  buffer memory */\n      tag_276\n      tag_221\n      jump\t// in\n    tag_276:\n        /* \"https://github.com/smartcontractkit/chainlink/blob/develop/contracts/src/v0.8/vendor/BufferChainlink.sol\":6143:6180  writeUint8(buf, buf.buf.length, data) */\n      tag_278\n        /* \"https://github.com/smartcontractkit/chainlink/blob/develop/contracts/src/v0.8/vendor/BufferChainlink.sol\":6154:6157  buf */\n      dup4\n        /* \"https://github.com/smartcontractkit/chainlink/blob/develop/contracts/src/v0.8/vendor/BufferChainlink.sol\":6159:6162  buf */\n      dup5\n        /* \"https://github.com/smartcontractkit/chainlink/blob/develop/contracts/src/v0.8/vendor/BufferChainlink.sol\":6159:6166  buf.buf */\n      0x00\n      add\n      mload\n        /* \"https://github.com/smartcontractkit/chainlink/blob/develop/contracts/src/v0.8/vendor/BufferChainlink.sol\":6159:6173  buf.buf.length */\n      mload\n        /* \"https://github.com/smartcontractkit/chainlink/blob/develop/contracts/src/v0.8/vendor/BufferChainlink.sol\":6175:6179  data */\n      dup5\n        /* \"https://github.com/smartcontractkit/chainlink/blob/develop/contracts/src/v0.8/vendor/BufferChainlink.sol\":6143:6153  writeUint8 */\n      tag_279\n        /* \"https://github.com/smartcontractkit/chainlink/blob/develop/contracts/src/v0.8/vendor/BufferChainlink.sol\":6143:6180  writeUint8(buf, buf.buf.length, data) */\n      jump\t// in\n    tag_278:\n        /* \"https://github.com/smartcontractkit/chainlink/blob/develop/contracts/src/v0.8/vendor/BufferChainlink.sol\":6136:6180  return writeUint8(buf, buf.buf.length, data) */\n      swap1\n      pop\n        /* \"https://github.com/smartcontractkit/chainlink/blob/develop/contracts/src/v0.8/vendor/BufferChainlink.sol\":6040:6185  function appendUint8(buffer memory buf, uint8 data) internal pure returns (buffer memory) {... */\n      swap3\n      swap2\n      pop\n      pop\n      jump\t// out\n        /* \"https://github.com/smartcontractkit/chainlink/blob/develop/contracts/src/v0.8/vendor/BufferChainlink.sol\":9894:10071  function appendInt(... */\n    tag_238:\n        /* \"https://github.com/smartcontractkit/chainlink/blob/develop/contracts/src/v0.8/vendor/BufferChainlink.sol\":9998:10011  buffer memory */\n      tag_280\n      tag_221\n      jump\t// in\n    tag_280:\n        /* \"https://github.com/smartcontractkit/chainlink/blob/develop/contracts/src/v0.8/vendor/BufferChainlink.sol\":10026:10066  writeInt(buf, buf.buf.length, data, len) */\n      tag_282\n        /* \"https://github.com/smartcontractkit/chainlink/blob/develop/contracts/src/v0.8/vendor/BufferChainlink.sol\":10035:10038  buf */\n      dup5\n        /* \"https://github.com/smartcontractkit/chainlink/blob/develop/contracts/src/v0.8/vendor/BufferChainlink.sol\":10040:10043  buf */\n      dup6\n        /* \"https://github.com/smartcontractkit/chainlink/blob/develop/contracts/src/v0.8/vendor/BufferChainlink.sol\":10040:10047  buf.buf */\n      0x00\n      add\n      mload\n        /* \"https://github.com/smartcontractkit/chainlink/blob/develop/contracts/src/v0.8/vendor/BufferChainlink.sol\":10040:10054  buf.buf.length */\n      mload\n        /* \"https://github.com/smartcontractkit/chainlink/blob/develop/contracts/src/v0.8/vendor/BufferChainlink.sol\":10056:10060  data */\n      dup6\n        /* \"https://github.com/smartcontractkit/chainlink/blob/develop/contracts/src/v0.8/vendor/BufferChainlink.sol\":10062:10065  len */\n      dup6\n        /* \"https://github.com/smartcontractkit/chainlink/blob/develop/contracts/src/v0.8/vendor/BufferChainlink.sol\":10026:10034  writeInt */\n      tag_283\n        /* \"https://github.com/smartcontractkit/chainlink/blob/develop/contracts/src/v0.8/vendor/BufferChainlink.sol\":10026:10066  writeInt(buf, buf.buf.length, data, len) */\n      jump\t// in\n    tag_282:\n        /* \"https://github.com/smartcontractkit/chainlink/blob/develop/contracts/src/v0.8/vendor/BufferChainlink.sol\":10019:10066  return writeInt(buf, buf.buf.length, data, len) */\n      swap1\n      pop\n        /* \"https://github.com/smartcontractkit/chainlink/blob/develop/contracts/src/v0.8/vendor/BufferChainlink.sol\":9894:10071  function appendInt(... */\n      swap4\n      swap3\n      pop\n      pop\n      pop\n      jump\t// out\n        /* \"https://github.com/smartcontractkit/chainlink/blob/develop/contracts/src/v0.8/vendor/BufferChainlink.sol\":2745:3955  function write(... */\n    tag_253:\n        /* \"https://github.com/smartcontractkit/chainlink/blob/develop/contracts/src/v0.8/vendor/BufferChainlink.sol\":2867:2880  buffer memory */\n      tag_284\n      tag_221\n      jump\t// in\n    tag_284:\n        /* \"https://github.com/smartcontractkit/chainlink/blob/develop/contracts/src/v0.8/vendor/BufferChainlink.sol\":2903:2907  data */\n      dup3\n        /* \"https://github.com/smartcontractkit/chainlink/blob/develop/contracts/src/v0.8/vendor/BufferChainlink.sol\":2903:2914  data.length */\n      mload\n        /* \"https://github.com/smartcontractkit/chainlink/blob/develop/contracts/src/v0.8/vendor/BufferChainlink.sol\":2896:2899  len */\n      dup3\n        /* \"https://github.com/smartcontractkit/chainlink/blob/develop/contracts/src/v0.8/vendor/BufferChainlink.sol\":2896:2914  len <= data.length */\n      gt\n      iszero\n        /* \"https://github.com/smartcontractkit/chainlink/blob/develop/contracts/src/v0.8/vendor/BufferChainlink.sol\":2888:2915  require(len <= data.length) */\n      tag_286\n      jumpi\n      0x00\n      dup1\n      revert\n    tag_286:\n        /* \"https://github.com/smartcontractkit/chainlink/blob/develop/contracts/src/v0.8/vendor/BufferChainlink.sol\":2938:2941  buf */\n      dup5\n        /* \"https://github.com/smartcontractkit/chainlink/blob/develop/contracts/src/v0.8/vendor/BufferChainlink.sol\":2938:2950  buf.capacity */\n      0x20\n      add\n      mload\n        /* \"https://github.com/smartcontractkit/chainlink/blob/develop/contracts/src/v0.8/vendor/BufferChainlink.sol\":2932:2935  len */\n      dup3\n        /* \"https://github.com/smartcontractkit/chainlink/blob/develop/contracts/src/v0.8/vendor/BufferChainlink.sol\":2926:2929  off */\n      dup6\n        /* \"https://github.com/smartcontractkit/chainlink/blob/develop/contracts/src/v0.8/vendor/BufferChainlink.sol\":2926:2935  off + len */\n      tag_287\n      swap2\n      swap1\n      tag_200\n      jump\t// in\n    tag_287:\n        /* \"https://github.com/smartcontractkit/chainlink/blob/develop/contracts/src/v0.8/vendor/BufferChainlink.sol\":2926:2950  off + len > buf.capacity */\n      gt\n        /* \"https://github.com/smartcontractkit/chainlink/blob/develop/contracts/src/v0.8/vendor/BufferChainlink.sol\":2922:3012  if (off + len > buf.capacity) {... */\n      iszero\n      tag_288\n      jumpi\n        /* \"https://github.com/smartcontractkit/chainlink/blob/develop/contracts/src/v0.8/vendor/BufferChainlink.sol\":2960:3005  resize(buf, max(buf.capacity, len + off) * 2) */\n      tag_289\n        /* \"https://github.com/smartcontractkit/chainlink/blob/develop/contracts/src/v0.8/vendor/BufferChainlink.sol\":2967:2970  buf */\n      dup6\n        /* \"https://github.com/smartcontractkit/chainlink/blob/develop/contracts/src/v0.8/vendor/BufferChainlink.sol\":3003:3004  2 */\n      0x02\n        /* \"https://github.com/smartcontractkit/chainlink/blob/develop/contracts/src/v0.8/vendor/BufferChainlink.sol\":2972:3000  max(buf.capacity, len + off) */\n      tag_290\n        /* \"https://github.com/smartcontractkit/chainlink/blob/develop/contracts/src/v0.8/vendor/BufferChainlink.sol\":2976:2979  buf */\n      dup9\n        /* \"https://github.com/smartcontractkit/chainlink/blob/develop/contracts/src/v0.8/vendor/BufferChainlink.sol\":2976:2988  buf.capacity */\n      0x20\n      add\n      mload\n        /* \"https://github.com/smartcontractkit/chainlink/blob/develop/contracts/src/v0.8/vendor/BufferChainlink.sol\":2996:2999  off */\n      dup9\n        /* \"https://github.com/smartcontractkit/chainlink/blob/develop/contracts/src/v0.8/vendor/BufferChainlink.sol\":2990:2993  len */\n      dup8\n        /* \"https://github.com/smartcontractkit/chainlink/blob/develop/contracts/src/v0.8/vendor/BufferChainlink.sol\":2990:2999  len + off */\n      tag_291\n      swap2\n      swap1\n      tag_200\n      jump\t// in\n    tag_291:\n        /* \"https://github.com/smartcontractkit/chainlink/blob/develop/contracts/src/v0.8/vendor/BufferChainlink.sol\":2972:2975  max */\n      tag_292\n        /* \"https://github.com/smartcontractkit/chainlink/blob/develop/contracts/src/v0.8/vendor/BufferChainlink.sol\":2972:3000  max(buf.capacity, len + off) */\n      jump\t// in\n    tag_290:\n        /* \"https://github.com/smartcontractkit/chainlink/blob/develop/contracts/src/v0.8/vendor/BufferChainlink.sol\":2972:3004  max(buf.capacity, len + off) * 2 */\n      tag_293\n      swap2\n      swap1\n      tag_147\n      jump\t// in\n    tag_293:\n        /* \"https://github.com/smartcontractkit/chainlink/blob/develop/contracts/src/v0.8/vendor/BufferChainlink.sol\":2960:2966  resize */\n      tag_294\n        /* \"https://github.com/smartcontractkit/chainlink/blob/develop/contracts/src/v0.8/vendor/BufferChainlink.sol\":2960:3005  resize(buf, max(buf.capacity, len + off) * 2) */\n      jump\t// in\n    tag_289:\n        /* \"https://github.com/smartcontractkit/chainlink/blob/develop/contracts/src/v0.8/vendor/BufferChainlink.sol\":2922:3012  if (off + len > buf.capacity) {... */\n    tag_288:\n        /* \"https://github.com/smartcontractkit/chainlink/blob/develop/contracts/src/v0.8/vendor/BufferChainlink.sol\":3018:3030  uint256 dest */\n      0x00\n        /* \"https://github.com/smartcontractkit/chainlink/blob/develop/contracts/src/v0.8/vendor/BufferChainlink.sol\":3036:3047  uint256 src */\n      dup1\n        /* \"https://github.com/smartcontractkit/chainlink/blob/develop/contracts/src/v0.8/vendor/BufferChainlink.sol\":3133:3136  buf */\n      dup7\n        /* \"https://github.com/smartcontractkit/chainlink/blob/develop/contracts/src/v0.8/vendor/BufferChainlink.sol\":3127:3137  mload(buf) */\n      mload\n        /* \"https://github.com/smartcontractkit/chainlink/blob/develop/contracts/src/v0.8/vendor/BufferChainlink.sol\":3204:3210  bufptr */\n      dup1\n        /* \"https://github.com/smartcontractkit/chainlink/blob/develop/contracts/src/v0.8/vendor/BufferChainlink.sol\":3198:3211  mload(bufptr) */\n      mload\n        /* \"https://github.com/smartcontractkit/chainlink/blob/develop/contracts/src/v0.8/vendor/BufferChainlink.sol\":3320:3323  off */\n      dup8\n        /* \"https://github.com/smartcontractkit/chainlink/blob/develop/contracts/src/v0.8/vendor/BufferChainlink.sol\":3315:3317  32 */\n      0x20\n        /* \"https://github.com/smartcontractkit/chainlink/blob/develop/contracts/src/v0.8/vendor/BufferChainlink.sol\":3307:3313  bufptr */\n      dup4\n        /* \"https://github.com/smartcontractkit/chainlink/blob/develop/contracts/src/v0.8/vendor/BufferChainlink.sol\":3303:3318  add(bufptr, 32) */\n      add\n        /* \"https://github.com/smartcontractkit/chainlink/blob/develop/contracts/src/v0.8/vendor/BufferChainlink.sol\":3299:3324  add(add(bufptr, 32), off) */\n      add\n        /* \"https://github.com/smartcontractkit/chainlink/blob/develop/contracts/src/v0.8/vendor/BufferChainlink.sol\":3291:3324  dest := add(add(bufptr, 32), off) */\n      swap4\n      pop\n        /* \"https://github.com/smartcontractkit/chainlink/blob/develop/contracts/src/v0.8/vendor/BufferChainlink.sol\":3404:3410  buflen */\n      dup1\n        /* \"https://github.com/smartcontractkit/chainlink/blob/develop/contracts/src/v0.8/vendor/BufferChainlink.sol\":3398:3401  off */\n      dup9\n        /* \"https://github.com/smartcontractkit/chainlink/blob/develop/contracts/src/v0.8/vendor/BufferChainlink.sol\":3393:3396  len */\n      dup8\n        /* \"https://github.com/smartcontractkit/chainlink/blob/develop/contracts/src/v0.8/vendor/BufferChainlink.sol\":3389:3402  add(len, off) */\n      add\n        /* \"https://github.com/smartcontractkit/chainlink/blob/develop/contracts/src/v0.8/vendor/BufferChainlink.sol\":3386:3411  gt(add(len, off), buflen) */\n      gt\n        /* \"https://github.com/smartcontractkit/chainlink/blob/develop/contracts/src/v0.8/vendor/BufferChainlink.sol\":3383:3459  if gt(add(len, off), buflen) {... */\n      iszero\n      tag_295\n      jumpi\n        /* \"https://github.com/smartcontractkit/chainlink/blob/develop/contracts/src/v0.8/vendor/BufferChainlink.sol\":3446:3449  off */\n      dup8\n        /* \"https://github.com/smartcontractkit/chainlink/blob/develop/contracts/src/v0.8/vendor/BufferChainlink.sol\":3441:3444  len */\n      dup7\n        /* \"https://github.com/smartcontractkit/chainlink/blob/develop/contracts/src/v0.8/vendor/BufferChainlink.sol\":3437:3450  add(len, off) */\n      add\n        /* \"https://github.com/smartcontractkit/chainlink/blob/develop/contracts/src/v0.8/vendor/BufferChainlink.sol\":3429:3435  bufptr */\n      dup3\n        /* \"https://github.com/smartcontractkit/chainlink/blob/develop/contracts/src/v0.8/vendor/BufferChainlink.sol\":3422:3451  mstore(bufptr, add(len, off)) */\n      mstore\n        /* \"https://github.com/smartcontractkit/chainlink/blob/develop/contracts/src/v0.8/vendor/BufferChainlink.sol\":3383:3459  if gt(add(len, off), buflen) {... */\n    tag_295:\n        /* \"https://github.com/smartcontractkit/chainlink/blob/develop/contracts/src/v0.8/vendor/BufferChainlink.sol\":3483:3485  32 */\n      0x20\n        /* \"https://github.com/smartcontractkit/chainlink/blob/develop/contracts/src/v0.8/vendor/BufferChainlink.sol\":3477:3481  data */\n      dup8\n        /* \"https://github.com/smartcontractkit/chainlink/blob/develop/contracts/src/v0.8/vendor/BufferChainlink.sol\":3473:3486  add(data, 32) */\n      add\n        /* \"https://github.com/smartcontractkit/chainlink/blob/develop/contracts/src/v0.8/vendor/BufferChainlink.sol\":3466:3486  src := add(data, 32) */\n      swap3\n      pop\n        /* \"https://github.com/smartcontractkit/chainlink/blob/develop/contracts/src/v0.8/vendor/BufferChainlink.sol\":3062:3492  {... */\n      pop\n      pop\n        /* \"https://github.com/smartcontractkit/chainlink/blob/develop/contracts/src/v0.8/vendor/BufferChainlink.sol\":3544:3673  for (; len >= 32; len -= 32) {... */\n    tag_296:\n        /* \"https://github.com/smartcontractkit/chainlink/blob/develop/contracts/src/v0.8/vendor/BufferChainlink.sol\":3558:3560  32 */\n      0x20\n        /* \"https://github.com/smartcontractkit/chainlink/blob/develop/contracts/src/v0.8/vendor/BufferChainlink.sol\":3551:3554  len */\n      dup5\n        /* \"https://github.com/smartcontractkit/chainlink/blob/develop/contracts/src/v0.8/vendor/BufferChainlink.sol\":3551:3560  len >= 32 */\n      lt\n        /* \"https://github.com/smartcontractkit/chainlink/blob/develop/contracts/src/v0.8/vendor/BufferChainlink.sol\":3544:3673  for (; len >= 32; len -= 32) {... */\n      tag_297\n      jumpi\n        /* \"https://github.com/smartcontractkit/chainlink/blob/develop/contracts/src/v0.8/vendor/BufferChainlink.sol\":3619:3622  src */\n      dup1\n        /* \"https://github.com/smartcontractkit/chainlink/blob/develop/contracts/src/v0.8/vendor/BufferChainlink.sol\":3613:3623  mload(src) */\n      mload\n        /* \"https://github.com/smartcontractkit/chainlink/blob/develop/contracts/src/v0.8/vendor/BufferChainlink.sol\":3607:3611  dest */\n      dup3\n        /* \"https://github.com/smartcontractkit/chainlink/blob/develop/contracts/src/v0.8/vendor/BufferChainlink.sol\":3600:3624  mstore(dest, mload(src)) */\n      mstore\n        /* \"https://github.com/smartcontractkit/chainlink/blob/develop/contracts/src/v0.8/vendor/BufferChainlink.sol\":3647:3649  32 */\n      0x20\n        /* \"https://github.com/smartcontractkit/chainlink/blob/develop/contracts/src/v0.8/vendor/BufferChainlink.sol\":3639:3649  dest += 32 */\n      dup3\n      tag_299\n      swap2\n      swap1\n      tag_200\n      jump\t// in\n    tag_299:\n      swap2\n      pop\n        /* \"https://github.com/smartcontractkit/chainlink/blob/develop/contracts/src/v0.8/vendor/BufferChainlink.sol\":3664:3666  32 */\n      0x20\n        /* \"https://github.com/smartcontractkit/chainlink/blob/develop/contracts/src/v0.8/vendor/BufferChainlink.sol\":3657:3666  src += 32 */\n      dup2\n      tag_300\n      swap2\n      swap1\n      tag_200\n      jump\t// in\n    tag_300:\n      swap1\n      pop\n        /* \"https://github.com/smartcontractkit/chainlink/blob/develop/contracts/src/v0.8/vendor/BufferChainlink.sol\":3569:3571  32 */\n      0x20\n        /* \"https://github.com/smartcontractkit/chainlink/blob/develop/contracts/src/v0.8/vendor/BufferChainlink.sol\":3562:3571  len -= 32 */\n      dup5\n      tag_301\n      swap2\n      swap1\n      tag_228\n      jump\t// in\n    tag_301:\n      swap4\n      pop\n        /* \"https://github.com/smartcontractkit/chainlink/blob/develop/contracts/src/v0.8/vendor/BufferChainlink.sol\":3544:3673  for (; len >= 32; len -= 32) {... */\n      jump(tag_296)\n    tag_297:\n        /* \"https://github.com/smartcontractkit/chainlink/blob/develop/contracts/src/v0.8/vendor/BufferChainlink.sol\":3725:3737  uint256 mask */\n      0x00\n        /* \"https://github.com/smartcontractkit/chainlink/blob/develop/contracts/src/v0.8/vendor/BufferChainlink.sol\":3760:3761  1 */\n      0x01\n        /* \"https://github.com/smartcontractkit/chainlink/blob/develop/contracts/src/v0.8/vendor/BufferChainlink.sol\":3752:3755  len */\n      dup6\n        /* \"https://github.com/smartcontractkit/chainlink/blob/develop/contracts/src/v0.8/vendor/BufferChainlink.sol\":3747:3749  32 */\n      0x20\n        /* \"https://github.com/smartcontractkit/chainlink/blob/develop/contracts/src/v0.8/vendor/BufferChainlink.sol\":3747:3755  32 - len */\n      sub\n        /* \"https://github.com/smartcontractkit/chainlink/blob/develop/contracts/src/v0.8/vendor/BufferChainlink.sol\":3741:3744  256 */\n      0x0100\n        /* \"https://github.com/smartcontractkit/chainlink/blob/develop/contracts/src/v0.8/vendor/BufferChainlink.sol\":3741:3756  256**(32 - len) */\n      exp\n        /* \"https://github.com/smartcontractkit/chainlink/blob/develop/contracts/src/v0.8/vendor/BufferChainlink.sol\":3740:3761  (256**(32 - len)) - 1 */\n      sub\n        /* \"https://github.com/smartcontractkit/chainlink/blob/develop/contracts/src/v0.8/vendor/BufferChainlink.sol\":3725:3761  uint256 mask = (256**(32 - len)) - 1 */\n      swap1\n      pop\n        /* \"https://github.com/smartcontractkit/chainlink/blob/develop/contracts/src/v0.8/vendor/BufferChainlink.sol\":3823:3827  mask */\n      dup1\n        /* \"https://github.com/smartcontractkit/chainlink/blob/develop/contracts/src/v0.8/vendor/BufferChainlink.sol\":3819:3828  not(mask) */\n      not\n        /* \"https://github.com/smartcontractkit/chainlink/blob/develop/contracts/src/v0.8/vendor/BufferChainlink.sol\":3813:3816  src */\n      dup3\n        /* \"https://github.com/smartcontractkit/chainlink/blob/develop/contracts/src/v0.8/vendor/BufferChainlink.sol\":3807:3817  mload(src) */\n      mload\n        /* \"https://github.com/smartcontractkit/chainlink/blob/develop/contracts/src/v0.8/vendor/BufferChainlink.sol\":3803:3829  and(mload(src), not(mask)) */\n      and\n        /* \"https://github.com/smartcontractkit/chainlink/blob/develop/contracts/src/v0.8/vendor/BufferChainlink.sol\":3871:3875  mask */\n      dup2\n        /* \"https://github.com/smartcontractkit/chainlink/blob/develop/contracts/src/v0.8/vendor/BufferChainlink.sol\":3864:3868  dest */\n      dup5\n        /* \"https://github.com/smartcontractkit/chainlink/blob/develop/contracts/src/v0.8/vendor/BufferChainlink.sol\":3858:3869  mload(dest) */\n      mload\n        /* \"https://github.com/smartcontractkit/chainlink/blob/develop/contracts/src/v0.8/vendor/BufferChainlink.sol\":3854:3876  and(mload(dest), mask) */\n      and\n        /* \"https://github.com/smartcontractkit/chainlink/blob/develop/contracts/src/v0.8/vendor/BufferChainlink.sol\":3911:3918  srcpart */\n      dup2\n        /* \"https://github.com/smartcontractkit/chainlink/blob/develop/contracts/src/v0.8/vendor/BufferChainlink.sol\":3901:3909  destpart */\n      dup2\n        /* \"https://github.com/smartcontractkit/chainlink/blob/develop/contracts/src/v0.8/vendor/BufferChainlink.sol\":3898:3919  or(destpart, srcpart) */\n      or\n        /* \"https://github.com/smartcontractkit/chainlink/blob/develop/contracts/src/v0.8/vendor/BufferChainlink.sol\":3892:3896  dest */\n      dup6\n        /* \"https://github.com/smartcontractkit/chainlink/blob/develop/contracts/src/v0.8/vendor/BufferChainlink.sol\":3885:3920  mstore(dest, or(destpart, srcpart)) */\n      mstore\n        /* \"https://github.com/smartcontractkit/chainlink/blob/develop/contracts/src/v0.8/vendor/BufferChainlink.sol\":3778:3928  {... */\n      pop\n      pop\n      pop\n        /* \"https://github.com/smartcontractkit/chainlink/blob/develop/contracts/src/v0.8/vendor/BufferChainlink.sol\":3947:3950  buf */\n      dup7\n        /* \"https://github.com/smartcontractkit/chainlink/blob/develop/contracts/src/v0.8/vendor/BufferChainlink.sol\":3940:3950  return buf */\n      swap3\n      pop\n      pop\n      pop\n        /* \"https://github.com/smartcontractkit/chainlink/blob/develop/contracts/src/v0.8/vendor/BufferChainlink.sol\":2745:3955  function write(... */\n      swap5\n      swap4\n      pop\n      pop\n      pop\n      pop\n      jump\t// out\n        /* \"https://github.com/smartcontractkit/chainlink/blob/develop/contracts/src/v0.8/vendor/CBORChainlink.sol\":2154:2341  function encodeBytes(BufferChainlink.buffer memory buf, bytes memory value) internal pure {... */\n    tag_271:\n        /* \"https://github.com/smartcontractkit/chainlink/blob/develop/contracts/src/v0.8/vendor/CBORChainlink.sol\":2250:2313  encodeFixedNumeric(buf, MAJOR_TYPE_BYTES, uint64(value.length)) */\n      tag_303\n        /* \"https://github.com/smartcontractkit/chainlink/blob/develop/contracts/src/v0.8/vendor/CBORChainlink.sol\":2269:2272  buf */\n      dup3\n        /* \"https://github.com/smartcontractkit/chainlink/blob/develop/contracts/src/v0.8/vendor/CBORChainlink.sol\":335:336  2 */\n      0x02\n        /* \"https://github.com/smartcontractkit/chainlink/blob/develop/contracts/src/v0.8/vendor/CBORChainlink.sol\":2299:2304  value */\n      dup4\n        /* \"https://github.com/smartcontractkit/chainlink/blob/develop/contracts/src/v0.8/vendor/CBORChainlink.sol\":2299:2311  value.length */\n      mload\n        /* \"https://github.com/smartcontractkit/chainlink/blob/develop/contracts/src/v0.8/vendor/CBORChainlink.sol\":2250:2268  encodeFixedNumeric */\n      tag_195\n        /* \"https://github.com/smartcontractkit/chainlink/blob/develop/contracts/src/v0.8/vendor/CBORChainlink.sol\":2250:2313  encodeFixedNumeric(buf, MAJOR_TYPE_BYTES, uint64(value.length)) */\n      jump\t// in\n    tag_303:\n        /* \"https://github.com/smartcontractkit/chainlink/blob/develop/contracts/src/v0.8/vendor/CBORChainlink.sol\":2319:2336  buf.append(value) */\n      tag_304\n        /* \"https://github.com/smartcontractkit/chainlink/blob/develop/contracts/src/v0.8/vendor/CBORChainlink.sol\":2330:2335  value */\n      dup2\n        /* \"https://github.com/smartcontractkit/chainlink/blob/develop/contracts/src/v0.8/vendor/CBORChainlink.sol\":2319:2322  buf */\n      dup4\n        /* \"https://github.com/smartcontractkit/chainlink/blob/develop/contracts/src/v0.8/vendor/CBORChainlink.sol\":2319:2329  buf.append */\n      tag_197\n      swap1\n        /* \"https://github.com/smartcontractkit/chainlink/blob/develop/contracts/src/v0.8/vendor/CBORChainlink.sol\":2319:2336  buf.append(value) */\n      swap2\n      swap1\n      0xffffffff\n      and\n      jump\t// in\n    tag_304:\n      pop\n        /* \"https://github.com/smartcontractkit/chainlink/blob/develop/contracts/src/v0.8/vendor/CBORChainlink.sol\":2154:2341  function encodeBytes(BufferChainlink.buffer memory buf, bytes memory value) internal pure {... */\n      pop\n      pop\n      jump\t// out\n        /* \"https://github.com/smartcontractkit/chainlink/blob/develop/contracts/src/v0.8/vendor/BufferChainlink.sol\":5148:5787  function writeUint8(... */\n    tag_279:\n        /* \"https://github.com/smartcontractkit/chainlink/blob/develop/contracts/src/v0.8/vendor/BufferChainlink.sol\":5251:5264  buffer memory */\n      tag_305\n      tag_221\n      jump\t// in\n    tag_305:\n        /* \"https://github.com/smartcontractkit/chainlink/blob/develop/contracts/src/v0.8/vendor/BufferChainlink.sol\":5283:5286  buf */\n      dup4\n        /* \"https://github.com/smartcontractkit/chainlink/blob/develop/contracts/src/v0.8/vendor/BufferChainlink.sol\":5283:5295  buf.capacity */\n      0x20\n      add\n      mload\n        /* \"https://github.com/smartcontractkit/chainlink/blob/develop/contracts/src/v0.8/vendor/BufferChainlink.sol\":5276:5279  off */\n      dup4\n        /* \"https://github.com/smartcontractkit/chainlink/blob/develop/contracts/src/v0.8/vendor/BufferChainlink.sol\":5276:5295  off >= buf.capacity */\n      lt\n        /* \"https://github.com/smartcontractkit/chainlink/blob/develop/contracts/src/v0.8/vendor/BufferChainlink.sol\":5272:5341  if (off >= buf.capacity) {... */\n      tag_307\n      jumpi\n        /* \"https://github.com/smartcontractkit/chainlink/blob/develop/contracts/src/v0.8/vendor/BufferChainlink.sol\":5305:5334  resize(buf, buf.capacity * 2) */\n      tag_308\n        /* \"https://github.com/smartcontractkit/chainlink/blob/develop/contracts/src/v0.8/vendor/BufferChainlink.sol\":5312:5315  buf */\n      dup5\n        /* \"https://github.com/smartcontractkit/chainlink/blob/develop/contracts/src/v0.8/vendor/BufferChainlink.sol\":5332:5333  2 */\n      0x02\n        /* \"https://github.com/smartcontractkit/chainlink/blob/develop/contracts/src/v0.8/vendor/BufferChainlink.sol\":5317:5320  buf */\n      dup7\n        /* \"https://github.com/smartcontractkit/chainlink/blob/develop/contracts/src/v0.8/vendor/BufferChainlink.sol\":5317:5329  buf.capacity */\n      0x20\n      add\n      mload\n        /* \"https://github.com/smartcontractkit/chainlink/blob/develop/contracts/src/v0.8/vendor/BufferChainlink.sol\":5317:5333  buf.capacity * 2 */\n      tag_309\n      swap2\n      swap1\n      tag_147\n      jump\t// in\n    tag_309:\n        /* \"https://github.com/smartcontractkit/chainlink/blob/develop/contracts/src/v0.8/vendor/BufferChainlink.sol\":5305:5311  resize */\n      tag_294\n        /* \"https://github.com/smartcontractkit/chainlink/blob/develop/contracts/src/v0.8/vendor/BufferChainlink.sol\":5305:5334  resize(buf, buf.capacity * 2) */\n      jump\t// in\n    tag_308:\n        /* \"https://github.com/smartcontractkit/chainlink/blob/develop/contracts/src/v0.8/vendor/BufferChainlink.sol\":5272:5341  if (off >= buf.capacity) {... */\n    tag_307:\n        /* \"https://github.com/smartcontractkit/chainlink/blob/develop/contracts/src/v0.8/vendor/BufferChainlink.sol\":5427:5430  buf */\n      dup4\n        /* \"https://github.com/smartcontractkit/chainlink/blob/develop/contracts/src/v0.8/vendor/BufferChainlink.sol\":5421:5431  mload(buf) */\n      mload\n        /* \"https://github.com/smartcontractkit/chainlink/blob/develop/contracts/src/v0.8/vendor/BufferChainlink.sol\":5498:5504  bufptr */\n      dup1\n        /* \"https://github.com/smartcontractkit/chainlink/blob/develop/contracts/src/v0.8/vendor/BufferChainlink.sol\":5492:5505  mload(bufptr) */\n      mload\n        /* \"https://github.com/smartcontractkit/chainlink/blob/develop/contracts/src/v0.8/vendor/BufferChainlink.sol\":5610:5612  32 */\n      0x20\n        /* \"https://github.com/smartcontractkit/chainlink/blob/develop/contracts/src/v0.8/vendor/BufferChainlink.sol\":5604:5607  off */\n      dup6\n        /* \"https://github.com/smartcontractkit/chainlink/blob/develop/contracts/src/v0.8/vendor/BufferChainlink.sol\":5596:5602  bufptr */\n      dup4\n        /* \"https://github.com/smartcontractkit/chainlink/blob/develop/contracts/src/v0.8/vendor/BufferChainlink.sol\":5592:5608  add(bufptr, off) */\n      add\n        /* \"https://github.com/smartcontractkit/chainlink/blob/develop/contracts/src/v0.8/vendor/BufferChainlink.sol\":5588:5613  add(add(bufptr, off), 32) */\n      add\n        /* \"https://github.com/smartcontractkit/chainlink/blob/develop/contracts/src/v0.8/vendor/BufferChainlink.sol\":5634:5638  data */\n      dup5\n        /* \"https://github.com/smartcontractkit/chainlink/blob/develop/contracts/src/v0.8/vendor/BufferChainlink.sol\":5628:5632  dest */\n      dup2\n        /* \"https://github.com/smartcontractkit/chainlink/blob/develop/contracts/src/v0.8/vendor/BufferChainlink.sol\":5620:5639  mstore8(dest, data) */\n      mstore8\n        /* \"https://github.com/smartcontractkit/chainlink/blob/develop/contracts/src/v0.8/vendor/BufferChainlink.sol\":5705:5711  buflen */\n      dup2\n        /* \"https://github.com/smartcontractkit/chainlink/blob/develop/contracts/src/v0.8/vendor/BufferChainlink.sol\":5700:5703  off */\n      dup7\n        /* \"https://github.com/smartcontractkit/chainlink/blob/develop/contracts/src/v0.8/vendor/BufferChainlink.sol\":5697:5712  eq(off, buflen) */\n      eq\n        /* \"https://github.com/smartcontractkit/chainlink/blob/develop/contracts/src/v0.8/vendor/BufferChainlink.sol\":5694:5761  if eq(off, buflen) {... */\n      iszero\n      tag_310\n      jumpi\n        /* \"https://github.com/smartcontractkit/chainlink/blob/develop/contracts/src/v0.8/vendor/BufferChainlink.sol\":5750:5751  1 */\n      0x01\n        /* \"https://github.com/smartcontractkit/chainlink/blob/develop/contracts/src/v0.8/vendor/BufferChainlink.sol\":5742:5748  buflen */\n      dup3\n        /* \"https://github.com/smartcontractkit/chainlink/blob/develop/contracts/src/v0.8/vendor/BufferChainlink.sol\":5738:5752  add(buflen, 1) */\n      add\n        /* \"https://github.com/smartcontractkit/chainlink/blob/develop/contracts/src/v0.8/vendor/BufferChainlink.sol\":5730:5736  bufptr */\n      dup4\n        /* \"https://github.com/smartcontractkit/chainlink/blob/develop/contracts/src/v0.8/vendor/BufferChainlink.sol\":5723:5753  mstore(bufptr, add(buflen, 1)) */\n      mstore\n        /* \"https://github.com/smartcontractkit/chainlink/blob/develop/contracts/src/v0.8/vendor/BufferChainlink.sol\":5694:5761  if eq(off, buflen) {... */\n    tag_310:\n        /* \"https://github.com/smartcontractkit/chainlink/blob/develop/contracts/src/v0.8/vendor/BufferChainlink.sol\":5356:5767  {... */\n      pop\n      pop\n      pop\n        /* \"https://github.com/smartcontractkit/chainlink/blob/develop/contracts/src/v0.8/vendor/BufferChainlink.sol\":5779:5782  buf */\n      dup4\n        /* \"https://github.com/smartcontractkit/chainlink/blob/develop/contracts/src/v0.8/vendor/BufferChainlink.sol\":5772:5782  return buf */\n      swap1\n      pop\n        /* \"https://github.com/smartcontractkit/chainlink/blob/develop/contracts/src/v0.8/vendor/BufferChainlink.sol\":5148:5787  function writeUint8(... */\n      swap4\n      swap3\n      pop\n      pop\n      pop\n      jump\t// out\n        /* \"https://github.com/smartcontractkit/chainlink/blob/develop/contracts/src/v0.8/vendor/BufferChainlink.sol\":8974:9649  function writeInt(... */\n    tag_283:\n        /* \"https://github.com/smartcontractkit/chainlink/blob/develop/contracts/src/v0.8/vendor/BufferChainlink.sol\":9093:9106  buffer memory */\n      tag_311\n      tag_221\n      jump\t// in\n    tag_311:\n        /* \"https://github.com/smartcontractkit/chainlink/blob/develop/contracts/src/v0.8/vendor/BufferChainlink.sol\":9130:9133  buf */\n      dup5\n        /* \"https://github.com/smartcontractkit/chainlink/blob/develop/contracts/src/v0.8/vendor/BufferChainlink.sol\":9130:9142  buf.capacity */\n      0x20\n      add\n      mload\n        /* \"https://github.com/smartcontractkit/chainlink/blob/develop/contracts/src/v0.8/vendor/BufferChainlink.sol\":9124:9127  off */\n      dup5\n        /* \"https://github.com/smartcontractkit/chainlink/blob/develop/contracts/src/v0.8/vendor/BufferChainlink.sol\":9118:9121  len */\n      dup4\n        /* \"https://github.com/smartcontractkit/chainlink/blob/develop/contracts/src/v0.8/vendor/BufferChainlink.sol\":9118:9127  len + off */\n      tag_313\n      swap2\n      swap1\n      tag_200\n      jump\t// in\n    tag_313:\n        /* \"https://github.com/smartcontractkit/chainlink/blob/develop/contracts/src/v0.8/vendor/BufferChainlink.sol\":9118:9142  len + off > buf.capacity */\n      gt\n        /* \"https://github.com/smartcontractkit/chainlink/blob/develop/contracts/src/v0.8/vendor/BufferChainlink.sol\":9114:9187  if (len + off > buf.capacity) {... */\n      iszero\n      tag_314\n      jumpi\n        /* \"https://github.com/smartcontractkit/chainlink/blob/develop/contracts/src/v0.8/vendor/BufferChainlink.sol\":9152:9180  resize(buf, (len + off) * 2) */\n      tag_315\n        /* \"https://github.com/smartcontractkit/chainlink/blob/develop/contracts/src/v0.8/vendor/BufferChainlink.sol\":9159:9162  buf */\n      dup6\n        /* \"https://github.com/smartcontractkit/chainlink/blob/develop/contracts/src/v0.8/vendor/BufferChainlink.sol\":9178:9179  2 */\n      0x02\n        /* \"https://github.com/smartcontractkit/chainlink/blob/develop/contracts/src/v0.8/vendor/BufferChainlink.sol\":9171:9174  off */\n      dup7\n        /* \"https://github.com/smartcontractkit/chainlink/blob/develop/contracts/src/v0.8/vendor/BufferChainlink.sol\":9165:9168  len */\n      dup6\n        /* \"https://github.com/smartcontractkit/chainlink/blob/develop/contracts/src/v0.8/vendor/BufferChainlink.sol\":9165:9174  len + off */\n      tag_316\n      swap2\n      swap1\n      tag_200\n      jump\t// in\n    tag_316:\n        /* \"https://github.com/smartcontractkit/chainlink/blob/develop/contracts/src/v0.8/vendor/BufferChainlink.sol\":9164:9179  (len + off) * 2 */\n      tag_317\n      swap2\n      swap1\n      tag_147\n      jump\t// in\n    tag_317:\n        /* \"https://github.com/smartcontractkit/chainlink/blob/develop/contracts/src/v0.8/vendor/BufferChainlink.sol\":9152:9158  resize */\n      tag_294\n        /* \"https://github.com/smartcontractkit/chainlink/blob/develop/contracts/src/v0.8/vendor/BufferChainlink.sol\":9152:9180  resize(buf, (len + off) * 2) */\n      jump\t// in\n    tag_315:\n        /* \"https://github.com/smartcontractkit/chainlink/blob/develop/contracts/src/v0.8/vendor/BufferChainlink.sol\":9114:9187  if (len + off > buf.capacity) {... */\n    tag_314:\n        /* \"https://github.com/smartcontractkit/chainlink/blob/develop/contracts/src/v0.8/vendor/BufferChainlink.sol\":9193:9205  uint256 mask */\n      0x00\n        /* \"https://github.com/smartcontractkit/chainlink/blob/develop/contracts/src/v0.8/vendor/BufferChainlink.sol\":9221:9222  1 */\n      0x01\n        /* \"https://github.com/smartcontractkit/chainlink/blob/develop/contracts/src/v0.8/vendor/BufferChainlink.sol\":9214:9217  len */\n      dup4\n        /* \"https://github.com/smartcontractkit/chainlink/blob/develop/contracts/src/v0.8/vendor/BufferChainlink.sol\":9209:9212  256 */\n      0x0100\n        /* \"https://github.com/smartcontractkit/chainlink/blob/develop/contracts/src/v0.8/vendor/BufferChainlink.sol\":9209:9217  256**len */\n      tag_318\n      swap2\n      swap1\n      tag_319\n      jump\t// in\n    tag_318:\n        /* \"https://github.com/smartcontractkit/chainlink/blob/develop/contracts/src/v0.8/vendor/BufferChainlink.sol\":9208:9222  (256**len) - 1 */\n      tag_320\n      swap2\n      swap1\n      tag_228\n      jump\t// in\n    tag_320:\n        /* \"https://github.com/smartcontractkit/chainlink/blob/develop/contracts/src/v0.8/vendor/BufferChainlink.sol\":9193:9222  uint256 mask = (256**len) - 1 */\n      swap1\n      pop\n        /* \"https://github.com/smartcontractkit/chainlink/blob/develop/contracts/src/v0.8/vendor/BufferChainlink.sol\":9308:9311  buf */\n      dup6\n        /* \"https://github.com/smartcontractkit/chainlink/blob/develop/contracts/src/v0.8/vendor/BufferChainlink.sol\":9302:9312  mload(buf) */\n      mload\n        /* \"https://github.com/smartcontractkit/chainlink/blob/develop/contracts/src/v0.8/vendor/BufferChainlink.sol\":9423:9426  len */\n      dup4\n        /* \"https://github.com/smartcontractkit/chainlink/blob/develop/contracts/src/v0.8/vendor/BufferChainlink.sol\":9417:9420  off */\n      dup7\n        /* \"https://github.com/smartcontractkit/chainlink/blob/develop/contracts/src/v0.8/vendor/BufferChainlink.sol\":9409:9415  bufptr */\n      dup3\n        /* \"https://github.com/smartcontractkit/chainlink/blob/develop/contracts/src/v0.8/vendor/BufferChainlink.sol\":9405:9421  add(bufptr, off) */\n      add\n        /* \"https://github.com/smartcontractkit/chainlink/blob/develop/contracts/src/v0.8/vendor/BufferChainlink.sol\":9401:9427  add(add(bufptr, off), len) */\n      add\n        /* \"https://github.com/smartcontractkit/chainlink/blob/develop/contracts/src/v0.8/vendor/BufferChainlink.sol\":9479:9483  data */\n      dup6\n        /* \"https://github.com/smartcontractkit/chainlink/blob/develop/contracts/src/v0.8/vendor/BufferChainlink.sol\":9471:9475  mask */\n      dup4\n        /* \"https://github.com/smartcontractkit/chainlink/blob/develop/contracts/src/v0.8/vendor/BufferChainlink.sol\":9467:9476  not(mask) */\n      not\n        /* \"https://github.com/smartcontractkit/chainlink/blob/develop/contracts/src/v0.8/vendor/BufferChainlink.sol\":9460:9464  dest */\n      dup3\n        /* \"https://github.com/smartcontractkit/chainlink/blob/develop/contracts/src/v0.8/vendor/BufferChainlink.sol\":9454:9465  mload(dest) */\n      mload\n        /* \"https://github.com/smartcontractkit/chainlink/blob/develop/contracts/src/v0.8/vendor/BufferChainlink.sol\":9450:9477  and(mload(dest), not(mask)) */\n      and\n        /* \"https://github.com/smartcontractkit/chainlink/blob/develop/contracts/src/v0.8/vendor/BufferChainlink.sol\":9447:9484  or(and(mload(dest), not(mask)), data) */\n      or\n        /* \"https://github.com/smartcontractkit/chainlink/blob/develop/contracts/src/v0.8/vendor/BufferChainlink.sol\":9441:9445  dest */\n      dup2\n        /* \"https://github.com/smartcontractkit/chainlink/blob/develop/contracts/src/v0.8/vendor/BufferChainlink.sol\":9434:9485  mstore(dest, or(and(mload(dest), not(mask)), data)) */\n      mstore\n        /* \"https://github.com/smartcontractkit/chainlink/blob/develop/contracts/src/v0.8/vendor/BufferChainlink.sol\":9567:9573  bufptr */\n      dup2\n        /* \"https://github.com/smartcontractkit/chainlink/blob/develop/contracts/src/v0.8/vendor/BufferChainlink.sol\":9561:9574  mload(bufptr) */\n      mload\n        /* \"https://github.com/smartcontractkit/chainlink/blob/develop/contracts/src/v0.8/vendor/BufferChainlink.sol\":9555:9558  len */\n      dup6\n        /* \"https://github.com/smartcontractkit/chainlink/blob/develop/contracts/src/v0.8/vendor/BufferChainlink.sol\":9550:9553  off */\n      dup9\n        /* \"https://github.com/smartcontractkit/chainlink/blob/develop/contracts/src/v0.8/vendor/BufferChainlink.sol\":9546:9559  add(off, len) */\n      add\n        /* \"https://github.com/smartcontractkit/chainlink/blob/develop/contracts/src/v0.8/vendor/BufferChainlink.sol\":9543:9575  gt(add(off, len), mload(bufptr)) */\n      gt\n        /* \"https://github.com/smartcontractkit/chainlink/blob/develop/contracts/src/v0.8/vendor/BufferChainlink.sol\":9540:9623  if gt(add(off, len), mload(bufptr)) {... */\n      iszero\n      tag_321\n      jumpi\n        /* \"https://github.com/smartcontractkit/chainlink/blob/develop/contracts/src/v0.8/vendor/BufferChainlink.sol\":9610:9613  len */\n      dup5\n        /* \"https://github.com/smartcontractkit/chainlink/blob/develop/contracts/src/v0.8/vendor/BufferChainlink.sol\":9605:9608  off */\n      dup8\n        /* \"https://github.com/smartcontractkit/chainlink/blob/develop/contracts/src/v0.8/vendor/BufferChainlink.sol\":9601:9614  add(off, len) */\n      add\n        /* \"https://github.com/smartcontractkit/chainlink/blob/develop/contracts/src/v0.8/vendor/BufferChainlink.sol\":9593:9599  bufptr */\n      dup3\n        /* \"https://github.com/smartcontractkit/chainlink/blob/develop/contracts/src/v0.8/vendor/BufferChainlink.sol\":9586:9615  mstore(bufptr, add(off, len)) */\n      mstore\n        /* \"https://github.com/smartcontractkit/chainlink/blob/develop/contracts/src/v0.8/vendor/BufferChainlink.sol\":9540:9623  if gt(add(off, len), mload(bufptr)) {... */\n    tag_321:\n        /* \"https://github.com/smartcontractkit/chainlink/blob/develop/contracts/src/v0.8/vendor/BufferChainlink.sol\":9237:9629  {... */\n      pop\n      pop\n        /* \"https://github.com/smartcontractkit/chainlink/blob/develop/contracts/src/v0.8/vendor/BufferChainlink.sol\":9641:9644  buf */\n      dup6\n        /* \"https://github.com/smartcontractkit/chainlink/blob/develop/contracts/src/v0.8/vendor/BufferChainlink.sol\":9634:9644  return buf */\n      swap2\n      pop\n      pop\n        /* \"https://github.com/smartcontractkit/chainlink/blob/develop/contracts/src/v0.8/vendor/BufferChainlink.sol\":8974:9649  function writeInt(... */\n      swap5\n      swap4\n      pop\n      pop\n      pop\n      pop\n      jump\t// out\n        /* \"https://github.com/smartcontractkit/chainlink/blob/develop/contracts/src/v0.8/vendor/BufferChainlink.sol\":1961:2085  function max(uint256 a, uint256 b) private pure returns (uint256) {... */\n    tag_292:\n        /* \"https://github.com/smartcontractkit/chainlink/blob/develop/contracts/src/v0.8/vendor/BufferChainlink.sol\":2018:2025  uint256 */\n      0x00\n        /* \"https://github.com/smartcontractkit/chainlink/blob/develop/contracts/src/v0.8/vendor/BufferChainlink.sol\":2041:2042  b */\n      dup2\n        /* \"https://github.com/smartcontractkit/chainlink/blob/develop/contracts/src/v0.8/vendor/BufferChainlink.sol\":2037:2038  a */\n      dup4\n        /* \"https://github.com/smartcontractkit/chainlink/blob/develop/contracts/src/v0.8/vendor/BufferChainlink.sol\":2037:2042  a > b */\n      gt\n        /* \"https://github.com/smartcontractkit/chainlink/blob/develop/contracts/src/v0.8/vendor/BufferChainlink.sol\":2033:2067  if (a > b) {... */\n      iszero\n      tag_323\n      jumpi\n        /* \"https://github.com/smartcontractkit/chainlink/blob/develop/contracts/src/v0.8/vendor/BufferChainlink.sol\":2059:2060  a */\n      dup3\n        /* \"https://github.com/smartcontractkit/chainlink/blob/develop/contracts/src/v0.8/vendor/BufferChainlink.sol\":2052:2060  return a */\n      swap1\n      pop\n      jump(tag_322)\n        /* \"https://github.com/smartcontractkit/chainlink/blob/develop/contracts/src/v0.8/vendor/BufferChainlink.sol\":2033:2067  if (a > b) {... */\n    tag_323:\n        /* \"https://github.com/smartcontractkit/chainlink/blob/develop/contracts/src/v0.8/vendor/BufferChainlink.sol\":2079:2080  b */\n      dup2\n        /* \"https://github.com/smartcontractkit/chainlink/blob/develop/contracts/src/v0.8/vendor/BufferChainlink.sol\":2072:2080  return b */\n      swap1\n      pop\n        /* \"https://github.com/smartcontractkit/chainlink/blob/develop/contracts/src/v0.8/vendor/BufferChainlink.sol\":1961:2085  function max(uint256 a, uint256 b) private pure returns (uint256) {... */\n    tag_322:\n      swap3\n      swap2\n      pop\n      pop\n      jump\t// out\n        /* \"https://github.com/smartcontractkit/chainlink/blob/develop/contracts/src/v0.8/vendor/BufferChainlink.sol\":1801:1957  function resize(buffer memory buf, uint256 capacity) private pure {... */\n    tag_294:\n        /* \"https://github.com/smartcontractkit/chainlink/blob/develop/contracts/src/v0.8/vendor/BufferChainlink.sol\":1873:1892  bytes memory oldbuf */\n      0x00\n        /* \"https://github.com/smartcontractkit/chainlink/blob/develop/contracts/src/v0.8/vendor/BufferChainlink.sol\":1895:1898  buf */\n      dup3\n        /* \"https://github.com/smartcontractkit/chainlink/blob/develop/contracts/src/v0.8/vendor/BufferChainlink.sol\":1895:1902  buf.buf */\n      0x00\n      add\n      mload\n        /* \"https://github.com/smartcontractkit/chainlink/blob/develop/contracts/src/v0.8/vendor/BufferChainlink.sol\":1873:1902  bytes memory oldbuf = buf.buf */\n      swap1\n      pop\n        /* \"https://github.com/smartcontractkit/chainlink/blob/develop/contracts/src/v0.8/vendor/BufferChainlink.sol\":1908:1927  init(buf, capacity) */\n      tag_325\n        /* \"https://github.com/smartcontractkit/chainlink/blob/develop/contracts/src/v0.8/vendor/BufferChainlink.sol\":1913:1916  buf */\n      dup4\n        /* \"https://github.com/smartcontractkit/chainlink/blob/develop/contracts/src/v0.8/vendor/BufferChainlink.sol\":1918:1926  capacity */\n      dup4\n        /* \"https://github.com/smartcontractkit/chainlink/blob/develop/contracts/src/v0.8/vendor/BufferChainlink.sol\":1908:1912  init */\n      tag_192\n        /* \"https://github.com/smartcontractkit/chainlink/blob/develop/contracts/src/v0.8/vendor/BufferChainlink.sol\":1908:1927  init(buf, capacity) */\n      jump\t// in\n    tag_325:\n      pop\n        /* \"https://github.com/smartcontractkit/chainlink/blob/develop/contracts/src/v0.8/vendor/BufferChainlink.sol\":1933:1952  append(buf, oldbuf) */\n      tag_326\n        /* \"https://github.com/smartcontractkit/chainlink/blob/develop/contracts/src/v0.8/vendor/BufferChainlink.sol\":1940:1943  buf */\n      dup4\n        /* \"https://github.com/smartcontractkit/chainlink/blob/develop/contracts/src/v0.8/vendor/BufferChainlink.sol\":1945:1951  oldbuf */\n      dup3\n        /* \"https://github.com/smartcontractkit/chainlink/blob/develop/contracts/src/v0.8/vendor/BufferChainlink.sol\":1933:1939  append */\n      tag_197\n        /* \"https://github.com/smartcontractkit/chainlink/blob/develop/contracts/src/v0.8/vendor/BufferChainlink.sol\":1933:1952  append(buf, oldbuf) */\n      jump\t// in\n    tag_326:\n      pop\n        /* \"https://github.com/smartcontractkit/chainlink/blob/develop/contracts/src/v0.8/vendor/BufferChainlink.sol\":1867:1957  {... */\n      pop\n        /* \"https://github.com/smartcontractkit/chainlink/blob/develop/contracts/src/v0.8/vendor/BufferChainlink.sol\":1801:1957  function resize(buffer memory buf, uint256 capacity) private pure {... */\n      pop\n      pop\n      jump\t// out\n    tag_115:\n      dup3\n      dup1\n      sload\n      tag_327\n      swap1\n      tag_104\n      jump\t// in\n    tag_327:\n      swap1\n      0x00\n      mstore\n      keccak256(0x00, 0x20)\n      swap1\n      0x1f\n      add\n      0x20\n      swap1\n      div\n      dup2\n      add\n      swap3\n      dup3\n      tag_329\n      jumpi\n      0x00\n      dup6\n      sstore\n      jump(tag_328)\n    tag_329:\n      dup3\n      0x1f\n      lt\n      tag_330\n      jumpi\n      dup1\n      mload\n      not(0xff)\n      and\n      dup4\n      dup1\n      add\n      or\n      dup6\n      sstore\n      jump(tag_328)\n    tag_330:\n      dup3\n      dup1\n      add\n      0x01\n      add\n      dup6\n      sstore\n      dup3\n      iszero\n      tag_328\n      jumpi\n      swap2\n      dup3\n      add\n    tag_331:\n      dup3\n      dup2\n      gt\n      iszero\n      tag_332\n      jumpi\n      dup3\n      mload\n      dup3\n      sstore\n      swap2\n      0x20\n      add\n      swap2\n      swap1\n      0x01\n      add\n      swap1\n      jump(tag_331)\n    tag_332:\n    tag_328:\n      pop\n      swap1\n      pop\n      tag_333\n      swap2\n      swap1\n      tag_334\n      jump\t// in\n    tag_333:\n      pop\n      swap1\n      jump\t// out\n    tag_165:\n      mload(0x40)\n      dup1\n      0xa0\n      add\n      0x40\n      mstore\n      dup1\n      0x00\n      dup1\n      not\n      and\n      dup2\n      mstore\n      0x20\n      add\n      and(0xffffffffffffffffffffffffffffffffffffffff, 0x00)\n      dup2\n      mstore\n      0x20\n      add\n      and(not(0xffffffffffffffffffffffffffffffffffffffffffffffffffffffff), 0x00)\n      dup2\n      mstore\n      0x20\n      add\n      0x00\n      dup2\n      mstore\n      0x20\n      add\n      tag_335\n      tag_221\n      jump\t// in\n    tag_335:\n      dup2\n      mstore\n      pop\n      swap1\n      jump\t// out\n    tag_221:\n      mload(0x40)\n      dup1\n      0x40\n      add\n      0x40\n      mstore\n      dup1\n      0x60\n      dup2\n      mstore\n      0x20\n      add\n      0x00\n      dup2\n      mstore\n      pop\n      swap1\n      jump\t// out\n    tag_334:\n    tag_336:\n      dup1\n      dup3\n      gt\n      iszero\n      tag_337\n      jumpi\n      0x00\n      dup2\n      0x00\n      swap1\n      sstore\n      pop\n      0x01\n      add\n      jump(tag_336)\n    tag_337:\n      pop\n      swap1\n      jump\t// out\n        /* \"#utility.yul\":7:84   */\n    tag_338:\n        /* \"#utility.yul\":44:51   */\n      0x00\n        /* \"#utility.yul\":73:78   */\n      dup2\n        /* \"#utility.yul\":62:78   */\n      swap1\n      pop\n        /* \"#utility.yul\":7:84   */\n      swap2\n      swap1\n      pop\n      jump\t// out\n        /* \"#utility.yul\":90:208   */\n    tag_339:\n        /* \"#utility.yul\":177:201   */\n      tag_424\n        /* \"#utility.yul\":195:200   */\n      dup2\n        /* \"#utility.yul\":177:201   */\n      tag_338\n      jump\t// in\n    tag_424:\n        /* \"#utility.yul\":172:175   */\n      dup3\n        /* \"#utility.yul\":165:202   */\n      mstore\n        /* \"#utility.yul\":90:208   */\n      pop\n      pop\n      jump\t// out\n        /* \"#utility.yul\":214:436   */\n    tag_23:\n        /* \"#utility.yul\":307:311   */\n      0x00\n        /* \"#utility.yul\":345:347   */\n      0x20\n        /* \"#utility.yul\":334:343   */\n      dup3\n        /* \"#utility.yul\":330:348   */\n      add\n        /* \"#utility.yul\":322:348   */\n      swap1\n      pop\n        /* \"#utility.yul\":358:429   */\n      tag_426\n        /* \"#utility.yul\":426:427   */\n      0x00\n        /* \"#utility.yul\":415:424   */\n      dup4\n        /* \"#utility.yul\":411:428   */\n      add\n        /* \"#utility.yul\":402:408   */\n      dup5\n        /* \"#utility.yul\":358:429   */\n      tag_339\n      jump\t// in\n    tag_426:\n        /* \"#utility.yul\":214:436   */\n      swap3\n      swap2\n      pop\n      pop\n      jump\t// out\n        /* \"#utility.yul\":442:517   */\n    tag_340:\n        /* \"#utility.yul\":475:481   */\n      0x00\n        /* \"#utility.yul\":508:510   */\n      0x40\n        /* \"#utility.yul\":502:511   */\n      mload\n        /* \"#utility.yul\":492:511   */\n      swap1\n      pop\n        /* \"#utility.yul\":442:517   */\n      swap1\n      jump\t// out\n        /* \"#utility.yul\":523:640   */\n    tag_341:\n        /* \"#utility.yul\":632:633   */\n      0x00\n        /* \"#utility.yul\":629:630   */\n      dup1\n        /* \"#utility.yul\":622:634   */\n      revert\n        /* \"#utility.yul\":646:763   */\n    tag_342:\n        /* \"#utility.yul\":755:756   */\n      0x00\n        /* \"#utility.yul\":752:753   */\n      dup1\n        /* \"#utility.yul\":745:757   */\n      revert\n        /* \"#utility.yul\":769:886   */\n    tag_343:\n        /* \"#utility.yul\":878:879   */\n      0x00\n        /* \"#utility.yul\":875:876   */\n      dup1\n        /* \"#utility.yul\":868:880   */\n      revert\n        /* \"#utility.yul\":892:1009   */\n    tag_344:\n        /* \"#utility.yul\":1001:1002   */\n      0x00\n        /* \"#utility.yul\":998:999   */\n      dup1\n        /* \"#utility.yul\":991:1003   */\n      revert\n        /* \"#utility.yul\":1015:1117   */\n    tag_345:\n        /* \"#utility.yul\":1056:1062   */\n      0x00\n        /* \"#utility.yul\":1107:1109   */\n      0x1f\n        /* \"#utility.yul\":1103:1110   */\n      not\n        /* \"#utility.yul\":1098:1100   */\n      0x1f\n        /* \"#utility.yul\":1091:1096   */\n      dup4\n        /* \"#utility.yul\":1087:1101   */\n      add\n        /* \"#utility.yul\":1083:1111   */\n      and\n        /* \"#utility.yul\":1073:1111   */\n      swap1\n      pop\n        /* \"#utility.yul\":1015:1117   */\n      swap2\n      swap1\n      pop\n      jump\t// out\n        /* \"#utility.yul\":1123:1303   */\n    tag_346:\n        /* \"#utility.yul\":1171:1248   */\n      0x4e487b7100000000000000000000000000000000000000000000000000000000\n        /* \"#utility.yul\":1168:1169   */\n      0x00\n        /* \"#utility.yul\":1161:1249   */\n      mstore\n        /* \"#utility.yul\":1268:1272   */\n      0x41\n        /* \"#utility.yul\":1265:1266   */\n      0x04\n        /* \"#utility.yul\":1258:1273   */\n      mstore\n        /* \"#utility.yul\":1292:1296   */\n      0x24\n        /* \"#utility.yul\":1289:1290   */\n      0x00\n        /* \"#utility.yul\":1282:1297   */\n      revert\n        /* \"#utility.yul\":1309:1590   */\n    tag_347:\n        /* \"#utility.yul\":1392:1419   */\n      tag_435\n        /* \"#utility.yul\":1414:1418   */\n      dup3\n        /* \"#utility.yul\":1392:1419   */\n      tag_345\n      jump\t// in\n    tag_435:\n        /* \"#utility.yul\":1384:1390   */\n      dup2\n        /* \"#utility.yul\":1380:1420   */\n      add\n        /* \"#utility.yul\":1522:1528   */\n      dup2\n        /* \"#utility.yul\":1510:1520   */\n      dup2\n        /* \"#utility.yul\":1507:1529   */\n      lt\n        /* \"#utility.yul\":1486:1504   */\n      0xffffffffffffffff\n        /* \"#utility.yul\":1474:1484   */\n      dup3\n        /* \"#utility.yul\":1471:1505   */\n      gt\n        /* \"#utility.yul\":1468:1530   */\n      or\n        /* \"#utility.yul\":1465:1553   */\n      iszero\n      tag_436\n      jumpi\n        /* \"#utility.yul\":1533:1551   */\n      tag_437\n      tag_346\n      jump\t// in\n    tag_437:\n        /* \"#utility.yul\":1465:1553   */\n    tag_436:\n        /* \"#utility.yul\":1573:1583   */\n      dup1\n        /* \"#utility.yul\":1569:1571   */\n      0x40\n        /* \"#utility.yul\":1562:1584   */\n      mstore\n        /* \"#utility.yul\":1352:1590   */\n      pop\n        /* \"#utility.yul\":1309:1590   */\n      pop\n      pop\n      jump\t// out\n        /* \"#utility.yul\":1596:1725   */\n    tag_348:\n        /* \"#utility.yul\":1630:1636   */\n      0x00\n        /* \"#utility.yul\":1657:1677   */\n      tag_439\n      tag_340\n      jump\t// in\n    tag_439:\n        /* \"#utility.yul\":1647:1677   */\n      swap1\n      pop\n        /* \"#utility.yul\":1686:1719   */\n      tag_440\n        /* \"#utility.yul\":1714:1718   */\n      dup3\n        /* \"#utility.yul\":1706:1712   */\n      dup3\n        /* \"#utility.yul\":1686:1719   */\n      tag_347\n      jump\t// in\n    tag_440:\n        /* \"#utility.yul\":1596:1725   */\n      swap2\n      swap1\n      pop\n      jump\t// out\n        /* \"#utility.yul\":1731:2039   */\n    tag_349:\n        /* \"#utility.yul\":1793:1797   */\n      0x00\n        /* \"#utility.yul\":1883:1901   */\n      0xffffffffffffffff\n        /* \"#utility.yul\":1875:1881   */\n      dup3\n        /* \"#utility.yul\":1872:1902   */\n      gt\n        /* \"#utility.yul\":1869:1925   */\n      iszero\n      tag_442\n      jumpi\n        /* \"#utility.yul\":1905:1923   */\n      tag_443\n      tag_346\n      jump\t// in\n    tag_443:\n        /* \"#utility.yul\":1869:1925   */\n    tag_442:\n        /* \"#utility.yul\":1943:1972   */\n      tag_444\n        /* \"#utility.yul\":1965:1971   */\n      dup3\n        /* \"#utility.yul\":1943:1972   */\n      tag_345\n      jump\t// in\n    tag_444:\n        /* \"#utility.yul\":1935:1972   */\n      swap1\n      pop\n        /* \"#utility.yul\":2027:2031   */\n      0x20\n        /* \"#utility.yul\":2021:2025   */\n      dup2\n        /* \"#utility.yul\":2017:2032   */\n      add\n        /* \"#utility.yul\":2009:2032   */\n      swap1\n      pop\n        /* \"#utility.yul\":1731:2039   */\n      swap2\n      swap1\n      pop\n      jump\t// out\n        /* \"#utility.yul\":2045:2199   */\n    tag_350:\n        /* \"#utility.yul\":2129:2135   */\n      dup3\n        /* \"#utility.yul\":2124:2127   */\n      dup2\n        /* \"#utility.yul\":2119:2122   */\n      dup4\n        /* \"#utility.yul\":2106:2136   */\n      calldatacopy\n        /* \"#utility.yul\":2191:2192   */\n      0x00\n        /* \"#utility.yul\":2182:2188   */\n      dup4\n        /* \"#utility.yul\":2177:2180   */\n      dup4\n        /* \"#utility.yul\":2173:2189   */\n      add\n        /* \"#utility.yul\":2166:2193   */\n      mstore\n        /* \"#utility.yul\":2045:2199   */\n      pop\n      pop\n      pop\n      jump\t// out\n        /* \"#utility.yul\":2205:2617   */\n    tag_351:\n        /* \"#utility.yul\":2283:2288   */\n      0x00\n        /* \"#utility.yul\":2308:2374   */\n      tag_447\n        /* \"#utility.yul\":2324:2373   */\n      tag_448\n        /* \"#utility.yul\":2366:2372   */\n      dup5\n        /* \"#utility.yul\":2324:2373   */\n      tag_349\n      jump\t// in\n    tag_448:\n        /* \"#utility.yul\":2308:2374   */\n      tag_348\n      jump\t// in\n    tag_447:\n        /* \"#utility.yul\":2299:2374   */\n      swap1\n      pop\n        /* \"#utility.yul\":2397:2403   */\n      dup3\n        /* \"#utility.yul\":2390:2395   */\n      dup2\n        /* \"#utility.yul\":2383:2404   */\n      mstore\n        /* \"#utility.yul\":2435:2439   */\n      0x20\n        /* \"#utility.yul\":2428:2433   */\n      dup2\n        /* \"#utility.yul\":2424:2440   */\n      add\n        /* \"#utility.yul\":2473:2476   */\n      dup5\n        /* \"#utility.yul\":2464:2470   */\n      dup5\n        /* \"#utility.yul\":2459:2462   */\n      dup5\n        /* \"#utility.yul\":2455:2471   */\n      add\n        /* \"#utility.yul\":2452:2477   */\n      gt\n        /* \"#utility.yul\":2449:2561   */\n      iszero\n      tag_449\n      jumpi\n        /* \"#utility.yul\":2480:2559   */\n      tag_450\n      tag_344\n      jump\t// in\n    tag_450:\n        /* \"#utility.yul\":2449:2561   */\n    tag_449:\n        /* \"#utility.yul\":2570:2611   */\n      tag_451\n        /* \"#utility.yul\":2604:2610   */\n      dup5\n        /* \"#utility.yul\":2599:2602   */\n      dup3\n        /* \"#utility.yul\":2594:2597   */\n      dup6\n        /* \"#utility.yul\":2570:2611   */\n      tag_350\n      jump\t// in\n    tag_451:\n        /* \"#utility.yul\":2289:2617   */\n      pop\n        /* \"#utility.yul\":2205:2617   */\n      swap4\n      swap3\n      pop\n      pop\n      pop\n      jump\t// out\n        /* \"#utility.yul\":2637:2977   */\n    tag_352:\n        /* \"#utility.yul\":2693:2698   */\n      0x00\n        /* \"#utility.yul\":2742:2745   */\n      dup3\n        /* \"#utility.yul\":2735:2739   */\n      0x1f\n        /* \"#utility.yul\":2727:2733   */\n      dup4\n        /* \"#utility.yul\":2723:2740   */\n      add\n        /* \"#utility.yul\":2719:2746   */\n      slt\n        /* \"#utility.yul\":2709:2831   */\n      tag_453\n      jumpi\n        /* \"#utility.yul\":2750:2829   */\n      tag_454\n      tag_343\n      jump\t// in\n    tag_454:\n        /* \"#utility.yul\":2709:2831   */\n    tag_453:\n        /* \"#utility.yul\":2867:2873   */\n      dup2\n        /* \"#utility.yul\":2854:2874   */\n      calldataload\n        /* \"#utility.yul\":2892:2971   */\n      tag_455\n        /* \"#utility.yul\":2967:2970   */\n      dup5\n        /* \"#utility.yul\":2959:2965   */\n      dup3\n        /* \"#utility.yul\":2952:2956   */\n      0x20\n        /* \"#utility.yul\":2944:2950   */\n      dup7\n        /* \"#utility.yul\":2940:2957   */\n      add\n        /* \"#utility.yul\":2892:2971   */\n      tag_351\n      jump\t// in\n    tag_455:\n        /* \"#utility.yul\":2883:2971   */\n      swap2\n      pop\n        /* \"#utility.yul\":2699:2977   */\n      pop\n        /* \"#utility.yul\":2637:2977   */\n      swap3\n      swap2\n      pop\n      pop\n      jump\t// out\n        /* \"#utility.yul\":2983:3492   */\n    tag_27:\n        /* \"#utility.yul\":3052:3058   */\n      0x00\n        /* \"#utility.yul\":3101:3103   */\n      0x20\n        /* \"#utility.yul\":3089:3098   */\n      dup3\n        /* \"#utility.yul\":3080:3087   */\n      dup5\n        /* \"#utility.yul\":3076:3099   */\n      sub\n        /* \"#utility.yul\":3072:3104   */\n      slt\n        /* \"#utility.yul\":3069:3188   */\n      iszero\n      tag_457\n      jumpi\n        /* \"#utility.yul\":3107:3186   */\n      tag_458\n      tag_341\n      jump\t// in\n    tag_458:\n        /* \"#utility.yul\":3069:3188   */\n    tag_457:\n        /* \"#utility.yul\":3255:3256   */\n      0x00\n        /* \"#utility.yul\":3244:3253   */\n      dup3\n        /* \"#utility.yul\":3240:3257   */\n      add\n        /* \"#utility.yul\":3227:3258   */\n      calldataload\n        /* \"#utility.yul\":3285:3303   */\n      0xffffffffffffffff\n        /* \"#utility.yul\":3277:3283   */\n      dup2\n        /* \"#utility.yul\":3274:3304   */\n      gt\n        /* \"#utility.yul\":3271:3388   */\n      iszero\n      tag_459\n      jumpi\n        /* \"#utility.yul\":3307:3386   */\n      tag_460\n      tag_342\n      jump\t// in\n    tag_460:\n        /* \"#utility.yul\":3271:3388   */\n    tag_459:\n        /* \"#utility.yul\":3412:3475   */\n      tag_461\n        /* \"#utility.yul\":3467:3474   */\n      dup5\n        /* \"#utility.yul\":3458:3464   */\n      dup3\n        /* \"#utility.yul\":3447:3456   */\n      dup6\n        /* \"#utility.yul\":3443:3465   */\n      add\n        /* \"#utility.yul\":3412:3475   */\n      tag_352\n      jump\t// in\n    tag_461:\n        /* \"#utility.yul\":3402:3475   */\n      swap2\n      pop\n        /* \"#utility.yul\":3198:3485   */\n      pop\n        /* \"#utility.yul\":2983:3492   */\n      swap3\n      swap2\n      pop\n      pop\n      jump\t// out\n        /* \"#utility.yul\":3498:3575   */\n    tag_353:\n        /* \"#utility.yul\":3535:3542   */\n      0x00\n        /* \"#utility.yul\":3564:3569   */\n      dup2\n        /* \"#utility.yul\":3553:3569   */\n      swap1\n      pop\n        /* \"#utility.yul\":3498:3575   */\n      swap2\n      swap1\n      pop\n      jump\t// out\n        /* \"#utility.yul\":3581:3699   */\n    tag_354:\n        /* \"#utility.yul\":3668:3692   */\n      tag_464\n        /* \"#utility.yul\":3686:3691   */\n      dup2\n        /* \"#utility.yul\":3668:3692   */\n      tag_353\n      jump\t// in\n    tag_464:\n        /* \"#utility.yul\":3663:3666   */\n      dup3\n        /* \"#utility.yul\":3656:3693   */\n      mstore\n        /* \"#utility.yul\":3581:3699   */\n      pop\n      pop\n      jump\t// out\n        /* \"#utility.yul\":3705:3927   */\n    tag_30:\n        /* \"#utility.yul\":3798:3802   */\n      0x00\n        /* \"#utility.yul\":3836:3838   */\n      0x20\n        /* \"#utility.yul\":3825:3834   */\n      dup3\n        /* \"#utility.yul\":3821:3839   */\n      add\n        /* \"#utility.yul\":3813:3839   */\n      swap1\n      pop\n        /* \"#utility.yul\":3849:3920   */\n      tag_466\n        /* \"#utility.yul\":3917:3918   */\n      0x00\n        /* \"#utility.yul\":3906:3915   */\n      dup4\n        /* \"#utility.yul\":3902:3919   */\n      add\n        /* \"#utility.yul\":3893:3899   */\n      dup5\n        /* \"#utility.yul\":3849:3920   */\n      tag_354\n      jump\t// in\n    tag_466:\n        /* \"#utility.yul\":3705:3927   */\n      swap3\n      swap2\n      pop\n      pop\n      jump\t// out\n        /* \"#utility.yul\":3933:4032   */\n    tag_355:\n        /* \"#utility.yul\":3985:3991   */\n      0x00\n        /* \"#utility.yul\":4019:4024   */\n      dup2\n        /* \"#utility.yul\":4013:4025   */\n      mload\n        /* \"#utility.yul\":4003:4025   */\n      swap1\n      pop\n        /* \"#utility.yul\":3933:4032   */\n      swap2\n      swap1\n      pop\n      jump\t// out\n        /* \"#utility.yul\":4038:4207   */\n    tag_356:\n        /* \"#utility.yul\":4122:4133   */\n      0x00\n        /* \"#utility.yul\":4156:4162   */\n      dup3\n        /* \"#utility.yul\":4151:4154   */\n      dup3\n        /* \"#utility.yul\":4144:4163   */\n      mstore\n        /* \"#utility.yul\":4196:4200   */\n      0x20\n        /* \"#utility.yul\":4191:4194   */\n      dup3\n        /* \"#utility.yul\":4187:4201   */\n      add\n        /* \"#utility.yul\":4172:4201   */\n      swap1\n      pop\n        /* \"#utility.yul\":4038:4207   */\n      swap3\n      swap2\n      pop\n      pop\n      jump\t// out\n        /* \"#utility.yul\":4213:4520   */\n    tag_357:\n        /* \"#utility.yul\":4281:4282   */\n      0x00\n        /* \"#utility.yul\":4291:4404   */\n    tag_470:\n        /* \"#utility.yul\":4305:4311   */\n      dup4\n        /* \"#utility.yul\":4302:4303   */\n      dup2\n        /* \"#utility.yul\":4299:4312   */\n      lt\n        /* \"#utility.yul\":4291:4404   */\n      iszero\n      tag_472\n      jumpi\n        /* \"#utility.yul\":4390:4391   */\n      dup1\n        /* \"#utility.yul\":4385:4388   */\n      dup3\n        /* \"#utility.yul\":4381:4392   */\n      add\n        /* \"#utility.yul\":4375:4393   */\n      mload\n        /* \"#utility.yul\":4371:4372   */\n      dup2\n        /* \"#utility.yul\":4366:4369   */\n      dup5\n        /* \"#utility.yul\":4362:4373   */\n      add\n        /* \"#utility.yul\":4355:4394   */\n      mstore\n        /* \"#utility.yul\":4327:4329   */\n      0x20\n        /* \"#utility.yul\":4324:4325   */\n      dup2\n        /* \"#utility.yul\":4320:4330   */\n      add\n        /* \"#utility.yul\":4315:4330   */\n      swap1\n      pop\n        /* \"#utility.yul\":4291:4404   */\n      jump(tag_470)\n    tag_472:\n        /* \"#utility.yul\":4422:4428   */\n      dup4\n        /* \"#utility.yul\":4419:4420   */\n      dup2\n        /* \"#utility.yul\":4416:4429   */\n      gt\n        /* \"#utility.yul\":4413:4514   */\n      iszero\n      tag_473\n      jumpi\n        /* \"#utility.yul\":4502:4503   */\n      0x00\n        /* \"#utility.yul\":4493:4499   */\n      dup5\n        /* \"#utility.yul\":4488:4491   */\n      dup5\n        /* \"#utility.yul\":4484:4500   */\n      add\n        /* \"#utility.yul\":4477:4504   */\n      mstore\n        /* \"#utility.yul\":4413:4514   */\n    tag_473:\n        /* \"#utility.yul\":4262:4520   */\n      pop\n        /* \"#utility.yul\":4213:4520   */\n      pop\n      pop\n      pop\n      jump\t// out\n        /* \"#utility.yul\":4526:4890   */\n    tag_358:\n        /* \"#utility.yul\":4614:4617   */\n      0x00\n        /* \"#utility.yul\":4642:4681   */\n      tag_475\n        /* \"#utility.yul\":4675:4680   */\n      dup3\n        /* \"#utility.yul\":4642:4681   */\n      tag_355\n      jump\t// in\n    tag_475:\n        /* \"#utility.yul\":4697:4768   */\n      tag_476\n        /* \"#utility.yul\":4761:4767   */\n      dup2\n        /* \"#utility.yul\":4756:4759   */\n      dup6\n        /* \"#utility.yul\":4697:4768   */\n      tag_356\n      jump\t// in\n    tag_476:\n        /* \"#utility.yul\":4690:4768   */\n      swap4\n      pop\n        /* \"#utility.yul\":4777:4829   */\n      tag_477\n        /* \"#utility.yul\":4822:4828   */\n      dup2\n        /* \"#utility.yul\":4817:4820   */\n      dup6\n        /* \"#utility.yul\":4810:4814   */\n      0x20\n        /* \"#utility.yul\":4803:4808   */\n      dup7\n        /* \"#utility.yul\":4799:4815   */\n      add\n        /* \"#utility.yul\":4777:4829   */\n      tag_357\n      jump\t// in\n    tag_477:\n        /* \"#utility.yul\":4854:4883   */\n      tag_478\n        /* \"#utility.yul\":4876:4882   */\n      dup2\n        /* \"#utility.yul\":4854:4883   */\n      tag_345\n      jump\t// in\n    tag_478:\n        /* \"#utility.yul\":4849:4852   */\n      dup5\n        /* \"#utility.yul\":4845:4884   */\n      add\n        /* \"#utility.yul\":4838:4884   */\n      swap2\n      pop\n        /* \"#utility.yul\":4618:4890   */\n      pop\n        /* \"#utility.yul\":4526:4890   */\n      swap3\n      swap2\n      pop\n      pop\n      jump\t// out\n        /* \"#utility.yul\":4896:5209   */\n    tag_39:\n        /* \"#utility.yul\":5009:5013   */\n      0x00\n        /* \"#utility.yul\":5047:5049   */\n      0x20\n        /* \"#utility.yul\":5036:5045   */\n      dup3\n        /* \"#utility.yul\":5032:5050   */\n      add\n        /* \"#utility.yul\":5024:5050   */\n      swap1\n      pop\n        /* \"#utility.yul\":5096:5105   */\n      dup2\n        /* \"#utility.yul\":5090:5094   */\n      dup2\n        /* \"#utility.yul\":5086:5106   */\n      sub\n        /* \"#utility.yul\":5082:5083   */\n      0x00\n        /* \"#utility.yul\":5071:5080   */\n      dup4\n        /* \"#utility.yul\":5067:5084   */\n      add\n        /* \"#utility.yul\":5060:5107   */\n      mstore\n        /* \"#utility.yul\":5124:5202   */\n      tag_480\n        /* \"#utility.yul\":5197:5201   */\n      dup2\n        /* \"#utility.yul\":5188:5194   */\n      dup5\n        /* \"#utility.yul\":5124:5202   */\n      tag_358\n      jump\t// in\n    tag_480:\n        /* \"#utility.yul\":5116:5202   */\n      swap1\n      pop\n        /* \"#utility.yul\":4896:5209   */\n      swap3\n      swap2\n      pop\n      pop\n      jump\t// out\n        /* \"#utility.yul\":5215:5337   */\n    tag_359:\n        /* \"#utility.yul\":5288:5312   */\n      tag_482\n        /* \"#utility.yul\":5306:5311   */\n      dup2\n        /* \"#utility.yul\":5288:5312   */\n      tag_353\n      jump\t// in\n    tag_482:\n        /* \"#utility.yul\":5281:5286   */\n      dup2\n        /* \"#utility.yul\":5278:5313   */\n      eq\n        /* \"#utility.yul\":5268:5331   */\n      tag_483\n      jumpi\n        /* \"#utility.yul\":5327:5328   */\n      0x00\n        /* \"#utility.yul\":5324:5325   */\n      dup1\n        /* \"#utility.yul\":5317:5329   */\n      revert\n        /* \"#utility.yul\":5268:5331   */\n    tag_483:\n        /* \"#utility.yul\":5215:5337   */\n      pop\n      jump\t// out\n        /* \"#utility.yul\":5343:5482   */\n    tag_360:\n        /* \"#utility.yul\":5389:5394   */\n      0x00\n        /* \"#utility.yul\":5427:5433   */\n      dup2\n        /* \"#utility.yul\":5414:5434   */\n      calldataload\n        /* \"#utility.yul\":5405:5434   */\n      swap1\n      pop\n        /* \"#utility.yul\":5443:5476   */\n      tag_485\n        /* \"#utility.yul\":5470:5475   */\n      dup2\n        /* \"#utility.yul\":5443:5476   */\n      tag_359\n      jump\t// in\n    tag_485:\n        /* \"#utility.yul\":5343:5482   */\n      swap3\n      swap2\n      pop\n      pop\n      jump\t// out\n        /* \"#utility.yul\":5488:6142   */\n    tag_43:\n        /* \"#utility.yul\":5566:5572   */\n      0x00\n        /* \"#utility.yul\":5574:5580   */\n      dup1\n        /* \"#utility.yul\":5623:5625   */\n      0x40\n        /* \"#utility.yul\":5611:5620   */\n      dup4\n        /* \"#utility.yul\":5602:5609   */\n      dup6\n        /* \"#utility.yul\":5598:5621   */\n      sub\n        /* \"#utility.yul\":5594:5626   */\n      slt\n        /* \"#utility.yul\":5591:5710   */\n      iszero\n      tag_487\n      jumpi\n        /* \"#utility.yul\":5629:5708   */\n      tag_488\n      tag_341\n      jump\t// in\n    tag_488:\n        /* \"#utility.yul\":5591:5710   */\n    tag_487:\n        /* \"#utility.yul\":5749:5750   */\n      0x00\n        /* \"#utility.yul\":5774:5827   */\n      tag_489\n        /* \"#utility.yul\":5819:5826   */\n      dup6\n        /* \"#utility.yul\":5810:5816   */\n      dup3\n        /* \"#utility.yul\":5799:5808   */\n      dup7\n        /* \"#utility.yul\":5795:5817   */\n      add\n        /* \"#utility.yul\":5774:5827   */\n      tag_360\n      jump\t// in\n    tag_489:\n        /* \"#utility.yul\":5764:5827   */\n      swap3\n      pop\n        /* \"#utility.yul\":5720:5837   */\n      pop\n        /* \"#utility.yul\":5904:5906   */\n      0x20\n        /* \"#utility.yul\":5893:5902   */\n      dup4\n        /* \"#utility.yul\":5889:5907   */\n      add\n        /* \"#utility.yul\":5876:5908   */\n      calldataload\n        /* \"#utility.yul\":5935:5953   */\n      0xffffffffffffffff\n        /* \"#utility.yul\":5927:5933   */\n      dup2\n        /* \"#utility.yul\":5924:5954   */\n      gt\n        /* \"#utility.yul\":5921:6038   */\n      iszero\n      tag_490\n      jumpi\n        /* \"#utility.yul\":5957:6036   */\n      tag_491\n      tag_342\n      jump\t// in\n    tag_491:\n        /* \"#utility.yul\":5921:6038   */\n    tag_490:\n        /* \"#utility.yul\":6062:6125   */\n      tag_492\n        /* \"#utility.yul\":6117:6124   */\n      dup6\n        /* \"#utility.yul\":6108:6114   */\n      dup3\n        /* \"#utility.yul\":6097:6106   */\n      dup7\n        /* \"#utility.yul\":6093:6115   */\n      add\n        /* \"#utility.yul\":6062:6125   */\n      tag_352\n      jump\t// in\n    tag_492:\n        /* \"#utility.yul\":6052:6125   */\n      swap2\n      pop\n        /* \"#utility.yul\":5847:6135   */\n      pop\n        /* \"#utility.yul\":5488:6142   */\n      swap3\n      pop\n      swap3\n      swap1\n      pop\n      jump\t// out\n        /* \"#utility.yul\":6148:6270   */\n    tag_361:\n        /* \"#utility.yul\":6221:6245   */\n      tag_494\n        /* \"#utility.yul\":6239:6244   */\n      dup2\n        /* \"#utility.yul\":6221:6245   */\n      tag_338\n      jump\t// in\n    tag_494:\n        /* \"#utility.yul\":6214:6219   */\n      dup2\n        /* \"#utility.yul\":6211:6246   */\n      eq\n        /* \"#utility.yul\":6201:6264   */\n      tag_495\n      jumpi\n        /* \"#utility.yul\":6260:6261   */\n      0x00\n        /* \"#utility.yul\":6257:6258   */\n      dup1\n        /* \"#utility.yul\":6250:6262   */\n      revert\n        /* \"#utility.yul\":6201:6264   */\n    tag_495:\n        /* \"#utility.yul\":6148:6270   */\n      pop\n      jump\t// out\n        /* \"#utility.yul\":6276:6415   */\n    tag_362:\n        /* \"#utility.yul\":6322:6327   */\n      0x00\n        /* \"#utility.yul\":6360:6366   */\n      dup2\n        /* \"#utility.yul\":6347:6367   */\n      calldataload\n        /* \"#utility.yul\":6338:6367   */\n      swap1\n      pop\n        /* \"#utility.yul\":6376:6409   */\n      tag_497\n        /* \"#utility.yul\":6403:6408   */\n      dup2\n        /* \"#utility.yul\":6376:6409   */\n      tag_361\n      jump\t// in\n    tag_497:\n        /* \"#utility.yul\":6276:6415   */\n      swap3\n      swap2\n      pop\n      pop\n      jump\t// out\n        /* \"#utility.yul\":6421:6895   */\n    tag_48:\n        /* \"#utility.yul\":6489:6495   */\n      0x00\n        /* \"#utility.yul\":6497:6503   */\n      dup1\n        /* \"#utility.yul\":6546:6548   */\n      0x40\n        /* \"#utility.yul\":6534:6543   */\n      dup4\n        /* \"#utility.yul\":6525:6532   */\n      dup6\n        /* \"#utility.yul\":6521:6544   */\n      sub\n        /* \"#utility.yul\":6517:6549   */\n      slt\n        /* \"#utility.yul\":6514:6633   */\n      iszero\n      tag_499\n      jumpi\n        /* \"#utility.yul\":6552:6631   */\n      tag_500\n      tag_341\n      jump\t// in\n    tag_500:\n        /* \"#utility.yul\":6514:6633   */\n    tag_499:\n        /* \"#utility.yul\":6672:6673   */\n      0x00\n        /* \"#utility.yul\":6697:6750   */\n      tag_501\n        /* \"#utility.yul\":6742:6749   */\n      dup6\n        /* \"#utility.yul\":6733:6739   */\n      dup3\n        /* \"#utility.yul\":6722:6731   */\n      dup7\n        /* \"#utility.yul\":6718:6740   */\n      add\n        /* \"#utility.yul\":6697:6750   */\n      tag_360\n      jump\t// in\n    tag_501:\n        /* \"#utility.yul\":6687:6750   */\n      swap3\n      pop\n        /* \"#utility.yul\":6643:6760   */\n      pop\n        /* \"#utility.yul\":6799:6801   */\n      0x20\n        /* \"#utility.yul\":6825:6878   */\n      tag_502\n        /* \"#utility.yul\":6870:6877   */\n      dup6\n        /* \"#utility.yul\":6861:6867   */\n      dup3\n        /* \"#utility.yul\":6850:6859   */\n      dup7\n        /* \"#utility.yul\":6846:6868   */\n      add\n        /* \"#utility.yul\":6825:6878   */\n      tag_362\n      jump\t// in\n    tag_502:\n        /* \"#utility.yul\":6815:6878   */\n      swap2\n      pop\n        /* \"#utility.yul\":6770:6888   */\n      pop\n        /* \"#utility.yul\":6421:6895   */\n      swap3\n      pop\n      swap3\n      swap1\n      pop\n      jump\t// out\n        /* \"#utility.yul\":6901:7027   */\n    tag_363:\n        /* \"#utility.yul\":6938:6945   */\n      0x00\n        /* \"#utility.yul\":6978:7020   */\n      0xffffffffffffffffffffffffffffffffffffffff\n        /* \"#utility.yul\":6971:6976   */\n      dup3\n        /* \"#utility.yul\":6967:7021   */\n      and\n        /* \"#utility.yul\":6956:7021   */\n      swap1\n      pop\n        /* \"#utility.yul\":6901:7027   */\n      swap2\n      swap1\n      pop\n      jump\t// out\n        /* \"#utility.yul\":7033:7129   */\n    tag_364:\n        /* \"#utility.yul\":7070:7077   */\n      0x00\n        /* \"#utility.yul\":7099:7123   */\n      tag_505\n        /* \"#utility.yul\":7117:7122   */\n      dup3\n        /* \"#utility.yul\":7099:7123   */\n      tag_363\n      jump\t// in\n    tag_505:\n        /* \"#utility.yul\":7088:7123   */\n      swap1\n      pop\n        /* \"#utility.yul\":7033:7129   */\n      swap2\n      swap1\n      pop\n      jump\t// out\n        /* \"#utility.yul\":7135:7253   */\n    tag_365:\n        /* \"#utility.yul\":7222:7246   */\n      tag_507\n        /* \"#utility.yul\":7240:7245   */\n      dup2\n        /* \"#utility.yul\":7222:7246   */\n      tag_364\n      jump\t// in\n    tag_507:\n        /* \"#utility.yul\":7217:7220   */\n      dup3\n        /* \"#utility.yul\":7210:7247   */\n      mstore\n        /* \"#utility.yul\":7135:7253   */\n      pop\n      pop\n      jump\t// out\n        /* \"#utility.yul\":7259:7481   */\n    tag_62:\n        /* \"#utility.yul\":7352:7356   */\n      0x00\n        /* \"#utility.yul\":7390:7392   */\n      0x20\n        /* \"#utility.yul\":7379:7388   */\n      dup3\n        /* \"#utility.yul\":7375:7393   */\n      add\n        /* \"#utility.yul\":7367:7393   */\n      swap1\n      pop\n        /* \"#utility.yul\":7403:7474   */\n      tag_509\n        /* \"#utility.yul\":7471:7472   */\n      0x00\n        /* \"#utility.yul\":7460:7469   */\n      dup4\n        /* \"#utility.yul\":7456:7473   */\n      add\n        /* \"#utility.yul\":7447:7453   */\n      dup5\n        /* \"#utility.yul\":7403:7474   */\n      tag_365\n      jump\t// in\n    tag_509:\n        /* \"#utility.yul\":7259:7481   */\n      swap3\n      swap2\n      pop\n      pop\n      jump\t// out\n        /* \"#utility.yul\":7487:8141   */\n    tag_65:\n        /* \"#utility.yul\":7565:7571   */\n      0x00\n        /* \"#utility.yul\":7573:7579   */\n      dup1\n        /* \"#utility.yul\":7622:7624   */\n      0x40\n        /* \"#utility.yul\":7610:7619   */\n      dup4\n        /* \"#utility.yul\":7601:7608   */\n      dup6\n        /* \"#utility.yul\":7597:7620   */\n      sub\n        /* \"#utility.yul\":7593:7625   */\n      slt\n        /* \"#utility.yul\":7590:7709   */\n      iszero\n      tag_511\n      jumpi\n        /* \"#utility.yul\":7628:7707   */\n      tag_512\n      tag_341\n      jump\t// in\n    tag_512:\n        /* \"#utility.yul\":7590:7709   */\n    tag_511:\n        /* \"#utility.yul\":7776:7777   */\n      0x00\n        /* \"#utility.yul\":7765:7774   */\n      dup4\n        /* \"#utility.yul\":7761:7778   */\n      add\n        /* \"#utility.yul\":7748:7779   */\n      calldataload\n        /* \"#utility.yul\":7806:7824   */\n      0xffffffffffffffff\n        /* \"#utility.yul\":7798:7804   */\n      dup2\n        /* \"#utility.yul\":7795:7825   */\n      gt\n        /* \"#utility.yul\":7792:7909   */\n      iszero\n      tag_513\n      jumpi\n        /* \"#utility.yul\":7828:7907   */\n      tag_514\n      tag_342\n      jump\t// in\n    tag_514:\n        /* \"#utility.yul\":7792:7909   */\n    tag_513:\n        /* \"#utility.yul\":7933:7996   */\n      tag_515\n        /* \"#utility.yul\":7988:7995   */\n      dup6\n        /* \"#utility.yul\":7979:7985   */\n      dup3\n        /* \"#utility.yul\":7968:7977   */\n      dup7\n        /* \"#utility.yul\":7964:7986   */\n      add\n        /* \"#utility.yul\":7933:7996   */\n      tag_352\n      jump\t// in\n    tag_515:\n        /* \"#utility.yul\":7923:7996   */\n      swap3\n      pop\n        /* \"#utility.yul\":7719:8006   */\n      pop\n        /* \"#utility.yul\":8045:8047   */\n      0x20\n        /* \"#utility.yul\":8071:8124   */\n      tag_516\n        /* \"#utility.yul\":8116:8123   */\n      dup6\n        /* \"#utility.yul\":8107:8113   */\n      dup3\n        /* \"#utility.yul\":8096:8105   */\n      dup7\n        /* \"#utility.yul\":8092:8114   */\n      add\n        /* \"#utility.yul\":8071:8124   */\n      tag_362\n      jump\t// in\n    tag_516:\n        /* \"#utility.yul\":8061:8124   */\n      swap2\n      pop\n        /* \"#utility.yul\":8016:8134   */\n      pop\n        /* \"#utility.yul\":7487:8141   */\n      swap3\n      pop\n      swap3\n      swap1\n      pop\n      jump\t// out\n        /* \"#utility.yul\":8147:8269   */\n    tag_366:\n        /* \"#utility.yul\":8220:8244   */\n      tag_518\n        /* \"#utility.yul\":8238:8243   */\n      dup2\n        /* \"#utility.yul\":8220:8244   */\n      tag_364\n      jump\t// in\n    tag_518:\n        /* \"#utility.yul\":8213:8218   */\n      dup2\n        /* \"#utility.yul\":8210:8245   */\n      eq\n        /* \"#utility.yul\":8200:8263   */\n      tag_519\n      jumpi\n        /* \"#utility.yul\":8259:8260   */\n      0x00\n        /* \"#utility.yul\":8256:8257   */\n      dup1\n        /* \"#utility.yul\":8249:8261   */\n      revert\n        /* \"#utility.yul\":8200:8263   */\n    tag_519:\n        /* \"#utility.yul\":8147:8269   */\n      pop\n      jump\t// out\n        /* \"#utility.yul\":8275:8414   */\n    tag_367:\n        /* \"#utility.yul\":8321:8326   */\n      0x00\n        /* \"#utility.yul\":8359:8365   */\n      dup2\n        /* \"#utility.yul\":8346:8366   */\n      calldataload\n        /* \"#utility.yul\":8337:8366   */\n      swap1\n      pop\n        /* \"#utility.yul\":8375:8408   */\n      tag_521\n        /* \"#utility.yul\":8402:8407   */\n      dup2\n        /* \"#utility.yul\":8375:8408   */\n      tag_366\n      jump\t// in\n    tag_521:\n        /* \"#utility.yul\":8275:8414   */\n      swap3\n      swap2\n      pop\n      pop\n      jump\t// out\n        /* \"#utility.yul\":8420:8749   */\n    tag_82:\n        /* \"#utility.yul\":8479:8485   */\n      0x00\n        /* \"#utility.yul\":8528:8530   */\n      0x20\n        /* \"#utility.yul\":8516:8525   */\n      dup3\n        /* \"#utility.yul\":8507:8514   */\n      dup5\n        /* \"#utility.yul\":8503:8526   */\n      sub\n        /* \"#utility.yul\":8499:8531   */\n      slt\n        /* \"#utility.yul\":8496:8615   */\n      iszero\n      tag_523\n      jumpi\n        /* \"#utility.yul\":8534:8613   */\n      tag_524\n      tag_341\n      jump\t// in\n    tag_524:\n        /* \"#utility.yul\":8496:8615   */\n    tag_523:\n        /* \"#utility.yul\":8654:8655   */\n      0x00\n        /* \"#utility.yul\":8679:8732   */\n      tag_525\n        /* \"#utility.yul\":8724:8731   */\n      dup5\n        /* \"#utility.yul\":8715:8721   */\n      dup3\n        /* \"#utility.yul\":8704:8713   */\n      dup6\n        /* \"#utility.yul\":8700:8722   */\n      add\n        /* \"#utility.yul\":8679:8732   */\n      tag_367\n      jump\t// in\n    tag_525:\n        /* \"#utility.yul\":8669:8732   */\n      swap2\n      pop\n        /* \"#utility.yul\":8625:8742   */\n      pop\n        /* \"#utility.yul\":8420:8749   */\n      swap3\n      swap2\n      pop\n      pop\n      jump\t// out\n        /* \"#utility.yul\":8755:8903   */\n    tag_368:\n        /* \"#utility.yul\":8857:8868   */\n      0x00\n        /* \"#utility.yul\":8894:8897   */\n      dup2\n        /* \"#utility.yul\":8879:8897   */\n      swap1\n      pop\n        /* \"#utility.yul\":8755:8903   */\n      swap3\n      swap2\n      pop\n      pop\n      jump\t// out\n        /* \"#utility.yul\":8909:9211   */\n    tag_369:\n        /* \"#utility.yul\":9049:9083   */\n      0x68747470733a2f2f7777772e616c70686176616e746167652e636f2f71756572\n        /* \"#utility.yul\":9045:9046   */\n      0x00\n        /* \"#utility.yul\":9037:9043   */\n      dup3\n        /* \"#utility.yul\":9033:9047   */\n      add\n        /* \"#utility.yul\":9026:9084   */\n      mstore\n        /* \"#utility.yul\":9122:9156   */\n      0x793f66756e6374696f6e3d53594d424f4c5f534541524348266b6579776f7264\n        /* \"#utility.yul\":9117:9119   */\n      0x20\n        /* \"#utility.yul\":9109:9115   */\n      dup3\n        /* \"#utility.yul\":9105:9120   */\n      add\n        /* \"#utility.yul\":9098:9157   */\n      mstore\n        /* \"#utility.yul\":9195:9199   */\n      0x733d000000000000000000000000000000000000000000000000000000000000\n        /* \"#utility.yul\":9190:9192   */\n      0x40\n        /* \"#utility.yul\":9182:9188   */\n      dup3\n        /* \"#utility.yul\":9178:9193   */\n      add\n        /* \"#utility.yul\":9171:9200   */\n      mstore\n        /* \"#utility.yul\":8909:9211   */\n      pop\n      jump\t// out\n        /* \"#utility.yul\":9221:9639   */\n    tag_370:\n        /* \"#utility.yul\":9381:9384   */\n      0x00\n        /* \"#utility.yul\":9406:9491   */\n      tag_529\n        /* \"#utility.yul\":9488:9490   */\n      0x42\n        /* \"#utility.yul\":9483:9486   */\n      dup4\n        /* \"#utility.yul\":9406:9491   */\n      tag_368\n      jump\t// in\n    tag_529:\n        /* \"#utility.yul\":9399:9491   */\n      swap2\n      pop\n        /* \"#utility.yul\":9504:9597   */\n      tag_530\n        /* \"#utility.yul\":9593:9596   */\n      dup3\n        /* \"#utility.yul\":9504:9597   */\n      tag_369\n      jump\t// in\n    tag_530:\n        /* \"#utility.yul\":9626:9628   */\n      0x42\n        /* \"#utility.yul\":9621:9624   */\n      dup3\n        /* \"#utility.yul\":9617:9629   */\n      add\n        /* \"#utility.yul\":9610:9629   */\n      swap1\n      pop\n        /* \"#utility.yul\":9221:9639   */\n      swap2\n      swap1\n      pop\n      jump\t// out\n        /* \"#utility.yul\":9649:10046   */\n    tag_371:\n        /* \"#utility.yul\":9755:9758   */\n      0x00\n        /* \"#utility.yul\":9787:9826   */\n      tag_532\n        /* \"#utility.yul\":9820:9825   */\n      dup3\n        /* \"#utility.yul\":9787:9826   */\n      tag_355\n      jump\t// in\n    tag_532:\n        /* \"#utility.yul\":9846:9935   */\n      tag_533\n        /* \"#utility.yul\":9928:9934   */\n      dup2\n        /* \"#utility.yul\":9923:9926   */\n      dup6\n        /* \"#utility.yul\":9846:9935   */\n      tag_368\n      jump\t// in\n    tag_533:\n        /* \"#utility.yul\":9839:9935   */\n      swap4\n      pop\n        /* \"#utility.yul\":9948:10000   */\n      tag_534\n        /* \"#utility.yul\":9993:9999   */\n      dup2\n        /* \"#utility.yul\":9988:9991   */\n      dup6\n        /* \"#utility.yul\":9981:9985   */\n      0x20\n        /* \"#utility.yul\":9974:9979   */\n      dup7\n        /* \"#utility.yul\":9970:9986   */\n      add\n        /* \"#utility.yul\":9948:10000   */\n      tag_357\n      jump\t// in\n    tag_534:\n        /* \"#utility.yul\":10029:10035   */\n      dup1\n        /* \"#utility.yul\":10024:10027   */\n      dup5\n        /* \"#utility.yul\":10020:10036   */\n      add\n        /* \"#utility.yul\":10013:10036   */\n      swap2\n      pop\n        /* \"#utility.yul\":9759:10046   */\n      pop\n        /* \"#utility.yul\":9649:10046   */\n      swap3\n      swap2\n      pop\n      pop\n      jump\t// out\n        /* \"#utility.yul\":10056:10256   */\n    tag_372:\n        /* \"#utility.yul\":10229:10245   */\n      0x266170696b65793d767876637876000000000000000000000000000000000000\n        /* \"#utility.yul\":10224:10227   */\n      dup2\n        /* \"#utility.yul\":10217:10246   */\n      mstore\n        /* \"#utility.yul\":10056:10256   */\n      pop\n      jump\t// out\n        /* \"#utility.yul\":10266:11098   */\n    tag_88:\n        /* \"#utility.yul\":10590:10593   */\n      0x00\n        /* \"#utility.yul\":10616:10764   */\n      tag_537\n        /* \"#utility.yul\":10760:10763   */\n      dup3\n        /* \"#utility.yul\":10616:10764   */\n      tag_370\n      jump\t// in\n    tag_537:\n        /* \"#utility.yul\":10609:10764   */\n      swap2\n      pop\n        /* \"#utility.yul\":10785:10880   */\n      tag_538\n        /* \"#utility.yul\":10876:10879   */\n      dup3\n        /* \"#utility.yul\":10867:10873   */\n      dup5\n        /* \"#utility.yul\":10785:10880   */\n      tag_371\n      jump\t// in\n    tag_538:\n        /* \"#utility.yul\":10778:10880   */\n      swap2\n      pop\n        /* \"#utility.yul\":10894:11032   */\n      tag_539\n        /* \"#utility.yul\":11028:11031   */\n      dup3\n        /* \"#utility.yul\":10894:11032   */\n      tag_372\n      jump\t// in\n    tag_539:\n        /* \"#utility.yul\":11061:11063   */\n      0x0e\n        /* \"#utility.yul\":11056:11059   */\n      dup3\n        /* \"#utility.yul\":11052:11064   */\n      add\n        /* \"#utility.yul\":11045:11064   */\n      swap2\n      pop\n        /* \"#utility.yul\":11085:11088   */\n      dup2\n        /* \"#utility.yul\":11078:11088   */\n      swap1\n      pop\n        /* \"#utility.yul\":10266:11098   */\n      swap3\n      swap2\n      pop\n      pop\n      jump\t// out\n        /* \"#utility.yul\":11108:11365   */\n    tag_373:\n        /* \"#utility.yul\":11252:11286   */\n      0x68747470733a2f2f6d696e2d6170692e63727970746f636f6d706172652e636f\n        /* \"#utility.yul\":11248:11249   */\n      0x00\n        /* \"#utility.yul\":11240:11246   */\n      dup3\n        /* \"#utility.yul\":11236:11250   */\n      add\n        /* \"#utility.yul\":11229:11287   */\n      mstore\n        /* \"#utility.yul\":11329:11349   */\n      0x6d2f646174612f70726963653f6673796d3d0000000000000000000000000000\n        /* \"#utility.yul\":11324:11326   */\n      0x20\n        /* \"#utility.yul\":11316:11322   */\n      dup3\n        /* \"#utility.yul\":11312:11327   */\n      add\n        /* \"#utility.yul\":11305:11350   */\n      mstore\n        /* \"#utility.yul\":11108:11365   */\n      pop\n      jump\t// out\n        /* \"#utility.yul\":11379:11813   */\n    tag_374:\n        /* \"#utility.yul\":11539:11542   */\n      0x00\n        /* \"#utility.yul\":11568:11653   */\n      tag_542\n        /* \"#utility.yul\":11650:11652   */\n      0x32\n        /* \"#utility.yul\":11645:11648   */\n      dup4\n        /* \"#utility.yul\":11568:11653   */\n      tag_368\n      jump\t// in\n    tag_542:\n        /* \"#utility.yul\":11561:11653   */\n      swap2\n      pop\n        /* \"#utility.yul\":11670:11763   */\n      tag_543\n        /* \"#utility.yul\":11759:11762   */\n      dup3\n        /* \"#utility.yul\":11670:11763   */\n      tag_373\n      jump\t// in\n    tag_543:\n        /* \"#utility.yul\":11796:11798   */\n      0x32\n        /* \"#utility.yul\":11791:11794   */\n      dup3\n        /* \"#utility.yul\":11787:11799   */\n      add\n        /* \"#utility.yul\":11780:11799   */\n      swap1\n      pop\n        /* \"#utility.yul\":11379:11813   */\n      swap2\n      swap1\n      pop\n      jump\t// out\n        /* \"#utility.yul\":11827:12039   */\n    tag_375:\n        /* \"#utility.yul\":11883:11960   */\n      0x4e487b7100000000000000000000000000000000000000000000000000000000\n        /* \"#utility.yul\":11880:11881   */\n      0x00\n        /* \"#utility.yul\":11873:11961   */\n      mstore\n        /* \"#utility.yul\":11988:11992   */\n      0x22\n        /* \"#utility.yul\":11985:11986   */\n      0x04\n        /* \"#utility.yul\":11978:11993   */\n      mstore\n        /* \"#utility.yul\":12020:12024   */\n      0x24\n        /* \"#utility.yul\":12017:12018   */\n      0x00\n        /* \"#utility.yul\":12010:12025   */\n      revert\n        /* \"#utility.yul\":12053:12445   */\n    tag_104:\n        /* \"#utility.yul\":12097:12103   */\n      0x00\n        /* \"#utility.yul\":12142:12143   */\n      0x02\n        /* \"#utility.yul\":12136:12140   */\n      dup3\n        /* \"#utility.yul\":12132:12144   */\n      div\n        /* \"#utility.yul\":12122:12144   */\n      swap1\n      pop\n        /* \"#utility.yul\":12197:12198   */\n      0x01\n        /* \"#utility.yul\":12191:12195   */\n      dup3\n        /* \"#utility.yul\":12187:12199   */\n      and\n        /* \"#utility.yul\":12226:12244   */\n      dup1\n        /* \"#utility.yul\":12216:12313   */\n      tag_546\n      jumpi\n        /* \"#utility.yul\":12290:12294   */\n      0x7f\n        /* \"#utility.yul\":12282:12288   */\n      dup3\n        /* \"#utility.yul\":12278:12295   */\n      and\n        /* \"#utility.yul\":12268:12295   */\n      swap2\n      pop\n        /* \"#utility.yul\":12216:12313   */\n    tag_546:\n        /* \"#utility.yul\":12368:12370   */\n      0x20\n        /* \"#utility.yul\":12360:12366   */\n      dup3\n        /* \"#utility.yul\":12357:12371   */\n      lt\n        /* \"#utility.yul\":12337:12355   */\n      dup2\n        /* \"#utility.yul\":12334:12372   */\n      eq\n        /* \"#utility.yul\":12331:12431   */\n      iszero\n      tag_547\n      jumpi\n        /* \"#utility.yul\":12395:12413   */\n      tag_548\n      tag_375\n      jump\t// in\n    tag_548:\n        /* \"#utility.yul\":12331:12431   */\n    tag_547:\n        /* \"#utility.yul\":12104:12445   */\n      pop\n        /* \"#utility.yul\":12053:12445   */\n      swap2\n      swap1\n      pop\n      jump\t// out\n        /* \"#utility.yul\":12459:12632   */\n    tag_376:\n        /* \"#utility.yul\":12508:12512   */\n      0x00\n        /* \"#utility.yul\":12539:12542   */\n      dup2\n        /* \"#utility.yul\":12531:12542   */\n      swap1\n      pop\n        /* \"#utility.yul\":12570:12573   */\n      dup2\n        /* \"#utility.yul\":12567:12568   */\n      0x00\n        /* \"#utility.yul\":12560:12574   */\n      mstore\n        /* \"#utility.yul\":12612:12616   */\n      0x20\n        /* \"#utility.yul\":12609:12610   */\n      0x00\n        /* \"#utility.yul\":12599:12617   */\n      keccak256\n        /* \"#utility.yul\":12591:12617   */\n      swap1\n      pop\n        /* \"#utility.yul\":12459:12632   */\n      swap2\n      swap1\n      pop\n      jump\t// out\n        /* \"#utility.yul\":12678:13683   */\n    tag_377:\n        /* \"#utility.yul\":12781:12784   */\n      0x00\n        /* \"#utility.yul\":12826:12831   */\n      dup2\n        /* \"#utility.yul\":12820:12832   */\n      sload\n        /* \"#utility.yul\":12863:12899   */\n      tag_551\n        /* \"#utility.yul\":12889:12898   */\n      dup2\n        /* \"#utility.yul\":12863:12899   */\n      tag_104\n      jump\t// in\n    tag_551:\n        /* \"#utility.yul\":12923:13012   */\n      tag_552\n        /* \"#utility.yul\":13005:13011   */\n      dup2\n        /* \"#utility.yul\":13000:13003   */\n      dup7\n        /* \"#utility.yul\":12923:13012   */\n      tag_368\n      jump\t// in\n    tag_552:\n        /* \"#utility.yul\":12916:13012   */\n      swap5\n      pop\n        /* \"#utility.yul\":13051:13052   */\n      0x01\n        /* \"#utility.yul\":13040:13049   */\n      dup3\n        /* \"#utility.yul\":13036:13053   */\n      and\n        /* \"#utility.yul\":13075:13076   */\n      0x00\n        /* \"#utility.yul\":13070:13239   */\n      dup2\n      eq\n      tag_554\n      jumpi\n        /* \"#utility.yul\":13261:13262   */\n      0x01\n        /* \"#utility.yul\":13256:13669   */\n      dup2\n      eq\n      tag_555\n      jumpi\n        /* \"#utility.yul\":13029:13669   */\n      jump(tag_553)\n        /* \"#utility.yul\":13070:13239   */\n    tag_554:\n        /* \"#utility.yul\":13170:13174   */\n      0xff\n        /* \"#utility.yul\":13166:13175   */\n      not\n        /* \"#utility.yul\":13155:13164   */\n      dup4\n        /* \"#utility.yul\":13151:13176   */\n      and\n        /* \"#utility.yul\":13146:13149   */\n      dup7\n        /* \"#utility.yul\":13139:13177   */\n      mstore\n        /* \"#utility.yul\":13214:13220   */\n      dup2\n        /* \"#utility.yul\":13209:13212   */\n      dup7\n        /* \"#utility.yul\":13205:13221   */\n      add\n        /* \"#utility.yul\":13198:13221   */\n      swap4\n      pop\n        /* \"#utility.yul\":13070:13239   */\n      jump(tag_553)\n        /* \"#utility.yul\":13256:13669   */\n    tag_555:\n        /* \"#utility.yul\":13339:13377   */\n      tag_556\n        /* \"#utility.yul\":13371:13376   */\n      dup6\n        /* \"#utility.yul\":13339:13377   */\n      tag_376\n      jump\t// in\n    tag_556:\n        /* \"#utility.yul\":13407:13408   */\n      0x00\n        /* \"#utility.yul\":13429:13607   */\n    tag_557:\n        /* \"#utility.yul\":13443:13449   */\n      dup4\n        /* \"#utility.yul\":13440:13441   */\n      dup2\n        /* \"#utility.yul\":13437:13450   */\n      lt\n        /* \"#utility.yul\":13429:13607   */\n      iszero\n      tag_559\n      jumpi\n        /* \"#utility.yul\":13525:13532   */\n      dup2\n        /* \"#utility.yul\":13519:13533   */\n      sload\n        /* \"#utility.yul\":13515:13516   */\n      dup2\n        /* \"#utility.yul\":13510:13513   */\n      dup10\n        /* \"#utility.yul\":13506:13517   */\n      add\n        /* \"#utility.yul\":13499:13534   */\n      mstore\n        /* \"#utility.yul\":13583:13584   */\n      0x01\n        /* \"#utility.yul\":13574:13581   */\n      dup3\n        /* \"#utility.yul\":13570:13585   */\n      add\n        /* \"#utility.yul\":13559:13585   */\n      swap2\n      pop\n        /* \"#utility.yul\":13465:13469   */\n      0x20\n        /* \"#utility.yul\":13462:13463   */\n      dup2\n        /* \"#utility.yul\":13458:13470   */\n      add\n        /* \"#utility.yul\":13453:13470   */\n      swap1\n      pop\n        /* \"#utility.yul\":13429:13607   */\n      jump(tag_557)\n    tag_559:\n        /* \"#utility.yul\":13644:13650   */\n      dup4\n        /* \"#utility.yul\":13639:13642   */\n      dup9\n        /* \"#utility.yul\":13635:13651   */\n      add\n        /* \"#utility.yul\":13628:13651   */\n      swap6\n      pop\n        /* \"#utility.yul\":13263:13669   */\n      pop\n      pop\n        /* \"#utility.yul\":13029:13669   */\n    tag_553:\n      pop\n        /* \"#utility.yul\":12785:13683   */\n      pop\n      pop\n        /* \"#utility.yul\":12678:13683   */\n      swap3\n      swap2\n      pop\n      pop\n      jump\t// out\n        /* \"#utility.yul\":13697:14036   */\n    tag_378:\n        /* \"#utility.yul\":13845:13879   */\n      0x267473796d733d455448266170695f6b65793d64623035383664373730353031\n        /* \"#utility.yul\":13841:13842   */\n      0x00\n        /* \"#utility.yul\":13833:13839   */\n      dup3\n        /* \"#utility.yul\":13829:13843   */\n      add\n        /* \"#utility.yul\":13822:13880   */\n      mstore\n        /* \"#utility.yul\":13922:13956   */\n      0x3535613031646566363232316530326339363665396431313938316432616464\n        /* \"#utility.yul\":13917:13919   */\n      0x20\n        /* \"#utility.yul\":13909:13915   */\n      dup3\n        /* \"#utility.yul\":13905:13920   */\n      add\n        /* \"#utility.yul\":13898:13957   */\n      mstore\n        /* \"#utility.yul\":13999:14020   */\n      0x6439373164386165323161383537323965396100000000000000000000000000\n        /* \"#utility.yul\":13994:13996   */\n      0x40\n        /* \"#utility.yul\":13986:13992   */\n      dup3\n        /* \"#utility.yul\":13982:13997   */\n      add\n        /* \"#utility.yul\":13975:14021   */\n      mstore\n        /* \"#utility.yul\":13697:14036   */\n      pop\n      jump\t// out\n        /* \"#utility.yul\":14050:14484   */\n    tag_379:\n        /* \"#utility.yul\":14210:14213   */\n      0x00\n        /* \"#utility.yul\":14239:14324   */\n      tag_562\n        /* \"#utility.yul\":14321:14323   */\n      0x53\n        /* \"#utility.yul\":14316:14319   */\n      dup4\n        /* \"#utility.yul\":14239:14324   */\n      tag_368\n      jump\t// in\n    tag_562:\n        /* \"#utility.yul\":14232:14324   */\n      swap2\n      pop\n        /* \"#utility.yul\":14341:14434   */\n      tag_563\n        /* \"#utility.yul\":14430:14433   */\n      dup3\n        /* \"#utility.yul\":14341:14434   */\n      tag_378\n      jump\t// in\n    tag_563:\n        /* \"#utility.yul\":14467:14469   */\n      0x53\n        /* \"#utility.yul\":14462:14465   */\n      dup3\n        /* \"#utility.yul\":14458:14470   */\n      add\n        /* \"#utility.yul\":14451:14470   */\n      swap1\n      pop\n        /* \"#utility.yul\":14050:14484   */\n      swap2\n      swap1\n      pop\n      jump\t// out\n        /* \"#utility.yul\":14498:15339   */\n    tag_97:\n        /* \"#utility.yul\":14829:14832   */\n      0x00\n        /* \"#utility.yul\":14859:15007   */\n      tag_565\n        /* \"#utility.yul\":15003:15006   */\n      dup3\n        /* \"#utility.yul\":14859:15007   */\n      tag_374\n      jump\t// in\n    tag_565:\n        /* \"#utility.yul\":14852:15007   */\n      swap2\n      pop\n        /* \"#utility.yul\":15032:15124   */\n      tag_566\n        /* \"#utility.yul\":15120:15123   */\n      dup3\n        /* \"#utility.yul\":15111:15117   */\n      dup5\n        /* \"#utility.yul\":15032:15124   */\n      tag_377\n      jump\t// in\n    tag_566:\n        /* \"#utility.yul\":15025:15124   */\n      swap2\n      pop\n        /* \"#utility.yul\":15149:15297   */\n      tag_567\n        /* \"#utility.yul\":15293:15296   */\n      dup3\n        /* \"#utility.yul\":15149:15297   */\n      tag_379\n      jump\t// in\n    tag_567:\n        /* \"#utility.yul\":15142:15297   */\n      swap2\n      pop\n        /* \"#utility.yul\":15322:15325   */\n      dup2\n        /* \"#utility.yul\":15315:15325   */\n      swap1\n      pop\n        /* \"#utility.yul\":14498:15339   */\n      swap3\n      swap2\n      pop\n      pop\n      jump\t// out\n        /* \"#utility.yul\":15353:15604   */\n    tag_380:\n        /* \"#utility.yul\":15501:15535   */\n      0x536f75726365206d75737420626520746865206f7261636c65206f6620746865\n        /* \"#utility.yul\":15497:15498   */\n      0x00\n        /* \"#utility.yul\":15489:15495   */\n      dup3\n        /* \"#utility.yul\":15485:15499   */\n      add\n        /* \"#utility.yul\":15478:15536   */\n      mstore\n        /* \"#utility.yul\":15578:15588   */\n      0x2072657175657374000000000000000000000000000000000000000000000000\n        /* \"#utility.yul\":15573:15575   */\n      0x20\n        /* \"#utility.yul\":15565:15571   */\n      dup3\n        /* \"#utility.yul\":15561:15576   */\n      add\n        /* \"#utility.yul\":15554:15589   */\n      mstore\n        /* \"#utility.yul\":15353:15604   */\n      pop\n      jump\t// out\n        /* \"#utility.yul\":15618:16016   */\n    tag_381:\n        /* \"#utility.yul\":15760:15763   */\n      0x00\n        /* \"#utility.yul\":15789:15856   */\n      tag_570\n        /* \"#utility.yul\":15853:15855   */\n      0x28\n        /* \"#utility.yul\":15848:15851   */\n      dup4\n        /* \"#utility.yul\":15789:15856   */\n      tag_356\n      jump\t// in\n    tag_570:\n        /* \"#utility.yul\":15782:15856   */\n      swap2\n      pop\n        /* \"#utility.yul\":15873:15966   */\n      tag_571\n        /* \"#utility.yul\":15962:15965   */\n      dup3\n        /* \"#utility.yul\":15873:15966   */\n      tag_380\n      jump\t// in\n    tag_571:\n        /* \"#utility.yul\":15999:16001   */\n      0x40\n        /* \"#utility.yul\":15994:15997   */\n      dup3\n        /* \"#utility.yul\":15990:16002   */\n      add\n        /* \"#utility.yul\":15983:16002   */\n      swap1\n      pop\n        /* \"#utility.yul\":15618:16016   */\n      swap2\n      swap1\n      pop\n      jump\t// out\n        /* \"#utility.yul\":16030:16481   */\n    tag_112:\n        /* \"#utility.yul\":16196:16200   */\n      0x00\n        /* \"#utility.yul\":16242:16244   */\n      0x20\n        /* \"#utility.yul\":16231:16240   */\n      dup3\n        /* \"#utility.yul\":16227:16245   */\n      add\n        /* \"#utility.yul\":16219:16245   */\n      swap1\n      pop\n        /* \"#utility.yul\":16299:16308   */\n      dup2\n        /* \"#utility.yul\":16293:16297   */\n      dup2\n        /* \"#utility.yul\":16289:16309   */\n      sub\n        /* \"#utility.yul\":16285:16286   */\n      0x00\n        /* \"#utility.yul\":16274:16283   */\n      dup4\n        /* \"#utility.yul\":16270:16287   */\n      add\n        /* \"#utility.yul\":16263:16310   */\n      mstore\n        /* \"#utility.yul\":16335:16466   */\n      tag_573\n        /* \"#utility.yul\":16461:16465   */\n      dup2\n        /* \"#utility.yul\":16335:16466   */\n      tag_381\n      jump\t// in\n    tag_573:\n        /* \"#utility.yul\":16327:16466   */\n      swap1\n      pop\n        /* \"#utility.yul\":16030:16481   */\n      swap2\n      swap1\n      pop\n      jump\t// out\n        /* \"#utility.yul\":16495:16834   */\n    tag_382:\n        /* \"#utility.yul\":16643:16677   */\n      0x68747470733a2f2f7777772e616c70686176616e746167652e636f2f71756572\n        /* \"#utility.yul\":16639:16640   */\n      0x00\n        /* \"#utility.yul\":16631:16637   */\n      dup3\n        /* \"#utility.yul\":16627:16641   */\n      add\n        /* \"#utility.yul\":16620:16678   */\n      mstore\n        /* \"#utility.yul\":16724:16758   */\n      0x793f66756e6374696f6e3d54494d455f5345524945535f494e54524144415926\n        /* \"#utility.yul\":16719:16721   */\n      0x20\n        /* \"#utility.yul\":16711:16717   */\n      dup3\n        /* \"#utility.yul\":16707:16722   */\n      add\n        /* \"#utility.yul\":16700:16759   */\n      mstore\n        /* \"#utility.yul\":16805:16814   */\n      0x73796d626f6c3d00000000000000000000000000000000000000000000000000\n        /* \"#utility.yul\":16800:16802   */\n      0x40\n        /* \"#utility.yul\":16792:16798   */\n      dup3\n        /* \"#utility.yul\":16788:16803   */\n      add\n        /* \"#utility.yul\":16781:16815   */\n      mstore\n        /* \"#utility.yul\":16495:16834   */\n      pop\n      jump\t// out\n        /* \"#utility.yul\":16852:17302   */\n    tag_383:\n        /* \"#utility.yul\":17012:17015   */\n      0x00\n        /* \"#utility.yul\":17045:17130   */\n      tag_576\n        /* \"#utility.yul\":17127:17129   */\n      0x47\n        /* \"#utility.yul\":17122:17125   */\n      dup4\n        /* \"#utility.yul\":17045:17130   */\n      tag_368\n      jump\t// in\n    tag_576:\n        /* \"#utility.yul\":17038:17130   */\n      swap2\n      pop\n        /* \"#utility.yul\":17151:17244   */\n      tag_577\n        /* \"#utility.yul\":17240:17243   */\n      dup3\n        /* \"#utility.yul\":17151:17244   */\n      tag_382\n      jump\t// in\n    tag_577:\n        /* \"#utility.yul\":17281:17283   */\n      0x47\n        /* \"#utility.yul\":17276:17279   */\n      dup3\n        /* \"#utility.yul\":17272:17284   */\n      add\n        /* \"#utility.yul\":17265:17284   */\n      swap1\n      pop\n        /* \"#utility.yul\":16852:17302   */\n      swap2\n      swap1\n      pop\n      jump\t// out\n        /* \"#utility.yul\":17320:17550   */\n    tag_384:\n        /* \"#utility.yul\":17501:17531   */\n      0x26696e74657276616c3d356d696e266170696b65793d76787663787600000000\n        /* \"#utility.yul\":17496:17499   */\n      dup2\n        /* \"#utility.yul\":17489:17532   */\n      mstore\n        /* \"#utility.yul\":17320:17550   */\n      pop\n      jump\t// out\n        /* \"#utility.yul\":17568:18448   */\n    tag_123:\n        /* \"#utility.yul\":17892:17895   */\n      0x00\n        /* \"#utility.yul\":17926:18074   */\n      tag_580\n        /* \"#utility.yul\":18070:18073   */\n      dup3\n        /* \"#utility.yul\":17926:18074   */\n      tag_383\n      jump\t// in\n    tag_580:\n        /* \"#utility.yul\":17919:18074   */\n      swap2\n      pop\n        /* \"#utility.yul\":18103:18198   */\n      tag_581\n        /* \"#utility.yul\":18194:18197   */\n      dup3\n        /* \"#utility.yul\":18185:18191   */\n      dup5\n        /* \"#utility.yul\":18103:18198   */\n      tag_371\n      jump\t// in\n    tag_581:\n        /* \"#utility.yul\":18096:18198   */\n      swap2\n      pop\n        /* \"#utility.yul\":18220:18358   */\n      tag_582\n        /* \"#utility.yul\":18354:18357   */\n      dup3\n        /* \"#utility.yul\":18220:18358   */\n      tag_384\n      jump\t// in\n    tag_582:\n        /* \"#utility.yul\":18395:18397   */\n      0x1c\n        /* \"#utility.yul\":18390:18393   */\n      dup3\n        /* \"#utility.yul\":18386:18398   */\n      add\n        /* \"#utility.yul\":18379:18398   */\n      swap2\n      pop\n        /* \"#utility.yul\":18427:18430   */\n      dup2\n        /* \"#utility.yul\":18420:18430   */\n      swap1\n      pop\n        /* \"#utility.yul\":17568:18448   */\n      swap3\n      swap2\n      pop\n      pop\n      jump\t// out\n        /* \"#utility.yul\":18466:18662   */\n    tag_385:\n        /* \"#utility.yul\":18618:18642   */\n      0x4d7573742062652070726f706f736564206f776e657200000000000000000000\n        /* \"#utility.yul\":18614:18615   */\n      0x00\n        /* \"#utility.yul\":18606:18612   */\n      dup3\n        /* \"#utility.yul\":18602:18616   */\n      add\n        /* \"#utility.yul\":18595:18643   */\n      mstore\n        /* \"#utility.yul\":18466:18662   */\n      pop\n      jump\t// out\n        /* \"#utility.yul\":18680:19094   */\n    tag_386:\n        /* \"#utility.yul\":18822:18825   */\n      0x00\n        /* \"#utility.yul\":18855:18922   */\n      tag_585\n        /* \"#utility.yul\":18919:18921   */\n      0x16\n        /* \"#utility.yul\":18914:18917   */\n      dup4\n        /* \"#utility.yul\":18855:18922   */\n      tag_356\n      jump\t// in\n    tag_585:\n        /* \"#utility.yul\":18848:18922   */\n      swap2\n      pop\n        /* \"#utility.yul\":18943:19036   */\n      tag_586\n        /* \"#utility.yul\":19032:19035   */\n      dup3\n        /* \"#utility.yul\":18943:19036   */\n      tag_385\n      jump\t// in\n    tag_586:\n        /* \"#utility.yul\":19073:19075   */\n      0x20\n        /* \"#utility.yul\":19068:19071   */\n      dup3\n        /* \"#utility.yul\":19064:19076   */\n      add\n        /* \"#utility.yul\":19057:19076   */\n      swap1\n      pop\n        /* \"#utility.yul\":18680:19094   */\n      swap2\n      swap1\n      pop\n      jump\t// out\n        /* \"#utility.yul\":19112:19579   */\n    tag_131:\n        /* \"#utility.yul\":19278:19282   */\n      0x00\n        /* \"#utility.yul\":19328:19330   */\n      0x20\n        /* \"#utility.yul\":19317:19326   */\n      dup3\n        /* \"#utility.yul\":19313:19331   */\n      add\n        /* \"#utility.yul\":19305:19331   */\n      swap1\n      pop\n        /* \"#utility.yul\":19389:19398   */\n      dup2\n        /* \"#utility.yul\":19383:19387   */\n      dup2\n        /* \"#utility.yul\":19379:19399   */\n      sub\n        /* \"#utility.yul\":19375:19376   */\n      0x00\n        /* \"#utility.yul\":19364:19373   */\n      dup4\n        /* \"#utility.yul\":19360:19377   */\n      add\n        /* \"#utility.yul\":19353:19400   */\n      mstore\n        /* \"#utility.yul\":19429:19560   */\n      tag_588\n        /* \"#utility.yul\":19555:19559   */\n      dup2\n        /* \"#utility.yul\":19429:19560   */\n      tag_386\n      jump\t// in\n    tag_588:\n        /* \"#utility.yul\":19421:19560   */\n      swap1\n      pop\n        /* \"#utility.yul\":19112:19579   */\n      swap2\n      swap1\n      pop\n      jump\t// out\n        /* \"#utility.yul\":19597:19776   */\n    tag_387:\n        /* \"#utility.yul\":19654:19659   */\n      0x00\n        /* \"#utility.yul\":19697:19703   */\n      dup2\n        /* \"#utility.yul\":19691:19704   */\n      mload\n        /* \"#utility.yul\":19682:19704   */\n      swap1\n      pop\n        /* \"#utility.yul\":19725:19758   */\n      tag_590\n        /* \"#utility.yul\":19752:19757   */\n      dup2\n        /* \"#utility.yul\":19725:19758   */\n      tag_359\n      jump\t// in\n    tag_590:\n        /* \"#utility.yul\":19597:19776   */\n      swap3\n      swap2\n      pop\n      pop\n      jump\t// out\n        /* \"#utility.yul\":19794:20217   */\n    tag_138:\n        /* \"#utility.yul\":19864:19870   */\n      0x00\n        /* \"#utility.yul\":19925:19927   */\n      0x20\n        /* \"#utility.yul\":19913:19922   */\n      dup3\n        /* \"#utility.yul\":19904:19911   */\n      dup5\n        /* \"#utility.yul\":19900:19923   */\n      sub\n        /* \"#utility.yul\":19896:19928   */\n      slt\n        /* \"#utility.yul\":19893:20012   */\n      iszero\n      tag_592\n      jumpi\n        /* \"#utility.yul\":19931:20010   */\n      tag_593\n      tag_341\n      jump\t// in\n    tag_593:\n        /* \"#utility.yul\":19893:20012   */\n    tag_592:\n        /* \"#utility.yul\":20075:20076   */\n      0x00\n        /* \"#utility.yul\":20112:20176   */\n      tag_594\n        /* \"#utility.yul\":20168:20175   */\n      dup5\n        /* \"#utility.yul\":20159:20165   */\n      dup3\n        /* \"#utility.yul\":20148:20157   */\n      dup6\n        /* \"#utility.yul\":20144:20166   */\n      add\n        /* \"#utility.yul\":20112:20176   */\n      tag_387\n      jump\t// in\n    tag_594:\n        /* \"#utility.yul\":20102:20176   */\n      swap2\n      pop\n        /* \"#utility.yul\":20034:20198   */\n      pop\n        /* \"#utility.yul\":19794:20217   */\n      swap3\n      swap2\n      pop\n      pop\n      jump\t// out\n        /* \"#utility.yul\":20235:20463   */\n    tag_388:\n        /* \"#utility.yul\":20295:20372   */\n      0x4e487b7100000000000000000000000000000000000000000000000000000000\n        /* \"#utility.yul\":20292:20293   */\n      0x00\n        /* \"#utility.yul\":20285:20373   */\n      mstore\n        /* \"#utility.yul\":20404:20408   */\n      0x11\n        /* \"#utility.yul\":20401:20402   */\n      0x04\n        /* \"#utility.yul\":20394:20409   */\n      mstore\n        /* \"#utility.yul\":20440:20444   */\n      0x24\n        /* \"#utility.yul\":20437:20438   */\n      0x00\n        /* \"#utility.yul\":20430:20445   */\n      revert\n        /* \"#utility.yul\":20481:20901   */\n    tag_147:\n        /* \"#utility.yul\":20521:20528   */\n      0x00\n        /* \"#utility.yul\":20556:20576   */\n      tag_597\n        /* \"#utility.yul\":20574:20575   */\n      dup3\n        /* \"#utility.yul\":20556:20576   */\n      tag_338\n      jump\t// in\n    tag_597:\n        /* \"#utility.yul\":20551:20576   */\n      swap2\n      pop\n        /* \"#utility.yul\":20602:20622   */\n      tag_598\n        /* \"#utility.yul\":20620:20621   */\n      dup4\n        /* \"#utility.yul\":20602:20622   */\n      tag_338\n      jump\t// in\n    tag_598:\n        /* \"#utility.yul\":20597:20622   */\n      swap3\n      pop\n        /* \"#utility.yul\":20814:20815   */\n      dup2\n        /* \"#utility.yul\":20746:20812   */\n      0xffffffffffffffffffffffffffffffffffffffffffffffffffffffffffffffff\n        /* \"#utility.yul\":20742:20816   */\n      div\n        /* \"#utility.yul\":20739:20740   */\n      dup4\n        /* \"#utility.yul\":20736:20817   */\n      gt\n        /* \"#utility.yul\":20731:20732   */\n      dup3\n        /* \"#utility.yul\":20724:20733   */\n      iszero\n        /* \"#utility.yul\":20717:20734   */\n      iszero\n        /* \"#utility.yul\":20713:20818   */\n      and\n        /* \"#utility.yul\":20710:20841   */\n      iszero\n      tag_599\n      jumpi\n        /* \"#utility.yul\":20821:20839   */\n      tag_600\n      tag_388\n      jump\t// in\n    tag_600:\n        /* \"#utility.yul\":20710:20841   */\n    tag_599:\n        /* \"#utility.yul\":20881:20882   */\n      dup3\n        /* \"#utility.yul\":20878:20879   */\n      dup3\n        /* \"#utility.yul\":20874:20883   */\n      mul\n        /* \"#utility.yul\":20863:20883   */\n      swap1\n      pop\n        /* \"#utility.yul\":20481:20901   */\n      swap3\n      swap2\n      pop\n      pop\n      jump\t// out\n        /* \"#utility.yul\":20919:21098   */\n    tag_389:\n        /* \"#utility.yul\":21071:21078   */\n      0x4572726f72000000000000000000000000000000000000000000000000000000\n        /* \"#utility.yul\":21067:21068   */\n      0x00\n        /* \"#utility.yul\":21059:21065   */\n      dup3\n        /* \"#utility.yul\":21055:21069   */\n      add\n        /* \"#utility.yul\":21048:21079   */\n      mstore\n        /* \"#utility.yul\":20919:21098   */\n      pop\n      jump\t// out\n        /* \"#utility.yul\":21116:21529   */\n    tag_390:\n        /* \"#utility.yul\":21258:21261   */\n      0x00\n        /* \"#utility.yul\":21291:21357   */\n      tag_603\n        /* \"#utility.yul\":21355:21356   */\n      0x05\n        /* \"#utility.yul\":21350:21353   */\n      dup4\n        /* \"#utility.yul\":21291:21357   */\n      tag_356\n      jump\t// in\n    tag_603:\n        /* \"#utility.yul\":21284:21357   */\n      swap2\n      pop\n        /* \"#utility.yul\":21378:21471   */\n      tag_604\n        /* \"#utility.yul\":21467:21470   */\n      dup3\n        /* \"#utility.yul\":21378:21471   */\n      tag_389\n      jump\t// in\n    tag_604:\n        /* \"#utility.yul\":21508:21510   */\n      0x20\n        /* \"#utility.yul\":21503:21506   */\n      dup3\n        /* \"#utility.yul\":21499:21511   */\n      add\n        /* \"#utility.yul\":21492:21511   */\n      swap1\n      pop\n        /* \"#utility.yul\":21116:21529   */\n      swap2\n      swap1\n      pop\n      jump\t// out\n        /* \"#utility.yul\":21547:22014   */\n    tag_151:\n        /* \"#utility.yul\":21713:21717   */\n      0x00\n        /* \"#utility.yul\":21763:21765   */\n      0x20\n        /* \"#utility.yul\":21752:21761   */\n      dup3\n        /* \"#utility.yul\":21748:21766   */\n      add\n        /* \"#utility.yul\":21740:21766   */\n      swap1\n      pop\n        /* \"#utility.yul\":21824:21833   */\n      dup2\n        /* \"#utility.yul\":21818:21822   */\n      dup2\n        /* \"#utility.yul\":21814:21834   */\n      sub\n        /* \"#utility.yul\":21810:21811   */\n      0x00\n        /* \"#utility.yul\":21799:21808   */\n      dup4\n        /* \"#utility.yul\":21795:21812   */\n      add\n        /* \"#utility.yul\":21788:21835   */\n      mstore\n        /* \"#utility.yul\":21864:21995   */\n      tag_606\n        /* \"#utility.yul\":21990:21994   */\n      dup2\n        /* \"#utility.yul\":21864:21995   */\n      tag_390\n      jump\t// in\n    tag_606:\n        /* \"#utility.yul\":21856:21995   */\n      swap1\n      pop\n        /* \"#utility.yul\":21547:22014   */\n      swap2\n      swap1\n      pop\n      jump\t// out\n        /* \"#utility.yul\":22032:22146   */\n    tag_391:\n        /* \"#utility.yul\":22066:22073   */\n      0x00\n        /* \"#utility.yul\":22121:22126   */\n      dup2\n        /* \"#utility.yul\":22114:22127   */\n      iszero\n        /* \"#utility.yul\":22107:22128   */\n      iszero\n        /* \"#utility.yul\":22096:22128   */\n      swap1\n      pop\n        /* \"#utility.yul\":22032:22146   */\n      swap2\n      swap1\n      pop\n      jump\t// out\n        /* \"#utility.yul\":22164:22297   */\n    tag_392:\n        /* \"#utility.yul\":22257:22278   */\n      tag_609\n        /* \"#utility.yul\":22272:22277   */\n      dup2\n        /* \"#utility.yul\":22257:22278   */\n      tag_391\n      jump\t// in\n    tag_609:\n        /* \"#utility.yul\":22252:22255   */\n      dup3\n        /* \"#utility.yul\":22245:22279   */\n      mstore\n        /* \"#utility.yul\":22164:22297   */\n      pop\n      pop\n      jump\t// out\n        /* \"#utility.yul\":22315:22561   */\n    tag_153:\n        /* \"#utility.yul\":22402:22406   */\n      0x00\n        /* \"#utility.yul\":22452:22454   */\n      0x20\n        /* \"#utility.yul\":22441:22450   */\n      dup3\n        /* \"#utility.yul\":22437:22455   */\n      add\n        /* \"#utility.yul\":22429:22455   */\n      swap1\n      pop\n        /* \"#utility.yul\":22477:22542   */\n      tag_611\n        /* \"#utility.yul\":22539:22540   */\n      0x00\n        /* \"#utility.yul\":22528:22537   */\n      dup4\n        /* \"#utility.yul\":22524:22541   */\n      add\n        /* \"#utility.yul\":22515:22521   */\n      dup5\n        /* \"#utility.yul\":22477:22542   */\n      tag_392\n      jump\t// in\n    tag_611:\n        /* \"#utility.yul\":22315:22561   */\n      swap3\n      swap2\n      pop\n      pop\n      jump\t// out\n        /* \"#utility.yul\":22579:22775   */\n    tag_393:\n        /* \"#utility.yul\":22731:22755   */\n      0x4f6e6c792063616c6c61626c65206279206f776e657200000000000000000000\n        /* \"#utility.yul\":22727:22728   */\n      0x00\n        /* \"#utility.yul\":22719:22725   */\n      dup3\n        /* \"#utility.yul\":22715:22729   */\n      add\n        /* \"#utility.yul\":22708:22756   */\n      mstore\n        /* \"#utility.yul\":22579:22775   */\n      pop\n      jump\t// out\n        /* \"#utility.yul\":22793:23207   */\n    tag_394:\n        /* \"#utility.yul\":22935:22938   */\n      0x00\n        /* \"#utility.yul\":22968:23035   */\n      tag_614\n        /* \"#utility.yul\":23032:23034   */\n      0x16\n        /* \"#utility.yul\":23027:23030   */\n      dup4\n        /* \"#utility.yul\":22968:23035   */\n      tag_356\n      jump\t// in\n    tag_614:\n        /* \"#utility.yul\":22961:23035   */\n      swap2\n      pop\n        /* \"#utility.yul\":23056:23149   */\n      tag_615\n        /* \"#utility.yul\":23145:23148   */\n      dup3\n        /* \"#utility.yul\":23056:23149   */\n      tag_393\n      jump\t// in\n    tag_615:\n        /* \"#utility.yul\":23186:23188   */\n      0x20\n        /* \"#utility.yul\":23181:23184   */\n      dup3\n        /* \"#utility.yul\":23177:23189   */\n      add\n        /* \"#utility.yul\":23170:23189   */\n      swap1\n      pop\n        /* \"#utility.yul\":22793:23207   */\n      swap2\n      swap1\n      pop\n      jump\t// out\n        /* \"#utility.yul\":23225:23692   */\n    tag_184:\n        /* \"#utility.yul\":23391:23395   */\n      0x00\n        /* \"#utility.yul\":23441:23443   */\n      0x20\n        /* \"#utility.yul\":23430:23439   */\n      dup3\n        /* \"#utility.yul\":23426:23444   */\n      add\n        /* \"#utility.yul\":23418:23444   */\n      swap1\n      pop\n        /* \"#utility.yul\":23502:23511   */\n      dup2\n        /* \"#utility.yul\":23496:23500   */\n      dup2\n        /* \"#utility.yul\":23492:23512   */\n      sub\n        /* \"#utility.yul\":23488:23489   */\n      0x00\n        /* \"#utility.yul\":23477:23486   */\n      dup4\n        /* \"#utility.yul\":23473:23490   */\n      add\n        /* \"#utility.yul\":23466:23513   */\n      mstore\n        /* \"#utility.yul\":23542:23673   */\n      tag_617\n        /* \"#utility.yul\":23668:23672   */\n      dup2\n        /* \"#utility.yul\":23542:23673   */\n      tag_394\n      jump\t// in\n    tag_617:\n        /* \"#utility.yul\":23534:23673   */\n      swap1\n      pop\n        /* \"#utility.yul\":23225:23692   */\n      swap2\n      swap1\n      pop\n      jump\t// out\n        /* \"#utility.yul\":23710:23907   */\n    tag_395:\n        /* \"#utility.yul\":23862:23887   */\n      0x43616e6e6f74207472616e7366657220746f2073656c66000000000000000000\n        /* \"#utility.yul\":23858:23859   */\n      0x00\n        /* \"#utility.yul\":23850:23856   */\n      dup3\n        /* \"#utility.yul\":23846:23860   */\n      add\n        /* \"#utility.yul\":23839:23888   */\n      mstore\n        /* \"#utility.yul\":23710:23907   */\n      pop\n      jump\t// out\n        /* \"#utility.yul\":23925:24339   */\n    tag_396:\n        /* \"#utility.yul\":24067:24070   */\n      0x00\n        /* \"#utility.yul\":24100:24167   */\n      tag_620\n        /* \"#utility.yul\":24164:24166   */\n      0x17\n        /* \"#utility.yul\":24159:24162   */\n      dup4\n        /* \"#utility.yul\":24100:24167   */\n      tag_356\n      jump\t// in\n    tag_620:\n        /* \"#utility.yul\":24093:24167   */\n      swap2\n      pop\n        /* \"#utility.yul\":24188:24281   */\n      tag_621\n        /* \"#utility.yul\":24277:24280   */\n      dup3\n        /* \"#utility.yul\":24188:24281   */\n      tag_395\n      jump\t// in\n    tag_621:\n        /* \"#utility.yul\":24318:24320   */\n      0x20\n        /* \"#utility.yul\":24313:24316   */\n      dup3\n        /* \"#utility.yul\":24309:24321   */\n      add\n        /* \"#utility.yul\":24302:24321   */\n      swap1\n      pop\n        /* \"#utility.yul\":23925:24339   */\n      swap2\n      swap1\n      pop\n      jump\t// out\n        /* \"#utility.yul\":24357:24824   */\n    tag_188:\n        /* \"#utility.yul\":24523:24527   */\n      0x00\n        /* \"#utility.yul\":24573:24575   */\n      0x20\n        /* \"#utility.yul\":24562:24571   */\n      dup3\n        /* \"#utility.yul\":24558:24576   */\n      add\n        /* \"#utility.yul\":24550:24576   */\n      swap1\n      pop\n        /* \"#utility.yul\":24634:24643   */\n      dup2\n        /* \"#utility.yul\":24628:24632   */\n      dup2\n        /* \"#utility.yul\":24624:24644   */\n      sub\n        /* \"#utility.yul\":24620:24621   */\n      0x00\n        /* \"#utility.yul\":24609:24618   */\n      dup4\n        /* \"#utility.yul\":24605:24622   */\n      add\n        /* \"#utility.yul\":24598:24645   */\n      mstore\n        /* \"#utility.yul\":24674:24805   */\n      tag_623\n        /* \"#utility.yul\":24800:24804   */\n      dup2\n        /* \"#utility.yul\":24674:24805   */\n      tag_396\n      jump\t// in\n    tag_623:\n        /* \"#utility.yul\":24666:24805   */\n      swap1\n      pop\n        /* \"#utility.yul\":24357:24824   */\n      swap2\n      swap1\n      pop\n      jump\t// out\n        /* \"#utility.yul\":24842:25219   */\n    tag_200:\n        /* \"#utility.yul\":24882:24885   */\n      0x00\n        /* \"#utility.yul\":24913:24933   */\n      tag_625\n        /* \"#utility.yul\":24931:24932   */\n      dup3\n        /* \"#utility.yul\":24913:24933   */\n      tag_338\n      jump\t// in\n    tag_625:\n        /* \"#utility.yul\":24908:24933   */\n      swap2\n      pop\n        /* \"#utility.yul\":24959:24979   */\n      tag_626\n        /* \"#utility.yul\":24977:24978   */\n      dup4\n        /* \"#utility.yul\":24959:24979   */\n      tag_338\n      jump\t// in\n    tag_626:\n        /* \"#utility.yul\":24954:24979   */\n      swap3\n      pop\n        /* \"#utility.yul\":25137:25138   */\n      dup3\n        /* \"#utility.yul\":25069:25135   */\n      0xffffffffffffffffffffffffffffffffffffffffffffffffffffffffffffffff\n        /* \"#utility.yul\":25065:25139   */\n      sub\n        /* \"#utility.yul\":25062:25063   */\n      dup3\n        /* \"#utility.yul\":25059:25140   */\n      gt\n        /* \"#utility.yul\":25056:25163   */\n      iszero\n      tag_627\n      jumpi\n        /* \"#utility.yul\":25143:25161   */\n      tag_628\n      tag_388\n      jump\t// in\n    tag_628:\n        /* \"#utility.yul\":25056:25163   */\n    tag_627:\n        /* \"#utility.yul\":25199:25200   */\n      dup3\n        /* \"#utility.yul\":25196:25197   */\n      dup3\n        /* \"#utility.yul\":25192:25201   */\n      add\n        /* \"#utility.yul\":25185:25201   */\n      swap1\n      pop\n        /* \"#utility.yul\":24842:25219   */\n      swap3\n      swap2\n      pop\n      pop\n      jump\t// out\n        /* \"#utility.yul\":25237:25410   */\n    tag_397:\n        /* \"#utility.yul\":25273:25280   */\n      0x00\n        /* \"#utility.yul\":25325:25391   */\n      0xffffffff00000000000000000000000000000000000000000000000000000000\n        /* \"#utility.yul\":25318:25323   */\n      dup3\n        /* \"#utility.yul\":25314:25392   */\n      and\n        /* \"#utility.yul\":25303:25392   */\n      swap1\n      pop\n        /* \"#utility.yul\":25237:25410   */\n      swap2\n      swap1\n      pop\n      jump\t// out\n        /* \"#utility.yul\":25428:25567   */\n    tag_398:\n        /* \"#utility.yul\":25525:25548   */\n      tag_631\n        /* \"#utility.yul\":25542:25547   */\n      dup2\n        /* \"#utility.yul\":25525:25548   */\n      tag_397\n      jump\t// in\n    tag_631:\n        /* \"#utility.yul\":25520:25523   */\n      dup3\n        /* \"#utility.yul\":25513:25549   */\n      mstore\n        /* \"#utility.yul\":25428:25567   */\n      pop\n      pop\n      jump\t// out\n        /* \"#utility.yul\":25585:25707   */\n    tag_399:\n        /* \"#utility.yul\":25636:25642   */\n      0x00\n        /* \"#utility.yul\":25682:25687   */\n      dup2\n        /* \"#utility.yul\":25676:25688   */\n      mload\n        /* \"#utility.yul\":25666:25688   */\n      swap1\n      pop\n        /* \"#utility.yul\":25585:25707   */\n      swap2\n      swap1\n      pop\n      jump\t// out\n        /* \"#utility.yul\":25725:25929   */\n    tag_400:\n        /* \"#utility.yul\":25808:25819   */\n      0x00\n        /* \"#utility.yul\":25854:25860   */\n      dup3\n        /* \"#utility.yul\":25849:25852   */\n      dup3\n        /* \"#utility.yul\":25842:25861   */\n      mstore\n        /* \"#utility.yul\":25906:25910   */\n      0x20\n        /* \"#utility.yul\":25901:25904   */\n      dup3\n        /* \"#utility.yul\":25897:25911   */\n      add\n        /* \"#utility.yul\":25882:25911   */\n      swap1\n      pop\n        /* \"#utility.yul\":25725:25929   */\n      swap3\n      swap2\n      pop\n      pop\n      jump\t// out\n        /* \"#utility.yul\":25947:26367   */\n    tag_401:\n        /* \"#utility.yul\":26033:26036   */\n      0x00\n        /* \"#utility.yul\":26073:26111   */\n      tag_635\n        /* \"#utility.yul\":26105:26110   */\n      dup3\n        /* \"#utility.yul\":26073:26111   */\n      tag_399\n      jump\t// in\n    tag_635:\n        /* \"#utility.yul\":26139:26209   */\n      tag_636\n        /* \"#utility.yul\":26202:26208   */\n      dup2\n        /* \"#utility.yul\":26197:26200   */\n      dup6\n        /* \"#utility.yul\":26139:26209   */\n      tag_400\n      jump\t// in\n    tag_636:\n        /* \"#utility.yul\":26132:26209   */\n      swap4\n      pop\n        /* \"#utility.yul\":26230:26282   */\n      tag_637\n        /* \"#utility.yul\":26275:26281   */\n      dup2\n        /* \"#utility.yul\":26270:26273   */\n      dup6\n        /* \"#utility.yul\":26263:26267   */\n      0x20\n        /* \"#utility.yul\":26256:26261   */\n      dup7\n        /* \"#utility.yul\":26252:26268   */\n      add\n        /* \"#utility.yul\":26230:26282   */\n      tag_357\n      jump\t// in\n    tag_637:\n        /* \"#utility.yul\":26319:26348   */\n      tag_638\n        /* \"#utility.yul\":26341:26347   */\n      dup2\n        /* \"#utility.yul\":26319:26348   */\n      tag_345\n      jump\t// in\n    tag_638:\n        /* \"#utility.yul\":26314:26317   */\n      dup5\n        /* \"#utility.yul\":26310:26349   */\n      add\n        /* \"#utility.yul\":26303:26349   */\n      swap2\n      pop\n        /* \"#utility.yul\":26037:26367   */\n      pop\n        /* \"#utility.yul\":25947:26367   */\n      swap3\n      swap2\n      pop\n      pop\n      jump\t// out\n        /* \"#utility.yul\":26385:27597   */\n    tag_202:\n        /* \"#utility.yul\":26690:26694   */\n      0x00\n        /* \"#utility.yul\":26740:26743   */\n      0x0100\n        /* \"#utility.yul\":26729:26738   */\n      dup3\n        /* \"#utility.yul\":26725:26744   */\n      add\n        /* \"#utility.yul\":26717:26744   */\n      swap1\n      pop\n        /* \"#utility.yul\":26766:26837   */\n      tag_640\n        /* \"#utility.yul\":26834:26835   */\n      0x00\n        /* \"#utility.yul\":26823:26832   */\n      dup4\n        /* \"#utility.yul\":26819:26836   */\n      add\n        /* \"#utility.yul\":26810:26816   */\n      dup12\n        /* \"#utility.yul\":26766:26837   */\n      tag_365\n      jump\t// in\n    tag_640:\n        /* \"#utility.yul\":26859:26931   */\n      tag_641\n        /* \"#utility.yul\":26927:26929   */\n      0x20\n        /* \"#utility.yul\":26916:26925   */\n      dup4\n        /* \"#utility.yul\":26912:26930   */\n      add\n        /* \"#utility.yul\":26903:26909   */\n      dup11\n        /* \"#utility.yul\":26859:26931   */\n      tag_339\n      jump\t// in\n    tag_641:\n        /* \"#utility.yul\":26953:27025   */\n      tag_642\n        /* \"#utility.yul\":27021:27023   */\n      0x40\n        /* \"#utility.yul\":27010:27019   */\n      dup4\n        /* \"#utility.yul\":27006:27024   */\n      add\n        /* \"#utility.yul\":26997:27003   */\n      dup10\n        /* \"#utility.yul\":26953:27025   */\n      tag_354\n      jump\t// in\n    tag_642:\n        /* \"#utility.yul\":27047:27119   */\n      tag_643\n        /* \"#utility.yul\":27115:27117   */\n      0x60\n        /* \"#utility.yul\":27104:27113   */\n      dup4\n        /* \"#utility.yul\":27100:27118   */\n      add\n        /* \"#utility.yul\":27091:27097   */\n      dup9\n        /* \"#utility.yul\":27047:27119   */\n      tag_365\n      jump\t// in\n    tag_643:\n        /* \"#utility.yul\":27141:27212   */\n      tag_644\n        /* \"#utility.yul\":27207:27210   */\n      0x80\n        /* \"#utility.yul\":27196:27205   */\n      dup4\n        /* \"#utility.yul\":27192:27211   */\n      add\n        /* \"#utility.yul\":27183:27189   */\n      dup8\n        /* \"#utility.yul\":27141:27212   */\n      tag_398\n      jump\t// in\n    tag_644:\n        /* \"#utility.yul\":27234:27307   */\n      tag_645\n        /* \"#utility.yul\":27302:27305   */\n      0xa0\n        /* \"#utility.yul\":27291:27300   */\n      dup4\n        /* \"#utility.yul\":27287:27306   */\n      add\n        /* \"#utility.yul\":27278:27284   */\n      dup7\n        /* \"#utility.yul\":27234:27307   */\n      tag_339\n      jump\t// in\n    tag_645:\n        /* \"#utility.yul\":27329:27402   */\n      tag_646\n        /* \"#utility.yul\":27397:27400   */\n      0xc0\n        /* \"#utility.yul\":27386:27395   */\n      dup4\n        /* \"#utility.yul\":27382:27401   */\n      add\n        /* \"#utility.yul\":27373:27379   */\n      dup6\n        /* \"#utility.yul\":27329:27402   */\n      tag_339\n      jump\t// in\n    tag_646:\n        /* \"#utility.yul\":27462:27471   */\n      dup2\n        /* \"#utility.yul\":27456:27460   */\n      dup2\n        /* \"#utility.yul\":27452:27472   */\n      sub\n        /* \"#utility.yul\":27446:27449   */\n      0xe0\n        /* \"#utility.yul\":27435:27444   */\n      dup4\n        /* \"#utility.yul\":27431:27450   */\n      add\n        /* \"#utility.yul\":27424:27473   */\n      mstore\n        /* \"#utility.yul\":27502:27578   */\n      tag_647\n        /* \"#utility.yul\":27573:27577   */\n      dup2\n        /* \"#utility.yul\":27564:27570   */\n      dup5\n        /* \"#utility.yul\":27502:27578   */\n      tag_401\n      jump\t// in\n    tag_647:\n        /* \"#utility.yul\":27494:27578   */\n      swap1\n      pop\n        /* \"#utility.yul\":26385:27597   */\n      swap10\n      swap9\n      pop\n      pop\n      pop\n      pop\n      pop\n      pop\n      pop\n      pop\n      pop\n      jump\t// out\n        /* \"#utility.yul\":27615:27715   */\n    tag_402:\n        /* \"#utility.yul\":27651:27658   */\n      0x00\n        /* \"#utility.yul\":27692:27697   */\n      dup2\n        /* \"#utility.yul\":27681:27697   */\n      swap1\n      pop\n        /* \"#utility.yul\":27615:27715   */\n      swap2\n      swap1\n      pop\n      jump\t// out\n        /* \"#utility.yul\":27733:28356   */\n    tag_219:\n        /* \"#utility.yul\":27772:27776   */\n      0x00\n        /* \"#utility.yul\":27804:27823   */\n      tag_650\n        /* \"#utility.yul\":27821:27822   */\n      dup3\n        /* \"#utility.yul\":27804:27823   */\n      tag_402\n      jump\t// in\n    tag_650:\n        /* \"#utility.yul\":27799:27823   */\n      swap2\n      pop\n        /* \"#utility.yul\":27849:27868   */\n      tag_651\n        /* \"#utility.yul\":27866:27867   */\n      dup4\n        /* \"#utility.yul\":27849:27868   */\n      tag_402\n      jump\t// in\n    tag_651:\n        /* \"#utility.yul\":27844:27868   */\n      swap3\n      pop\n        /* \"#utility.yul\":28062:28063   */\n      dup3\n        /* \"#utility.yul\":27994:28060   */\n      0x8000000000000000000000000000000000000000000000000000000000000000\n        /* \"#utility.yul\":27990:28064   */\n      add\n        /* \"#utility.yul\":27987:27988   */\n      dup3\n        /* \"#utility.yul\":27983:28065   */\n      slt\n        /* \"#utility.yul\":27978:27979   */\n      0x00\n        /* \"#utility.yul\":27975:27976   */\n      dup5\n        /* \"#utility.yul\":27971:27980   */\n      slt\n        /* \"#utility.yul\":27964:27981   */\n      iszero\n        /* \"#utility.yul\":27960:28066   */\n      and\n        /* \"#utility.yul\":27957:28089   */\n      iszero\n      tag_652\n      jumpi\n        /* \"#utility.yul\":28069:28087   */\n      tag_653\n      tag_388\n      jump\t// in\n    tag_653:\n        /* \"#utility.yul\":27957:28089   */\n    tag_652:\n        /* \"#utility.yul\":28272:28273   */\n      dup3\n        /* \"#utility.yul\":28204:28270   */\n      0x7fffffffffffffffffffffffffffffffffffffffffffffffffffffffffffffff\n        /* \"#utility.yul\":28200:28274   */\n      add\n        /* \"#utility.yul\":28197:28198   */\n      dup3\n        /* \"#utility.yul\":28193:28275   */\n      sgt\n        /* \"#utility.yul\":28189:28190   */\n      0x00\n        /* \"#utility.yul\":28186:28187   */\n      dup5\n        /* \"#utility.yul\":28182:28191   */\n      slt\n        /* \"#utility.yul\":28178:28276   */\n      and\n        /* \"#utility.yul\":28175:28299   */\n      iszero\n      tag_654\n      jumpi\n        /* \"#utility.yul\":28279:28297   */\n      tag_655\n      tag_388\n      jump\t// in\n    tag_655:\n        /* \"#utility.yul\":28175:28299   */\n    tag_654:\n        /* \"#utility.yul\":28336:28337   */\n      dup3\n        /* \"#utility.yul\":28333:28334   */\n      dup3\n        /* \"#utility.yul\":28329:28338   */\n      sub\n        /* \"#utility.yul\":28321:28338   */\n      swap1\n      pop\n        /* \"#utility.yul\":27733:28356   */\n      swap3\n      swap2\n      pop\n      pop\n      jump\t// out\n        /* \"#utility.yul\":28374:28602   */\n    tag_403:\n        /* \"#utility.yul\":28434:28511   */\n      0x4e487b7100000000000000000000000000000000000000000000000000000000\n        /* \"#utility.yul\":28431:28432   */\n      0x00\n        /* \"#utility.yul\":28424:28512   */\n      mstore\n        /* \"#utility.yul\":28543:28547   */\n      0x12\n        /* \"#utility.yul\":28540:28541   */\n      0x04\n        /* \"#utility.yul\":28533:28548   */\n      mstore\n        /* \"#utility.yul\":28579:28583   */\n      0x24\n        /* \"#utility.yul\":28576:28577   */\n      0x00\n        /* \"#utility.yul\":28569:28584   */\n      revert\n        /* \"#utility.yul\":28620:28856   */\n    tag_224:\n        /* \"#utility.yul\":28652:28653   */\n      0x00\n        /* \"#utility.yul\":28681:28701   */\n      tag_658\n        /* \"#utility.yul\":28699:28700   */\n      dup3\n        /* \"#utility.yul\":28681:28701   */\n      tag_338\n      jump\t// in\n    tag_658:\n        /* \"#utility.yul\":28676:28701   */\n      swap2\n      pop\n        /* \"#utility.yul\":28727:28747   */\n      tag_659\n        /* \"#utility.yul\":28745:28746   */\n      dup4\n        /* \"#utility.yul\":28727:28747   */\n      tag_338\n      jump\t// in\n    tag_659:\n        /* \"#utility.yul\":28722:28747   */\n      swap3\n      pop\n        /* \"#utility.yul\":28778:28779   */\n      dup3\n        /* \"#utility.yul\":28768:28803   */\n      tag_660\n      jumpi\n        /* \"#utility.yul\":28783:28801   */\n      tag_661\n      tag_403\n      jump\t// in\n    tag_661:\n        /* \"#utility.yul\":28768:28803   */\n    tag_660:\n        /* \"#utility.yul\":28836:28837   */\n      dup3\n        /* \"#utility.yul\":28833:28834   */\n      dup3\n        /* \"#utility.yul\":28829:28838   */\n      mod\n        /* \"#utility.yul\":28824:28838   */\n      swap1\n      pop\n        /* \"#utility.yul\":28620:28856   */\n      swap3\n      swap2\n      pop\n      pop\n      jump\t// out\n        /* \"#utility.yul\":28874:29125   */\n    tag_228:\n        /* \"#utility.yul\":28914:28918   */\n      0x00\n        /* \"#utility.yul\":28946:28966   */\n      tag_663\n        /* \"#utility.yul\":28964:28965   */\n      dup3\n        /* \"#utility.yul\":28946:28966   */\n      tag_338\n      jump\t// in\n    tag_663:\n        /* \"#utility.yul\":28941:28966   */\n      swap2\n      pop\n        /* \"#utility.yul\":28992:29012   */\n      tag_664\n        /* \"#utility.yul\":29010:29011   */\n      dup4\n        /* \"#utility.yul\":28992:29012   */\n      tag_338\n      jump\t// in\n    tag_664:\n        /* \"#utility.yul\":28987:29012   */\n      swap3\n      pop\n        /* \"#utility.yul\":29043:29044   */\n      dup3\n        /* \"#utility.yul\":29040:29041   */\n      dup3\n        /* \"#utility.yul\":29037:29045   */\n      lt\n        /* \"#utility.yul\":29034:29068   */\n      iszero\n      tag_665\n      jumpi\n        /* \"#utility.yul\":29048:29066   */\n      tag_666\n      tag_388\n      jump\t// in\n    tag_666:\n        /* \"#utility.yul\":29034:29068   */\n    tag_665:\n        /* \"#utility.yul\":29105:29106   */\n      dup3\n        /* \"#utility.yul\":29102:29103   */\n      dup3\n        /* \"#utility.yul\":29098:29107   */\n      sub\n        /* \"#utility.yul\":29090:29107   */\n      swap1\n      pop\n        /* \"#utility.yul\":28874:29125   */\n      swap3\n      swap2\n      pop\n      pop\n      jump\t// out\n        /* \"#utility.yul\":29143:29227   */\n    tag_404:\n        /* \"#utility.yul\":29171:29174   */\n      0x00\n        /* \"#utility.yul\":29204:29209   */\n      dup2\n        /* \"#utility.yul\":29197:29209   */\n      swap1\n      pop\n        /* \"#utility.yul\":29143:29227   */\n      swap2\n      swap1\n      pop\n      jump\t// out\n        /* \"#utility.yul\":29245:29411   */\n    tag_405:\n        /* \"#utility.yul\":29295:29304   */\n      0x00\n        /* \"#utility.yul\":29340:29393   */\n      tag_669\n        /* \"#utility.yul\":29358:29392   */\n      tag_670\n        /* \"#utility.yul\":29367:29391   */\n      tag_671\n        /* \"#utility.yul\":29385:29390   */\n      dup5\n        /* \"#utility.yul\":29367:29391   */\n      tag_363\n      jump\t// in\n    tag_671:\n        /* \"#utility.yul\":29358:29392   */\n      tag_404\n      jump\t// in\n    tag_670:\n        /* \"#utility.yul\":29340:29393   */\n      tag_363\n      jump\t// in\n    tag_669:\n        /* \"#utility.yul\":29327:29393   */\n      swap1\n      pop\n        /* \"#utility.yul\":29245:29411   */\n      swap2\n      swap1\n      pop\n      jump\t// out\n        /* \"#utility.yul\":29429:29579   */\n    tag_406:\n        /* \"#utility.yul\":29479:29488   */\n      0x00\n        /* \"#utility.yul\":29524:29561   */\n      tag_673\n        /* \"#utility.yul\":29555:29560   */\n      dup3\n        /* \"#utility.yul\":29524:29561   */\n      tag_405\n      jump\t// in\n    tag_673:\n        /* \"#utility.yul\":29511:29561   */\n      swap1\n      pop\n        /* \"#utility.yul\":29429:29579   */\n      swap2\n      swap1\n      pop\n      jump\t// out\n        /* \"#utility.yul\":29597:29771   */\n    tag_407:\n        /* \"#utility.yul\":29671:29680   */\n      0x00\n        /* \"#utility.yul\":29716:29753   */\n      tag_675\n        /* \"#utility.yul\":29747:29752   */\n      dup3\n        /* \"#utility.yul\":29716:29753   */\n      tag_406\n      jump\t// in\n    tag_675:\n        /* \"#utility.yul\":29703:29753   */\n      swap1\n      pop\n        /* \"#utility.yul\":29597:29771   */\n      swap2\n      swap1\n      pop\n      jump\t// out\n        /* \"#utility.yul\":29789:29919   */\n    tag_408:\n        /* \"#utility.yul\":29822:29830   */\n      0x00\n        /* \"#utility.yul\":29894:29899   */\n      dup2\n        /* \"#utility.yul\":29890:29892   */\n      0x60\n        /* \"#utility.yul\":29886:29900   */\n      shl\n        /* \"#utility.yul\":29853:29900   */\n      swap1\n      pop\n        /* \"#utility.yul\":29789:29919   */\n      swap2\n      swap1\n      pop\n      jump\t// out\n        /* \"#utility.yul\":29937:30055   */\n    tag_409:\n        /* \"#utility.yul\":29976:29983   */\n      0x00\n        /* \"#utility.yul\":30017:30037   */\n      tag_678\n        /* \"#utility.yul\":30031:30036   */\n      dup3\n        /* \"#utility.yul\":30017:30037   */\n      tag_408\n      jump\t// in\n    tag_678:\n        /* \"#utility.yul\":30006:30037   */\n      swap1\n      pop\n        /* \"#utility.yul\":29937:30055   */\n      swap2\n      swap1\n      pop\n      jump\t// out\n        /* \"#utility.yul\":30073:30197   */\n    tag_410:\n        /* \"#utility.yul\":30112:30119   */\n      0x00\n        /* \"#utility.yul\":30153:30179   */\n      tag_680\n        /* \"#utility.yul\":30173:30178   */\n      dup3\n        /* \"#utility.yul\":30153:30179   */\n      tag_409\n      jump\t// in\n    tag_680:\n        /* \"#utility.yul\":30142:30179   */\n      swap1\n      pop\n        /* \"#utility.yul\":30073:30197   */\n      swap2\n      swap1\n      pop\n      jump\t// out\n        /* \"#utility.yul\":30215:30457   */\n    tag_411:\n        /* \"#utility.yul\":30356:30438   */\n      tag_682\n        /* \"#utility.yul\":30376:30437   */\n      tag_683\n        /* \"#utility.yul\":30431:30436   */\n      dup3\n        /* \"#utility.yul\":30376:30437   */\n      tag_407\n      jump\t// in\n    tag_683:\n        /* \"#utility.yul\":30356:30438   */\n      tag_410\n      jump\t// in\n    tag_682:\n        /* \"#utility.yul\":30351:30354   */\n      dup3\n        /* \"#utility.yul\":30344:30439   */\n      mstore\n        /* \"#utility.yul\":30215:30457   */\n      pop\n      pop\n      jump\t// out\n        /* \"#utility.yul\":30475:30578   */\n    tag_412:\n        /* \"#utility.yul\":30514:30521   */\n      0x00\n        /* \"#utility.yul\":30555:30560   */\n      dup2\n        /* \"#utility.yul\":30544:30560   */\n      swap1\n      pop\n        /* \"#utility.yul\":30475:30578   */\n      swap2\n      swap1\n      pop\n      jump\t// out\n        /* \"#utility.yul\":30596:30777   */\n    tag_413:\n        /* \"#utility.yul\":30713:30758   */\n      tag_686\n        /* \"#utility.yul\":30733:30757   */\n      tag_687\n        /* \"#utility.yul\":30751:30756   */\n      dup3\n        /* \"#utility.yul\":30733:30757   */\n      tag_338\n      jump\t// in\n    tag_687:\n        /* \"#utility.yul\":30713:30758   */\n      tag_412\n      jump\t// in\n    tag_686:\n        /* \"#utility.yul\":30708:30711   */\n      dup3\n        /* \"#utility.yul\":30701:30759   */\n      mstore\n        /* \"#utility.yul\":30596:30777   */\n      pop\n      pop\n      jump\t// out\n        /* \"#utility.yul\":30795:31312   */\n    tag_256:\n        /* \"#utility.yul\":30959:30962   */\n      0x00\n        /* \"#utility.yul\":30986:31085   */\n      tag_689\n        /* \"#utility.yul\":31081:31084   */\n      dup3\n        /* \"#utility.yul\":31072:31078   */\n      dup6\n        /* \"#utility.yul\":30986:31085   */\n      tag_411\n      jump\t// in\n    tag_689:\n        /* \"#utility.yul\":31122:31124   */\n      0x14\n        /* \"#utility.yul\":31117:31120   */\n      dup3\n        /* \"#utility.yul\":31113:31125   */\n      add\n        /* \"#utility.yul\":31106:31125   */\n      swap2\n      pop\n        /* \"#utility.yul\":31147:31222   */\n      tag_690\n        /* \"#utility.yul\":31218:31221   */\n      dup3\n        /* \"#utility.yul\":31209:31215   */\n      dup5\n        /* \"#utility.yul\":31147:31222   */\n      tag_413\n      jump\t// in\n    tag_690:\n        /* \"#utility.yul\":31259:31261   */\n      0x20\n        /* \"#utility.yul\":31254:31257   */\n      dup3\n        /* \"#utility.yul\":31250:31262   */\n      add\n        /* \"#utility.yul\":31243:31262   */\n      swap2\n      pop\n        /* \"#utility.yul\":31291:31294   */\n      dup2\n        /* \"#utility.yul\":31284:31294   */\n      swap1\n      pop\n        /* \"#utility.yul\":30795:31312   */\n      swap4\n      swap3\n      pop\n      pop\n      pop\n      jump\t// out\n        /* \"#utility.yul\":31330:31931   */\n    tag_258:\n        /* \"#utility.yul\":31497:31501   */\n      0x00\n        /* \"#utility.yul\":31547:31549   */\n      0x60\n        /* \"#utility.yul\":31536:31545   */\n      dup3\n        /* \"#utility.yul\":31532:31550   */\n      add\n        /* \"#utility.yul\":31524:31550   */\n      swap1\n      pop\n        /* \"#utility.yul\":31572:31643   */\n      tag_692\n        /* \"#utility.yul\":31640:31641   */\n      0x00\n        /* \"#utility.yul\":31629:31638   */\n      dup4\n        /* \"#utility.yul\":31625:31642   */\n      add\n        /* \"#utility.yul\":31616:31622   */\n      dup7\n        /* \"#utility.yul\":31572:31643   */\n      tag_365\n      jump\t// in\n    tag_692:\n        /* \"#utility.yul\":31665:31737   */\n      tag_693\n        /* \"#utility.yul\":31733:31735   */\n      0x20\n        /* \"#utility.yul\":31722:31731   */\n      dup4\n        /* \"#utility.yul\":31718:31736   */\n      add\n        /* \"#utility.yul\":31709:31715   */\n      dup6\n        /* \"#utility.yul\":31665:31737   */\n      tag_339\n      jump\t// in\n    tag_693:\n        /* \"#utility.yul\":31796:31805   */\n      dup2\n        /* \"#utility.yul\":31790:31794   */\n      dup2\n        /* \"#utility.yul\":31786:31806   */\n      sub\n        /* \"#utility.yul\":31781:31783   */\n      0x40\n        /* \"#utility.yul\":31770:31779   */\n      dup4\n        /* \"#utility.yul\":31766:31784   */\n      add\n        /* \"#utility.yul\":31759:31807   */\n      mstore\n        /* \"#utility.yul\":31836:31912   */\n      tag_694\n        /* \"#utility.yul\":31907:31911   */\n      dup2\n        /* \"#utility.yul\":31898:31904   */\n      dup5\n        /* \"#utility.yul\":31836:31912   */\n      tag_401\n      jump\t// in\n    tag_694:\n        /* \"#utility.yul\":31828:31912   */\n      swap1\n      pop\n        /* \"#utility.yul\":31330:31931   */\n      swap5\n      swap4\n      pop\n      pop\n      pop\n      pop\n      jump\t// out\n        /* \"#utility.yul\":31949:32089   */\n    tag_414:\n        /* \"#utility.yul\":32031:32052   */\n      tag_696\n        /* \"#utility.yul\":32046:32051   */\n      dup2\n        /* \"#utility.yul\":32031:32052   */\n      tag_391\n      jump\t// in\n    tag_696:\n        /* \"#utility.yul\":32024:32029   */\n      dup2\n        /* \"#utility.yul\":32021:32053   */\n      eq\n        /* \"#utility.yul\":32011:32071   */\n      tag_697\n      jumpi\n        /* \"#utility.yul\":32067:32068   */\n      0x00\n        /* \"#utility.yul\":32064:32065   */\n      dup1\n        /* \"#utility.yul\":32057:32069   */\n      revert\n        /* \"#utility.yul\":32011:32071   */\n    tag_697:\n        /* \"#utility.yul\":31949:32089   */\n      pop\n      jump\t// out\n        /* \"#utility.yul\":32107:32280   */\n    tag_415:\n        /* \"#utility.yul\":32161:32166   */\n      0x00\n        /* \"#utility.yul\":32204:32210   */\n      dup2\n        /* \"#utility.yul\":32198:32211   */\n      mload\n        /* \"#utility.yul\":32189:32211   */\n      swap1\n      pop\n        /* \"#utility.yul\":32232:32262   */\n      tag_699\n        /* \"#utility.yul\":32256:32261   */\n      dup2\n        /* \"#utility.yul\":32232:32262   */\n      tag_414\n      jump\t// in\n    tag_699:\n        /* \"#utility.yul\":32107:32280   */\n      swap3\n      swap2\n      pop\n      pop\n      jump\t// out\n        /* \"#utility.yul\":32298:32715   */\n    tag_262:\n        /* \"#utility.yul\":32365:32371   */\n      0x00\n        /* \"#utility.yul\":32426:32428   */\n      0x20\n        /* \"#utility.yul\":32414:32423   */\n      dup3\n        /* \"#utility.yul\":32405:32412   */\n      dup5\n        /* \"#utility.yul\":32401:32424   */\n      sub\n        /* \"#utility.yul\":32397:32429   */\n      slt\n        /* \"#utility.yul\":32394:32513   */\n      iszero\n      tag_701\n      jumpi\n        /* \"#utility.yul\":32432:32511   */\n      tag_702\n      tag_341\n      jump\t// in\n    tag_702:\n        /* \"#utility.yul\":32394:32513   */\n    tag_701:\n        /* \"#utility.yul\":32576:32577   */\n      0x00\n        /* \"#utility.yul\":32613:32674   */\n      tag_703\n        /* \"#utility.yul\":32666:32673   */\n      dup5\n        /* \"#utility.yul\":32657:32663   */\n      dup3\n        /* \"#utility.yul\":32646:32655   */\n      dup6\n        /* \"#utility.yul\":32642:32664   */\n      add\n        /* \"#utility.yul\":32613:32674   */\n      tag_415\n      jump\t// in\n    tag_703:\n        /* \"#utility.yul\":32603:32674   */\n      swap2\n      pop\n        /* \"#utility.yul\":32535:32696   */\n      pop\n        /* \"#utility.yul\":32298:32715   */\n      swap3\n      swap2\n      pop\n      pop\n      jump\t// out\n        /* \"#utility.yul\":32733:32991   */\n    tag_416:\n        /* \"#utility.yul\":32885:32919   */\n      0x756e61626c6520746f207472616e73666572416e6443616c6c20746f206f7261\n        /* \"#utility.yul\":32881:32882   */\n      0x00\n        /* \"#utility.yul\":32873:32879   */\n      dup3\n        /* \"#utility.yul\":32869:32883   */\n      add\n        /* \"#utility.yul\":32862:32920   */\n      mstore\n        /* \"#utility.yul\":32966:32971   */\n      0x636c650000000000000000000000000000000000000000000000000000000000\n        /* \"#utility.yul\":32961:32963   */\n      0x20\n        /* \"#utility.yul\":32953:32959   */\n      dup3\n        /* \"#utility.yul\":32949:32964   */\n      add\n        /* \"#utility.yul\":32942:32972   */\n      mstore\n        /* \"#utility.yul\":32733:32991   */\n      pop\n      jump\t// out\n        /* \"#utility.yul\":33009:33423   */\n    tag_417:\n        /* \"#utility.yul\":33151:33154   */\n      0x00\n        /* \"#utility.yul\":33184:33251   */\n      tag_706\n        /* \"#utility.yul\":33248:33250   */\n      0x23\n        /* \"#utility.yul\":33243:33246   */\n      dup4\n        /* \"#utility.yul\":33184:33251   */\n      tag_356\n      jump\t// in\n    tag_706:\n        /* \"#utility.yul\":33177:33251   */\n      swap2\n      pop\n        /* \"#utility.yul\":33272:33365   */\n      tag_707\n        /* \"#utility.yul\":33361:33364   */\n      dup3\n        /* \"#utility.yul\":33272:33365   */\n      tag_416\n      jump\t// in\n    tag_707:\n        /* \"#utility.yul\":33402:33404   */\n      0x40\n        /* \"#utility.yul\":33397:33400   */\n      dup3\n        /* \"#utility.yul\":33393:33405   */\n      add\n        /* \"#utility.yul\":33386:33405   */\n      swap1\n      pop\n        /* \"#utility.yul\":33009:33423   */\n      swap2\n      swap1\n      pop\n      jump\t// out\n        /* \"#utility.yul\":33441:33908   */\n    tag_265:\n        /* \"#utility.yul\":33607:33611   */\n      0x00\n        /* \"#utility.yul\":33657:33659   */\n      0x20\n        /* \"#utility.yul\":33646:33655   */\n      dup3\n        /* \"#utility.yul\":33642:33660   */\n      add\n        /* \"#utility.yul\":33634:33660   */\n      swap1\n      pop\n        /* \"#utility.yul\":33718:33727   */\n      dup2\n        /* \"#utility.yul\":33712:33716   */\n      dup2\n        /* \"#utility.yul\":33708:33728   */\n      sub\n        /* \"#utility.yul\":33704:33705   */\n      0x00\n        /* \"#utility.yul\":33693:33702   */\n      dup4\n        /* \"#utility.yul\":33689:33706   */\n      add\n        /* \"#utility.yul\":33682:33729   */\n      mstore\n        /* \"#utility.yul\":33758:33889   */\n      tag_709\n        /* \"#utility.yul\":33884:33888   */\n      dup2\n        /* \"#utility.yul\":33758:33889   */\n      tag_417\n      jump\t// in\n    tag_709:\n        /* \"#utility.yul\":33750:33889   */\n      swap1\n      pop\n        /* \"#utility.yul\":33441:33908   */\n      swap2\n      swap1\n      pop\n      jump\t// out\n        /* \"#utility.yul\":33926:34064   */\n    tag_418:\n        /* \"#utility.yul\":33968:33976   */\n      0x00\n        /* \"#utility.yul\":34039:34044   */\n      dup2\n        /* \"#utility.yul\":34036:34037   */\n      0x01\n        /* \"#utility.yul\":34032:34045   */\n      shr\n        /* \"#utility.yul\":33999:34045   */\n      swap1\n      pop\n        /* \"#utility.yul\":33926:34064   */\n      swap2\n      swap1\n      pop\n      jump\t// out\n        /* \"#utility.yul\":34082:35158   */\n    tag_419:\n        /* \"#utility.yul\":34143:34148   */\n      0x00\n        /* \"#utility.yul\":34150:34154   */\n      dup1\n        /* \"#utility.yul\":34186:34192   */\n      dup3\n        /* \"#utility.yul\":34177:34192   */\n      swap2\n      pop\n        /* \"#utility.yul\":34222:34227   */\n      dup4\n        /* \"#utility.yul\":34213:34227   */\n      swap1\n      pop\n        /* \"#utility.yul\":34248:35140   */\n    tag_712:\n        /* \"#utility.yul\":34269:34270   */\n      0x01\n        /* \"#utility.yul\":34259:34267   */\n      dup6\n        /* \"#utility.yul\":34256:34271   */\n      gt\n        /* \"#utility.yul\":34248:35140   */\n      iszero\n      tag_714\n      jumpi\n        /* \"#utility.yul\":34400:34404   */\n      dup1\n        /* \"#utility.yul\":34395:34398   */\n      dup7\n        /* \"#utility.yul\":34391:34405   */\n      div\n        /* \"#utility.yul\":34385:34389   */\n      dup2\n        /* \"#utility.yul\":34382:34406   */\n      gt\n        /* \"#utility.yul\":34379:34429   */\n      iszero\n      tag_715\n      jumpi\n        /* \"#utility.yul\":34409:34427   */\n      tag_716\n      tag_388\n      jump\t// in\n    tag_716:\n        /* \"#utility.yul\":34379:34429   */\n    tag_715:\n        /* \"#utility.yul\":34471:34472   */\n      0x01\n        /* \"#utility.yul\":34461:34469   */\n      dup6\n        /* \"#utility.yul\":34457:34473   */\n      and\n        /* \"#utility.yul\":34454:35001   */\n      iszero\n      tag_717\n      jumpi\n        /* \"#utility.yul\":34970:34974   */\n      dup1\n        /* \"#utility.yul\":34963:34968   */\n      dup3\n        /* \"#utility.yul\":34959:34975   */\n      mul\n        /* \"#utility.yul\":34950:34975   */\n      swap2\n      pop\n        /* \"#utility.yul\":34454:35001   */\n    tag_717:\n        /* \"#utility.yul\":35044:35048   */\n      dup1\n        /* \"#utility.yul\":35038:35042   */\n      dup2\n        /* \"#utility.yul\":35034:35049   */\n      mul\n        /* \"#utility.yul\":35026:35049   */\n      swap1\n      pop\n        /* \"#utility.yul\":35086:35118   */\n      tag_718\n        /* \"#utility.yul\":35109:35117   */\n      dup6\n        /* \"#utility.yul\":35086:35118   */\n      tag_418\n      jump\t// in\n    tag_718:\n        /* \"#utility.yul\":35074:35118   */\n      swap5\n      pop\n        /* \"#utility.yul\":34248:35140   */\n      jump(tag_712)\n    tag_714:\n        /* \"#utility.yul\":34082:35158   */\n      swap5\n      pop\n      swap5\n      swap3\n      pop\n      pop\n      pop\n      jump\t// out\n        /* \"#utility.yul\":35176:36597   */\n    tag_420:\n        /* \"#utility.yul\":35230:35235   */\n      0x00\n        /* \"#utility.yul\":35469:35477   */\n      dup3\n        /* \"#utility.yul\":35459:35499   */\n      tag_720\n      jumpi\n        /* \"#utility.yul\":35490:35491   */\n      0x01\n        /* \"#utility.yul\":35481:35491   */\n      swap1\n      pop\n        /* \"#utility.yul\":35492:35497   */\n      jump(tag_719)\n        /* \"#utility.yul\":35459:35499   */\n    tag_720:\n        /* \"#utility.yul\":35530:35534   */\n      dup2\n        /* \"#utility.yul\":35520:35556   */\n      tag_721\n      jumpi\n        /* \"#utility.yul\":35547:35548   */\n      0x00\n        /* \"#utility.yul\":35538:35548   */\n      swap1\n      pop\n        /* \"#utility.yul\":35549:35554   */\n      jump(tag_719)\n        /* \"#utility.yul\":35520:35556   */\n    tag_721:\n        /* \"#utility.yul\":35640:35644   */\n      dup2\n        /* \"#utility.yul\":35712:35713   */\n      0x01\n        /* \"#utility.yul\":35707:35734   */\n      dup2\n      eq\n      tag_723\n      jumpi\n        /* \"#utility.yul\":35760:35761   */\n      0x02\n        /* \"#utility.yul\":35755:36018   */\n      dup2\n      eq\n      tag_724\n      jumpi\n        /* \"#utility.yul\":35633:36018   */\n      jump(tag_722)\n        /* \"#utility.yul\":35707:35734   */\n    tag_723:\n        /* \"#utility.yul\":35725:35726   */\n      0x01\n        /* \"#utility.yul\":35716:35726   */\n      swap2\n      pop\n        /* \"#utility.yul\":35727:35732   */\n      pop\n      jump(tag_719)\n        /* \"#utility.yul\":35755:36018   */\n    tag_724:\n        /* \"#utility.yul\":35824:35827   */\n      0xff\n        /* \"#utility.yul\":35814:35822   */\n      dup5\n        /* \"#utility.yul\":35811:35828   */\n      gt\n        /* \"#utility.yul\":35808:35851   */\n      iszero\n      tag_725\n      jumpi\n        /* \"#utility.yul\":35831:35849   */\n      tag_726\n      tag_388\n      jump\t// in\n    tag_726:\n        /* \"#utility.yul\":35808:35851   */\n    tag_725:\n        /* \"#utility.yul\":35892:35900   */\n      dup4\n        /* \"#utility.yul\":35889:35890   */\n      0x02\n        /* \"#utility.yul\":35885:35901   */\n      exp\n        /* \"#utility.yul\":35876:35901   */\n      swap2\n      pop\n        /* \"#utility.yul\":35939:35942   */\n      dup5\n        /* \"#utility.yul\":35932:35937   */\n      dup3\n        /* \"#utility.yul\":35929:35943   */\n      gt\n        /* \"#utility.yul\":35926:35966   */\n      iszero\n      tag_727\n      jumpi\n        /* \"#utility.yul\":35946:35964   */\n      tag_728\n      tag_388\n      jump\t// in\n    tag_728:\n        /* \"#utility.yul\":35926:35966   */\n    tag_727:\n        /* \"#utility.yul\":35991:35996   */\n      pop\n      jump(tag_719)\n        /* \"#utility.yul\":35633:36018   */\n    tag_722:\n      pop\n        /* \"#utility.yul\":36163:36165   */\n      0x20\n        /* \"#utility.yul\":36153:36161   */\n      dup4\n        /* \"#utility.yul\":36150:36166   */\n      lt\n        /* \"#utility.yul\":36144:36147   */\n      0x0133\n        /* \"#utility.yul\":36138:36142   */\n      dup4\n        /* \"#utility.yul\":36135:36148   */\n      lt\n        /* \"#utility.yul\":36131:36167   */\n      and\n        /* \"#utility.yul\":36101:36103   */\n      0x4e\n        /* \"#utility.yul\":36091:36099   */\n      dup5\n        /* \"#utility.yul\":36088:36104   */\n      lt\n        /* \"#utility.yul\":36083:36085   */\n      0x0b\n        /* \"#utility.yul\":36077:36081   */\n      dup5\n        /* \"#utility.yul\":36074:36086   */\n      lt\n        /* \"#utility.yul\":36070:36105   */\n      and\n        /* \"#utility.yul\":36042:36189   */\n      or\n        /* \"#utility.yul\":36039:36381   */\n      iszero\n      tag_729\n      jumpi\n        /* \"#utility.yul\":36255:36263   */\n      dup3\n        /* \"#utility.yul\":36249:36253   */\n      dup3\n        /* \"#utility.yul\":36245:36264   */\n      exp\n        /* \"#utility.yul\":36236:36264   */\n      swap1\n      pop\n        /* \"#utility.yul\":36302:36305   */\n      dup4\n        /* \"#utility.yul\":36295:36300   */\n      dup2\n        /* \"#utility.yul\":36292:36306   */\n      gt\n        /* \"#utility.yul\":36289:36329   */\n      iszero\n      tag_730\n      jumpi\n        /* \"#utility.yul\":36309:36327   */\n      tag_731\n      tag_388\n      jump\t// in\n    tag_731:\n        /* \"#utility.yul\":36289:36329   */\n    tag_730:\n        /* \"#utility.yul\":36354:36359   */\n      jump(tag_719)\n        /* \"#utility.yul\":36039:36381   */\n    tag_729:\n        /* \"#utility.yul\":36418:36460   */\n      tag_732\n        /* \"#utility.yul\":36456:36459   */\n      dup5\n        /* \"#utility.yul\":36446:36454   */\n      dup5\n        /* \"#utility.yul\":36440:36444   */\n      dup5\n        /* \"#utility.yul\":36437:36438   */\n      0x01\n        /* \"#utility.yul\":36418:36460   */\n      tag_419\n      jump\t// in\n    tag_732:\n        /* \"#utility.yul\":36403:36460   */\n      swap3\n      pop\n      swap1\n      pop\n        /* \"#utility.yul\":36504:36508   */\n      dup2\n        /* \"#utility.yul\":36499:36502   */\n      dup5\n        /* \"#utility.yul\":36495:36509   */\n      div\n        /* \"#utility.yul\":36488:36493   */\n      dup2\n        /* \"#utility.yul\":36485:36510   */\n      gt\n        /* \"#utility.yul\":36482:36533   */\n      iszero\n      tag_733\n      jumpi\n        /* \"#utility.yul\":36513:36531   */\n      tag_734\n      tag_388\n      jump\t// in\n    tag_734:\n        /* \"#utility.yul\":36482:36533   */\n    tag_733:\n        /* \"#utility.yul\":36574:36578   */\n      dup2\n        /* \"#utility.yul\":36567:36572   */\n      dup2\n        /* \"#utility.yul\":36563:36579   */\n      mul\n        /* \"#utility.yul\":36554:36579   */\n      swap1\n      pop\n        /* \"#utility.yul\":35176:36597   */\n    tag_719:\n      swap4\n      swap3\n      pop\n      pop\n      pop\n      jump\t// out\n        /* \"#utility.yul\":36615:36948   */\n    tag_319:\n        /* \"#utility.yul\":36675:36680   */\n      0x00\n        /* \"#utility.yul\":36711:36734   */\n      tag_736\n        /* \"#utility.yul\":36729:36733   */\n      dup3\n        /* \"#utility.yul\":36711:36734   */\n      tag_338\n      jump\t// in\n    tag_736:\n        /* \"#utility.yul\":36703:36734   */\n      swap2\n      pop\n        /* \"#utility.yul\":36767:36794   */\n      tag_737\n        /* \"#utility.yul\":36785:36793   */\n      dup4\n        /* \"#utility.yul\":36767:36794   */\n      tag_338\n      jump\t// in\n    tag_737:\n        /* \"#utility.yul\":36755:36794   */\n      swap3\n      pop\n        /* \"#utility.yul\":36825:36929   */\n      tag_738\n        /* \"#utility.yul\":36862:36928   */\n      0xffffffffffffffffffffffffffffffffffffffffffffffffffffffffffffffff\n        /* \"#utility.yul\":36852:36860   */\n      dup5\n        /* \"#utility.yul\":36846:36850   */\n      dup5\n        /* \"#utility.yul\":36825:36929   */\n      tag_420\n      jump\t// in\n    tag_738:\n        /* \"#utility.yul\":36816:36929   */\n      swap1\n      pop\n        /* \"#utility.yul\":36615:36948   */\n      swap3\n      swap2\n      pop\n      pop\n      jump\t// out\n    stop\n    data_b7ef3161b41f98f63dd2b0068cc9b293a671d068fce5e8f1eb29d1de82e12fc8 54696d65205365726965732028356d696e292c323032332d30312d31332031363a33303a30302c342e20636c6f7365\n\n    auxdata: 0xa2646970667358221220b4edfc8a01451b52be03ba087dc764e8631325a8d100e1b165c8429b5f5c0b3c64736f6c634300080c0033\n}\n",
				"bytecode": {
					"linkReferences": {},
					"object": "608060405260016004553480156200001657600080fd5b50338060008073ffffffffffffffffffffffffffffffffffffffff168273ffffffffffffffffffffffffffffffffffffffff1614156200008d576040517f08c379a00000000000000000000000000000000000000000000000000000000081526004016200008490620003d5565b60405180910390fd5b81600660006101000a81548173ffffffffffffffffffffffffffffffffffffffff021916908373ffffffffffffffffffffffffffffffffffffffff160217905550600073ffffffffffffffffffffffffffffffffffffffff168173ffffffffffffffffffffffffffffffffffffffff161462000115576200011481620001ba60201b60201c565b5b5050506200013d73326c977e6efc84e512bb9c30f76e30c160ed06fb620002ec60201b60201c565b6200016273cc79157eb46f5624204f47ab42b3906caa40eab76200033060201b60201c565b7f3764383061363338366566353433613361626235323831376636373037653362600c81905550600a670de0b6b3a76400006001620001a2919062000430565b620001ae9190620004c0565b600d819055506200056a565b3373ffffffffffffffffffffffffffffffffffffffff168173ffffffffffffffffffffffffffffffffffffffff1614156200022c576040517f08c379a0000000000000000000000000000000000000000000000000000000008152600401620002239062000548565b60405180910390fd5b80600760006101000a81548173ffffffffffffffffffffffffffffffffffffffff021916908373ffffffffffffffffffffffffffffffffffffffff1602179055508073ffffffffffffffffffffffffffffffffffffffff16600660009054906101000a900473ffffffffffffffffffffffffffffffffffffffff1673ffffffffffffffffffffffffffffffffffffffff167fed8889f560326eb138920d842192f0eb3dd22b4f139c87a2c57538e05bae127860405160405180910390a350565b80600260006101000a81548173ffffffffffffffffffffffffffffffffffffffff021916908373ffffffffffffffffffffffffffffffffffffffff16021790555050565b80600360006101000a81548173ffffffffffffffffffffffffffffffffffffffff021916908373ffffffffffffffffffffffffffffffffffffffff16021790555050565b600082825260208201905092915050565b7f43616e6e6f7420736574206f776e657220746f207a65726f0000000000000000600082015250565b6000620003bd60188362000374565b9150620003ca8262000385565b602082019050919050565b60006020820190508181036000830152620003f081620003ae565b9050919050565b6000819050919050565b7f4e487b7100000000000000000000000000000000000000000000000000000000600052601160045260246000fd5b60006200043d82620003f7565b91506200044a83620003f7565b9250817fffffffffffffffffffffffffffffffffffffffffffffffffffffffffffffffff048311821515161562000486576200048562000401565b5b828202905092915050565b7f4e487b7100000000000000000000000000000000000000000000000000000000600052601260045260246000fd5b6000620004cd82620003f7565b9150620004da83620003f7565b925082620004ed57620004ec62000491565b5b828204905092915050565b7f43616e6e6f74207472616e7366657220746f2073656c66000000000000000000600082015250565b60006200053060178362000374565b91506200053d82620004f8565b602082019050919050565b60006020820190508181036000830152620005638162000521565b9050919050565b612e92806200057a6000396000f3fe6080604052600436106100dd5760003560e01c806379ba50971161007f578063c96a4ca211610059578063c96a4ca21461028d578063cb1f3d56146102b6578063e2bff1dc146102e1578063f2fde38b1461030c576100dd565b806379ba50971461022f5780638da5cb5b14610246578063a5ff3cda14610271576100dd565b806326465937116100bb57806326465937146101755780633b411fe4146101a05780635dfcb4c3146101c957806375c8bd62146101f2576100dd565b8063140aab8f146100e2578063163457b31461010d5780631fc58c871461014a575b600080fd5b3480156100ee57600080fd5b506100f7610335565b6040516101049190611bda565b60405180910390f35b34801561011957600080fd5b50610134600480360381019061012f9190611d4f565b61033b565b6040516101419190611db1565b60405180910390f35b34801561015657600080fd5b5061015f610456565b60405161016c9190611db1565b60405180910390f35b34801561018157600080fd5b5061018a6105c4565b6040516101979190611e54565b60405180910390f35b3480156101ac57600080fd5b506101c760048036038101906101c29190611ea2565b610652565b005b3480156101d557600080fd5b506101f060048036038101906101eb9190611f2a565b610773565b005b3480156101fe57600080fd5b5061021960048036038101906102149190611d4f565b610884565b6040516102269190611db1565b60405180910390f35b34801561023b57600080fd5b506102446109d6565b005b34801561025257600080fd5b5061025b610b6d565b6040516102689190611fab565b60405180910390f35b61028b60048036038101906102869190611fc6565b610b97565b005b34801561029957600080fd5b506102b460048036038101906102af9190611f2a565b610da5565b005b3480156102c257600080fd5b506102cb610eb6565b6040516102d89190611bda565b60405180910390f35b3480156102ed57600080fd5b506102f6610ebc565b6040516103039190611bda565b60405180910390f35b34801561031857600080fd5b50610333600480360381019061032e919061204e565b610ec2565b005b60095481565b600080610352600c5430633b411fe460e01b610ed6565b90506000836040516020016103679190612175565b60405160208183030381529060405290506103c26040518060400160405280600381526020017f67657400000000000000000000000000000000000000000000000000000000008152508284610f079092919063ffffffff16565b6104416040518060400160405280600481526020017f70617468000000000000000000000000000000000000000000000000000000008152506040518060400160405280601981526020017f626573744d6174636865732c302c382e2063757272656e63790000000000000081525084610f079092919063ffffffff16565b61044d82600d54610f3a565b92505050919050565b60008061046d600c543063c96a4ca260e01b610ed6565b90506000600b60405160200161048391906123a5565b60405160208183030381529060405290506104de6040518060400160405280600381526020017f67657400000000000000000000000000000000000000000000000000000000008152508284610f079092919063ffffffff16565b61055d6040518060400160405280600481526020017f70617468000000000000000000000000000000000000000000000000000000008152506040518060400160405280600381526020017f455448000000000000000000000000000000000000000000000000000000000081525084610f079092919063ffffffff16565b6000633b9aca0090506105b06040518060400160405280600581526020017f74696d65730000000000000000000000000000000000000000000000000000008152508285610f719092919063ffffffff16565b6105bc83600d54610f3a565b935050505090565b600b80546105d190612247565b80601f01602080910402602001604051908101604052809291908181526020018280546105fd90612247565b801561064a5780601f1061061f5761010080835404028352916020019161064a565b820191906000526020600020905b81548152906001019060200180831161062d57829003601f168201915b505050505081565b816005600082815260200190815260200160002060009054906101000a900473ffffffffffffffffffffffffffffffffffffffff1673ffffffffffffffffffffffffffffffffffffffff163373ffffffffffffffffffffffffffffffffffffffff16146106f4576040517f08c379a00000000000000000000000000000000000000000000000000000000081526004016106eb90612444565b60405180910390fd5b6005600082815260200190815260200160002060006101000a81549073ffffffffffffffffffffffffffffffffffffffff0219169055807f7cc135e0cebb02c3480ae5d74d377283180a2601f8f644edf7987b009316c63a60405160405180910390a281600b908051906020019061076d929190611a97565b50505050565b816005600082815260200190815260200160002060009054906101000a900473ffffffffffffffffffffffffffffffffffffffff1673ffffffffffffffffffffffffffffffffffffffff163373ffffffffffffffffffffffffffffffffffffffff1614610815576040517f08c379a000000000000000000000000000000000000000000000000000000000815260040161080c90612444565b60405180910390fd5b6005600082815260200190815260200160002060006101000a81549073ffffffffffffffffffffffffffffffffffffffff0219169055807f7cc135e0cebb02c3480ae5d74d377283180a2601f8f644edf7987b009316c63a60405160405180910390a281600881905550505050565b60008061089b600c5430635dfcb4c360e01b610ed6565b90506000836040516020016108b09190612522565b604051602081830303815290604052905061090b6040518060400160405280600381526020017f67657400000000000000000000000000000000000000000000000000000000008152508284610f079092919063ffffffff16565b61096d6040518060400160405280600481526020017f70617468000000000000000000000000000000000000000000000000000000008152506040518060600160405280602f8152602001612e2e602f913984610f079092919063ffffffff16565b6000633b9aca0090506109c06040518060400160405280600581526020017f74696d65730000000000000000000000000000000000000000000000000000008152508285610f719092919063ffffffff16565b6109cc83600d54610f3a565b9350505050919050565b600760009054906101000a900473ffffffffffffffffffffffffffffffffffffffff1673ffffffffffffffffffffffffffffffffffffffff163373ffffffffffffffffffffffffffffffffffffffff1614610a66576040517f08c379a0000000000000000000000000000000000000000000000000000000008152600401610a5d9061259f565b60405180910390fd5b6000600660009054906101000a900473ffffffffffffffffffffffffffffffffffffffff16905033600660006101000a81548173ffffffffffffffffffffffffffffffffffffffff021916908373ffffffffffffffffffffffffffffffffffffffff1602179055506000600760006101000a81548173ffffffffffffffffffffffffffffffffffffffff021916908373ffffffffffffffffffffffffffffffffffffffff1602179055503373ffffffffffffffffffffffffffffffffffffffff168173ffffffffffffffffffffffffffffffffffffffff167f8be0079c531659141344cd1fd0a4f28419497f9722a3daafe3b4186f6b6457e060405160405180910390a350565b6000600660009054906101000a900473ffffffffffffffffffffffffffffffffffffffff16905090565b346009819055503073ffffffffffffffffffffffffffffffffffffffff1663163457b3836040518263ffffffff1660e01b8152600401610bd79190611e54565b6020604051808303816000875af1158015610bf6573d6000803e3d6000fd5b505050506040513d601f19601f82011682018060405250810190610c1a91906125d4565b503073ffffffffffffffffffffffffffffffffffffffff166375c8bd62836040518263ffffffff1660e01b8152600401610c549190611e54565b6020604051808303816000875af1158015610c73573d6000803e3d6000fd5b505050506040513d601f19601f82011682018060405250810190610c9791906125d4565b503073ffffffffffffffffffffffffffffffffffffffff16631fc58c876040518163ffffffff1660e01b81526004016020604051808303816000875af1158015610ce5573d6000803e3d6000fd5b505050506040513d601f19601f82011682018060405250810190610d0991906125d4565b50600a5460085482610d1b9190612630565b610d259190612630565b6009541015610d69576040517f08c379a0000000000000000000000000000000000000000000000000000000008152600401610d60906126d6565b60405180910390fd5b7f64e38d65ba50c71f50517639362ddb5a0477533c04568e912ffd1753004cbcf66001604051610d999190612711565b60405180910390a15050565b816005600082815260200190815260200160002060009054906101000a900473ffffffffffffffffffffffffffffffffffffffff1673ffffffffffffffffffffffffffffffffffffffff163373ffffffffffffffffffffffffffffffffffffffff1614610e47576040517f08c379a0000000000000000000000000000000000000000000000000000000008152600401610e3e90612444565b60405180910390fd5b6005600082815260200190815260200160002060006101000a81549073ffffffffffffffffffffffffffffffffffffffff0219169055807f7cc135e0cebb02c3480ae5d74d377283180a2601f8f644edf7987b009316c63a60405160405180910390a281600a81905550505050565b600a5481565b60085481565b610eca610fa4565b610ed381611036565b50565b610ede611b1d565b610ee6611b1d565b610efd85858584611165909392919063ffffffff16565b9150509392505050565b610f1e82846080015161121590919063ffffffff16565b610f3581846080015161121590919063ffffffff16565b505050565b6000610f69600360009054906101000a900473ffffffffffffffffffffffffffffffffffffffff16848461123a565b905092915050565b610f8882846080015161121590919063ffffffff16565b610f9f81846080015161130690919063ffffffff16565b505050565b600660009054906101000a900473ffffffffffffffffffffffffffffffffffffffff1673ffffffffffffffffffffffffffffffffffffffff163373ffffffffffffffffffffffffffffffffffffffff1614611034576040517f08c379a000000000000000000000000000000000000000000000000000000000815260040161102b90612778565b60405180910390fd5b565b3373ffffffffffffffffffffffffffffffffffffffff168173ffffffffffffffffffffffffffffffffffffffff1614156110a5576040517f08c379a000000000000000000000000000000000000000000000000000000000815260040161109c906127e4565b60405180910390fd5b80600760006101000a81548173ffffffffffffffffffffffffffffffffffffffff021916908373ffffffffffffffffffffffffffffffffffffffff1602179055508073ffffffffffffffffffffffffffffffffffffffff16600660009054906101000a900473ffffffffffffffffffffffffffffffffffffffff1673ffffffffffffffffffffffffffffffffffffffff167fed8889f560326eb138920d842192f0eb3dd22b4f139c87a2c57538e05bae127860405160405180910390a350565b61116d611b1d565b61117d85608001516101006113b3565b508385600001818152505082856020019073ffffffffffffffffffffffffffffffffffffffff16908173ffffffffffffffffffffffffffffffffffffffff16815250508185604001907bffffffffffffffffffffffffffffffffffffffffffffffffffffffff191690817bffffffffffffffffffffffffffffffffffffffffffffffffffffffff191681525050849050949350505050565b611222826003835161141d565b61123581836115a290919063ffffffff16565b505050565b600080600454905060018161124f9190612804565b6004819055506000634042994660e01b60008087600001513089604001518760018c60800151600001516040516024016112909897969594939291906128ea565b604051602081830303815290604052907bffffffffffffffffffffffffffffffffffffffffffffffffffffffff19166020820180517bffffffffffffffffffffffffffffffffffffffffffffffffffffffff838183161783525050505090506112fb868386846115c4565b925050509392505050565b7fffffffffffffffffffffffffffffffffffffffffffffffff000000000000000081121561133d576113388282611759565b6113af565b67ffffffffffffffff81131561135c5761135782826117d0565b6113ae565b60008112611375576113708260008361141d565b6113ad565b6113ac826001837fffffffffffffffffffffffffffffffffffffffffffffffffffffffffffffffff6113a79190612979565b61141d565b5b5b5b5050565b6113bb611b8a565b60006020836113ca9190612a3c565b146113f6576020826113dc9190612a3c565b60206113e89190612a6d565b826113f39190612804565b91505b81836020018181525050604051808452600081528281016020016040525082905092915050565b60178167ffffffffffffffff16116114545761144e8160058460ff16901b60ff16178461181c90919063ffffffff16565b5061159d565b60ff8167ffffffffffffffff16116114aa57611483601860058460ff16901b178461181c90919063ffffffff16565b506114a48167ffffffffffffffff1660018561183c9092919063ffffffff16565b5061159c565b61ffff8167ffffffffffffffff1611611501576114da601960058460ff16901b178461181c90919063ffffffff16565b506114fb8167ffffffffffffffff1660028561183c9092919063ffffffff16565b5061159b565b63ffffffff8167ffffffffffffffff161161155a57611533601a60058460ff16901b178461181c90919063ffffffff16565b506115548167ffffffffffffffff1660048561183c9092919063ffffffff16565b5061159a565b611577601b60058460ff16901b178461181c90919063ffffffff16565b506115988167ffffffffffffffff1660088561183c9092919063ffffffff16565b505b5b5b5b505050565b6115aa611b8a565b6115bc8384600001515184855161185e565b905092915050565b600030846040516020016115d9929190612b5a565b604051602081830303815290604052805190602001209050846005600083815260200190815260200160002060006101000a81548173ffffffffffffffffffffffffffffffffffffffff021916908373ffffffffffffffffffffffffffffffffffffffff160217905550807fb5e6e01e79f91267dc17b4e6314d5d4d03593d2ceee0fbb452b750bd70ea5af960405160405180910390a2600260009054906101000a900473ffffffffffffffffffffffffffffffffffffffff1673ffffffffffffffffffffffffffffffffffffffff16634000aea08685856040518463ffffffff1660e01b81526004016116cf93929190612b86565b6020604051808303816000875af11580156116ee573d6000803e3d6000fd5b505050506040513d601f19601f820116820180604052508101906117129190612bf0565b611751576040517f08c379a000000000000000000000000000000000000000000000000000000000815260040161174890612c8f565b60405180910390fd5b949350505050565b61177760036005600660ff16901b178361181c90919063ffffffff16565b506117cc82827fffffffffffffffffffffffffffffffffffffffffffffffffffffffffffffffff6117a89190612979565b6040516020016117b89190611bda565b60405160208183030381529060405261194d565b5050565b6117ee60026005600660ff16901b178361181c90919063ffffffff16565b5061181882826040516020016118049190611bda565b60405160208183030381529060405261194d565b5050565b611824611b8a565b6118348384600001515184611972565b905092915050565b611844611b8a565b6118558485600001515185856119c9565b90509392505050565b611866611b8a565b825182111561187457600080fd5b846020015182856118859190612804565b11156118ba576118b98560026118aa886020015188876118a59190612804565b611a57565b6118b49190612630565b611a73565b5b6000808651805187602083010193508088870111156118d95787860182525b60208701925050505b6020841061192057805182526020826118fb9190612804565b915060208161190a9190612804565b90506020846119199190612a6d565b93506118e2565b60006001856020036101000a03905080198251168184511681811785525050508692505050949350505050565b61195a826002835161141d565b61196d81836115a290919063ffffffff16565b505050565b61197a611b8a565b836020015183106119a05761199f846002866020015161199a9190612630565b611a73565b5b83518051602085830101848153818614156119bc576001820183525b5050508390509392505050565b6119d1611b8a565b846020015184836119e29190612804565b1115611a0a57611a0985600286856119fa9190612804565b611a049190612630565b611a73565b5b6000600183610100611a1c9190612de2565b611a269190612a6d565b90508551838682010185831982511617815281518588011115611a495784870182525b505085915050949350505050565b600081831115611a6957829050611a6d565b8190505b92915050565b600082600001519050611a8683836113b3565b50611a9183826115a2565b50505050565b828054611aa390612247565b90600052602060002090601f016020900481019282611ac55760008555611b0c565b82601f10611ade57805160ff1916838001178555611b0c565b82800160010185558215611b0c579182015b82811115611b0b578251825591602001919060010190611af0565b5b509050611b199190611ba4565b5090565b6040518060a0016040528060008019168152602001600073ffffffffffffffffffffffffffffffffffffffff16815260200160007bffffffffffffffffffffffffffffffffffffffffffffffffffffffff1916815260200160008152602001611b84611b8a565b81525090565b604051806040016040528060608152602001600081525090565b5b80821115611bbd576000816000905550600101611ba5565b5090565b6000819050919050565b611bd481611bc1565b82525050565b6000602082019050611bef6000830184611bcb565b92915050565b6000604051905090565b600080fd5b600080fd5b600080fd5b600080fd5b6000601f19601f8301169050919050565b7f4e487b7100000000000000000000000000000000000000000000000000000000600052604160045260246000fd5b611c5c82611c13565b810181811067ffffffffffffffff82111715611c7b57611c7a611c24565b5b80604052505050565b6000611c8e611bf5565b9050611c9a8282611c53565b919050565b600067ffffffffffffffff821115611cba57611cb9611c24565b5b611cc382611c13565b9050602081019050919050565b82818337600083830152505050565b6000611cf2611ced84611c9f565b611c84565b905082815260208101848484011115611d0e57611d0d611c0e565b5b611d19848285611cd0565b509392505050565b600082601f830112611d3657611d35611c09565b5b8135611d46848260208601611cdf565b91505092915050565b600060208284031215611d6557611d64611bff565b5b600082013567ffffffffffffffff811115611d8357611d82611c04565b5b611d8f84828501611d21565b91505092915050565b6000819050919050565b611dab81611d98565b82525050565b6000602082019050611dc66000830184611da2565b92915050565b600081519050919050565b600082825260208201905092915050565b60005b83811015611e06578082015181840152602081019050611deb565b83811115611e15576000848401525b50505050565b6000611e2682611dcc565b611e308185611dd7565b9350611e40818560208601611de8565b611e4981611c13565b840191505092915050565b60006020820190508181036000830152611e6e8184611e1b565b905092915050565b611e7f81611d98565b8114611e8a57600080fd5b50565b600081359050611e9c81611e76565b92915050565b60008060408385031215611eb957611eb8611bff565b5b6000611ec785828601611e8d565b925050602083013567ffffffffffffffff811115611ee857611ee7611c04565b5b611ef485828601611d21565b9150509250929050565b611f0781611bc1565b8114611f1257600080fd5b50565b600081359050611f2481611efe565b92915050565b60008060408385031215611f4157611f40611bff565b5b6000611f4f85828601611e8d565b9250506020611f6085828601611f15565b9150509250929050565b600073ffffffffffffffffffffffffffffffffffffffff82169050919050565b6000611f9582611f6a565b9050919050565b611fa581611f8a565b82525050565b6000602082019050611fc06000830184611f9c565b92915050565b60008060408385031215611fdd57611fdc611bff565b5b600083013567ffffffffffffffff811115611ffb57611ffa611c04565b5b61200785828601611d21565b925050602061201885828601611f15565b9150509250929050565b61202b81611f8a565b811461203657600080fd5b50565b60008135905061204881612022565b92915050565b60006020828403121561206457612063611bff565b5b600061207284828501612039565b91505092915050565b600081905092915050565b7f68747470733a2f2f7777772e616c70686176616e746167652e636f2f7175657260008201527f793f66756e6374696f6e3d53594d424f4c5f534541524348266b6579776f726460208201527f733d000000000000000000000000000000000000000000000000000000000000604082015250565b600061210860428361207b565b915061211382612086565b604282019050919050565b600061212982611dcc565b612133818561207b565b9350612143818560208601611de8565b80840191505092915050565b7f266170696b65793d767876637876000000000000000000000000000000000000815250565b6000612180826120fb565b915061218c828461211e565b91506121978261214f565b600e8201915081905092915050565b7f68747470733a2f2f6d696e2d6170692e63727970746f636f6d706172652e636f60008201527f6d2f646174612f70726963653f6673796d3d0000000000000000000000000000602082015250565b600061220260328361207b565b915061220d826121a6565b603282019050919050565b7f4e487b7100000000000000000000000000000000000000000000000000000000600052602260045260246000fd5b6000600282049050600182168061225f57607f821691505b6020821081141561227357612272612218565b5b50919050565b60008190508160005260206000209050919050565b6000815461229b81612247565b6122a5818661207b565b945060018216600081146122c057600181146122d157612304565b60ff19831686528186019350612304565b6122da85612279565b60005b838110156122fc578154818901526001820191506020810190506122dd565b838801955050505b50505092915050565b7f267473796d733d455448266170695f6b65793d6462303538366437373035303160008201527f353561303164656636323231653032633936366539643131393831643261646460208201527f6439373164386165323161383537323965396100000000000000000000000000604082015250565b600061238f60538361207b565b915061239a8261230d565b605382019050919050565b60006123b0826121f5565b91506123bc828461228e565b91506123c782612382565b915081905092915050565b7f536f75726365206d75737420626520746865206f7261636c65206f662074686560008201527f2072657175657374000000000000000000000000000000000000000000000000602082015250565b600061242e602883611dd7565b9150612439826123d2565b604082019050919050565b6000602082019050818103600083015261245d81612421565b9050919050565b7f68747470733a2f2f7777772e616c70686176616e746167652e636f2f7175657260008201527f793f66756e6374696f6e3d54494d455f5345524945535f494e5452414441592660208201527f73796d626f6c3d00000000000000000000000000000000000000000000000000604082015250565b60006124e660478361207b565b91506124f182612464565b604782019050919050565b7f26696e74657276616c3d356d696e266170696b65793d76787663787600000000815250565b600061252d826124d9565b9150612539828461211e565b9150612544826124fc565b601c8201915081905092915050565b7f4d7573742062652070726f706f736564206f776e657200000000000000000000600082015250565b6000612589601683611dd7565b915061259482612553565b602082019050919050565b600060208201905081810360008301526125b88161257c565b9050919050565b6000815190506125ce81611e76565b92915050565b6000602082840312156125ea576125e9611bff565b5b60006125f8848285016125bf565b91505092915050565b7f4e487b7100000000000000000000000000000000000000000000000000000000600052601160045260246000fd5b600061263b82611bc1565b915061264683611bc1565b9250817fffffffffffffffffffffffffffffffffffffffffffffffffffffffffffffffff048311821515161561267f5761267e612601565b5b828202905092915050565b7f4572726f72000000000000000000000000000000000000000000000000000000600082015250565b60006126c0600583611dd7565b91506126cb8261268a565b602082019050919050565b600060208201905081810360008301526126ef816126b3565b9050919050565b60008115159050919050565b61270b816126f6565b82525050565b60006020820190506127266000830184612702565b92915050565b7f4f6e6c792063616c6c61626c65206279206f776e657200000000000000000000600082015250565b6000612762601683611dd7565b915061276d8261272c565b602082019050919050565b6000602082019050818103600083015261279181612755565b9050919050565b7f43616e6e6f74207472616e7366657220746f2073656c66000000000000000000600082015250565b60006127ce601783611dd7565b91506127d982612798565b602082019050919050565b600060208201905081810360008301526127fd816127c1565b9050919050565b600061280f82611bc1565b915061281a83611bc1565b9250827fffffffffffffffffffffffffffffffffffffffffffffffffffffffffffffffff0382111561284f5761284e612601565b5b828201905092915050565b60007fffffffff0000000000000000000000000000000000000000000000000000000082169050919050565b61288f8161285a565b82525050565b600081519050919050565b600082825260208201905092915050565b60006128bc82612895565b6128c681856128a0565b93506128d6818560208601611de8565b6128df81611c13565b840191505092915050565b600061010082019050612900600083018b611f9c565b61290d602083018a611bcb565b61291a6040830189611da2565b6129276060830188611f9c565b6129346080830187612886565b61294160a0830186611bcb565b61294e60c0830185611bcb565b81810360e083015261296081846128b1565b90509998505050505050505050565b6000819050919050565b60006129848261296f565b915061298f8361296f565b9250827f8000000000000000000000000000000000000000000000000000000000000000018212600084121516156129ca576129c9612601565b5b827f7fffffffffffffffffffffffffffffffffffffffffffffffffffffffffffffff018213600084121615612a0257612a01612601565b5b828203905092915050565b7f4e487b7100000000000000000000000000000000000000000000000000000000600052601260045260246000fd5b6000612a4782611bc1565b9150612a5283611bc1565b925082612a6257612a61612a0d565b5b828206905092915050565b6000612a7882611bc1565b9150612a8383611bc1565b925082821015612a9657612a95612601565b5b828203905092915050565b6000819050919050565b6000612ac6612ac1612abc84611f6a565b612aa1565b611f6a565b9050919050565b6000612ad882612aab565b9050919050565b6000612aea82612acd565b9050919050565b60008160601b9050919050565b6000612b0982612af1565b9050919050565b6000612b1b82612afe565b9050919050565b612b33612b2e82612adf565b612b10565b82525050565b6000819050919050565b612b54612b4f82611bc1565b612b39565b82525050565b6000612b668285612b22565b601482019150612b768284612b43565b6020820191508190509392505050565b6000606082019050612b9b6000830186611f9c565b612ba86020830185611bcb565b8181036040830152612bba81846128b1565b9050949350505050565b612bcd816126f6565b8114612bd857600080fd5b50565b600081519050612bea81612bc4565b92915050565b600060208284031215612c0657612c05611bff565b5b6000612c1484828501612bdb565b91505092915050565b7f756e61626c6520746f207472616e73666572416e6443616c6c20746f206f726160008201527f636c650000000000000000000000000000000000000000000000000000000000602082015250565b6000612c79602383611dd7565b9150612c8482612c1d565b604082019050919050565b60006020820190508181036000830152612ca881612c6c565b9050919050565b60008160011c9050919050565b6000808291508390505b6001851115612d0657808604811115612ce257612ce1612601565b5b6001851615612cf15780820291505b8081029050612cff85612caf565b9450612cc6565b94509492505050565b600082612d1f5760019050612ddb565b81612d2d5760009050612ddb565b8160018114612d435760028114612d4d57612d7c565b6001915050612ddb565b60ff841115612d5f57612d5e612601565b5b8360020a915084821115612d7657612d75612601565b5b50612ddb565b5060208310610133831016604e8410600b8410161715612db15782820a905083811115612dac57612dab612601565b5b612ddb565b612dbe8484846001612cbc565b92509050818404811115612dd557612dd4612601565b5b81810290505b9392505050565b6000612ded82611bc1565b9150612df883611bc1565b9250612e257fffffffffffffffffffffffffffffffffffffffffffffffffffffffffffffffff8484612d0f565b90509291505056fe54696d65205365726965732028356d696e292c323032332d30312d31332031363a33303a30302c342e20636c6f7365a2646970667358221220b4edfc8a01451b52be03ba087dc764e8631325a8d100e1b165c8429b5f5c0b3c64736f6c634300080c0033",
					"opcodes": "PUSH1 0x80 PUSH1 0x40 MSTORE PUSH1 0x1 PUSH1 0x4 SSTORE CALLVALUE DUP1 ISZERO PUSH3 0x16 JUMPI PUSH1 0x0 DUP1 REVERT JUMPDEST POP CALLER DUP1 PUSH1 0x0 DUP1 PUSH20 0xFFFFFFFFFFFFFFFFFFFFFFFFFFFFFFFFFFFFFFFF AND DUP3 PUSH20 0xFFFFFFFFFFFFFFFFFFFFFFFFFFFFFFFFFFFFFFFF AND EQ ISZERO PUSH3 0x8D JUMPI PUSH1 0x40 MLOAD PUSH32 0x8C379A000000000000000000000000000000000000000000000000000000000 DUP2 MSTORE PUSH1 0x4 ADD PUSH3 0x84 SWAP1 PUSH3 0x3D5 JUMP JUMPDEST PUSH1 0x40 MLOAD DUP1 SWAP2 SUB SWAP1 REVERT JUMPDEST DUP2 PUSH1 0x6 PUSH1 0x0 PUSH2 0x100 EXP DUP2 SLOAD DUP2 PUSH20 0xFFFFFFFFFFFFFFFFFFFFFFFFFFFFFFFFFFFFFFFF MUL NOT AND SWAP1 DUP4 PUSH20 0xFFFFFFFFFFFFFFFFFFFFFFFFFFFFFFFFFFFFFFFF AND MUL OR SWAP1 SSTORE POP PUSH1 0x0 PUSH20 0xFFFFFFFFFFFFFFFFFFFFFFFFFFFFFFFFFFFFFFFF AND DUP2 PUSH20 0xFFFFFFFFFFFFFFFFFFFFFFFFFFFFFFFFFFFFFFFF AND EQ PUSH3 0x115 JUMPI PUSH3 0x114 DUP2 PUSH3 0x1BA PUSH1 0x20 SHL PUSH1 0x20 SHR JUMP JUMPDEST JUMPDEST POP POP POP PUSH3 0x13D PUSH20 0x326C977E6EFC84E512BB9C30F76E30C160ED06FB PUSH3 0x2EC PUSH1 0x20 SHL PUSH1 0x20 SHR JUMP JUMPDEST PUSH3 0x162 PUSH20 0xCC79157EB46F5624204F47AB42B3906CAA40EAB7 PUSH3 0x330 PUSH1 0x20 SHL PUSH1 0x20 SHR JUMP JUMPDEST PUSH32 0x3764383061363338366566353433613361626235323831376636373037653362 PUSH1 0xC DUP2 SWAP1 SSTORE POP PUSH1 0xA PUSH8 0xDE0B6B3A7640000 PUSH1 0x1 PUSH3 0x1A2 SWAP2 SWAP1 PUSH3 0x430 JUMP JUMPDEST PUSH3 0x1AE SWAP2 SWAP1 PUSH3 0x4C0 JUMP JUMPDEST PUSH1 0xD DUP2 SWAP1 SSTORE POP PUSH3 0x56A JUMP JUMPDEST CALLER PUSH20 0xFFFFFFFFFFFFFFFFFFFFFFFFFFFFFFFFFFFFFFFF AND DUP2 PUSH20 0xFFFFFFFFFFFFFFFFFFFFFFFFFFFFFFFFFFFFFFFF AND EQ ISZERO PUSH3 0x22C JUMPI PUSH1 0x40 MLOAD PUSH32 0x8C379A000000000000000000000000000000000000000000000000000000000 DUP2 MSTORE PUSH1 0x4 ADD PUSH3 0x223 SWAP1 PUSH3 0x548 JUMP JUMPDEST PUSH1 0x40 MLOAD DUP1 SWAP2 SUB SWAP1 REVERT JUMPDEST DUP1 PUSH1 0x7 PUSH1 0x0 PUSH2 0x100 EXP DUP2 SLOAD DUP2 PUSH20 0xFFFFFFFFFFFFFFFFFFFFFFFFFFFFFFFFFFFFFFFF MUL NOT AND SWAP1 DUP4 PUSH20 0xFFFFFFFFFFFFFFFFFFFFFFFFFFFFFFFFFFFFFFFF AND MUL OR SWAP1 SSTORE POP DUP1 PUSH20 0xFFFFFFFFFFFFFFFFFFFFFFFFFFFFFFFFFFFFFFFF AND PUSH1 0x6 PUSH1 0x0 SWAP1 SLOAD SWAP1 PUSH2 0x100 EXP SWAP1 DIV PUSH20 0xFFFFFFFFFFFFFFFFFFFFFFFFFFFFFFFFFFFFFFFF AND PUSH20 0xFFFFFFFFFFFFFFFFFFFFFFFFFFFFFFFFFFFFFFFF AND PUSH32 0xED8889F560326EB138920D842192F0EB3DD22B4F139C87A2C57538E05BAE1278 PUSH1 0x40 MLOAD PUSH1 0x40 MLOAD DUP1 SWAP2 SUB SWAP1 LOG3 POP JUMP JUMPDEST DUP1 PUSH1 0x2 PUSH1 0x0 PUSH2 0x100 EXP DUP2 SLOAD DUP2 PUSH20 0xFFFFFFFFFFFFFFFFFFFFFFFFFFFFFFFFFFFFFFFF MUL NOT AND SWAP1 DUP4 PUSH20 0xFFFFFFFFFFFFFFFFFFFFFFFFFFFFFFFFFFFFFFFF AND MUL OR SWAP1 SSTORE POP POP JUMP JUMPDEST DUP1 PUSH1 0x3 PUSH1 0x0 PUSH2 0x100 EXP DUP2 SLOAD DUP2 PUSH20 0xFFFFFFFFFFFFFFFFFFFFFFFFFFFFFFFFFFFFFFFF MUL NOT AND SWAP1 DUP4 PUSH20 0xFFFFFFFFFFFFFFFFFFFFFFFFFFFFFFFFFFFFFFFF AND MUL OR SWAP1 SSTORE POP POP JUMP JUMPDEST PUSH1 0x0 DUP3 DUP3 MSTORE PUSH1 0x20 DUP3 ADD SWAP1 POP SWAP3 SWAP2 POP POP JUMP JUMPDEST PUSH32 0x43616E6E6F7420736574206F776E657220746F207A65726F0000000000000000 PUSH1 0x0 DUP3 ADD MSTORE POP JUMP JUMPDEST PUSH1 0x0 PUSH3 0x3BD PUSH1 0x18 DUP4 PUSH3 0x374 JUMP JUMPDEST SWAP2 POP PUSH3 0x3CA DUP3 PUSH3 0x385 JUMP JUMPDEST PUSH1 0x20 DUP3 ADD SWAP1 POP SWAP2 SWAP1 POP JUMP JUMPDEST PUSH1 0x0 PUSH1 0x20 DUP3 ADD SWAP1 POP DUP2 DUP2 SUB PUSH1 0x0 DUP4 ADD MSTORE PUSH3 0x3F0 DUP2 PUSH3 0x3AE JUMP JUMPDEST SWAP1 POP SWAP2 SWAP1 POP JUMP JUMPDEST PUSH1 0x0 DUP2 SWAP1 POP SWAP2 SWAP1 POP JUMP JUMPDEST PUSH32 0x4E487B7100000000000000000000000000000000000000000000000000000000 PUSH1 0x0 MSTORE PUSH1 0x11 PUSH1 0x4 MSTORE PUSH1 0x24 PUSH1 0x0 REVERT JUMPDEST PUSH1 0x0 PUSH3 0x43D DUP3 PUSH3 0x3F7 JUMP JUMPDEST SWAP2 POP PUSH3 0x44A DUP4 PUSH3 0x3F7 JUMP JUMPDEST SWAP3 POP DUP2 PUSH32 0xFFFFFFFFFFFFFFFFFFFFFFFFFFFFFFFFFFFFFFFFFFFFFFFFFFFFFFFFFFFFFFFF DIV DUP4 GT DUP3 ISZERO ISZERO AND ISZERO PUSH3 0x486 JUMPI PUSH3 0x485 PUSH3 0x401 JUMP JUMPDEST JUMPDEST DUP3 DUP3 MUL SWAP1 POP SWAP3 SWAP2 POP POP JUMP JUMPDEST PUSH32 0x4E487B7100000000000000000000000000000000000000000000000000000000 PUSH1 0x0 MSTORE PUSH1 0x12 PUSH1 0x4 MSTORE PUSH1 0x24 PUSH1 0x0 REVERT JUMPDEST PUSH1 0x0 PUSH3 0x4CD DUP3 PUSH3 0x3F7 JUMP JUMPDEST SWAP2 POP PUSH3 0x4DA DUP4 PUSH3 0x3F7 JUMP JUMPDEST SWAP3 POP DUP3 PUSH3 0x4ED JUMPI PUSH3 0x4EC PUSH3 0x491 JUMP JUMPDEST JUMPDEST DUP3 DUP3 DIV SWAP1 POP SWAP3 SWAP2 POP POP JUMP JUMPDEST PUSH32 0x43616E6E6F74207472616E7366657220746F2073656C66000000000000000000 PUSH1 0x0 DUP3 ADD MSTORE POP JUMP JUMPDEST PUSH1 0x0 PUSH3 0x530 PUSH1 0x17 DUP4 PUSH3 0x374 JUMP JUMPDEST SWAP2 POP PUSH3 0x53D DUP3 PUSH3 0x4F8 JUMP JUMPDEST PUSH1 0x20 DUP3 ADD SWAP1 POP SWAP2 SWAP1 POP JUMP JUMPDEST PUSH1 0x0 PUSH1 0x20 DUP3 ADD SWAP1 POP DUP2 DUP2 SUB PUSH1 0x0 DUP4 ADD MSTORE PUSH3 0x563 DUP2 PUSH3 0x521 JUMP JUMPDEST SWAP1 POP SWAP2 SWAP1 POP JUMP JUMPDEST PUSH2 0x2E92 DUP1 PUSH3 0x57A PUSH1 0x0 CODECOPY PUSH1 0x0 RETURN INVALID PUSH1 0x80 PUSH1 0x40 MSTORE PUSH1 0x4 CALLDATASIZE LT PUSH2 0xDD JUMPI PUSH1 0x0 CALLDATALOAD PUSH1 0xE0 SHR DUP1 PUSH4 0x79BA5097 GT PUSH2 0x7F JUMPI DUP1 PUSH4 0xC96A4CA2 GT PUSH2 0x59 JUMPI DUP1 PUSH4 0xC96A4CA2 EQ PUSH2 0x28D JUMPI DUP1 PUSH4 0xCB1F3D56 EQ PUSH2 0x2B6 JUMPI DUP1 PUSH4 0xE2BFF1DC EQ PUSH2 0x2E1 JUMPI DUP1 PUSH4 0xF2FDE38B EQ PUSH2 0x30C JUMPI PUSH2 0xDD JUMP JUMPDEST DUP1 PUSH4 0x79BA5097 EQ PUSH2 0x22F JUMPI DUP1 PUSH4 0x8DA5CB5B EQ PUSH2 0x246 JUMPI DUP1 PUSH4 0xA5FF3CDA EQ PUSH2 0x271 JUMPI PUSH2 0xDD JUMP JUMPDEST DUP1 PUSH4 0x26465937 GT PUSH2 0xBB JUMPI DUP1 PUSH4 0x26465937 EQ PUSH2 0x175 JUMPI DUP1 PUSH4 0x3B411FE4 EQ PUSH2 0x1A0 JUMPI DUP1 PUSH4 0x5DFCB4C3 EQ PUSH2 0x1C9 JUMPI DUP1 PUSH4 0x75C8BD62 EQ PUSH2 0x1F2 JUMPI PUSH2 0xDD JUMP JUMPDEST DUP1 PUSH4 0x140AAB8F EQ PUSH2 0xE2 JUMPI DUP1 PUSH4 0x163457B3 EQ PUSH2 0x10D JUMPI DUP1 PUSH4 0x1FC58C87 EQ PUSH2 0x14A JUMPI JUMPDEST PUSH1 0x0 DUP1 REVERT JUMPDEST CALLVALUE DUP1 ISZERO PUSH2 0xEE JUMPI PUSH1 0x0 DUP1 REVERT JUMPDEST POP PUSH2 0xF7 PUSH2 0x335 JUMP JUMPDEST PUSH1 0x40 MLOAD PUSH2 0x104 SWAP2 SWAP1 PUSH2 0x1BDA JUMP JUMPDEST PUSH1 0x40 MLOAD DUP1 SWAP2 SUB SWAP1 RETURN JUMPDEST CALLVALUE DUP1 ISZERO PUSH2 0x119 JUMPI PUSH1 0x0 DUP1 REVERT JUMPDEST POP PUSH2 0x134 PUSH1 0x4 DUP1 CALLDATASIZE SUB DUP2 ADD SWAP1 PUSH2 0x12F SWAP2 SWAP1 PUSH2 0x1D4F JUMP JUMPDEST PUSH2 0x33B JUMP JUMPDEST PUSH1 0x40 MLOAD PUSH2 0x141 SWAP2 SWAP1 PUSH2 0x1DB1 JUMP JUMPDEST PUSH1 0x40 MLOAD DUP1 SWAP2 SUB SWAP1 RETURN JUMPDEST CALLVALUE DUP1 ISZERO PUSH2 0x156 JUMPI PUSH1 0x0 DUP1 REVERT JUMPDEST POP PUSH2 0x15F PUSH2 0x456 JUMP JUMPDEST PUSH1 0x40 MLOAD PUSH2 0x16C SWAP2 SWAP1 PUSH2 0x1DB1 JUMP JUMPDEST PUSH1 0x40 MLOAD DUP1 SWAP2 SUB SWAP1 RETURN JUMPDEST CALLVALUE DUP1 ISZERO PUSH2 0x181 JUMPI PUSH1 0x0 DUP1 REVERT JUMPDEST POP PUSH2 0x18A PUSH2 0x5C4 JUMP JUMPDEST PUSH1 0x40 MLOAD PUSH2 0x197 SWAP2 SWAP1 PUSH2 0x1E54 JUMP JUMPDEST PUSH1 0x40 MLOAD DUP1 SWAP2 SUB SWAP1 RETURN JUMPDEST CALLVALUE DUP1 ISZERO PUSH2 0x1AC JUMPI PUSH1 0x0 DUP1 REVERT JUMPDEST POP PUSH2 0x1C7 PUSH1 0x4 DUP1 CALLDATASIZE SUB DUP2 ADD SWAP1 PUSH2 0x1C2 SWAP2 SWAP1 PUSH2 0x1EA2 JUMP JUMPDEST PUSH2 0x652 JUMP JUMPDEST STOP JUMPDEST CALLVALUE DUP1 ISZERO PUSH2 0x1D5 JUMPI PUSH1 0x0 DUP1 REVERT JUMPDEST POP PUSH2 0x1F0 PUSH1 0x4 DUP1 CALLDATASIZE SUB DUP2 ADD SWAP1 PUSH2 0x1EB SWAP2 SWAP1 PUSH2 0x1F2A JUMP JUMPDEST PUSH2 0x773 JUMP JUMPDEST STOP JUMPDEST CALLVALUE DUP1 ISZERO PUSH2 0x1FE JUMPI PUSH1 0x0 DUP1 REVERT JUMPDEST POP PUSH2 0x219 PUSH1 0x4 DUP1 CALLDATASIZE SUB DUP2 ADD SWAP1 PUSH2 0x214 SWAP2 SWAP1 PUSH2 0x1D4F JUMP JUMPDEST PUSH2 0x884 JUMP JUMPDEST PUSH1 0x40 MLOAD PUSH2 0x226 SWAP2 SWAP1 PUSH2 0x1DB1 JUMP JUMPDEST PUSH1 0x40 MLOAD DUP1 SWAP2 SUB SWAP1 RETURN JUMPDEST CALLVALUE DUP1 ISZERO PUSH2 0x23B JUMPI PUSH1 0x0 DUP1 REVERT JUMPDEST POP PUSH2 0x244 PUSH2 0x9D6 JUMP JUMPDEST STOP JUMPDEST CALLVALUE DUP1 ISZERO PUSH2 0x252 JUMPI PUSH1 0x0 DUP1 REVERT JUMPDEST POP PUSH2 0x25B PUSH2 0xB6D JUMP JUMPDEST PUSH1 0x40 MLOAD PUSH2 0x268 SWAP2 SWAP1 PUSH2 0x1FAB JUMP JUMPDEST PUSH1 0x40 MLOAD DUP1 SWAP2 SUB SWAP1 RETURN JUMPDEST PUSH2 0x28B PUSH1 0x4 DUP1 CALLDATASIZE SUB DUP2 ADD SWAP1 PUSH2 0x286 SWAP2 SWAP1 PUSH2 0x1FC6 JUMP JUMPDEST PUSH2 0xB97 JUMP JUMPDEST STOP JUMPDEST CALLVALUE DUP1 ISZERO PUSH2 0x299 JUMPI PUSH1 0x0 DUP1 REVERT JUMPDEST POP PUSH2 0x2B4 PUSH1 0x4 DUP1 CALLDATASIZE SUB DUP2 ADD SWAP1 PUSH2 0x2AF SWAP2 SWAP1 PUSH2 0x1F2A JUMP JUMPDEST PUSH2 0xDA5 JUMP JUMPDEST STOP JUMPDEST CALLVALUE DUP1 ISZERO PUSH2 0x2C2 JUMPI PUSH1 0x0 DUP1 REVERT JUMPDEST POP PUSH2 0x2CB PUSH2 0xEB6 JUMP JUMPDEST PUSH1 0x40 MLOAD PUSH2 0x2D8 SWAP2 SWAP1 PUSH2 0x1BDA JUMP JUMPDEST PUSH1 0x40 MLOAD DUP1 SWAP2 SUB SWAP1 RETURN JUMPDEST CALLVALUE DUP1 ISZERO PUSH2 0x2ED JUMPI PUSH1 0x0 DUP1 REVERT JUMPDEST POP PUSH2 0x2F6 PUSH2 0xEBC JUMP JUMPDEST PUSH1 0x40 MLOAD PUSH2 0x303 SWAP2 SWAP1 PUSH2 0x1BDA JUMP JUMPDEST PUSH1 0x40 MLOAD DUP1 SWAP2 SUB SWAP1 RETURN JUMPDEST CALLVALUE DUP1 ISZERO PUSH2 0x318 JUMPI PUSH1 0x0 DUP1 REVERT JUMPDEST POP PUSH2 0x333 PUSH1 0x4 DUP1 CALLDATASIZE SUB DUP2 ADD SWAP1 PUSH2 0x32E SWAP2 SWAP1 PUSH2 0x204E JUMP JUMPDEST PUSH2 0xEC2 JUMP JUMPDEST STOP JUMPDEST PUSH1 0x9 SLOAD DUP2 JUMP JUMPDEST PUSH1 0x0 DUP1 PUSH2 0x352 PUSH1 0xC SLOAD ADDRESS PUSH4 0x3B411FE4 PUSH1 0xE0 SHL PUSH2 0xED6 JUMP JUMPDEST SWAP1 POP PUSH1 0x0 DUP4 PUSH1 0x40 MLOAD PUSH1 0x20 ADD PUSH2 0x367 SWAP2 SWAP1 PUSH2 0x2175 JUMP JUMPDEST PUSH1 0x40 MLOAD PUSH1 0x20 DUP2 DUP4 SUB SUB DUP2 MSTORE SWAP1 PUSH1 0x40 MSTORE SWAP1 POP PUSH2 0x3C2 PUSH1 0x40 MLOAD DUP1 PUSH1 0x40 ADD PUSH1 0x40 MSTORE DUP1 PUSH1 0x3 DUP2 MSTORE PUSH1 0x20 ADD PUSH32 0x6765740000000000000000000000000000000000000000000000000000000000 DUP2 MSTORE POP DUP3 DUP5 PUSH2 0xF07 SWAP1 SWAP3 SWAP2 SWAP1 PUSH4 0xFFFFFFFF AND JUMP JUMPDEST PUSH2 0x441 PUSH1 0x40 MLOAD DUP1 PUSH1 0x40 ADD PUSH1 0x40 MSTORE DUP1 PUSH1 0x4 DUP2 MSTORE PUSH1 0x20 ADD PUSH32 0x7061746800000000000000000000000000000000000000000000000000000000 DUP2 MSTORE POP PUSH1 0x40 MLOAD DUP1 PUSH1 0x40 ADD PUSH1 0x40 MSTORE DUP1 PUSH1 0x19 DUP2 MSTORE PUSH1 0x20 ADD PUSH32 0x626573744D6174636865732C302C382E2063757272656E637900000000000000 DUP2 MSTORE POP DUP5 PUSH2 0xF07 SWAP1 SWAP3 SWAP2 SWAP1 PUSH4 0xFFFFFFFF AND JUMP JUMPDEST PUSH2 0x44D DUP3 PUSH1 0xD SLOAD PUSH2 0xF3A JUMP JUMPDEST SWAP3 POP POP POP SWAP2 SWAP1 POP JUMP JUMPDEST PUSH1 0x0 DUP1 PUSH2 0x46D PUSH1 0xC SLOAD ADDRESS PUSH4 0xC96A4CA2 PUSH1 0xE0 SHL PUSH2 0xED6 JUMP JUMPDEST SWAP1 POP PUSH1 0x0 PUSH1 0xB PUSH1 0x40 MLOAD PUSH1 0x20 ADD PUSH2 0x483 SWAP2 SWAP1 PUSH2 0x23A5 JUMP JUMPDEST PUSH1 0x40 MLOAD PUSH1 0x20 DUP2 DUP4 SUB SUB DUP2 MSTORE SWAP1 PUSH1 0x40 MSTORE SWAP1 POP PUSH2 0x4DE PUSH1 0x40 MLOAD DUP1 PUSH1 0x40 ADD PUSH1 0x40 MSTORE DUP1 PUSH1 0x3 DUP2 MSTORE PUSH1 0x20 ADD PUSH32 0x6765740000000000000000000000000000000000000000000000000000000000 DUP2 MSTORE POP DUP3 DUP5 PUSH2 0xF07 SWAP1 SWAP3 SWAP2 SWAP1 PUSH4 0xFFFFFFFF AND JUMP JUMPDEST PUSH2 0x55D PUSH1 0x40 MLOAD DUP1 PUSH1 0x40 ADD PUSH1 0x40 MSTORE DUP1 PUSH1 0x4 DUP2 MSTORE PUSH1 0x20 ADD PUSH32 0x7061746800000000000000000000000000000000000000000000000000000000 DUP2 MSTORE POP PUSH1 0x40 MLOAD DUP1 PUSH1 0x40 ADD PUSH1 0x40 MSTORE DUP1 PUSH1 0x3 DUP2 MSTORE PUSH1 0x20 ADD PUSH32 0x4554480000000000000000000000000000000000000000000000000000000000 DUP2 MSTORE POP DUP5 PUSH2 0xF07 SWAP1 SWAP3 SWAP2 SWAP1 PUSH4 0xFFFFFFFF AND JUMP JUMPDEST PUSH1 0x0 PUSH4 0x3B9ACA00 SWAP1 POP PUSH2 0x5B0 PUSH1 0x40 MLOAD DUP1 PUSH1 0x40 ADD PUSH1 0x40 MSTORE DUP1 PUSH1 0x5 DUP2 MSTORE PUSH1 0x20 ADD PUSH32 0x74696D6573000000000000000000000000000000000000000000000000000000 DUP2 MSTORE POP DUP3 DUP6 PUSH2 0xF71 SWAP1 SWAP3 SWAP2 SWAP1 PUSH4 0xFFFFFFFF AND JUMP JUMPDEST PUSH2 0x5BC DUP4 PUSH1 0xD SLOAD PUSH2 0xF3A JUMP JUMPDEST SWAP4 POP POP POP POP SWAP1 JUMP JUMPDEST PUSH1 0xB DUP1 SLOAD PUSH2 0x5D1 SWAP1 PUSH2 0x2247 JUMP JUMPDEST DUP1 PUSH1 0x1F ADD PUSH1 0x20 DUP1 SWAP2 DIV MUL PUSH1 0x20 ADD PUSH1 0x40 MLOAD SWAP1 DUP2 ADD PUSH1 0x40 MSTORE DUP1 SWAP3 SWAP2 SWAP1 DUP2 DUP2 MSTORE PUSH1 0x20 ADD DUP3 DUP1 SLOAD PUSH2 0x5FD SWAP1 PUSH2 0x2247 JUMP JUMPDEST DUP1 ISZERO PUSH2 0x64A JUMPI DUP1 PUSH1 0x1F LT PUSH2 0x61F JUMPI PUSH2 0x100 DUP1 DUP4 SLOAD DIV MUL DUP4 MSTORE SWAP2 PUSH1 0x20 ADD SWAP2 PUSH2 0x64A JUMP JUMPDEST DUP3 ADD SWAP2 SWAP1 PUSH1 0x0 MSTORE PUSH1 0x20 PUSH1 0x0 KECCAK256 SWAP1 JUMPDEST DUP2 SLOAD DUP2 MSTORE SWAP1 PUSH1 0x1 ADD SWAP1 PUSH1 0x20 ADD DUP1 DUP4 GT PUSH2 0x62D JUMPI DUP3 SWAP1 SUB PUSH1 0x1F AND DUP3 ADD SWAP2 JUMPDEST POP POP POP POP POP DUP2 JUMP JUMPDEST DUP2 PUSH1 0x5 PUSH1 0x0 DUP3 DUP2 MSTORE PUSH1 0x20 ADD SWAP1 DUP2 MSTORE PUSH1 0x20 ADD PUSH1 0x0 KECCAK256 PUSH1 0x0 SWAP1 SLOAD SWAP1 PUSH2 0x100 EXP SWAP1 DIV PUSH20 0xFFFFFFFFFFFFFFFFFFFFFFFFFFFFFFFFFFFFFFFF AND PUSH20 0xFFFFFFFFFFFFFFFFFFFFFFFFFFFFFFFFFFFFFFFF AND CALLER PUSH20 0xFFFFFFFFFFFFFFFFFFFFFFFFFFFFFFFFFFFFFFFF AND EQ PUSH2 0x6F4 JUMPI PUSH1 0x40 MLOAD PUSH32 0x8C379A000000000000000000000000000000000000000000000000000000000 DUP2 MSTORE PUSH1 0x4 ADD PUSH2 0x6EB SWAP1 PUSH2 0x2444 JUMP JUMPDEST PUSH1 0x40 MLOAD DUP1 SWAP2 SUB SWAP1 REVERT JUMPDEST PUSH1 0x5 PUSH1 0x0 DUP3 DUP2 MSTORE PUSH1 0x20 ADD SWAP1 DUP2 MSTORE PUSH1 0x20 ADD PUSH1 0x0 KECCAK256 PUSH1 0x0 PUSH2 0x100 EXP DUP2 SLOAD SWAP1 PUSH20 0xFFFFFFFFFFFFFFFFFFFFFFFFFFFFFFFFFFFFFFFF MUL NOT AND SWAP1 SSTORE DUP1 PUSH32 0x7CC135E0CEBB02C3480AE5D74D377283180A2601F8F644EDF7987B009316C63A PUSH1 0x40 MLOAD PUSH1 0x40 MLOAD DUP1 SWAP2 SUB SWAP1 LOG2 DUP2 PUSH1 0xB SWAP1 DUP1 MLOAD SWAP1 PUSH1 0x20 ADD SWAP1 PUSH2 0x76D SWAP3 SWAP2 SWAP1 PUSH2 0x1A97 JUMP JUMPDEST POP POP POP POP JUMP JUMPDEST DUP2 PUSH1 0x5 PUSH1 0x0 DUP3 DUP2 MSTORE PUSH1 0x20 ADD SWAP1 DUP2 MSTORE PUSH1 0x20 ADD PUSH1 0x0 KECCAK256 PUSH1 0x0 SWAP1 SLOAD SWAP1 PUSH2 0x100 EXP SWAP1 DIV PUSH20 0xFFFFFFFFFFFFFFFFFFFFFFFFFFFFFFFFFFFFFFFF AND PUSH20 0xFFFFFFFFFFFFFFFFFFFFFFFFFFFFFFFFFFFFFFFF AND CALLER PUSH20 0xFFFFFFFFFFFFFFFFFFFFFFFFFFFFFFFFFFFFFFFF AND EQ PUSH2 0x815 JUMPI PUSH1 0x40 MLOAD PUSH32 0x8C379A000000000000000000000000000000000000000000000000000000000 DUP2 MSTORE PUSH1 0x4 ADD PUSH2 0x80C SWAP1 PUSH2 0x2444 JUMP JUMPDEST PUSH1 0x40 MLOAD DUP1 SWAP2 SUB SWAP1 REVERT JUMPDEST PUSH1 0x5 PUSH1 0x0 DUP3 DUP2 MSTORE PUSH1 0x20 ADD SWAP1 DUP2 MSTORE PUSH1 0x20 ADD PUSH1 0x0 KECCAK256 PUSH1 0x0 PUSH2 0x100 EXP DUP2 SLOAD SWAP1 PUSH20 0xFFFFFFFFFFFFFFFFFFFFFFFFFFFFFFFFFFFFFFFF MUL NOT AND SWAP1 SSTORE DUP1 PUSH32 0x7CC135E0CEBB02C3480AE5D74D377283180A2601F8F644EDF7987B009316C63A PUSH1 0x40 MLOAD PUSH1 0x40 MLOAD DUP1 SWAP2 SUB SWAP1 LOG2 DUP2 PUSH1 0x8 DUP2 SWAP1 SSTORE POP POP POP POP JUMP JUMPDEST PUSH1 0x0 DUP1 PUSH2 0x89B PUSH1 0xC SLOAD ADDRESS PUSH4 0x5DFCB4C3 PUSH1 0xE0 SHL PUSH2 0xED6 JUMP JUMPDEST SWAP1 POP PUSH1 0x0 DUP4 PUSH1 0x40 MLOAD PUSH1 0x20 ADD PUSH2 0x8B0 SWAP2 SWAP1 PUSH2 0x2522 JUMP JUMPDEST PUSH1 0x40 MLOAD PUSH1 0x20 DUP2 DUP4 SUB SUB DUP2 MSTORE SWAP1 PUSH1 0x40 MSTORE SWAP1 POP PUSH2 0x90B PUSH1 0x40 MLOAD DUP1 PUSH1 0x40 ADD PUSH1 0x40 MSTORE DUP1 PUSH1 0x3 DUP2 MSTORE PUSH1 0x20 ADD PUSH32 0x6765740000000000000000000000000000000000000000000000000000000000 DUP2 MSTORE POP DUP3 DUP5 PUSH2 0xF07 SWAP1 SWAP3 SWAP2 SWAP1 PUSH4 0xFFFFFFFF AND JUMP JUMPDEST PUSH2 0x96D PUSH1 0x40 MLOAD DUP1 PUSH1 0x40 ADD PUSH1 0x40 MSTORE DUP1 PUSH1 0x4 DUP2 MSTORE PUSH1 0x20 ADD PUSH32 0x7061746800000000000000000000000000000000000000000000000000000000 DUP2 MSTORE POP PUSH1 0x40 MLOAD DUP1 PUSH1 0x60 ADD PUSH1 0x40 MSTORE DUP1 PUSH1 0x2F DUP2 MSTORE PUSH1 0x20 ADD PUSH2 0x2E2E PUSH1 0x2F SWAP2 CODECOPY DUP5 PUSH2 0xF07 SWAP1 SWAP3 SWAP2 SWAP1 PUSH4 0xFFFFFFFF AND JUMP JUMPDEST PUSH1 0x0 PUSH4 0x3B9ACA00 SWAP1 POP PUSH2 0x9C0 PUSH1 0x40 MLOAD DUP1 PUSH1 0x40 ADD PUSH1 0x40 MSTORE DUP1 PUSH1 0x5 DUP2 MSTORE PUSH1 0x20 ADD PUSH32 0x74696D6573000000000000000000000000000000000000000000000000000000 DUP2 MSTORE POP DUP3 DUP6 PUSH2 0xF71 SWAP1 SWAP3 SWAP2 SWAP1 PUSH4 0xFFFFFFFF AND JUMP JUMPDEST PUSH2 0x9CC DUP4 PUSH1 0xD SLOAD PUSH2 0xF3A JUMP JUMPDEST SWAP4 POP POP POP POP SWAP2 SWAP1 POP JUMP JUMPDEST PUSH1 0x7 PUSH1 0x0 SWAP1 SLOAD SWAP1 PUSH2 0x100 EXP SWAP1 DIV PUSH20 0xFFFFFFFFFFFFFFFFFFFFFFFFFFFFFFFFFFFFFFFF AND PUSH20 0xFFFFFFFFFFFFFFFFFFFFFFFFFFFFFFFFFFFFFFFF AND CALLER PUSH20 0xFFFFFFFFFFFFFFFFFFFFFFFFFFFFFFFFFFFFFFFF AND EQ PUSH2 0xA66 JUMPI PUSH1 0x40 MLOAD PUSH32 0x8C379A000000000000000000000000000000000000000000000000000000000 DUP2 MSTORE PUSH1 0x4 ADD PUSH2 0xA5D SWAP1 PUSH2 0x259F JUMP JUMPDEST PUSH1 0x40 MLOAD DUP1 SWAP2 SUB SWAP1 REVERT JUMPDEST PUSH1 0x0 PUSH1 0x6 PUSH1 0x0 SWAP1 SLOAD SWAP1 PUSH2 0x100 EXP SWAP1 DIV PUSH20 0xFFFFFFFFFFFFFFFFFFFFFFFFFFFFFFFFFFFFFFFF AND SWAP1 POP CALLER PUSH1 0x6 PUSH1 0x0 PUSH2 0x100 EXP DUP2 SLOAD DUP2 PUSH20 0xFFFFFFFFFFFFFFFFFFFFFFFFFFFFFFFFFFFFFFFF MUL NOT AND SWAP1 DUP4 PUSH20 0xFFFFFFFFFFFFFFFFFFFFFFFFFFFFFFFFFFFFFFFF AND MUL OR SWAP1 SSTORE POP PUSH1 0x0 PUSH1 0x7 PUSH1 0x0 PUSH2 0x100 EXP DUP2 SLOAD DUP2 PUSH20 0xFFFFFFFFFFFFFFFFFFFFFFFFFFFFFFFFFFFFFFFF MUL NOT AND SWAP1 DUP4 PUSH20 0xFFFFFFFFFFFFFFFFFFFFFFFFFFFFFFFFFFFFFFFF AND MUL OR SWAP1 SSTORE POP CALLER PUSH20 0xFFFFFFFFFFFFFFFFFFFFFFFFFFFFFFFFFFFFFFFF AND DUP2 PUSH20 0xFFFFFFFFFFFFFFFFFFFFFFFFFFFFFFFFFFFFFFFF AND PUSH32 0x8BE0079C531659141344CD1FD0A4F28419497F9722A3DAAFE3B4186F6B6457E0 PUSH1 0x40 MLOAD PUSH1 0x40 MLOAD DUP1 SWAP2 SUB SWAP1 LOG3 POP JUMP JUMPDEST PUSH1 0x0 PUSH1 0x6 PUSH1 0x0 SWAP1 SLOAD SWAP1 PUSH2 0x100 EXP SWAP1 DIV PUSH20 0xFFFFFFFFFFFFFFFFFFFFFFFFFFFFFFFFFFFFFFFF AND SWAP1 POP SWAP1 JUMP JUMPDEST CALLVALUE PUSH1 0x9 DUP2 SWAP1 SSTORE POP ADDRESS PUSH20 0xFFFFFFFFFFFFFFFFFFFFFFFFFFFFFFFFFFFFFFFF AND PUSH4 0x163457B3 DUP4 PUSH1 0x40 MLOAD DUP3 PUSH4 0xFFFFFFFF AND PUSH1 0xE0 SHL DUP2 MSTORE PUSH1 0x4 ADD PUSH2 0xBD7 SWAP2 SWAP1 PUSH2 0x1E54 JUMP JUMPDEST PUSH1 0x20 PUSH1 0x40 MLOAD DUP1 DUP4 SUB DUP2 PUSH1 0x0 DUP8 GAS CALL ISZERO DUP1 ISZERO PUSH2 0xBF6 JUMPI RETURNDATASIZE PUSH1 0x0 DUP1 RETURNDATACOPY RETURNDATASIZE PUSH1 0x0 REVERT JUMPDEST POP POP POP POP PUSH1 0x40 MLOAD RETURNDATASIZE PUSH1 0x1F NOT PUSH1 0x1F DUP3 ADD AND DUP3 ADD DUP1 PUSH1 0x40 MSTORE POP DUP2 ADD SWAP1 PUSH2 0xC1A SWAP2 SWAP1 PUSH2 0x25D4 JUMP JUMPDEST POP ADDRESS PUSH20 0xFFFFFFFFFFFFFFFFFFFFFFFFFFFFFFFFFFFFFFFF AND PUSH4 0x75C8BD62 DUP4 PUSH1 0x40 MLOAD DUP3 PUSH4 0xFFFFFFFF AND PUSH1 0xE0 SHL DUP2 MSTORE PUSH1 0x4 ADD PUSH2 0xC54 SWAP2 SWAP1 PUSH2 0x1E54 JUMP JUMPDEST PUSH1 0x20 PUSH1 0x40 MLOAD DUP1 DUP4 SUB DUP2 PUSH1 0x0 DUP8 GAS CALL ISZERO DUP1 ISZERO PUSH2 0xC73 JUMPI RETURNDATASIZE PUSH1 0x0 DUP1 RETURNDATACOPY RETURNDATASIZE PUSH1 0x0 REVERT JUMPDEST POP POP POP POP PUSH1 0x40 MLOAD RETURNDATASIZE PUSH1 0x1F NOT PUSH1 0x1F DUP3 ADD AND DUP3 ADD DUP1 PUSH1 0x40 MSTORE POP DUP2 ADD SWAP1 PUSH2 0xC97 SWAP2 SWAP1 PUSH2 0x25D4 JUMP JUMPDEST POP ADDRESS PUSH20 0xFFFFFFFFFFFFFFFFFFFFFFFFFFFFFFFFFFFFFFFF AND PUSH4 0x1FC58C87 PUSH1 0x40 MLOAD DUP2 PUSH4 0xFFFFFFFF AND PUSH1 0xE0 SHL DUP2 MSTORE PUSH1 0x4 ADD PUSH1 0x20 PUSH1 0x40 MLOAD DUP1 DUP4 SUB DUP2 PUSH1 0x0 DUP8 GAS CALL ISZERO DUP1 ISZERO PUSH2 0xCE5 JUMPI RETURNDATASIZE PUSH1 0x0 DUP1 RETURNDATACOPY RETURNDATASIZE PUSH1 0x0 REVERT JUMPDEST POP POP POP POP PUSH1 0x40 MLOAD RETURNDATASIZE PUSH1 0x1F NOT PUSH1 0x1F DUP3 ADD AND DUP3 ADD DUP1 PUSH1 0x40 MSTORE POP DUP2 ADD SWAP1 PUSH2 0xD09 SWAP2 SWAP1 PUSH2 0x25D4 JUMP JUMPDEST POP PUSH1 0xA SLOAD PUSH1 0x8 SLOAD DUP3 PUSH2 0xD1B SWAP2 SWAP1 PUSH2 0x2630 JUMP JUMPDEST PUSH2 0xD25 SWAP2 SWAP1 PUSH2 0x2630 JUMP JUMPDEST PUSH1 0x9 SLOAD LT ISZERO PUSH2 0xD69 JUMPI PUSH1 0x40 MLOAD PUSH32 0x8C379A000000000000000000000000000000000000000000000000000000000 DUP2 MSTORE PUSH1 0x4 ADD PUSH2 0xD60 SWAP1 PUSH2 0x26D6 JUMP JUMPDEST PUSH1 0x40 MLOAD DUP1 SWAP2 SUB SWAP1 REVERT JUMPDEST PUSH32 0x64E38D65BA50C71F50517639362DDB5A0477533C04568E912FFD1753004CBCF6 PUSH1 0x1 PUSH1 0x40 MLOAD PUSH2 0xD99 SWAP2 SWAP1 PUSH2 0x2711 JUMP JUMPDEST PUSH1 0x40 MLOAD DUP1 SWAP2 SUB SWAP1 LOG1 POP POP JUMP JUMPDEST DUP2 PUSH1 0x5 PUSH1 0x0 DUP3 DUP2 MSTORE PUSH1 0x20 ADD SWAP1 DUP2 MSTORE PUSH1 0x20 ADD PUSH1 0x0 KECCAK256 PUSH1 0x0 SWAP1 SLOAD SWAP1 PUSH2 0x100 EXP SWAP1 DIV PUSH20 0xFFFFFFFFFFFFFFFFFFFFFFFFFFFFFFFFFFFFFFFF AND PUSH20 0xFFFFFFFFFFFFFFFFFFFFFFFFFFFFFFFFFFFFFFFF AND CALLER PUSH20 0xFFFFFFFFFFFFFFFFFFFFFFFFFFFFFFFFFFFFFFFF AND EQ PUSH2 0xE47 JUMPI PUSH1 0x40 MLOAD PUSH32 0x8C379A000000000000000000000000000000000000000000000000000000000 DUP2 MSTORE PUSH1 0x4 ADD PUSH2 0xE3E SWAP1 PUSH2 0x2444 JUMP JUMPDEST PUSH1 0x40 MLOAD DUP1 SWAP2 SUB SWAP1 REVERT JUMPDEST PUSH1 0x5 PUSH1 0x0 DUP3 DUP2 MSTORE PUSH1 0x20 ADD SWAP1 DUP2 MSTORE PUSH1 0x20 ADD PUSH1 0x0 KECCAK256 PUSH1 0x0 PUSH2 0x100 EXP DUP2 SLOAD SWAP1 PUSH20 0xFFFFFFFFFFFFFFFFFFFFFFFFFFFFFFFFFFFFFFFF MUL NOT AND SWAP1 SSTORE DUP1 PUSH32 0x7CC135E0CEBB02C3480AE5D74D377283180A2601F8F644EDF7987B009316C63A PUSH1 0x40 MLOAD PUSH1 0x40 MLOAD DUP1 SWAP2 SUB SWAP1 LOG2 DUP2 PUSH1 0xA DUP2 SWAP1 SSTORE POP POP POP POP JUMP JUMPDEST PUSH1 0xA SLOAD DUP2 JUMP JUMPDEST PUSH1 0x8 SLOAD DUP2 JUMP JUMPDEST PUSH2 0xECA PUSH2 0xFA4 JUMP JUMPDEST PUSH2 0xED3 DUP2 PUSH2 0x1036 JUMP JUMPDEST POP JUMP JUMPDEST PUSH2 0xEDE PUSH2 0x1B1D JUMP JUMPDEST PUSH2 0xEE6 PUSH2 0x1B1D JUMP JUMPDEST PUSH2 0xEFD DUP6 DUP6 DUP6 DUP5 PUSH2 0x1165 SWAP1 SWAP4 SWAP3 SWAP2 SWAP1 PUSH4 0xFFFFFFFF AND JUMP JUMPDEST SWAP2 POP POP SWAP4 SWAP3 POP POP POP JUMP JUMPDEST PUSH2 0xF1E DUP3 DUP5 PUSH1 0x80 ADD MLOAD PUSH2 0x1215 SWAP1 SWAP2 SWAP1 PUSH4 0xFFFFFFFF AND JUMP JUMPDEST PUSH2 0xF35 DUP2 DUP5 PUSH1 0x80 ADD MLOAD PUSH2 0x1215 SWAP1 SWAP2 SWAP1 PUSH4 0xFFFFFFFF AND JUMP JUMPDEST POP POP POP JUMP JUMPDEST PUSH1 0x0 PUSH2 0xF69 PUSH1 0x3 PUSH1 0x0 SWAP1 SLOAD SWAP1 PUSH2 0x100 EXP SWAP1 DIV PUSH20 0xFFFFFFFFFFFFFFFFFFFFFFFFFFFFFFFFFFFFFFFF AND DUP5 DUP5 PUSH2 0x123A JUMP JUMPDEST SWAP1 POP SWAP3 SWAP2 POP POP JUMP JUMPDEST PUSH2 0xF88 DUP3 DUP5 PUSH1 0x80 ADD MLOAD PUSH2 0x1215 SWAP1 SWAP2 SWAP1 PUSH4 0xFFFFFFFF AND JUMP JUMPDEST PUSH2 0xF9F DUP2 DUP5 PUSH1 0x80 ADD MLOAD PUSH2 0x1306 SWAP1 SWAP2 SWAP1 PUSH4 0xFFFFFFFF AND JUMP JUMPDEST POP POP POP JUMP JUMPDEST PUSH1 0x6 PUSH1 0x0 SWAP1 SLOAD SWAP1 PUSH2 0x100 EXP SWAP1 DIV PUSH20 0xFFFFFFFFFFFFFFFFFFFFFFFFFFFFFFFFFFFFFFFF AND PUSH20 0xFFFFFFFFFFFFFFFFFFFFFFFFFFFFFFFFFFFFFFFF AND CALLER PUSH20 0xFFFFFFFFFFFFFFFFFFFFFFFFFFFFFFFFFFFFFFFF AND EQ PUSH2 0x1034 JUMPI PUSH1 0x40 MLOAD PUSH32 0x8C379A000000000000000000000000000000000000000000000000000000000 DUP2 MSTORE PUSH1 0x4 ADD PUSH2 0x102B SWAP1 PUSH2 0x2778 JUMP JUMPDEST PUSH1 0x40 MLOAD DUP1 SWAP2 SUB SWAP1 REVERT JUMPDEST JUMP JUMPDEST CALLER PUSH20 0xFFFFFFFFFFFFFFFFFFFFFFFFFFFFFFFFFFFFFFFF AND DUP2 PUSH20 0xFFFFFFFFFFFFFFFFFFFFFFFFFFFFFFFFFFFFFFFF AND EQ ISZERO PUSH2 0x10A5 JUMPI PUSH1 0x40 MLOAD PUSH32 0x8C379A000000000000000000000000000000000000000000000000000000000 DUP2 MSTORE PUSH1 0x4 ADD PUSH2 0x109C SWAP1 PUSH2 0x27E4 JUMP JUMPDEST PUSH1 0x40 MLOAD DUP1 SWAP2 SUB SWAP1 REVERT JUMPDEST DUP1 PUSH1 0x7 PUSH1 0x0 PUSH2 0x100 EXP DUP2 SLOAD DUP2 PUSH20 0xFFFFFFFFFFFFFFFFFFFFFFFFFFFFFFFFFFFFFFFF MUL NOT AND SWAP1 DUP4 PUSH20 0xFFFFFFFFFFFFFFFFFFFFFFFFFFFFFFFFFFFFFFFF AND MUL OR SWAP1 SSTORE POP DUP1 PUSH20 0xFFFFFFFFFFFFFFFFFFFFFFFFFFFFFFFFFFFFFFFF AND PUSH1 0x6 PUSH1 0x0 SWAP1 SLOAD SWAP1 PUSH2 0x100 EXP SWAP1 DIV PUSH20 0xFFFFFFFFFFFFFFFFFFFFFFFFFFFFFFFFFFFFFFFF AND PUSH20 0xFFFFFFFFFFFFFFFFFFFFFFFFFFFFFFFFFFFFFFFF AND PUSH32 0xED8889F560326EB138920D842192F0EB3DD22B4F139C87A2C57538E05BAE1278 PUSH1 0x40 MLOAD PUSH1 0x40 MLOAD DUP1 SWAP2 SUB SWAP1 LOG3 POP JUMP JUMPDEST PUSH2 0x116D PUSH2 0x1B1D JUMP JUMPDEST PUSH2 0x117D DUP6 PUSH1 0x80 ADD MLOAD PUSH2 0x100 PUSH2 0x13B3 JUMP JUMPDEST POP DUP4 DUP6 PUSH1 0x0 ADD DUP2 DUP2 MSTORE POP POP DUP3 DUP6 PUSH1 0x20 ADD SWAP1 PUSH20 0xFFFFFFFFFFFFFFFFFFFFFFFFFFFFFFFFFFFFFFFF AND SWAP1 DUP2 PUSH20 0xFFFFFFFFFFFFFFFFFFFFFFFFFFFFFFFFFFFFFFFF AND DUP2 MSTORE POP POP DUP2 DUP6 PUSH1 0x40 ADD SWAP1 PUSH28 0xFFFFFFFFFFFFFFFFFFFFFFFFFFFFFFFFFFFFFFFFFFFFFFFFFFFFFFFF NOT AND SWAP1 DUP2 PUSH28 0xFFFFFFFFFFFFFFFFFFFFFFFFFFFFFFFFFFFFFFFFFFFFFFFFFFFFFFFF NOT AND DUP2 MSTORE POP POP DUP5 SWAP1 POP SWAP5 SWAP4 POP POP POP POP JUMP JUMPDEST PUSH2 0x1222 DUP3 PUSH1 0x3 DUP4 MLOAD PUSH2 0x141D JUMP JUMPDEST PUSH2 0x1235 DUP2 DUP4 PUSH2 0x15A2 SWAP1 SWAP2 SWAP1 PUSH4 0xFFFFFFFF AND JUMP JUMPDEST POP POP POP JUMP JUMPDEST PUSH1 0x0 DUP1 PUSH1 0x4 SLOAD SWAP1 POP PUSH1 0x1 DUP2 PUSH2 0x124F SWAP2 SWAP1 PUSH2 0x2804 JUMP JUMPDEST PUSH1 0x4 DUP2 SWAP1 SSTORE POP PUSH1 0x0 PUSH4 0x40429946 PUSH1 0xE0 SHL PUSH1 0x0 DUP1 DUP8 PUSH1 0x0 ADD MLOAD ADDRESS DUP10 PUSH1 0x40 ADD MLOAD DUP8 PUSH1 0x1 DUP13 PUSH1 0x80 ADD MLOAD PUSH1 0x0 ADD MLOAD PUSH1 0x40 MLOAD PUSH1 0x24 ADD PUSH2 0x1290 SWAP9 SWAP8 SWAP7 SWAP6 SWAP5 SWAP4 SWAP3 SWAP2 SWAP1 PUSH2 0x28EA JUMP JUMPDEST PUSH1 0x40 MLOAD PUSH1 0x20 DUP2 DUP4 SUB SUB DUP2 MSTORE SWAP1 PUSH1 0x40 MSTORE SWAP1 PUSH28 0xFFFFFFFFFFFFFFFFFFFFFFFFFFFFFFFFFFFFFFFFFFFFFFFFFFFFFFFF NOT AND PUSH1 0x20 DUP3 ADD DUP1 MLOAD PUSH28 0xFFFFFFFFFFFFFFFFFFFFFFFFFFFFFFFFFFFFFFFFFFFFFFFFFFFFFFFF DUP4 DUP2 DUP4 AND OR DUP4 MSTORE POP POP POP POP SWAP1 POP PUSH2 0x12FB DUP7 DUP4 DUP7 DUP5 PUSH2 0x15C4 JUMP JUMPDEST SWAP3 POP POP POP SWAP4 SWAP3 POP POP POP JUMP JUMPDEST PUSH32 0xFFFFFFFFFFFFFFFFFFFFFFFFFFFFFFFFFFFFFFFFFFFFFFFF0000000000000000 DUP2 SLT ISZERO PUSH2 0x133D JUMPI PUSH2 0x1338 DUP3 DUP3 PUSH2 0x1759 JUMP JUMPDEST PUSH2 0x13AF JUMP JUMPDEST PUSH8 0xFFFFFFFFFFFFFFFF DUP2 SGT ISZERO PUSH2 0x135C JUMPI PUSH2 0x1357 DUP3 DUP3 PUSH2 0x17D0 JUMP JUMPDEST PUSH2 0x13AE JUMP JUMPDEST PUSH1 0x0 DUP2 SLT PUSH2 0x1375 JUMPI PUSH2 0x1370 DUP3 PUSH1 0x0 DUP4 PUSH2 0x141D JUMP JUMPDEST PUSH2 0x13AD JUMP JUMPDEST PUSH2 0x13AC DUP3 PUSH1 0x1 DUP4 PUSH32 0xFFFFFFFFFFFFFFFFFFFFFFFFFFFFFFFFFFFFFFFFFFFFFFFFFFFFFFFFFFFFFFFF PUSH2 0x13A7 SWAP2 SWAP1 PUSH2 0x2979 JUMP JUMPDEST PUSH2 0x141D JUMP JUMPDEST JUMPDEST JUMPDEST JUMPDEST POP POP JUMP JUMPDEST PUSH2 0x13BB PUSH2 0x1B8A JUMP JUMPDEST PUSH1 0x0 PUSH1 0x20 DUP4 PUSH2 0x13CA SWAP2 SWAP1 PUSH2 0x2A3C JUMP JUMPDEST EQ PUSH2 0x13F6 JUMPI PUSH1 0x20 DUP3 PUSH2 0x13DC SWAP2 SWAP1 PUSH2 0x2A3C JUMP JUMPDEST PUSH1 0x20 PUSH2 0x13E8 SWAP2 SWAP1 PUSH2 0x2A6D JUMP JUMPDEST DUP3 PUSH2 0x13F3 SWAP2 SWAP1 PUSH2 0x2804 JUMP JUMPDEST SWAP2 POP JUMPDEST DUP2 DUP4 PUSH1 0x20 ADD DUP2 DUP2 MSTORE POP POP PUSH1 0x40 MLOAD DUP1 DUP5 MSTORE PUSH1 0x0 DUP2 MSTORE DUP3 DUP2 ADD PUSH1 0x20 ADD PUSH1 0x40 MSTORE POP DUP3 SWAP1 POP SWAP3 SWAP2 POP POP JUMP JUMPDEST PUSH1 0x17 DUP2 PUSH8 0xFFFFFFFFFFFFFFFF AND GT PUSH2 0x1454 JUMPI PUSH2 0x144E DUP2 PUSH1 0x5 DUP5 PUSH1 0xFF AND SWAP1 SHL PUSH1 0xFF AND OR DUP5 PUSH2 0x181C SWAP1 SWAP2 SWAP1 PUSH4 0xFFFFFFFF AND JUMP JUMPDEST POP PUSH2 0x159D JUMP JUMPDEST PUSH1 0xFF DUP2 PUSH8 0xFFFFFFFFFFFFFFFF AND GT PUSH2 0x14AA JUMPI PUSH2 0x1483 PUSH1 0x18 PUSH1 0x5 DUP5 PUSH1 0xFF AND SWAP1 SHL OR DUP5 PUSH2 0x181C SWAP1 SWAP2 SWAP1 PUSH4 0xFFFFFFFF AND JUMP JUMPDEST POP PUSH2 0x14A4 DUP2 PUSH8 0xFFFFFFFFFFFFFFFF AND PUSH1 0x1 DUP6 PUSH2 0x183C SWAP1 SWAP3 SWAP2 SWAP1 PUSH4 0xFFFFFFFF AND JUMP JUMPDEST POP PUSH2 0x159C JUMP JUMPDEST PUSH2 0xFFFF DUP2 PUSH8 0xFFFFFFFFFFFFFFFF AND GT PUSH2 0x1501 JUMPI PUSH2 0x14DA PUSH1 0x19 PUSH1 0x5 DUP5 PUSH1 0xFF AND SWAP1 SHL OR DUP5 PUSH2 0x181C SWAP1 SWAP2 SWAP1 PUSH4 0xFFFFFFFF AND JUMP JUMPDEST POP PUSH2 0x14FB DUP2 PUSH8 0xFFFFFFFFFFFFFFFF AND PUSH1 0x2 DUP6 PUSH2 0x183C SWAP1 SWAP3 SWAP2 SWAP1 PUSH4 0xFFFFFFFF AND JUMP JUMPDEST POP PUSH2 0x159B JUMP JUMPDEST PUSH4 0xFFFFFFFF DUP2 PUSH8 0xFFFFFFFFFFFFFFFF AND GT PUSH2 0x155A JUMPI PUSH2 0x1533 PUSH1 0x1A PUSH1 0x5 DUP5 PUSH1 0xFF AND SWAP1 SHL OR DUP5 PUSH2 0x181C SWAP1 SWAP2 SWAP1 PUSH4 0xFFFFFFFF AND JUMP JUMPDEST POP PUSH2 0x1554 DUP2 PUSH8 0xFFFFFFFFFFFFFFFF AND PUSH1 0x4 DUP6 PUSH2 0x183C SWAP1 SWAP3 SWAP2 SWAP1 PUSH4 0xFFFFFFFF AND JUMP JUMPDEST POP PUSH2 0x159A JUMP JUMPDEST PUSH2 0x1577 PUSH1 0x1B PUSH1 0x5 DUP5 PUSH1 0xFF AND SWAP1 SHL OR DUP5 PUSH2 0x181C SWAP1 SWAP2 SWAP1 PUSH4 0xFFFFFFFF AND JUMP JUMPDEST POP PUSH2 0x1598 DUP2 PUSH8 0xFFFFFFFFFFFFFFFF AND PUSH1 0x8 DUP6 PUSH2 0x183C SWAP1 SWAP3 SWAP2 SWAP1 PUSH4 0xFFFFFFFF AND JUMP JUMPDEST POP JUMPDEST JUMPDEST JUMPDEST JUMPDEST POP POP POP JUMP JUMPDEST PUSH2 0x15AA PUSH2 0x1B8A JUMP JUMPDEST PUSH2 0x15BC DUP4 DUP5 PUSH1 0x0 ADD MLOAD MLOAD DUP5 DUP6 MLOAD PUSH2 0x185E JUMP JUMPDEST SWAP1 POP SWAP3 SWAP2 POP POP JUMP JUMPDEST PUSH1 0x0 ADDRESS DUP5 PUSH1 0x40 MLOAD PUSH1 0x20 ADD PUSH2 0x15D9 SWAP3 SWAP2 SWAP1 PUSH2 0x2B5A JUMP JUMPDEST PUSH1 0x40 MLOAD PUSH1 0x20 DUP2 DUP4 SUB SUB DUP2 MSTORE SWAP1 PUSH1 0x40 MSTORE DUP1 MLOAD SWAP1 PUSH1 0x20 ADD KECCAK256 SWAP1 POP DUP5 PUSH1 0x5 PUSH1 0x0 DUP4 DUP2 MSTORE PUSH1 0x20 ADD SWAP1 DUP2 MSTORE PUSH1 0x20 ADD PUSH1 0x0 KECCAK256 PUSH1 0x0 PUSH2 0x100 EXP DUP2 SLOAD DUP2 PUSH20 0xFFFFFFFFFFFFFFFFFFFFFFFFFFFFFFFFFFFFFFFF MUL NOT AND SWAP1 DUP4 PUSH20 0xFFFFFFFFFFFFFFFFFFFFFFFFFFFFFFFFFFFFFFFF AND MUL OR SWAP1 SSTORE POP DUP1 PUSH32 0xB5E6E01E79F91267DC17B4E6314D5D4D03593D2CEEE0FBB452B750BD70EA5AF9 PUSH1 0x40 MLOAD PUSH1 0x40 MLOAD DUP1 SWAP2 SUB SWAP1 LOG2 PUSH1 0x2 PUSH1 0x0 SWAP1 SLOAD SWAP1 PUSH2 0x100 EXP SWAP1 DIV PUSH20 0xFFFFFFFFFFFFFFFFFFFFFFFFFFFFFFFFFFFFFFFF AND PUSH20 0xFFFFFFFFFFFFFFFFFFFFFFFFFFFFFFFFFFFFFFFF AND PUSH4 0x4000AEA0 DUP7 DUP6 DUP6 PUSH1 0x40 MLOAD DUP5 PUSH4 0xFFFFFFFF AND PUSH1 0xE0 SHL DUP2 MSTORE PUSH1 0x4 ADD PUSH2 0x16CF SWAP4 SWAP3 SWAP2 SWAP1 PUSH2 0x2B86 JUMP JUMPDEST PUSH1 0x20 PUSH1 0x40 MLOAD DUP1 DUP4 SUB DUP2 PUSH1 0x0 DUP8 GAS CALL ISZERO DUP1 ISZERO PUSH2 0x16EE JUMPI RETURNDATASIZE PUSH1 0x0 DUP1 RETURNDATACOPY RETURNDATASIZE PUSH1 0x0 REVERT JUMPDEST POP POP POP POP PUSH1 0x40 MLOAD RETURNDATASIZE PUSH1 0x1F NOT PUSH1 0x1F DUP3 ADD AND DUP3 ADD DUP1 PUSH1 0x40 MSTORE POP DUP2 ADD SWAP1 PUSH2 0x1712 SWAP2 SWAP1 PUSH2 0x2BF0 JUMP JUMPDEST PUSH2 0x1751 JUMPI PUSH1 0x40 MLOAD PUSH32 0x8C379A000000000000000000000000000000000000000000000000000000000 DUP2 MSTORE PUSH1 0x4 ADD PUSH2 0x1748 SWAP1 PUSH2 0x2C8F JUMP JUMPDEST PUSH1 0x40 MLOAD DUP1 SWAP2 SUB SWAP1 REVERT JUMPDEST SWAP5 SWAP4 POP POP POP POP JUMP JUMPDEST PUSH2 0x1777 PUSH1 0x3 PUSH1 0x5 PUSH1 0x6 PUSH1 0xFF AND SWAP1 SHL OR DUP4 PUSH2 0x181C SWAP1 SWAP2 SWAP1 PUSH4 0xFFFFFFFF AND JUMP JUMPDEST POP PUSH2 0x17CC DUP3 DUP3 PUSH32 0xFFFFFFFFFFFFFFFFFFFFFFFFFFFFFFFFFFFFFFFFFFFFFFFFFFFFFFFFFFFFFFFF PUSH2 0x17A8 SWAP2 SWAP1 PUSH2 0x2979 JUMP JUMPDEST PUSH1 0x40 MLOAD PUSH1 0x20 ADD PUSH2 0x17B8 SWAP2 SWAP1 PUSH2 0x1BDA JUMP JUMPDEST PUSH1 0x40 MLOAD PUSH1 0x20 DUP2 DUP4 SUB SUB DUP2 MSTORE SWAP1 PUSH1 0x40 MSTORE PUSH2 0x194D JUMP JUMPDEST POP POP JUMP JUMPDEST PUSH2 0x17EE PUSH1 0x2 PUSH1 0x5 PUSH1 0x6 PUSH1 0xFF AND SWAP1 SHL OR DUP4 PUSH2 0x181C SWAP1 SWAP2 SWAP1 PUSH4 0xFFFFFFFF AND JUMP JUMPDEST POP PUSH2 0x1818 DUP3 DUP3 PUSH1 0x40 MLOAD PUSH1 0x20 ADD PUSH2 0x1804 SWAP2 SWAP1 PUSH2 0x1BDA JUMP JUMPDEST PUSH1 0x40 MLOAD PUSH1 0x20 DUP2 DUP4 SUB SUB DUP2 MSTORE SWAP1 PUSH1 0x40 MSTORE PUSH2 0x194D JUMP JUMPDEST POP POP JUMP JUMPDEST PUSH2 0x1824 PUSH2 0x1B8A JUMP JUMPDEST PUSH2 0x1834 DUP4 DUP5 PUSH1 0x0 ADD MLOAD MLOAD DUP5 PUSH2 0x1972 JUMP JUMPDEST SWAP1 POP SWAP3 SWAP2 POP POP JUMP JUMPDEST PUSH2 0x1844 PUSH2 0x1B8A JUMP JUMPDEST PUSH2 0x1855 DUP5 DUP6 PUSH1 0x0 ADD MLOAD MLOAD DUP6 DUP6 PUSH2 0x19C9 JUMP JUMPDEST SWAP1 POP SWAP4 SWAP3 POP POP POP JUMP JUMPDEST PUSH2 0x1866 PUSH2 0x1B8A JUMP JUMPDEST DUP3 MLOAD DUP3 GT ISZERO PUSH2 0x1874 JUMPI PUSH1 0x0 DUP1 REVERT JUMPDEST DUP5 PUSH1 0x20 ADD MLOAD DUP3 DUP6 PUSH2 0x1885 SWAP2 SWAP1 PUSH2 0x2804 JUMP JUMPDEST GT ISZERO PUSH2 0x18BA JUMPI PUSH2 0x18B9 DUP6 PUSH1 0x2 PUSH2 0x18AA DUP9 PUSH1 0x20 ADD MLOAD DUP9 DUP8 PUSH2 0x18A5 SWAP2 SWAP1 PUSH2 0x2804 JUMP JUMPDEST PUSH2 0x1A57 JUMP JUMPDEST PUSH2 0x18B4 SWAP2 SWAP1 PUSH2 0x2630 JUMP JUMPDEST PUSH2 0x1A73 JUMP JUMPDEST JUMPDEST PUSH1 0x0 DUP1 DUP7 MLOAD DUP1 MLOAD DUP8 PUSH1 0x20 DUP4 ADD ADD SWAP4 POP DUP1 DUP9 DUP8 ADD GT ISZERO PUSH2 0x18D9 JUMPI DUP8 DUP7 ADD DUP3 MSTORE JUMPDEST PUSH1 0x20 DUP8 ADD SWAP3 POP POP POP JUMPDEST PUSH1 0x20 DUP5 LT PUSH2 0x1920 JUMPI DUP1 MLOAD DUP3 MSTORE PUSH1 0x20 DUP3 PUSH2 0x18FB SWAP2 SWAP1 PUSH2 0x2804 JUMP JUMPDEST SWAP2 POP PUSH1 0x20 DUP2 PUSH2 0x190A SWAP2 SWAP1 PUSH2 0x2804 JUMP JUMPDEST SWAP1 POP PUSH1 0x20 DUP5 PUSH2 0x1919 SWAP2 SWAP1 PUSH2 0x2A6D JUMP JUMPDEST SWAP4 POP PUSH2 0x18E2 JUMP JUMPDEST PUSH1 0x0 PUSH1 0x1 DUP6 PUSH1 0x20 SUB PUSH2 0x100 EXP SUB SWAP1 POP DUP1 NOT DUP3 MLOAD AND DUP2 DUP5 MLOAD AND DUP2 DUP2 OR DUP6 MSTORE POP POP POP DUP7 SWAP3 POP POP POP SWAP5 SWAP4 POP POP POP POP JUMP JUMPDEST PUSH2 0x195A DUP3 PUSH1 0x2 DUP4 MLOAD PUSH2 0x141D JUMP JUMPDEST PUSH2 0x196D DUP2 DUP4 PUSH2 0x15A2 SWAP1 SWAP2 SWAP1 PUSH4 0xFFFFFFFF AND JUMP JUMPDEST POP POP POP JUMP JUMPDEST PUSH2 0x197A PUSH2 0x1B8A JUMP JUMPDEST DUP4 PUSH1 0x20 ADD MLOAD DUP4 LT PUSH2 0x19A0 JUMPI PUSH2 0x199F DUP5 PUSH1 0x2 DUP7 PUSH1 0x20 ADD MLOAD PUSH2 0x199A SWAP2 SWAP1 PUSH2 0x2630 JUMP JUMPDEST PUSH2 0x1A73 JUMP JUMPDEST JUMPDEST DUP4 MLOAD DUP1 MLOAD PUSH1 0x20 DUP6 DUP4 ADD ADD DUP5 DUP2 MSTORE8 DUP2 DUP7 EQ ISZERO PUSH2 0x19BC JUMPI PUSH1 0x1 DUP3 ADD DUP4 MSTORE JUMPDEST POP POP POP DUP4 SWAP1 POP SWAP4 SWAP3 POP POP POP JUMP JUMPDEST PUSH2 0x19D1 PUSH2 0x1B8A JUMP JUMPDEST DUP5 PUSH1 0x20 ADD MLOAD DUP5 DUP4 PUSH2 0x19E2 SWAP2 SWAP1 PUSH2 0x2804 JUMP JUMPDEST GT ISZERO PUSH2 0x1A0A JUMPI PUSH2 0x1A09 DUP6 PUSH1 0x2 DUP7 DUP6 PUSH2 0x19FA SWAP2 SWAP1 PUSH2 0x2804 JUMP JUMPDEST PUSH2 0x1A04 SWAP2 SWAP1 PUSH2 0x2630 JUMP JUMPDEST PUSH2 0x1A73 JUMP JUMPDEST JUMPDEST PUSH1 0x0 PUSH1 0x1 DUP4 PUSH2 0x100 PUSH2 0x1A1C SWAP2 SWAP1 PUSH2 0x2DE2 JUMP JUMPDEST PUSH2 0x1A26 SWAP2 SWAP1 PUSH2 0x2A6D JUMP JUMPDEST SWAP1 POP DUP6 MLOAD DUP4 DUP7 DUP3 ADD ADD DUP6 DUP4 NOT DUP3 MLOAD AND OR DUP2 MSTORE DUP2 MLOAD DUP6 DUP9 ADD GT ISZERO PUSH2 0x1A49 JUMPI DUP5 DUP8 ADD DUP3 MSTORE JUMPDEST POP POP DUP6 SWAP2 POP POP SWAP5 SWAP4 POP POP POP POP JUMP JUMPDEST PUSH1 0x0 DUP2 DUP4 GT ISZERO PUSH2 0x1A69 JUMPI DUP3 SWAP1 POP PUSH2 0x1A6D JUMP JUMPDEST DUP2 SWAP1 POP JUMPDEST SWAP3 SWAP2 POP POP JUMP JUMPDEST PUSH1 0x0 DUP3 PUSH1 0x0 ADD MLOAD SWAP1 POP PUSH2 0x1A86 DUP4 DUP4 PUSH2 0x13B3 JUMP JUMPDEST POP PUSH2 0x1A91 DUP4 DUP3 PUSH2 0x15A2 JUMP JUMPDEST POP POP POP POP JUMP JUMPDEST DUP3 DUP1 SLOAD PUSH2 0x1AA3 SWAP1 PUSH2 0x2247 JUMP JUMPDEST SWAP1 PUSH1 0x0 MSTORE PUSH1 0x20 PUSH1 0x0 KECCAK256 SWAP1 PUSH1 0x1F ADD PUSH1 0x20 SWAP1 DIV DUP2 ADD SWAP3 DUP3 PUSH2 0x1AC5 JUMPI PUSH1 0x0 DUP6 SSTORE PUSH2 0x1B0C JUMP JUMPDEST DUP3 PUSH1 0x1F LT PUSH2 0x1ADE JUMPI DUP1 MLOAD PUSH1 0xFF NOT AND DUP4 DUP1 ADD OR DUP6 SSTORE PUSH2 0x1B0C JUMP JUMPDEST DUP3 DUP1 ADD PUSH1 0x1 ADD DUP6 SSTORE DUP3 ISZERO PUSH2 0x1B0C JUMPI SWAP2 DUP3 ADD JUMPDEST DUP3 DUP2 GT ISZERO PUSH2 0x1B0B JUMPI DUP3 MLOAD DUP3 SSTORE SWAP2 PUSH1 0x20 ADD SWAP2 SWAP1 PUSH1 0x1 ADD SWAP1 PUSH2 0x1AF0 JUMP JUMPDEST JUMPDEST POP SWAP1 POP PUSH2 0x1B19 SWAP2 SWAP1 PUSH2 0x1BA4 JUMP JUMPDEST POP SWAP1 JUMP JUMPDEST PUSH1 0x40 MLOAD DUP1 PUSH1 0xA0 ADD PUSH1 0x40 MSTORE DUP1 PUSH1 0x0 DUP1 NOT AND DUP2 MSTORE PUSH1 0x20 ADD PUSH1 0x0 PUSH20 0xFFFFFFFFFFFFFFFFFFFFFFFFFFFFFFFFFFFFFFFF AND DUP2 MSTORE PUSH1 0x20 ADD PUSH1 0x0 PUSH28 0xFFFFFFFFFFFFFFFFFFFFFFFFFFFFFFFFFFFFFFFFFFFFFFFFFFFFFFFF NOT AND DUP2 MSTORE PUSH1 0x20 ADD PUSH1 0x0 DUP2 MSTORE PUSH1 0x20 ADD PUSH2 0x1B84 PUSH2 0x1B8A JUMP JUMPDEST DUP2 MSTORE POP SWAP1 JUMP JUMPDEST PUSH1 0x40 MLOAD DUP1 PUSH1 0x40 ADD PUSH1 0x40 MSTORE DUP1 PUSH1 0x60 DUP2 MSTORE PUSH1 0x20 ADD PUSH1 0x0 DUP2 MSTORE POP SWAP1 JUMP JUMPDEST JUMPDEST DUP1 DUP3 GT ISZERO PUSH2 0x1BBD JUMPI PUSH1 0x0 DUP2 PUSH1 0x0 SWAP1 SSTORE POP PUSH1 0x1 ADD PUSH2 0x1BA5 JUMP JUMPDEST POP SWAP1 JUMP JUMPDEST PUSH1 0x0 DUP2 SWAP1 POP SWAP2 SWAP1 POP JUMP JUMPDEST PUSH2 0x1BD4 DUP2 PUSH2 0x1BC1 JUMP JUMPDEST DUP3 MSTORE POP POP JUMP JUMPDEST PUSH1 0x0 PUSH1 0x20 DUP3 ADD SWAP1 POP PUSH2 0x1BEF PUSH1 0x0 DUP4 ADD DUP5 PUSH2 0x1BCB JUMP JUMPDEST SWAP3 SWAP2 POP POP JUMP JUMPDEST PUSH1 0x0 PUSH1 0x40 MLOAD SWAP1 POP SWAP1 JUMP JUMPDEST PUSH1 0x0 DUP1 REVERT JUMPDEST PUSH1 0x0 DUP1 REVERT JUMPDEST PUSH1 0x0 DUP1 REVERT JUMPDEST PUSH1 0x0 DUP1 REVERT JUMPDEST PUSH1 0x0 PUSH1 0x1F NOT PUSH1 0x1F DUP4 ADD AND SWAP1 POP SWAP2 SWAP1 POP JUMP JUMPDEST PUSH32 0x4E487B7100000000000000000000000000000000000000000000000000000000 PUSH1 0x0 MSTORE PUSH1 0x41 PUSH1 0x4 MSTORE PUSH1 0x24 PUSH1 0x0 REVERT JUMPDEST PUSH2 0x1C5C DUP3 PUSH2 0x1C13 JUMP JUMPDEST DUP2 ADD DUP2 DUP2 LT PUSH8 0xFFFFFFFFFFFFFFFF DUP3 GT OR ISZERO PUSH2 0x1C7B JUMPI PUSH2 0x1C7A PUSH2 0x1C24 JUMP JUMPDEST JUMPDEST DUP1 PUSH1 0x40 MSTORE POP POP POP JUMP JUMPDEST PUSH1 0x0 PUSH2 0x1C8E PUSH2 0x1BF5 JUMP JUMPDEST SWAP1 POP PUSH2 0x1C9A DUP3 DUP3 PUSH2 0x1C53 JUMP JUMPDEST SWAP2 SWAP1 POP JUMP JUMPDEST PUSH1 0x0 PUSH8 0xFFFFFFFFFFFFFFFF DUP3 GT ISZERO PUSH2 0x1CBA JUMPI PUSH2 0x1CB9 PUSH2 0x1C24 JUMP JUMPDEST JUMPDEST PUSH2 0x1CC3 DUP3 PUSH2 0x1C13 JUMP JUMPDEST SWAP1 POP PUSH1 0x20 DUP2 ADD SWAP1 POP SWAP2 SWAP1 POP JUMP JUMPDEST DUP3 DUP2 DUP4 CALLDATACOPY PUSH1 0x0 DUP4 DUP4 ADD MSTORE POP POP POP JUMP JUMPDEST PUSH1 0x0 PUSH2 0x1CF2 PUSH2 0x1CED DUP5 PUSH2 0x1C9F JUMP JUMPDEST PUSH2 0x1C84 JUMP JUMPDEST SWAP1 POP DUP3 DUP2 MSTORE PUSH1 0x20 DUP2 ADD DUP5 DUP5 DUP5 ADD GT ISZERO PUSH2 0x1D0E JUMPI PUSH2 0x1D0D PUSH2 0x1C0E JUMP JUMPDEST JUMPDEST PUSH2 0x1D19 DUP5 DUP3 DUP6 PUSH2 0x1CD0 JUMP JUMPDEST POP SWAP4 SWAP3 POP POP POP JUMP JUMPDEST PUSH1 0x0 DUP3 PUSH1 0x1F DUP4 ADD SLT PUSH2 0x1D36 JUMPI PUSH2 0x1D35 PUSH2 0x1C09 JUMP JUMPDEST JUMPDEST DUP2 CALLDATALOAD PUSH2 0x1D46 DUP5 DUP3 PUSH1 0x20 DUP7 ADD PUSH2 0x1CDF JUMP JUMPDEST SWAP2 POP POP SWAP3 SWAP2 POP POP JUMP JUMPDEST PUSH1 0x0 PUSH1 0x20 DUP3 DUP5 SUB SLT ISZERO PUSH2 0x1D65 JUMPI PUSH2 0x1D64 PUSH2 0x1BFF JUMP JUMPDEST JUMPDEST PUSH1 0x0 DUP3 ADD CALLDATALOAD PUSH8 0xFFFFFFFFFFFFFFFF DUP2 GT ISZERO PUSH2 0x1D83 JUMPI PUSH2 0x1D82 PUSH2 0x1C04 JUMP JUMPDEST JUMPDEST PUSH2 0x1D8F DUP5 DUP3 DUP6 ADD PUSH2 0x1D21 JUMP JUMPDEST SWAP2 POP POP SWAP3 SWAP2 POP POP JUMP JUMPDEST PUSH1 0x0 DUP2 SWAP1 POP SWAP2 SWAP1 POP JUMP JUMPDEST PUSH2 0x1DAB DUP2 PUSH2 0x1D98 JUMP JUMPDEST DUP3 MSTORE POP POP JUMP JUMPDEST PUSH1 0x0 PUSH1 0x20 DUP3 ADD SWAP1 POP PUSH2 0x1DC6 PUSH1 0x0 DUP4 ADD DUP5 PUSH2 0x1DA2 JUMP JUMPDEST SWAP3 SWAP2 POP POP JUMP JUMPDEST PUSH1 0x0 DUP2 MLOAD SWAP1 POP SWAP2 SWAP1 POP JUMP JUMPDEST PUSH1 0x0 DUP3 DUP3 MSTORE PUSH1 0x20 DUP3 ADD SWAP1 POP SWAP3 SWAP2 POP POP JUMP JUMPDEST PUSH1 0x0 JUMPDEST DUP4 DUP2 LT ISZERO PUSH2 0x1E06 JUMPI DUP1 DUP3 ADD MLOAD DUP2 DUP5 ADD MSTORE PUSH1 0x20 DUP2 ADD SWAP1 POP PUSH2 0x1DEB JUMP JUMPDEST DUP4 DUP2 GT ISZERO PUSH2 0x1E15 JUMPI PUSH1 0x0 DUP5 DUP5 ADD MSTORE JUMPDEST POP POP POP POP JUMP JUMPDEST PUSH1 0x0 PUSH2 0x1E26 DUP3 PUSH2 0x1DCC JUMP JUMPDEST PUSH2 0x1E30 DUP2 DUP6 PUSH2 0x1DD7 JUMP JUMPDEST SWAP4 POP PUSH2 0x1E40 DUP2 DUP6 PUSH1 0x20 DUP7 ADD PUSH2 0x1DE8 JUMP JUMPDEST PUSH2 0x1E49 DUP2 PUSH2 0x1C13 JUMP JUMPDEST DUP5 ADD SWAP2 POP POP SWAP3 SWAP2 POP POP JUMP JUMPDEST PUSH1 0x0 PUSH1 0x20 DUP3 ADD SWAP1 POP DUP2 DUP2 SUB PUSH1 0x0 DUP4 ADD MSTORE PUSH2 0x1E6E DUP2 DUP5 PUSH2 0x1E1B JUMP JUMPDEST SWAP1 POP SWAP3 SWAP2 POP POP JUMP JUMPDEST PUSH2 0x1E7F DUP2 PUSH2 0x1D98 JUMP JUMPDEST DUP2 EQ PUSH2 0x1E8A JUMPI PUSH1 0x0 DUP1 REVERT JUMPDEST POP JUMP JUMPDEST PUSH1 0x0 DUP2 CALLDATALOAD SWAP1 POP PUSH2 0x1E9C DUP2 PUSH2 0x1E76 JUMP JUMPDEST SWAP3 SWAP2 POP POP JUMP JUMPDEST PUSH1 0x0 DUP1 PUSH1 0x40 DUP4 DUP6 SUB SLT ISZERO PUSH2 0x1EB9 JUMPI PUSH2 0x1EB8 PUSH2 0x1BFF JUMP JUMPDEST JUMPDEST PUSH1 0x0 PUSH2 0x1EC7 DUP6 DUP3 DUP7 ADD PUSH2 0x1E8D JUMP JUMPDEST SWAP3 POP POP PUSH1 0x20 DUP4 ADD CALLDATALOAD PUSH8 0xFFFFFFFFFFFFFFFF DUP2 GT ISZERO PUSH2 0x1EE8 JUMPI PUSH2 0x1EE7 PUSH2 0x1C04 JUMP JUMPDEST JUMPDEST PUSH2 0x1EF4 DUP6 DUP3 DUP7 ADD PUSH2 0x1D21 JUMP JUMPDEST SWAP2 POP POP SWAP3 POP SWAP3 SWAP1 POP JUMP JUMPDEST PUSH2 0x1F07 DUP2 PUSH2 0x1BC1 JUMP JUMPDEST DUP2 EQ PUSH2 0x1F12 JUMPI PUSH1 0x0 DUP1 REVERT JUMPDEST POP JUMP JUMPDEST PUSH1 0x0 DUP2 CALLDATALOAD SWAP1 POP PUSH2 0x1F24 DUP2 PUSH2 0x1EFE JUMP JUMPDEST SWAP3 SWAP2 POP POP JUMP JUMPDEST PUSH1 0x0 DUP1 PUSH1 0x40 DUP4 DUP6 SUB SLT ISZERO PUSH2 0x1F41 JUMPI PUSH2 0x1F40 PUSH2 0x1BFF JUMP JUMPDEST JUMPDEST PUSH1 0x0 PUSH2 0x1F4F DUP6 DUP3 DUP7 ADD PUSH2 0x1E8D JUMP JUMPDEST SWAP3 POP POP PUSH1 0x20 PUSH2 0x1F60 DUP6 DUP3 DUP7 ADD PUSH2 0x1F15 JUMP JUMPDEST SWAP2 POP POP SWAP3 POP SWAP3 SWAP1 POP JUMP JUMPDEST PUSH1 0x0 PUSH20 0xFFFFFFFFFFFFFFFFFFFFFFFFFFFFFFFFFFFFFFFF DUP3 AND SWAP1 POP SWAP2 SWAP1 POP JUMP JUMPDEST PUSH1 0x0 PUSH2 0x1F95 DUP3 PUSH2 0x1F6A JUMP JUMPDEST SWAP1 POP SWAP2 SWAP1 POP JUMP JUMPDEST PUSH2 0x1FA5 DUP2 PUSH2 0x1F8A JUMP JUMPDEST DUP3 MSTORE POP POP JUMP JUMPDEST PUSH1 0x0 PUSH1 0x20 DUP3 ADD SWAP1 POP PUSH2 0x1FC0 PUSH1 0x0 DUP4 ADD DUP5 PUSH2 0x1F9C JUMP JUMPDEST SWAP3 SWAP2 POP POP JUMP JUMPDEST PUSH1 0x0 DUP1 PUSH1 0x40 DUP4 DUP6 SUB SLT ISZERO PUSH2 0x1FDD JUMPI PUSH2 0x1FDC PUSH2 0x1BFF JUMP JUMPDEST JUMPDEST PUSH1 0x0 DUP4 ADD CALLDATALOAD PUSH8 0xFFFFFFFFFFFFFFFF DUP2 GT ISZERO PUSH2 0x1FFB JUMPI PUSH2 0x1FFA PUSH2 0x1C04 JUMP JUMPDEST JUMPDEST PUSH2 0x2007 DUP6 DUP3 DUP7 ADD PUSH2 0x1D21 JUMP JUMPDEST SWAP3 POP POP PUSH1 0x20 PUSH2 0x2018 DUP6 DUP3 DUP7 ADD PUSH2 0x1F15 JUMP JUMPDEST SWAP2 POP POP SWAP3 POP SWAP3 SWAP1 POP JUMP JUMPDEST PUSH2 0x202B DUP2 PUSH2 0x1F8A JUMP JUMPDEST DUP2 EQ PUSH2 0x2036 JUMPI PUSH1 0x0 DUP1 REVERT JUMPDEST POP JUMP JUMPDEST PUSH1 0x0 DUP2 CALLDATALOAD SWAP1 POP PUSH2 0x2048 DUP2 PUSH2 0x2022 JUMP JUMPDEST SWAP3 SWAP2 POP POP JUMP JUMPDEST PUSH1 0x0 PUSH1 0x20 DUP3 DUP5 SUB SLT ISZERO PUSH2 0x2064 JUMPI PUSH2 0x2063 PUSH2 0x1BFF JUMP JUMPDEST JUMPDEST PUSH1 0x0 PUSH2 0x2072 DUP5 DUP3 DUP6 ADD PUSH2 0x2039 JUMP JUMPDEST SWAP2 POP POP SWAP3 SWAP2 POP POP JUMP JUMPDEST PUSH1 0x0 DUP2 SWAP1 POP SWAP3 SWAP2 POP POP JUMP JUMPDEST PUSH32 0x68747470733A2F2F7777772E616C70686176616E746167652E636F2F71756572 PUSH1 0x0 DUP3 ADD MSTORE PUSH32 0x793F66756E6374696F6E3D53594D424F4C5F534541524348266B6579776F7264 PUSH1 0x20 DUP3 ADD MSTORE PUSH32 0x733D000000000000000000000000000000000000000000000000000000000000 PUSH1 0x40 DUP3 ADD MSTORE POP JUMP JUMPDEST PUSH1 0x0 PUSH2 0x2108 PUSH1 0x42 DUP4 PUSH2 0x207B JUMP JUMPDEST SWAP2 POP PUSH2 0x2113 DUP3 PUSH2 0x2086 JUMP JUMPDEST PUSH1 0x42 DUP3 ADD SWAP1 POP SWAP2 SWAP1 POP JUMP JUMPDEST PUSH1 0x0 PUSH2 0x2129 DUP3 PUSH2 0x1DCC JUMP JUMPDEST PUSH2 0x2133 DUP2 DUP6 PUSH2 0x207B JUMP JUMPDEST SWAP4 POP PUSH2 0x2143 DUP2 DUP6 PUSH1 0x20 DUP7 ADD PUSH2 0x1DE8 JUMP JUMPDEST DUP1 DUP5 ADD SWAP2 POP POP SWAP3 SWAP2 POP POP JUMP JUMPDEST PUSH32 0x266170696B65793D767876637876000000000000000000000000000000000000 DUP2 MSTORE POP JUMP JUMPDEST PUSH1 0x0 PUSH2 0x2180 DUP3 PUSH2 0x20FB JUMP JUMPDEST SWAP2 POP PUSH2 0x218C DUP3 DUP5 PUSH2 0x211E JUMP JUMPDEST SWAP2 POP PUSH2 0x2197 DUP3 PUSH2 0x214F JUMP JUMPDEST PUSH1 0xE DUP3 ADD SWAP2 POP DUP2 SWAP1 POP SWAP3 SWAP2 POP POP JUMP JUMPDEST PUSH32 0x68747470733A2F2F6D696E2D6170692E63727970746F636F6D706172652E636F PUSH1 0x0 DUP3 ADD MSTORE PUSH32 0x6D2F646174612F70726963653F6673796D3D0000000000000000000000000000 PUSH1 0x20 DUP3 ADD MSTORE POP JUMP JUMPDEST PUSH1 0x0 PUSH2 0x2202 PUSH1 0x32 DUP4 PUSH2 0x207B JUMP JUMPDEST SWAP2 POP PUSH2 0x220D DUP3 PUSH2 0x21A6 JUMP JUMPDEST PUSH1 0x32 DUP3 ADD SWAP1 POP SWAP2 SWAP1 POP JUMP JUMPDEST PUSH32 0x4E487B7100000000000000000000000000000000000000000000000000000000 PUSH1 0x0 MSTORE PUSH1 0x22 PUSH1 0x4 MSTORE PUSH1 0x24 PUSH1 0x0 REVERT JUMPDEST PUSH1 0x0 PUSH1 0x2 DUP3 DIV SWAP1 POP PUSH1 0x1 DUP3 AND DUP1 PUSH2 0x225F JUMPI PUSH1 0x7F DUP3 AND SWAP2 POP JUMPDEST PUSH1 0x20 DUP3 LT DUP2 EQ ISZERO PUSH2 0x2273 JUMPI PUSH2 0x2272 PUSH2 0x2218 JUMP JUMPDEST JUMPDEST POP SWAP2 SWAP1 POP JUMP JUMPDEST PUSH1 0x0 DUP2 SWAP1 POP DUP2 PUSH1 0x0 MSTORE PUSH1 0x20 PUSH1 0x0 KECCAK256 SWAP1 POP SWAP2 SWAP1 POP JUMP JUMPDEST PUSH1 0x0 DUP2 SLOAD PUSH2 0x229B DUP2 PUSH2 0x2247 JUMP JUMPDEST PUSH2 0x22A5 DUP2 DUP7 PUSH2 0x207B JUMP JUMPDEST SWAP5 POP PUSH1 0x1 DUP3 AND PUSH1 0x0 DUP2 EQ PUSH2 0x22C0 JUMPI PUSH1 0x1 DUP2 EQ PUSH2 0x22D1 JUMPI PUSH2 0x2304 JUMP JUMPDEST PUSH1 0xFF NOT DUP4 AND DUP7 MSTORE DUP2 DUP7 ADD SWAP4 POP PUSH2 0x2304 JUMP JUMPDEST PUSH2 0x22DA DUP6 PUSH2 0x2279 JUMP JUMPDEST PUSH1 0x0 JUMPDEST DUP4 DUP2 LT ISZERO PUSH2 0x22FC JUMPI DUP2 SLOAD DUP2 DUP10 ADD MSTORE PUSH1 0x1 DUP3 ADD SWAP2 POP PUSH1 0x20 DUP2 ADD SWAP1 POP PUSH2 0x22DD JUMP JUMPDEST DUP4 DUP9 ADD SWAP6 POP POP POP JUMPDEST POP POP POP SWAP3 SWAP2 POP POP JUMP JUMPDEST PUSH32 0x267473796D733D455448266170695F6B65793D64623035383664373730353031 PUSH1 0x0 DUP3 ADD MSTORE PUSH32 0x3535613031646566363232316530326339363665396431313938316432616464 PUSH1 0x20 DUP3 ADD MSTORE PUSH32 0x6439373164386165323161383537323965396100000000000000000000000000 PUSH1 0x40 DUP3 ADD MSTORE POP JUMP JUMPDEST PUSH1 0x0 PUSH2 0x238F PUSH1 0x53 DUP4 PUSH2 0x207B JUMP JUMPDEST SWAP2 POP PUSH2 0x239A DUP3 PUSH2 0x230D JUMP JUMPDEST PUSH1 0x53 DUP3 ADD SWAP1 POP SWAP2 SWAP1 POP JUMP JUMPDEST PUSH1 0x0 PUSH2 0x23B0 DUP3 PUSH2 0x21F5 JUMP JUMPDEST SWAP2 POP PUSH2 0x23BC DUP3 DUP5 PUSH2 0x228E JUMP JUMPDEST SWAP2 POP PUSH2 0x23C7 DUP3 PUSH2 0x2382 JUMP JUMPDEST SWAP2 POP DUP2 SWAP1 POP SWAP3 SWAP2 POP POP JUMP JUMPDEST PUSH32 0x536F75726365206D75737420626520746865206F7261636C65206F6620746865 PUSH1 0x0 DUP3 ADD MSTORE PUSH32 0x2072657175657374000000000000000000000000000000000000000000000000 PUSH1 0x20 DUP3 ADD MSTORE POP JUMP JUMPDEST PUSH1 0x0 PUSH2 0x242E PUSH1 0x28 DUP4 PUSH2 0x1DD7 JUMP JUMPDEST SWAP2 POP PUSH2 0x2439 DUP3 PUSH2 0x23D2 JUMP JUMPDEST PUSH1 0x40 DUP3 ADD SWAP1 POP SWAP2 SWAP1 POP JUMP JUMPDEST PUSH1 0x0 PUSH1 0x20 DUP3 ADD SWAP1 POP DUP2 DUP2 SUB PUSH1 0x0 DUP4 ADD MSTORE PUSH2 0x245D DUP2 PUSH2 0x2421 JUMP JUMPDEST SWAP1 POP SWAP2 SWAP1 POP JUMP JUMPDEST PUSH32 0x68747470733A2F2F7777772E616C70686176616E746167652E636F2F71756572 PUSH1 0x0 DUP3 ADD MSTORE PUSH32 0x793F66756E6374696F6E3D54494D455F5345524945535F494E54524144415926 PUSH1 0x20 DUP3 ADD MSTORE PUSH32 0x73796D626F6C3D00000000000000000000000000000000000000000000000000 PUSH1 0x40 DUP3 ADD MSTORE POP JUMP JUMPDEST PUSH1 0x0 PUSH2 0x24E6 PUSH1 0x47 DUP4 PUSH2 0x207B JUMP JUMPDEST SWAP2 POP PUSH2 0x24F1 DUP3 PUSH2 0x2464 JUMP JUMPDEST PUSH1 0x47 DUP3 ADD SWAP1 POP SWAP2 SWAP1 POP JUMP JUMPDEST PUSH32 0x26696E74657276616C3D356D696E266170696B65793D76787663787600000000 DUP2 MSTORE POP JUMP JUMPDEST PUSH1 0x0 PUSH2 0x252D DUP3 PUSH2 0x24D9 JUMP JUMPDEST SWAP2 POP PUSH2 0x2539 DUP3 DUP5 PUSH2 0x211E JUMP JUMPDEST SWAP2 POP PUSH2 0x2544 DUP3 PUSH2 0x24FC JUMP JUMPDEST PUSH1 0x1C DUP3 ADD SWAP2 POP DUP2 SWAP1 POP SWAP3 SWAP2 POP POP JUMP JUMPDEST PUSH32 0x4D7573742062652070726F706F736564206F776E657200000000000000000000 PUSH1 0x0 DUP3 ADD MSTORE POP JUMP JUMPDEST PUSH1 0x0 PUSH2 0x2589 PUSH1 0x16 DUP4 PUSH2 0x1DD7 JUMP JUMPDEST SWAP2 POP PUSH2 0x2594 DUP3 PUSH2 0x2553 JUMP JUMPDEST PUSH1 0x20 DUP3 ADD SWAP1 POP SWAP2 SWAP1 POP JUMP JUMPDEST PUSH1 0x0 PUSH1 0x20 DUP3 ADD SWAP1 POP DUP2 DUP2 SUB PUSH1 0x0 DUP4 ADD MSTORE PUSH2 0x25B8 DUP2 PUSH2 0x257C JUMP JUMPDEST SWAP1 POP SWAP2 SWAP1 POP JUMP JUMPDEST PUSH1 0x0 DUP2 MLOAD SWAP1 POP PUSH2 0x25CE DUP2 PUSH2 0x1E76 JUMP JUMPDEST SWAP3 SWAP2 POP POP JUMP JUMPDEST PUSH1 0x0 PUSH1 0x20 DUP3 DUP5 SUB SLT ISZERO PUSH2 0x25EA JUMPI PUSH2 0x25E9 PUSH2 0x1BFF JUMP JUMPDEST JUMPDEST PUSH1 0x0 PUSH2 0x25F8 DUP5 DUP3 DUP6 ADD PUSH2 0x25BF JUMP JUMPDEST SWAP2 POP POP SWAP3 SWAP2 POP POP JUMP JUMPDEST PUSH32 0x4E487B7100000000000000000000000000000000000000000000000000000000 PUSH1 0x0 MSTORE PUSH1 0x11 PUSH1 0x4 MSTORE PUSH1 0x24 PUSH1 0x0 REVERT JUMPDEST PUSH1 0x0 PUSH2 0x263B DUP3 PUSH2 0x1BC1 JUMP JUMPDEST SWAP2 POP PUSH2 0x2646 DUP4 PUSH2 0x1BC1 JUMP JUMPDEST SWAP3 POP DUP2 PUSH32 0xFFFFFFFFFFFFFFFFFFFFFFFFFFFFFFFFFFFFFFFFFFFFFFFFFFFFFFFFFFFFFFFF DIV DUP4 GT DUP3 ISZERO ISZERO AND ISZERO PUSH2 0x267F JUMPI PUSH2 0x267E PUSH2 0x2601 JUMP JUMPDEST JUMPDEST DUP3 DUP3 MUL SWAP1 POP SWAP3 SWAP2 POP POP JUMP JUMPDEST PUSH32 0x4572726F72000000000000000000000000000000000000000000000000000000 PUSH1 0x0 DUP3 ADD MSTORE POP JUMP JUMPDEST PUSH1 0x0 PUSH2 0x26C0 PUSH1 0x5 DUP4 PUSH2 0x1DD7 JUMP JUMPDEST SWAP2 POP PUSH2 0x26CB DUP3 PUSH2 0x268A JUMP JUMPDEST PUSH1 0x20 DUP3 ADD SWAP1 POP SWAP2 SWAP1 POP JUMP JUMPDEST PUSH1 0x0 PUSH1 0x20 DUP3 ADD SWAP1 POP DUP2 DUP2 SUB PUSH1 0x0 DUP4 ADD MSTORE PUSH2 0x26EF DUP2 PUSH2 0x26B3 JUMP JUMPDEST SWAP1 POP SWAP2 SWAP1 POP JUMP JUMPDEST PUSH1 0x0 DUP2 ISZERO ISZERO SWAP1 POP SWAP2 SWAP1 POP JUMP JUMPDEST PUSH2 0x270B DUP2 PUSH2 0x26F6 JUMP JUMPDEST DUP3 MSTORE POP POP JUMP JUMPDEST PUSH1 0x0 PUSH1 0x20 DUP3 ADD SWAP1 POP PUSH2 0x2726 PUSH1 0x0 DUP4 ADD DUP5 PUSH2 0x2702 JUMP JUMPDEST SWAP3 SWAP2 POP POP JUMP JUMPDEST PUSH32 0x4F6E6C792063616C6C61626C65206279206F776E657200000000000000000000 PUSH1 0x0 DUP3 ADD MSTORE POP JUMP JUMPDEST PUSH1 0x0 PUSH2 0x2762 PUSH1 0x16 DUP4 PUSH2 0x1DD7 JUMP JUMPDEST SWAP2 POP PUSH2 0x276D DUP3 PUSH2 0x272C JUMP JUMPDEST PUSH1 0x20 DUP3 ADD SWAP1 POP SWAP2 SWAP1 POP JUMP JUMPDEST PUSH1 0x0 PUSH1 0x20 DUP3 ADD SWAP1 POP DUP2 DUP2 SUB PUSH1 0x0 DUP4 ADD MSTORE PUSH2 0x2791 DUP2 PUSH2 0x2755 JUMP JUMPDEST SWAP1 POP SWAP2 SWAP1 POP JUMP JUMPDEST PUSH32 0x43616E6E6F74207472616E7366657220746F2073656C66000000000000000000 PUSH1 0x0 DUP3 ADD MSTORE POP JUMP JUMPDEST PUSH1 0x0 PUSH2 0x27CE PUSH1 0x17 DUP4 PUSH2 0x1DD7 JUMP JUMPDEST SWAP2 POP PUSH2 0x27D9 DUP3 PUSH2 0x2798 JUMP JUMPDEST PUSH1 0x20 DUP3 ADD SWAP1 POP SWAP2 SWAP1 POP JUMP JUMPDEST PUSH1 0x0 PUSH1 0x20 DUP3 ADD SWAP1 POP DUP2 DUP2 SUB PUSH1 0x0 DUP4 ADD MSTORE PUSH2 0x27FD DUP2 PUSH2 0x27C1 JUMP JUMPDEST SWAP1 POP SWAP2 SWAP1 POP JUMP JUMPDEST PUSH1 0x0 PUSH2 0x280F DUP3 PUSH2 0x1BC1 JUMP JUMPDEST SWAP2 POP PUSH2 0x281A DUP4 PUSH2 0x1BC1 JUMP JUMPDEST SWAP3 POP DUP3 PUSH32 0xFFFFFFFFFFFFFFFFFFFFFFFFFFFFFFFFFFFFFFFFFFFFFFFFFFFFFFFFFFFFFFFF SUB DUP3 GT ISZERO PUSH2 0x284F JUMPI PUSH2 0x284E PUSH2 0x2601 JUMP JUMPDEST JUMPDEST DUP3 DUP3 ADD SWAP1 POP SWAP3 SWAP2 POP POP JUMP JUMPDEST PUSH1 0x0 PUSH32 0xFFFFFFFF00000000000000000000000000000000000000000000000000000000 DUP3 AND SWAP1 POP SWAP2 SWAP1 POP JUMP JUMPDEST PUSH2 0x288F DUP2 PUSH2 0x285A JUMP JUMPDEST DUP3 MSTORE POP POP JUMP JUMPDEST PUSH1 0x0 DUP2 MLOAD SWAP1 POP SWAP2 SWAP1 POP JUMP JUMPDEST PUSH1 0x0 DUP3 DUP3 MSTORE PUSH1 0x20 DUP3 ADD SWAP1 POP SWAP3 SWAP2 POP POP JUMP JUMPDEST PUSH1 0x0 PUSH2 0x28BC DUP3 PUSH2 0x2895 JUMP JUMPDEST PUSH2 0x28C6 DUP2 DUP6 PUSH2 0x28A0 JUMP JUMPDEST SWAP4 POP PUSH2 0x28D6 DUP2 DUP6 PUSH1 0x20 DUP7 ADD PUSH2 0x1DE8 JUMP JUMPDEST PUSH2 0x28DF DUP2 PUSH2 0x1C13 JUMP JUMPDEST DUP5 ADD SWAP2 POP POP SWAP3 SWAP2 POP POP JUMP JUMPDEST PUSH1 0x0 PUSH2 0x100 DUP3 ADD SWAP1 POP PUSH2 0x2900 PUSH1 0x0 DUP4 ADD DUP12 PUSH2 0x1F9C JUMP JUMPDEST PUSH2 0x290D PUSH1 0x20 DUP4 ADD DUP11 PUSH2 0x1BCB JUMP JUMPDEST PUSH2 0x291A PUSH1 0x40 DUP4 ADD DUP10 PUSH2 0x1DA2 JUMP JUMPDEST PUSH2 0x2927 PUSH1 0x60 DUP4 ADD DUP9 PUSH2 0x1F9C JUMP JUMPDEST PUSH2 0x2934 PUSH1 0x80 DUP4 ADD DUP8 PUSH2 0x2886 JUMP JUMPDEST PUSH2 0x2941 PUSH1 0xA0 DUP4 ADD DUP7 PUSH2 0x1BCB JUMP JUMPDEST PUSH2 0x294E PUSH1 0xC0 DUP4 ADD DUP6 PUSH2 0x1BCB JUMP JUMPDEST DUP2 DUP2 SUB PUSH1 0xE0 DUP4 ADD MSTORE PUSH2 0x2960 DUP2 DUP5 PUSH2 0x28B1 JUMP JUMPDEST SWAP1 POP SWAP10 SWAP9 POP POP POP POP POP POP POP POP POP JUMP JUMPDEST PUSH1 0x0 DUP2 SWAP1 POP SWAP2 SWAP1 POP JUMP JUMPDEST PUSH1 0x0 PUSH2 0x2984 DUP3 PUSH2 0x296F JUMP JUMPDEST SWAP2 POP PUSH2 0x298F DUP4 PUSH2 0x296F JUMP JUMPDEST SWAP3 POP DUP3 PUSH32 0x8000000000000000000000000000000000000000000000000000000000000000 ADD DUP3 SLT PUSH1 0x0 DUP5 SLT ISZERO AND ISZERO PUSH2 0x29CA JUMPI PUSH2 0x29C9 PUSH2 0x2601 JUMP JUMPDEST JUMPDEST DUP3 PUSH32 0x7FFFFFFFFFFFFFFFFFFFFFFFFFFFFFFFFFFFFFFFFFFFFFFFFFFFFFFFFFFFFFFF ADD DUP3 SGT PUSH1 0x0 DUP5 SLT AND ISZERO PUSH2 0x2A02 JUMPI PUSH2 0x2A01 PUSH2 0x2601 JUMP JUMPDEST JUMPDEST DUP3 DUP3 SUB SWAP1 POP SWAP3 SWAP2 POP POP JUMP JUMPDEST PUSH32 0x4E487B7100000000000000000000000000000000000000000000000000000000 PUSH1 0x0 MSTORE PUSH1 0x12 PUSH1 0x4 MSTORE PUSH1 0x24 PUSH1 0x0 REVERT JUMPDEST PUSH1 0x0 PUSH2 0x2A47 DUP3 PUSH2 0x1BC1 JUMP JUMPDEST SWAP2 POP PUSH2 0x2A52 DUP4 PUSH2 0x1BC1 JUMP JUMPDEST SWAP3 POP DUP3 PUSH2 0x2A62 JUMPI PUSH2 0x2A61 PUSH2 0x2A0D JUMP JUMPDEST JUMPDEST DUP3 DUP3 MOD SWAP1 POP SWAP3 SWAP2 POP POP JUMP JUMPDEST PUSH1 0x0 PUSH2 0x2A78 DUP3 PUSH2 0x1BC1 JUMP JUMPDEST SWAP2 POP PUSH2 0x2A83 DUP4 PUSH2 0x1BC1 JUMP JUMPDEST SWAP3 POP DUP3 DUP3 LT ISZERO PUSH2 0x2A96 JUMPI PUSH2 0x2A95 PUSH2 0x2601 JUMP JUMPDEST JUMPDEST DUP3 DUP3 SUB SWAP1 POP SWAP3 SWAP2 POP POP JUMP JUMPDEST PUSH1 0x0 DUP2 SWAP1 POP SWAP2 SWAP1 POP JUMP JUMPDEST PUSH1 0x0 PUSH2 0x2AC6 PUSH2 0x2AC1 PUSH2 0x2ABC DUP5 PUSH2 0x1F6A JUMP JUMPDEST PUSH2 0x2AA1 JUMP JUMPDEST PUSH2 0x1F6A JUMP JUMPDEST SWAP1 POP SWAP2 SWAP1 POP JUMP JUMPDEST PUSH1 0x0 PUSH2 0x2AD8 DUP3 PUSH2 0x2AAB JUMP JUMPDEST SWAP1 POP SWAP2 SWAP1 POP JUMP JUMPDEST PUSH1 0x0 PUSH2 0x2AEA DUP3 PUSH2 0x2ACD JUMP JUMPDEST SWAP1 POP SWAP2 SWAP1 POP JUMP JUMPDEST PUSH1 0x0 DUP2 PUSH1 0x60 SHL SWAP1 POP SWAP2 SWAP1 POP JUMP JUMPDEST PUSH1 0x0 PUSH2 0x2B09 DUP3 PUSH2 0x2AF1 JUMP JUMPDEST SWAP1 POP SWAP2 SWAP1 POP JUMP JUMPDEST PUSH1 0x0 PUSH2 0x2B1B DUP3 PUSH2 0x2AFE JUMP JUMPDEST SWAP1 POP SWAP2 SWAP1 POP JUMP JUMPDEST PUSH2 0x2B33 PUSH2 0x2B2E DUP3 PUSH2 0x2ADF JUMP JUMPDEST PUSH2 0x2B10 JUMP JUMPDEST DUP3 MSTORE POP POP JUMP JUMPDEST PUSH1 0x0 DUP2 SWAP1 POP SWAP2 SWAP1 POP JUMP JUMPDEST PUSH2 0x2B54 PUSH2 0x2B4F DUP3 PUSH2 0x1BC1 JUMP JUMPDEST PUSH2 0x2B39 JUMP JUMPDEST DUP3 MSTORE POP POP JUMP JUMPDEST PUSH1 0x0 PUSH2 0x2B66 DUP3 DUP6 PUSH2 0x2B22 JUMP JUMPDEST PUSH1 0x14 DUP3 ADD SWAP2 POP PUSH2 0x2B76 DUP3 DUP5 PUSH2 0x2B43 JUMP JUMPDEST PUSH1 0x20 DUP3 ADD SWAP2 POP DUP2 SWAP1 POP SWAP4 SWAP3 POP POP POP JUMP JUMPDEST PUSH1 0x0 PUSH1 0x60 DUP3 ADD SWAP1 POP PUSH2 0x2B9B PUSH1 0x0 DUP4 ADD DUP7 PUSH2 0x1F9C JUMP JUMPDEST PUSH2 0x2BA8 PUSH1 0x20 DUP4 ADD DUP6 PUSH2 0x1BCB JUMP JUMPDEST DUP2 DUP2 SUB PUSH1 0x40 DUP4 ADD MSTORE PUSH2 0x2BBA DUP2 DUP5 PUSH2 0x28B1 JUMP JUMPDEST SWAP1 POP SWAP5 SWAP4 POP POP POP POP JUMP JUMPDEST PUSH2 0x2BCD DUP2 PUSH2 0x26F6 JUMP JUMPDEST DUP2 EQ PUSH2 0x2BD8 JUMPI PUSH1 0x0 DUP1 REVERT JUMPDEST POP JUMP JUMPDEST PUSH1 0x0 DUP2 MLOAD SWAP1 POP PUSH2 0x2BEA DUP2 PUSH2 0x2BC4 JUMP JUMPDEST SWAP3 SWAP2 POP POP JUMP JUMPDEST PUSH1 0x0 PUSH1 0x20 DUP3 DUP5 SUB SLT ISZERO PUSH2 0x2C06 JUMPI PUSH2 0x2C05 PUSH2 0x1BFF JUMP JUMPDEST JUMPDEST PUSH1 0x0 PUSH2 0x2C14 DUP5 DUP3 DUP6 ADD PUSH2 0x2BDB JUMP JUMPDEST SWAP2 POP POP SWAP3 SWAP2 POP POP JUMP JUMPDEST PUSH32 0x756E61626C6520746F207472616E73666572416E6443616C6C20746F206F7261 PUSH1 0x0 DUP3 ADD MSTORE PUSH32 0x636C650000000000000000000000000000000000000000000000000000000000 PUSH1 0x20 DUP3 ADD MSTORE POP JUMP JUMPDEST PUSH1 0x0 PUSH2 0x2C79 PUSH1 0x23 DUP4 PUSH2 0x1DD7 JUMP JUMPDEST SWAP2 POP PUSH2 0x2C84 DUP3 PUSH2 0x2C1D JUMP JUMPDEST PUSH1 0x40 DUP3 ADD SWAP1 POP SWAP2 SWAP1 POP JUMP JUMPDEST PUSH1 0x0 PUSH1 0x20 DUP3 ADD SWAP1 POP DUP2 DUP2 SUB PUSH1 0x0 DUP4 ADD MSTORE PUSH2 0x2CA8 DUP2 PUSH2 0x2C6C JUMP JUMPDEST SWAP1 POP SWAP2 SWAP1 POP JUMP JUMPDEST PUSH1 0x0 DUP2 PUSH1 0x1 SHR SWAP1 POP SWAP2 SWAP1 POP JUMP JUMPDEST PUSH1 0x0 DUP1 DUP3 SWAP2 POP DUP4 SWAP1 POP JUMPDEST PUSH1 0x1 DUP6 GT ISZERO PUSH2 0x2D06 JUMPI DUP1 DUP7 DIV DUP2 GT ISZERO PUSH2 0x2CE2 JUMPI PUSH2 0x2CE1 PUSH2 0x2601 JUMP JUMPDEST JUMPDEST PUSH1 0x1 DUP6 AND ISZERO PUSH2 0x2CF1 JUMPI DUP1 DUP3 MUL SWAP2 POP JUMPDEST DUP1 DUP2 MUL SWAP1 POP PUSH2 0x2CFF DUP6 PUSH2 0x2CAF JUMP JUMPDEST SWAP5 POP PUSH2 0x2CC6 JUMP JUMPDEST SWAP5 POP SWAP5 SWAP3 POP POP POP JUMP JUMPDEST PUSH1 0x0 DUP3 PUSH2 0x2D1F JUMPI PUSH1 0x1 SWAP1 POP PUSH2 0x2DDB JUMP JUMPDEST DUP2 PUSH2 0x2D2D JUMPI PUSH1 0x0 SWAP1 POP PUSH2 0x2DDB JUMP JUMPDEST DUP2 PUSH1 0x1 DUP2 EQ PUSH2 0x2D43 JUMPI PUSH1 0x2 DUP2 EQ PUSH2 0x2D4D JUMPI PUSH2 0x2D7C JUMP JUMPDEST PUSH1 0x1 SWAP2 POP POP PUSH2 0x2DDB JUMP JUMPDEST PUSH1 0xFF DUP5 GT ISZERO PUSH2 0x2D5F JUMPI PUSH2 0x2D5E PUSH2 0x2601 JUMP JUMPDEST JUMPDEST DUP4 PUSH1 0x2 EXP SWAP2 POP DUP5 DUP3 GT ISZERO PUSH2 0x2D76 JUMPI PUSH2 0x2D75 PUSH2 0x2601 JUMP JUMPDEST JUMPDEST POP PUSH2 0x2DDB JUMP JUMPDEST POP PUSH1 0x20 DUP4 LT PUSH2 0x133 DUP4 LT AND PUSH1 0x4E DUP5 LT PUSH1 0xB DUP5 LT AND OR ISZERO PUSH2 0x2DB1 JUMPI DUP3 DUP3 EXP SWAP1 POP DUP4 DUP2 GT ISZERO PUSH2 0x2DAC JUMPI PUSH2 0x2DAB PUSH2 0x2601 JUMP JUMPDEST JUMPDEST PUSH2 0x2DDB JUMP JUMPDEST PUSH2 0x2DBE DUP5 DUP5 DUP5 PUSH1 0x1 PUSH2 0x2CBC JUMP JUMPDEST SWAP3 POP SWAP1 POP DUP2 DUP5 DIV DUP2 GT ISZERO PUSH2 0x2DD5 JUMPI PUSH2 0x2DD4 PUSH2 0x2601 JUMP JUMPDEST JUMPDEST DUP2 DUP2 MUL SWAP1 POP JUMPDEST SWAP4 SWAP3 POP POP POP JUMP JUMPDEST PUSH1 0x0 PUSH2 0x2DED DUP3 PUSH2 0x1BC1 JUMP JUMPDEST SWAP2 POP PUSH2 0x2DF8 DUP4 PUSH2 0x1BC1 JUMP JUMPDEST SWAP3 POP PUSH2 0x2E25 PUSH32 0xFFFFFFFFFFFFFFFFFFFFFFFFFFFFFFFFFFFFFFFFFFFFFFFFFFFFFFFFFFFFFFFF DUP5 DUP5 PUSH2 0x2D0F JUMP JUMPDEST SWAP1 POP SWAP3 SWAP2 POP POP JUMP INVALID SLOAD PUSH10 0x6D652053657269657320 0x28 CALLDATALOAD PUSH14 0x696E292C323032332D30312D3133 KECCAK256 BALANCE CALLDATASIZE GASPRICE CALLER ADDRESS GASPRICE ADDRESS ADDRESS 0x2C CALLVALUE 0x2E KECCAK256 PUSH4 0x6C6F7365 LOG2 PUSH5 0x6970667358 0x22 SLT KECCAK256 0xB4 0xED 0xFC DUP11 ADD GASLIMIT SHL MSTORE 0xBE SUB 0xBA ADDMOD PUSH30 0xC764E8631325A8D100E1B165C8429B5F5C0B3C64736F6C634300080C0033 "
				},
				"gasEstimates": {
					"creation": {
						"codeDepositCost": "2384400",
						"executionCost": "infinite",
						"totalCost": "infinite"
					},
					"external": {
						"acceptOwnership()": "54563",
						"convertCurrency()": "infinite",
						"convertedCurrency()": "2473",
						"fulfillCurrencyConverter(bytes32,uint256)": "50443",
						"fulfillStockCurrency(bytes32,string)": "infinite",
						"fulfillStockPrice(bytes32,uint256)": "50488",
						"getStockCurrency(string)": "infinite",
						"getStockPrice(string)": "infinite",
						"owner()": "2567",
						"selectedAmount()": "2453",
						"stockCurrency()": "infinite",
						"stockPrice()": "2495",
						"transferOwnership(address)": "30751",
						"validateTransaction(string,uint256)": "infinite"
					}
				},
				"methodIdentifiers": {
					"acceptOwnership()": "79ba5097",
					"convertCurrency()": "1fc58c87",
					"convertedCurrency()": "cb1f3d56",
					"fulfillCurrencyConverter(bytes32,uint256)": "c96a4ca2",
					"fulfillStockCurrency(bytes32,string)": "3b411fe4",
					"fulfillStockPrice(bytes32,uint256)": "5dfcb4c3",
					"getStockCurrency(string)": "163457b3",
					"getStockPrice(string)": "75c8bd62",
					"owner()": "8da5cb5b",
					"selectedAmount()": "140aab8f",
					"stockCurrency()": "26465937",
					"stockPrice()": "e2bff1dc",
					"transferOwnership(address)": "f2fde38b",
					"validateTransaction(string,uint256)": "a5ff3cda"
				}
			},
			"storageLayout": {
				"storage": [
					{
						"astId": 651,
						"contract": "griffins/backend/contracts/oracleContract.sol:FetchFromArray",
						"label": "s_ens",
						"offset": 0,
						"slot": "0",
						"type": "t_contract(ENSInterface)1488"
					},
					{
						"astId": 653,
						"contract": "griffins/backend/contracts/oracleContract.sol:FetchFromArray",
						"label": "s_ensNode",
						"offset": 0,
						"slot": "1",
						"type": "t_bytes32"
					},
					{
						"astId": 656,
						"contract": "griffins/backend/contracts/oracleContract.sol:FetchFromArray",
						"label": "s_link",
						"offset": 0,
						"slot": "2",
						"type": "t_contract(LinkTokenInterface)1583"
					},
					{
						"astId": 659,
						"contract": "griffins/backend/contracts/oracleContract.sol:FetchFromArray",
						"label": "s_oracle",
						"offset": 0,
						"slot": "3",
						"type": "t_contract(OperatorInterface)1663"
					},
					{
						"astId": 662,
						"contract": "griffins/backend/contracts/oracleContract.sol:FetchFromArray",
						"label": "s_requestCount",
						"offset": 0,
						"slot": "4",
						"type": "t_uint256"
					},
					{
						"astId": 666,
						"contract": "griffins/backend/contracts/oracleContract.sol:FetchFromArray",
						"label": "s_pendingRequests",
						"offset": 0,
						"slot": "5",
						"type": "t_mapping(t_bytes32,t_address)"
					},
					{
						"astId": 1221,
						"contract": "griffins/backend/contracts/oracleContract.sol:FetchFromArray",
						"label": "s_owner",
						"offset": 0,
						"slot": "6",
						"type": "t_address"
					},
					{
						"astId": 1223,
						"contract": "griffins/backend/contracts/oracleContract.sol:FetchFromArray",
						"label": "s_pendingOwner",
						"offset": 0,
						"slot": "7",
						"type": "t_address"
					},
					{
						"astId": 14,
						"contract": "griffins/backend/contracts/oracleContract.sol:FetchFromArray",
						"label": "stockPrice",
						"offset": 0,
						"slot": "8",
						"type": "t_uint256"
					},
					{
						"astId": 16,
						"contract": "griffins/backend/contracts/oracleContract.sol:FetchFromArray",
						"label": "selectedAmount",
						"offset": 0,
						"slot": "9",
						"type": "t_uint256"
					},
					{
						"astId": 18,
						"contract": "griffins/backend/contracts/oracleContract.sol:FetchFromArray",
						"label": "convertedCurrency",
						"offset": 0,
						"slot": "10",
						"type": "t_uint256"
					},
					{
						"astId": 20,
						"contract": "griffins/backend/contracts/oracleContract.sol:FetchFromArray",
						"label": "stockCurrency",
						"offset": 0,
						"slot": "11",
						"type": "t_string_storage"
					},
					{
						"astId": 22,
						"contract": "griffins/backend/contracts/oracleContract.sol:FetchFromArray",
						"label": "jobId",
						"offset": 0,
						"slot": "12",
						"type": "t_bytes32"
					},
					{
						"astId": 24,
						"contract": "griffins/backend/contracts/oracleContract.sol:FetchFromArray",
						"label": "fee",
						"offset": 0,
						"slot": "13",
						"type": "t_uint256"
					}
				],
				"types": {
					"t_address": {
						"encoding": "inplace",
						"label": "address",
						"numberOfBytes": "20"
					},
					"t_bytes32": {
						"encoding": "inplace",
						"label": "bytes32",
						"numberOfBytes": "32"
					},
					"t_contract(ENSInterface)1488": {
						"encoding": "inplace",
						"label": "contract ENSInterface",
						"numberOfBytes": "20"
					},
					"t_contract(LinkTokenInterface)1583": {
						"encoding": "inplace",
						"label": "contract LinkTokenInterface",
						"numberOfBytes": "20"
					},
					"t_contract(OperatorInterface)1663": {
						"encoding": "inplace",
						"label": "contract OperatorInterface",
						"numberOfBytes": "20"
					},
					"t_mapping(t_bytes32,t_address)": {
						"encoding": "mapping",
						"key": "t_bytes32",
						"label": "mapping(bytes32 => address)",
						"numberOfBytes": "32",
						"value": "t_address"
					},
					"t_string_storage": {
						"encoding": "bytes",
						"label": "string",
						"numberOfBytes": "32"
					},
					"t_uint256": {
						"encoding": "inplace",
						"label": "uint256",
						"numberOfBytes": "32"
					}
				}
			},
			"userdoc": {
				"kind": "user",
				"methods": {
					"acceptOwnership()": {
						"notice": "Allows an ownership transfer to be completed by the recipient."
					},
					"owner()": {
						"notice": "Get the current owner"
					},
					"transferOwnership(address)": {
						"notice": "Allows an owner to begin transferring ownership to a new address, pending."
					}
				},
				"version": 1
			}
		}
	}
}